{
  "contractName": "ERC721",
  "abi": [
    {
      "inputs": [
        {
          "internalType": "string",
          "name": "name_",
          "type": "string"
        },
        {
          "internalType": "string",
          "name": "symbol_",
          "type": "string"
        }
      ],
      "stateMutability": "nonpayable",
      "type": "constructor"
    },
    {
      "anonymous": false,
      "inputs": [
        {
          "indexed": true,
          "internalType": "address",
          "name": "owner",
          "type": "address"
        },
        {
          "indexed": true,
          "internalType": "address",
          "name": "approved",
          "type": "address"
        },
        {
          "indexed": true,
          "internalType": "uint256",
          "name": "tokenId",
          "type": "uint256"
        }
      ],
      "name": "Approval",
      "type": "event"
    },
    {
      "anonymous": false,
      "inputs": [
        {
          "indexed": true,
          "internalType": "address",
          "name": "owner",
          "type": "address"
        },
        {
          "indexed": true,
          "internalType": "address",
          "name": "operator",
          "type": "address"
        },
        {
          "indexed": false,
          "internalType": "bool",
          "name": "approved",
          "type": "bool"
        }
      ],
      "name": "ApprovalForAll",
      "type": "event"
    },
    {
      "anonymous": false,
      "inputs": [
        {
          "indexed": true,
          "internalType": "address",
          "name": "from",
          "type": "address"
        },
        {
          "indexed": true,
          "internalType": "address",
          "name": "to",
          "type": "address"
        },
        {
          "indexed": true,
          "internalType": "uint256",
          "name": "tokenId",
          "type": "uint256"
        }
      ],
      "name": "Transfer",
      "type": "event"
    },
    {
      "inputs": [
        {
          "internalType": "address",
          "name": "owner",
          "type": "address"
        }
      ],
      "name": "balanceOf",
      "outputs": [
        {
          "internalType": "uint256",
          "name": "",
          "type": "uint256"
        }
      ],
      "stateMutability": "view",
      "type": "function"
    },
    {
      "inputs": [
        {
          "internalType": "uint256",
          "name": "tokenId",
          "type": "uint256"
        }
      ],
      "name": "ownerOf",
      "outputs": [
        {
          "internalType": "address",
          "name": "",
          "type": "address"
        }
      ],
      "stateMutability": "view",
      "type": "function"
    },
    {
      "inputs": [],
      "name": "name",
      "outputs": [
        {
          "internalType": "string",
          "name": "",
          "type": "string"
        }
      ],
      "stateMutability": "view",
      "type": "function"
    },
    {
      "inputs": [],
      "name": "symbol",
      "outputs": [
        {
          "internalType": "string",
          "name": "",
          "type": "string"
        }
      ],
      "stateMutability": "view",
      "type": "function"
    },
    {
      "inputs": [
        {
          "internalType": "uint256",
          "name": "tokenId",
          "type": "uint256"
        }
      ],
      "name": "tokenURI",
      "outputs": [
        {
          "internalType": "string",
          "name": "",
          "type": "string"
        }
      ],
      "stateMutability": "view",
      "type": "function"
    },
    {
      "inputs": [],
      "name": "baseURI",
      "outputs": [
        {
          "internalType": "string",
          "name": "",
          "type": "string"
        }
      ],
      "stateMutability": "view",
      "type": "function"
    },
    {
      "inputs": [],
      "name": "totalSupply",
      "outputs": [
        {
          "internalType": "uint256",
          "name": "",
          "type": "uint256"
        }
      ],
      "stateMutability": "view",
      "type": "function"
    },
    {
      "inputs": [
        {
          "internalType": "uint256",
          "name": "index",
          "type": "uint256"
        }
      ],
      "name": "tokenByIndex",
      "outputs": [
        {
          "internalType": "uint256",
          "name": "",
          "type": "uint256"
        }
      ],
      "stateMutability": "view",
      "type": "function"
    },
    {
      "inputs": [
        {
          "internalType": "address",
          "name": "to",
          "type": "address"
        },
        {
          "internalType": "uint256",
          "name": "tokenId",
          "type": "uint256"
        }
      ],
      "name": "approve",
      "outputs": [],
      "stateMutability": "nonpayable",
      "type": "function"
    },
    {
      "inputs": [
        {
          "internalType": "uint256",
          "name": "tokenId",
          "type": "uint256"
        }
      ],
      "name": "getApproved",
      "outputs": [
        {
          "internalType": "address",
          "name": "",
          "type": "address"
        }
      ],
      "stateMutability": "view",
      "type": "function"
    },
    {
      "inputs": [
        {
          "internalType": "address",
          "name": "operator",
          "type": "address"
        },
        {
          "internalType": "bool",
          "name": "approved",
          "type": "bool"
        }
      ],
      "name": "setApprovalForAll",
      "outputs": [],
      "stateMutability": "nonpayable",
      "type": "function"
    },
    {
      "inputs": [
        {
          "internalType": "address",
          "name": "owner",
          "type": "address"
        },
        {
          "internalType": "address",
          "name": "operator",
          "type": "address"
        }
      ],
      "name": "isApprovedForAll",
      "outputs": [
        {
          "internalType": "bool",
          "name": "",
          "type": "bool"
        }
      ],
      "stateMutability": "view",
      "type": "function"
    },
    {
      "inputs": [
        {
          "internalType": "address",
          "name": "from",
          "type": "address"
        },
        {
          "internalType": "address",
          "name": "to",
          "type": "address"
        },
        {
          "internalType": "uint256",
          "name": "tokenId",
          "type": "uint256"
        }
      ],
      "name": "transferFrom",
      "outputs": [],
      "stateMutability": "nonpayable",
      "type": "function"
    },
    {
      "inputs": [
        {
          "internalType": "address",
          "name": "from",
          "type": "address"
        },
        {
          "internalType": "address",
          "name": "to",
          "type": "address"
        },
        {
          "internalType": "uint256",
          "name": "tokenId",
          "type": "uint256"
        }
      ],
      "name": "safeTransferFrom",
      "outputs": [],
      "stateMutability": "nonpayable",
      "type": "function"
    },
    {
      "inputs": [
        {
          "internalType": "address",
          "name": "from",
          "type": "address"
        },
        {
          "internalType": "address",
          "name": "to",
          "type": "address"
        },
        {
          "internalType": "uint256",
          "name": "tokenId",
          "type": "uint256"
        },
        {
          "internalType": "bytes",
          "name": "_data",
          "type": "bytes"
        }
      ],
      "name": "safeTransferFrom",
      "outputs": [],
      "stateMutability": "nonpayable",
      "type": "function"
    },
    {
      "inputs": [
        {
          "internalType": "address",
          "name": "owner",
          "type": "address"
        }
      ],
      "name": "getOwnerTokens",
      "outputs": [
        {
          "internalType": "uint256[]",
          "name": "",
          "type": "uint256[]"
        }
      ],
      "stateMutability": "nonpayable",
      "type": "function"
    }
  ],
  "bytecode": "0x60806040523480156200001157600080fd5b50604051620025e5380380620025e5833981810160405281019062000037919062000193565b81600690805190602001906200004f92919062000071565b5080600790805190602001906200006892919062000071565b50505062000337565b8280546200007f90620002a3565b90600052602060002090601f016020900481019282620000a35760008555620000ef565b82601f10620000be57805160ff1916838001178555620000ef565b82800160010185558215620000ef579182015b82811115620000ee578251825591602001919060010190620000d1565b5b509050620000fe919062000102565b5090565b5b808211156200011d57600081600090555060010162000103565b5090565b60006200013862000132846200023a565b62000206565b9050828152602081018484840111156200015157600080fd5b6200015e8482856200026d565b509392505050565b600082601f8301126200017857600080fd5b81516200018a84826020860162000121565b91505092915050565b60008060408385031215620001a757600080fd5b600083015167ffffffffffffffff811115620001c257600080fd5b620001d08582860162000166565b925050602083015167ffffffffffffffff811115620001ee57600080fd5b620001fc8582860162000166565b9150509250929050565b6000604051905081810181811067ffffffffffffffff8211171562000230576200022f62000308565b5b8060405250919050565b600067ffffffffffffffff82111562000258576200025762000308565b5b601f19601f8301169050602081019050919050565b60005b838110156200028d57808201518184015260208101905062000270565b838111156200029d576000848401525b50505050565b60006002820490506001821680620002bc57607f821691505b60208210811415620002d357620002d2620002d9565b5b50919050565b7f4e487b7100000000000000000000000000000000000000000000000000000000600052602260045260246000fd5b7f4e487b7100000000000000000000000000000000000000000000000000000000600052604160045260246000fd5b61229e80620003476000396000f3fe608060405234801561001057600080fd5b50600436106101005760003560e01c80636c0360eb11610097578063b88d4fde11610066578063b88d4fde146102ad578063c87b56dd146102c9578063d63d4af0146102f9578063e985e9c51461032957610100565b80636c0360eb1461022557806370a082311461024357806395d89b4114610273578063a22cb4651461029157610100565b806323b872dd116100d357806323b872dd1461018d57806342842e0e146101a95780634f6ccce7146101c55780636352211e146101f557610100565b806306fdde0314610105578063081812fc14610123578063095ea7b31461015357806318160ddd1461016f575b600080fd5b61010d610359565b60405161011a9190611dfb565b60405180910390f35b61013d6004803603810190610138919061188b565b6103eb565b60405161014a9190611da3565b60405180910390f35b61016d6004803603810190610168919061184f565b610470565b005b610177610588565b6040516101849190611f3d565b60405180910390f35b6101a760048036038101906101a29190611749565b610599565b005b6101c360048036038101906101be9190611749565b6105f9565b005b6101df60048036038101906101da919061188b565b610619565b6040516101ec9190611f3d565b60405180910390f35b61020f600480360381019061020a919061188b565b61063c565b60405161021c9190611da3565b60405180910390f35b61022d610673565b60405161023a9190611dfb565b60405180910390f35b61025d600480360381019061025891906116e4565b610705565b60405161026a9190611f3d565b60405180910390f35b61027b6107c3565b6040516102889190611dfb565b60405180910390f35b6102ab60048036038101906102a69190611813565b610855565b005b6102c760048036038101906102c29190611798565b6109d6565b005b6102e360048036038101906102de919061188b565b610a38565b6040516102f09190611dfb565b60405180910390f35b610313600480360381019061030e91906116e4565b610ba3565b6040516103209190611dbe565b60405180910390f35b610343600480360381019061033e919061170d565b610d20565b6040516103509190611de0565b60405180910390f35b606060068054610368906120d7565b80601f0160208091040260200160405190810160405280929190818152602001828054610394906120d7565b80156103e15780601f106103b6576101008083540402835291602001916103e1565b820191906000526020600020905b8154815290600101906020018083116103c457829003601f168201915b5050505050905090565b60006103f682610db4565b610435576040517f08c379a000000000000000000000000000000000000000000000000000000000815260040161042c90611ebd565b60405180910390fd5b6004600083815260200190815260200160002060009054906101000a900473ffffffffffffffffffffffffffffffffffffffff169050919050565b600061047b8261063c565b90508073ffffffffffffffffffffffffffffffffffffffff168373ffffffffffffffffffffffffffffffffffffffff1614156104ec576040517f08c379a00000000000000000000000000000000000000000000000000000000081526004016104e390611efd565b60405180910390fd5b8073ffffffffffffffffffffffffffffffffffffffff1661050b610dd1565b73ffffffffffffffffffffffffffffffffffffffff16148061053a575061053981610534610dd1565b610d20565b5b610579576040517f08c379a000000000000000000000000000000000000000000000000000000000815260040161057090611e7d565b60405180910390fd5b6105838383610dd9565b505050565b60006105946001610e92565b905090565b6105aa6105a4610dd1565b82610ea7565b6105e9576040517f08c379a00000000000000000000000000000000000000000000000000000000081526004016105e090611f1d565b60405180910390fd5b6105f4838383610f85565b505050565b610614838383604051806020016040528060008152506109d6565b505050565b60008061063083600161112490919063ffffffff16565b50905080915050919050565b600061066c826040518060600160405280602981526020016122406029913960016111509092919063ffffffff16565b9050919050565b606060098054610682906120d7565b80601f01602080910402602001604051908101604052809291908181526020018280546106ae906120d7565b80156106fb5780601f106106d0576101008083540402835291602001916106fb565b820191906000526020600020905b8154815290600101906020018083116106de57829003601f168201915b5050505050905090565b60008073ffffffffffffffffffffffffffffffffffffffff168273ffffffffffffffffffffffffffffffffffffffff161415610776576040517f08c379a000000000000000000000000000000000000000000000000000000000815260040161076d90611e9d565b60405180910390fd5b6107bc6000808473ffffffffffffffffffffffffffffffffffffffff1673ffffffffffffffffffffffffffffffffffffffff16815260200190815260200160002061116f565b9050919050565b6060600780546107d2906120d7565b80601f01602080910402602001604051908101604052809291908181526020018280546107fe906120d7565b801561084b5780601f106108205761010080835404028352916020019161084b565b820191906000526020600020905b81548152906001019060200180831161082e57829003601f168201915b5050505050905090565b61085d610dd1565b73ffffffffffffffffffffffffffffffffffffffff168273ffffffffffffffffffffffffffffffffffffffff1614156108cb576040517f08c379a00000000000000000000000000000000000000000000000000000000081526004016108c290611e3d565b60405180910390fd5b80600560006108d8610dd1565b73ffffffffffffffffffffffffffffffffffffffff1673ffffffffffffffffffffffffffffffffffffffff16815260200190815260200160002060008473ffffffffffffffffffffffffffffffffffffffff1673ffffffffffffffffffffffffffffffffffffffff16815260200190815260200160002060006101000a81548160ff0219169083151502179055508173ffffffffffffffffffffffffffffffffffffffff16610985610dd1565b73ffffffffffffffffffffffffffffffffffffffff167f17307eab39ab6107e8899845ad3d59bd9653f200f220920489ca2b5937696c31836040516109ca9190611de0565b60405180910390a35050565b6109e76109e1610dd1565b83610ea7565b610a26576040517f08c379a0000000000000000000000000000000000000000000000000000000008152600401610a1d90611f1d565b60405180910390fd5b610a3284848484611184565b50505050565b6060610a4382610db4565b610a82576040517f08c379a0000000000000000000000000000000000000000000000000000000008152600401610a7990611edd565b60405180910390fd5b6000600860008481526020019081526020016000208054610aa2906120d7565b80601f0160208091040260200160405190810160405280929190818152602001828054610ace906120d7565b8015610b1b5780601f10610af057610100808354040283529160200191610b1b565b820191906000526020600020905b815481529060010190602001808311610afe57829003601f168201915b505050505090506000610b2c610673565b9050600081511415610b42578192505050610b9e565b600082511115610b77578082604051602001610b5f929190611d57565b60405160208183030381529060405292505050610b9e565b8084604051602001610b8a929190611d7b565b604051602081830303815290604052925050505b919050565b60606000610bed6000808573ffffffffffffffffffffffffffffffffffffffff1673ffffffffffffffffffffffffffffffffffffffff16815260200190815260200160002061116f565b905060008167ffffffffffffffff811115610c31577f4e487b7100000000000000000000000000000000000000000000000000000000600052604160045260246000fd5b604051908082528060200260200182016040528015610c5f5781602001602082028036833780820191505090505b50905060005b82811015610d1557610cbd816000808873ffffffffffffffffffffffffffffffffffffffff1673ffffffffffffffffffffffffffffffffffffffff16815260200190815260200160002061119590919063ffffffff16565b828281518110610cf6577f4e487b7100000000000000000000000000000000000000000000000000000000600052603260045260246000fd5b6020026020010181815250508080610d0d90612109565b915050610c65565b508092505050919050565b6000600560008473ffffffffffffffffffffffffffffffffffffffff1673ffffffffffffffffffffffffffffffffffffffff16815260200190815260200160002060008373ffffffffffffffffffffffffffffffffffffffff1673ffffffffffffffffffffffffffffffffffffffff16815260200190815260200160002060009054906101000a900460ff16905092915050565b6000610dca8260016111af90919063ffffffff16565b9050919050565b600033905090565b816004600083815260200190815260200160002060006101000a81548173ffffffffffffffffffffffffffffffffffffffff021916908373ffffffffffffffffffffffffffffffffffffffff160217905550808273ffffffffffffffffffffffffffffffffffffffff16610e4c8361063c565b73ffffffffffffffffffffffffffffffffffffffff167f8c5be1e5ebec7d5bd14f71427d1e84f3dd0314c0f7b2291e5b200ac8c7c3b92560405160405180910390a45050565b6000610ea0826000016111c9565b9050919050565b6000610eb282610db4565b610ef1576040517f08c379a0000000000000000000000000000000000000000000000000000000008152600401610ee890611e5d565b60405180910390fd5b6000610efc8361063c565b90508073ffffffffffffffffffffffffffffffffffffffff168473ffffffffffffffffffffffffffffffffffffffff161480610f6b57508373ffffffffffffffffffffffffffffffffffffffff16610f53846103eb565b73ffffffffffffffffffffffffffffffffffffffff16145b80610f7c5750610f7b8185610d20565b5b91505092915050565b600073ffffffffffffffffffffffffffffffffffffffff168273ffffffffffffffffffffffffffffffffffffffff161415610ff5576040517f08c379a0000000000000000000000000000000000000000000000000000000008152600401610fec90611e1d565b60405180910390fd5b6110008383836111de565b61100b600082610dd9565b61105b816000808673ffffffffffffffffffffffffffffffffffffffff1673ffffffffffffffffffffffffffffffffffffffff1681526020019081526020016000206111e390919063ffffffff16565b506110ac816000808573ffffffffffffffffffffffffffffffffffffffff1673ffffffffffffffffffffffffffffffffffffffff1681526020019081526020016000206111fd90919063ffffffff16565b506110c3818360016112179092919063ffffffff16565b50808273ffffffffffffffffffffffffffffffffffffffff168473ffffffffffffffffffffffffffffffffffffffff167fddf252ad1be2c89b69c2b068fc378daa952ba7f163c4a11628f55a4df523b3ef60405160405180910390a4505050565b600080600080611137866000018661124c565b915091508160001c8160001c9350935050509250929050565b6000611163846000018460001b8461128c565b60001c90509392505050565b600061117d8260000161130d565b9050919050565b61118f848484610f85565b50505050565b60006111a4836000018361131e565b60001c905092915050565b60006111c1836000018360001b61136f565b905092915050565b60006111d78260000161138f565b9050919050565b505050565b60006111f5836000018360001b6113a4565b905092915050565b600061120f836000018360001b61152a565b905092915050565b6000611243846000018460001b8473ffffffffffffffffffffffffffffffffffffffff1660001b61159a565b90509392505050565b600080600061126784866000016115d590919063ffffffff16565b9050808560020160008381526020019081526020016000205492509250509250929050565b6000808460020160008581526020019081526020016000205490506000801b811415806112bf57506112be858561136f565b5b8390611301576040517f08c379a00000000000000000000000000000000000000000000000000000000081526004016112f89190611dfb565b60405180910390fd5b50809150509392505050565b600081600001805490509050919050565b600082600001828154811061135c577f4e487b7100000000000000000000000000000000000000000000000000000000600052603260045260246000fd5b9060005260206000200154905092915050565b600061138782846000016115ec90919063ffffffff16565b905092915050565b600061139d8260000161130d565b9050919050565b6000808360010160008481526020019081526020016000205490506000811461151e5760006001826113d69190612019565b90506000600186600001805490506113ee9190612019565b90508181146114a9576000866000018281548110611435577f4e487b7100000000000000000000000000000000000000000000000000000000600052603260045260246000fd5b906000526020600020015490508087600001848154811061147f577f4e487b7100000000000000000000000000000000000000000000000000000000600052603260045260246000fd5b90600052602060002001819055508387600101600083815260200190815260200160002081905550505b856000018054806114e3577f4e487b7100000000000000000000000000000000000000000000000000000000600052603160045260246000fd5b600190038181906000526020600020016000905590558560010160008681526020019081526020016000206000905560019350505050611524565b60009150505b92915050565b60006115368383611603565b61158f578260000182908060018154018082558091505060019003906000526020600020016000909190919091505582600001805490508360010160008481526020019081526020016000208190555060019050611594565b600090505b92915050565b600081846002016000858152602001908152602001600020819055506115cc838560000161162690919063ffffffff16565b90509392505050565b60006115e4836000018361131e565b905092915050565b60006115fb8360000183611603565b905092915050565b600080836001016000848152602001908152602001600020541415905092915050565b6000611635836000018361152a565b905092915050565b600061165061164b84611f89565b611f58565b90508281526020810184848401111561166857600080fd5b611673848285612095565b509392505050565b60008135905061168a816121fa565b92915050565b60008135905061169f81612211565b92915050565b600082601f8301126116b657600080fd5b81356116c684826020860161163d565b91505092915050565b6000813590506116de81612228565b92915050565b6000602082840312156116f657600080fd5b60006117048482850161167b565b91505092915050565b6000806040838503121561172057600080fd5b600061172e8582860161167b565b925050602061173f8582860161167b565b9150509250929050565b60008060006060848603121561175e57600080fd5b600061176c8682870161167b565b935050602061177d8682870161167b565b925050604061178e868287016116cf565b9150509250925092565b600080600080608085870312156117ae57600080fd5b60006117bc8782880161167b565b94505060206117cd8782880161167b565b93505060406117de878288016116cf565b925050606085013567ffffffffffffffff8111156117fb57600080fd5b611807878288016116a5565b91505092959194509250565b6000806040838503121561182657600080fd5b60006118348582860161167b565b925050602061184585828601611690565b9150509250929050565b6000806040838503121561186257600080fd5b60006118708582860161167b565b9250506020611881858286016116cf565b9150509250929050565b60006020828403121561189d57600080fd5b60006118ab848285016116cf565b91505092915050565b60006118c08383611d22565b60208301905092915050565b6118d58161204d565b82525050565b60006118e682611fc9565b6118f08185611fec565b93506118fb83611fb9565b8060005b8381101561192c57815161191388826118b4565b975061191e83611fdf565b9250506001810190506118ff565b5085935050505092915050565b6119428161205f565b82525050565b600061195382611fd4565b61195d8185611ffd565b935061196d8185602086016120a4565b611976816121e9565b840191505092915050565b600061198c82611fd4565b611996818561200e565b93506119a68185602086016120a4565b80840191505092915050565b60006119bf602483611ffd565b91507f4552433732313a207472616e7366657220746f20746865207a65726f2061646460008301527f72657373000000000000000000000000000000000000000000000000000000006020830152604082019050919050565b6000611a25601983611ffd565b91507f4552433732313a20617070726f766520746f2063616c6c6572000000000000006000830152602082019050919050565b6000611a65602c83611ffd565b91507f4552433732313a206f70657261746f7220717565727920666f72206e6f6e657860008301527f697374656e7420746f6b656e00000000000000000000000000000000000000006020830152604082019050919050565b6000611acb603883611ffd565b91507f4552433732313a20617070726f76652063616c6c6572206973206e6f74206f7760008301527f6e6572206e6f7220617070726f76656420666f7220616c6c00000000000000006020830152604082019050919050565b6000611b31602a83611ffd565b91507f4552433732313a2062616c616e636520717565727920666f7220746865207a6560008301527f726f2061646472657373000000000000000000000000000000000000000000006020830152604082019050919050565b6000611b97602c83611ffd565b91507f4552433732313a20617070726f76656420717565727920666f72206e6f6e657860008301527f697374656e7420746f6b656e00000000000000000000000000000000000000006020830152604082019050919050565b6000611bfd602f83611ffd565b91507f4552433732314d657461646174613a2055524920717565727920666f72206e6f60008301527f6e6578697374656e7420746f6b656e00000000000000000000000000000000006020830152604082019050919050565b6000611c63602183611ffd565b91507f4552433732313a20617070726f76616c20746f2063757272656e74206f776e6560008301527f72000000000000000000000000000000000000000000000000000000000000006020830152604082019050919050565b6000611cc9603183611ffd565b91507f4552433732313a207472616e736665722063616c6c6572206973206e6f74206f60008301527f776e6572206e6f7220617070726f7665640000000000000000000000000000006020830152604082019050919050565b611d2b8161208b565b82525050565b611d3a8161208b565b82525050565b611d51611d4c8261208b565b612152565b82525050565b6000611d638285611981565b9150611d6f8284611981565b91508190509392505050565b6000611d878285611981565b9150611d938284611d40565b6020820191508190509392505050565b6000602082019050611db860008301846118cc565b92915050565b60006020820190508181036000830152611dd881846118db565b905092915050565b6000602082019050611df56000830184611939565b92915050565b60006020820190508181036000830152611e158184611948565b905092915050565b60006020820190508181036000830152611e36816119b2565b9050919050565b60006020820190508181036000830152611e5681611a18565b9050919050565b60006020820190508181036000830152611e7681611a58565b9050919050565b60006020820190508181036000830152611e9681611abe565b9050919050565b60006020820190508181036000830152611eb681611b24565b9050919050565b60006020820190508181036000830152611ed681611b8a565b9050919050565b60006020820190508181036000830152611ef681611bf0565b9050919050565b60006020820190508181036000830152611f1681611c56565b9050919050565b60006020820190508181036000830152611f3681611cbc565b9050919050565b6000602082019050611f526000830184611d31565b92915050565b6000604051905081810181811067ffffffffffffffff82111715611f7f57611f7e6121ba565b5b8060405250919050565b600067ffffffffffffffff821115611fa457611fa36121ba565b5b601f19601f8301169050602081019050919050565b6000819050602082019050919050565b600081519050919050565b600081519050919050565b6000602082019050919050565b600082825260208201905092915050565b600082825260208201905092915050565b600081905092915050565b60006120248261208b565b915061202f8361208b565b9250828210156120425761204161215c565b5b828203905092915050565b60006120588261206b565b9050919050565b60008115159050919050565b600073ffffffffffffffffffffffffffffffffffffffff82169050919050565b6000819050919050565b82818337600083830152505050565b60005b838110156120c25780820151818401526020810190506120a7565b838111156120d1576000848401525b50505050565b600060028204905060018216806120ef57607f821691505b602082108114156121035761210261218b565b5b50919050565b60006121148261208b565b91507fffffffffffffffffffffffffffffffffffffffffffffffffffffffffffffffff8214156121475761214661215c565b5b600182019050919050565b6000819050919050565b7f4e487b7100000000000000000000000000000000000000000000000000000000600052601160045260246000fd5b7f4e487b7100000000000000000000000000000000000000000000000000000000600052602260045260246000fd5b7f4e487b7100000000000000000000000000000000000000000000000000000000600052604160045260246000fd5b6000601f19601f8301169050919050565b6122038161204d565b811461220e57600080fd5b50565b61221a8161205f565b811461222557600080fd5b50565b6122318161208b565b811461223c57600080fd5b5056fe4552433732313a206f776e657220717565727920666f72206e6f6e6578697374656e7420746f6b656ea2646970667358221220697382bbb4cdb38d62ce31df91cdf7401417ce84c378d4bf1c7bbe4c48c9453364736f6c63430008000033",
  "immutableReferences": {},
  "source": "pragma solidity ^0.8.0;\r\n\r\nimport \"./Utils.sol\";\r\nimport \"./IERC721.sol\";\r\nimport \"@openzeppelin/contracts/utils/structs/EnumerableSet.sol\";\r\nimport \"@openzeppelin/contracts/utils/structs/EnumerableMap.sol\";\r\n\r\n\r\n/**\r\n * @title ERC721 Non-Fungible Token Standard basic implementation\r\n * @dev see https://eips.ethereum.org/EIPS/eip-721\r\n */\r\ncontract ERC721 is Context, IERC721 {\r\n\r\n    using SafeMath for uint256;\r\n    using EnumerableSet for EnumerableSet.UintSet;\r\n    using EnumerableMap for EnumerableMap.UintToAddressMap;\r\n\r\n    // Mapping from holder address to their (enumerable) set of owned tokens\r\n    mapping(address => EnumerableSet.UintSet) private _holderTokens;\r\n\r\n    // Enumerable mapping from token ids to their owners\r\n    EnumerableMap.UintToAddressMap private _tokenOwners;\r\n\r\n    // Mapping from token ID to approved address\r\n    mapping(uint256 => address) private _tokenApprovals;\r\n\r\n    // Mapping from owner to operator approvals\r\n    mapping(address => mapping(address => bool)) private _operatorApprovals;\r\n\r\n    // Token name\r\n    string private _name;\r\n\r\n    // Token symbol\r\n    string private _symbol;\r\n\r\n    // Optional mapping for token URIs\r\n    mapping(uint256 => string) private _tokenURIs;\r\n\r\n    // Base URI\r\n    string private _baseURI;\r\n\r\n    /**\r\n     * @dev Initializes the contract by setting a `name` and a `symbol` to the token collection.\r\n     */\r\n    constructor(\r\n        string memory name_,\r\n        string memory symbol_\r\n    ) {\r\n        _name = name_;\r\n        _symbol = symbol_;\r\n    }\r\n\r\n    /**\r\n     * @dev See {IERC721-balanceOf}.\r\n     */\r\n    function balanceOf(address owner)\r\n        public\r\n        view\r\n        virtual\r\n        override\r\n        returns (uint256)\r\n    {\r\n        require(\r\n            owner != address(0),\r\n            \"ERC721: balance query for the zero address\"\r\n        );\r\n        return _holderTokens[owner].length();\r\n    }\r\n\r\n    /**\r\n     * @dev See {IERC721-ownerOf}.\r\n     */\r\n    function ownerOf(uint256 tokenId)\r\n        public\r\n        view\r\n        virtual\r\n        override\r\n        returns (address)\r\n    {\r\n        return\r\n            _tokenOwners.get(\r\n                tokenId,\r\n                \"ERC721: owner query for nonexistent token\"\r\n            );\r\n    }\r\n\r\n    /**\r\n     * @dev See {IERC721Metadata-name}.\r\n     */\r\n    function name() public view virtual returns (string memory) {\r\n        return _name;\r\n    }\r\n\r\n    /**\r\n     * @dev See {IERC721Metadata-symbol}.\r\n     */\r\n    function symbol() public view virtual returns (string memory) {\r\n        return _symbol;\r\n    }\r\n\r\n    /**\r\n     * @dev See {IERC721Metadata-tokenURI}.\r\n     */\r\n    function tokenURI(uint256 tokenId)\r\n        public\r\n        view\r\n        virtual\r\n        returns (string memory)\r\n    {\r\n        require(\r\n            _exists(tokenId),\r\n            \"ERC721Metadata: URI query for nonexistent token\"\r\n        );\r\n\r\n        string memory _tokenURI = _tokenURIs[tokenId];\r\n        string memory base = baseURI();\r\n\r\n        // If there is no base URI, return the token URI.\r\n        if (bytes(base).length == 0) {\r\n            return _tokenURI;\r\n        }\r\n        // If both are set, concatenate the baseURI and tokenURI (via abi.encodePacked).\r\n        if (bytes(_tokenURI).length > 0) {\r\n            return string(abi.encodePacked(base, _tokenURI));\r\n        }\r\n        // If there is a baseURI but no tokenURI, concatenate the tokenID to the baseURI.\r\n        return string(abi.encodePacked(base, tokenId));\r\n    }\r\n\r\n    /**\r\n     * @dev Returns the base URI set via {_setBaseURI}. This will be\r\n     * automatically added as a prefix in {tokenURI} to each token's URI, or\r\n     * to the token ID if no specific URI is set for that token ID.\r\n     */\r\n    function baseURI() public view virtual returns (string memory) {\r\n        return _baseURI;\r\n    }\r\n\r\n    /**\r\n     * @dev See {IERC721Enumerable-totalSupply}.\r\n     */\r\n    function totalSupply() public view virtual returns (uint256) {\r\n        // _tokenOwners are indexed by tokenIds, so .length() returns the number of tokenIds\r\n        return _tokenOwners.length();\r\n    }\r\n\r\n    /**\r\n     * @dev See {IERC721Enumerable-tokenByIndex}.\r\n     */\r\n    function tokenByIndex(uint256 index)\r\n        public\r\n        view\r\n        virtual\r\n        returns (uint256)\r\n    {\r\n        (uint256 tokenId, ) = _tokenOwners.at(index);\r\n        return tokenId;\r\n    }\r\n\r\n    /**\r\n     * @dev See {IERC721-approve}.\r\n     */\r\n    function approve(address to, uint256 tokenId) public virtual override {\r\n        address owner = ERC721.ownerOf(tokenId);\r\n        require(to != owner, \"ERC721: approval to current owner\");\r\n\r\n        require(\r\n            _msgSender() == owner || isApprovedForAll(owner, _msgSender()),\r\n            \"ERC721: approve caller is not owner nor approved for all\"\r\n        );\r\n\r\n        _approve(to, tokenId);\r\n    }\r\n\r\n    /**\r\n     * @dev See {IERC721-getApproved}.\r\n     */\r\n    function getApproved(uint256 tokenId)\r\n        public\r\n        view\r\n        virtual\r\n        override\r\n        returns (address)\r\n    {\r\n        require(\r\n            _exists(tokenId),\r\n            \"ERC721: approved query for nonexistent token\"\r\n        );\r\n\r\n        return _tokenApprovals[tokenId];\r\n    }\r\n\r\n    /**\r\n     * @dev See {IERC721-setApprovalForAll}.\r\n     */\r\n    function setApprovalForAll(address operator, bool approved)\r\n        public\r\n        virtual\r\n        override\r\n    {\r\n        require(operator != _msgSender(), \"ERC721: approve to caller\");\r\n\r\n        _operatorApprovals[_msgSender()][operator] = approved;\r\n        emit ApprovalForAll(_msgSender(), operator, approved);\r\n    }\r\n\r\n    /**\r\n     * @dev See {IERC721-isApprovedForAll}.\r\n     */\r\n    function isApprovedForAll(address owner, address operator)\r\n        public\r\n        view\r\n        virtual\r\n        override\r\n        returns (bool)\r\n    {\r\n        return _operatorApprovals[owner][operator];\r\n    }\r\n\r\n    /**\r\n     * @dev See {IERC721-transferFrom}.\r\n     */\r\n    function transferFrom(\r\n        address from,\r\n        address to,\r\n        uint256 tokenId\r\n    ) public virtual override {\r\n        //solhint-disable-next-line max-line-length\r\n        require(\r\n            _isApprovedOrOwner(_msgSender(), tokenId),\r\n            \"ERC721: transfer caller is not owner nor approved\"\r\n        );\r\n\r\n        _transfer(from, to, tokenId);\r\n    }\r\n\r\n    /**\r\n     * @dev See {IERC721-safeTransferFrom}.\r\n     */\r\n    function safeTransferFrom(\r\n        address from,\r\n        address to,\r\n        uint256 tokenId\r\n    ) public virtual override {\r\n        safeTransferFrom(from, to, tokenId, \"\");\r\n    }\r\n\r\n    /**\r\n     * @dev See {IERC721-safeTransferFrom}.\r\n     */\r\n    function safeTransferFrom(\r\n        address from,\r\n        address to,\r\n        uint256 tokenId,\r\n        bytes memory _data\r\n    ) public virtual override {\r\n        require(\r\n            _isApprovedOrOwner(_msgSender(), tokenId),\r\n            \"ERC721: transfer caller is not owner nor approved\"\r\n        );\r\n        _safeTransfer(from, to, tokenId, _data);\r\n    }\r\n\r\n    /**\r\n     * @dev Safely transfers `tokenId` token from `from` to `to`, checking first that contract recipients\r\n     * are aware of the ERC721 protocol to prevent tokens from being forever locked.\r\n     *\r\n     * `_data` is additional data, it has no specified format and it is sent in call to `to`.\r\n     *\r\n     * This internal function is equivalent to {safeTransferFrom}, and can be used to e.g.\r\n     * implement alternative mechanisms to perform token transfer, such as signature-based.\r\n     *\r\n     * Requirements:\r\n     *\r\n     * - `from` cannot be the zero address.\r\n     * - `to` cannot be the zero address.\r\n     * - `tokenId` token must exist and be owned by `from`.\r\n     * - If `to` refers to a smart contract, it must implement {IERC721Receiver-onERC721Received}, which is called upon a safe transfer.\r\n     *\r\n     * Emits a {Transfer} event.\r\n     */\r\n    function _safeTransfer(\r\n        address from,\r\n        address to,\r\n        uint256 tokenId,\r\n        bytes memory _data\r\n    ) internal virtual {\r\n        _transfer(from, to, tokenId);\r\n    }\r\n\r\n    /**\r\n     * @dev Returns whether `tokenId` exists.\r\n     *\r\n     * Tokens can be managed by their owner or approved accounts via {approve} or {setApprovalForAll}.\r\n     *\r\n     * Tokens start existing when they are minted (`_mint`),\r\n     * and stop existing when they are burned (`_burn`).\r\n     */\r\n    function _exists(uint256 tokenId) internal view virtual returns (bool) {\r\n        return _tokenOwners.contains(tokenId);\r\n    }\r\n\r\n    /**\r\n     * @dev Returns whether `spender` is allowed to manage `tokenId`.\r\n     *\r\n     * Requirements:\r\n     *\r\n     * - `tokenId` must exist.\r\n     */\r\n    function _isApprovedOrOwner(address spender, uint256 tokenId)\r\n        internal\r\n        view\r\n        virtual\r\n        returns (bool)\r\n    {\r\n        require(\r\n            _exists(tokenId),\r\n            \"ERC721: operator query for nonexistent token\"\r\n        );\r\n        address owner = ERC721.ownerOf(tokenId);\r\n        return (spender == owner ||\r\n            getApproved(tokenId) == spender ||\r\n            isApprovedForAll(owner, spender));\r\n    }\r\n\r\n    /**\r\n     * @dev Safely mints `tokenId` and transfers it to `to`.\r\n     *\r\n     * Requirements:\r\n     d*\r\n     * - `tokenId` must not exist.\r\n     * - If `to` refers to a smart contract, it must implement {IERC721Receiver-onERC721Received}, which is called upon a safe transfer.\r\n     *\r\n     * Emits a {Transfer} event.\r\n     */\r\n    function _safeMint(address to, uint256 tokenId) internal virtual {\r\n        _safeMint(to, tokenId, \"\");\r\n    }\r\n\r\n    /**\r\n     * @dev Same as {xref-ERC721-_safeMint-address-uint256-}[`_safeMint`], with an additional `data` parameter which is\r\n     * forwarded in {IERC721Receiver-onERC721Received} to contract recipients.\r\n     */\r\n    function _safeMint(\r\n        address to,\r\n        uint256 tokenId,\r\n        bytes memory _data\r\n    ) internal virtual {\r\n        _mint(to, tokenId);\r\n    }\r\n\r\n    /**\r\n     * @dev Mints `tokenId` and transfers it to `to`.\r\n     *\r\n     * WARNING: Usage of this method is discouraged, use {_safeMint} whenever possible\r\n     *\r\n     * Requirements:\r\n     *\r\n     * - `tokenId` must not exist.\r\n     * - `to` cannot be the zero address.\r\n     *\r\n     * Emits a {Transfer} event.\r\n     */\r\n    function _mint(address to, uint256 tokenId) internal virtual {\r\n        require(to != address(0), \"ERC721: mint to the zero address\");\r\n        require(!_exists(tokenId), \"ERC721: token already minted\");\r\n\r\n        _beforeTokenTransfer(address(0), to, tokenId);\r\n\r\n        _holderTokens[to].add(tokenId);\r\n\r\n        _tokenOwners.set(tokenId, to);\r\n\r\n        emit Transfer(address(0), to, tokenId);\r\n    }\r\n\r\n    /**\r\n     * @dev Destroys `tokenId`.\r\n     * The approval is cleared when the token is burned.\r\n     *\r\n     * Requirements:\r\n     *\r\n     * - `tokenId` must exist.\r\n     *\r\n     * Emits a {Transfer} event.\r\n     */\r\n    function _burn(uint256 tokenId) internal virtual {\r\n        address owner = ERC721.ownerOf(tokenId); // internal owner\r\n\r\n        _beforeTokenTransfer(owner, address(0), tokenId);\r\n\r\n        // Clear approvals\r\n        _approve(address(0), tokenId);\r\n\r\n        // Clear metadata (if any)\r\n        if (bytes(_tokenURIs[tokenId]).length != 0) {\r\n            delete _tokenURIs[tokenId];\r\n        }\r\n\r\n        _holderTokens[owner].remove(tokenId);\r\n\r\n        _tokenOwners.remove(tokenId);\r\n\r\n        emit Transfer(owner, address(0), tokenId);\r\n    }\r\n\r\n    /**\r\n     * @dev Transfers `tokenId` from `from` to `to`.\r\n     *  As opposed to {transferFrom}, this imposes no restrictions on msg.sender.\r\n     *\r\n     * Requirements:\r\n     *\r\n     * - `to` cannot be the zero address.\r\n     * - `tokenId` token must be owned by `from`.\r\n     *\r\n     * Emits a {Transfer} event.\r\n     */\r\n    function _transfer(\r\n        address from,\r\n        address to,\r\n        uint256 tokenId\r\n    ) internal virtual {\r\n        // require(\r\n        //     ERC721.ownerOf(tokenId) == from,\r\n        //     \"ERC721: transfer of token that is not own\"\r\n        // ); // internal owner\r\n        require(to != address(0), \"ERC721: transfer to the zero address\");\r\n\r\n        _beforeTokenTransfer(from, to, tokenId);\r\n\r\n        // Clear approvals from the previous owner\r\n        _approve(address(0), tokenId);\r\n\r\n        _holderTokens[from].remove(tokenId);\r\n        _holderTokens[to].add(tokenId);\r\n\r\n        _tokenOwners.set(tokenId, to);\r\n\r\n        emit Transfer(from, to, tokenId);\r\n    }\r\n\r\n    /**\r\n     * @dev Sets `_tokenURI` as the tokenURI of `tokenId`.\r\n     *\r\n     * Requirements:\r\n     *\r\n     * - `tokenId` must exist.\r\n     */\r\n    function _setTokenURI(uint256 tokenId, string memory _tokenURI)\r\n        internal\r\n        virtual\r\n    {\r\n        require(\r\n            _exists(tokenId),\r\n            \"ERC721Metadata: URI set of nonexistent token\"\r\n        );\r\n        _tokenURIs[tokenId] = _tokenURI;\r\n    }\r\n\r\n    /**\r\n     * @dev Internal function to set the base URI for all token IDs. It is\r\n     * automatically added as a prefix to the value returned in {tokenURI},\r\n     * or to the token ID if {tokenURI} is empty.\r\n     */\r\n    function _setBaseURI(string memory baseURI_) internal virtual {\r\n        _baseURI = baseURI_;\r\n    }\r\n\r\n\r\n    /**\r\n     * @dev Approve `to` to operate on `tokenId`\r\n     *\r\n     * Emits an {Approval} event.\r\n     */\r\n    function _approve(address to, uint256 tokenId) internal virtual {\r\n        _tokenApprovals[tokenId] = to;\r\n        emit Approval(ERC721.ownerOf(tokenId), to, tokenId); // internal owner\r\n    }\r\n\r\n    /**\r\n     * @dev Hook that is called before any token transfer. This includes minting\r\n     * and burning.\r\n     *\r\n     * Calling conditions:\r\n     *\r\n     * - When `from` and `to` are both non-zero, ``from``'s `tokenId` will be\r\n     * transferred to `to`.\r\n     * - When `from` is zero, `tokenId` will be minted for `to`.\r\n     * - When `to` is zero, ``from``'s `tokenId` will be burned.\r\n     * - `from` cannot be the zero address.\r\n     * - `to` cannot be the zero address.\r\n     *\r\n     * To learn more about hooks, head to xref:ROOT:extending-contracts.adoc#using-hooks[Using Hooks].\r\n     */\r\n    function _beforeTokenTransfer(\r\n        address from,\r\n        address to,\r\n        uint256 tokenId\r\n    ) internal virtual {}\r\n\r\n    function getOwnerTokens(address owner) external virtual returns(uint[] memory){\r\n        uint length = _holderTokens[owner].length();\r\n        uint[] memory result = new uint[](length);\r\n        for (uint256 index = 0; index < length; index++) {\r\n             result[index] = _holderTokens[owner].at(index);\r\n        }\r\n        return result;\r\n    }\r\n}",
  "sourcePath": "C:\\workspace\\Personal\\truffle\\HeroPrime\\contracts\\ERC721.sol",
  "compiler": {
    "name": "solc",
    "version": "0.8.0+commit.c7dfd78e.Emscripten.clang"
  },
  "schemaVersion": "3.4.3",
  "updatedAt": "2021-10-08T11:32:43.728Z",
  "devdoc": {
    "details": "see https://eips.ethereum.org/EIPS/eip-721",
    "kind": "dev",
    "methods": {
      "approve(address,uint256)": {
        "details": "See {IERC721-approve}."
      },
      "balanceOf(address)": {
        "details": "See {IERC721-balanceOf}."
      },
      "baseURI()": {
        "details": "Returns the base URI set via {_setBaseURI}. This will be automatically added as a prefix in {tokenURI} to each token's URI, or to the token ID if no specific URI is set for that token ID."
      },
      "constructor": {
        "details": "Initializes the contract by setting a `name` and a `symbol` to the token collection."
      },
      "getApproved(uint256)": {
        "details": "See {IERC721-getApproved}."
      },
      "isApprovedForAll(address,address)": {
        "details": "See {IERC721-isApprovedForAll}."
      },
      "name()": {
        "details": "See {IERC721Metadata-name}."
      },
      "ownerOf(uint256)": {
        "details": "See {IERC721-ownerOf}."
      },
      "safeTransferFrom(address,address,uint256)": {
        "details": "See {IERC721-safeTransferFrom}."
      },
      "safeTransferFrom(address,address,uint256,bytes)": {
        "details": "See {IERC721-safeTransferFrom}."
      },
      "setApprovalForAll(address,bool)": {
        "details": "See {IERC721-setApprovalForAll}."
      },
      "symbol()": {
        "details": "See {IERC721Metadata-symbol}."
      },
      "tokenByIndex(uint256)": {
        "details": "See {IERC721Enumerable-tokenByIndex}."
      },
      "tokenURI(uint256)": {
        "details": "See {IERC721Metadata-tokenURI}."
      },
      "totalSupply()": {
        "details": "See {IERC721Enumerable-totalSupply}."
      },
      "transferFrom(address,address,uint256)": {
        "details": "See {IERC721-transferFrom}."
      }
    },
    "title": "ERC721 Non-Fungible Token Standard basic implementation",
    "version": 1
  },
  "userdoc": {
    "kind": "user",
    "methods": {},
    "version": 1
  }
}