{
  "contractName": "HeroPrimeEngine",
  "abi": [
    {
      "inputs": [
        {
          "internalType": "address",
          "name": "token",
          "type": "address"
        },
        {
          "internalType": "address",
          "name": "nft",
          "type": "address"
        }
      ],
      "stateMutability": "nonpayable",
      "type": "constructor"
    },
    {
      "anonymous": false,
      "inputs": [
        {
          "indexed": true,
          "internalType": "uint256",
          "name": "_tokenId",
          "type": "uint256"
        },
        {
          "indexed": false,
          "internalType": "enum HeroPrimeEngine.NormalMonsterLevel",
          "name": "monster",
          "type": "uint8"
        },
        {
          "indexed": false,
          "internalType": "address",
          "name": "user",
          "type": "address"
        },
        {
          "indexed": false,
          "internalType": "enum HeroPrimeEngine.BattleResult",
          "name": "result",
          "type": "uint8"
        }
      ],
      "name": "BattleEvent",
      "type": "event"
    },
    {
      "inputs": [
        {
          "internalType": "address",
          "name": "sender",
          "type": "address"
        },
        {
          "internalType": "uint256",
          "name": "_tokenId",
          "type": "uint256"
        },
        {
          "internalType": "uint256",
          "name": "_monsterLevelIndex",
          "type": "uint256"
        }
      ],
      "name": "battle",
      "outputs": [
        {
          "internalType": "uint256",
          "name": "result",
          "type": "uint256"
        }
      ],
      "stateMutability": "nonpayable",
      "type": "function"
    }
  ],
  "bytecode": "0x60806040523480156200001157600080fd5b5060405162001400380380620014008339818101604052810190620000379190620000d7565b806000806101000a81548173ffffffffffffffffffffffffffffffffffffffff021916908373ffffffffffffffffffffffffffffffffffffffff16021790555081600160006101000a81548173ffffffffffffffffffffffffffffffffffffffff021916908373ffffffffffffffffffffffffffffffffffffffff160217905550505062000166565b600081519050620000d1816200014c565b92915050565b60008060408385031215620000eb57600080fd5b6000620000fb85828601620000c0565b92505060206200010e85828601620000c0565b9150509250929050565b600062000125826200012c565b9050919050565b600073ffffffffffffffffffffffffffffffffffffffff82169050919050565b620001578162000118565b81146200016357600080fd5b50565b61128a80620001766000396000f3fe608060405234801561001057600080fd5b506004361061002b5760003560e01c8063c28ad2d314610030575b600080fd5b61004a60048036038101906100459190610a88565b610060565b6040516100579190610d79565b60405180910390f35b60008082600381111561009c577f4e487b7100000000000000000000000000000000000000000000000000000000600052602160045260246000fd5b90508473ffffffffffffffffffffffffffffffffffffffff1660008054906101000a900473ffffffffffffffffffffffffffffffffffffffff1673ffffffffffffffffffffffffffffffffffffffff16636352211e866040518263ffffffff1660e01b815260040161010e9190610d79565b60206040518083038186803b15801561012657600080fd5b505afa15801561013a573d6000803e3d6000fd5b505050506040513d601f19601f8201168201806040525081019061015e9190610a5f565b73ffffffffffffffffffffffffffffffffffffffff16146101b4576040517f08c379a00000000000000000000000000000000000000000000000000000000081526004016101ab90610d59565b60405180910390fd5b600060018111156101ee577f4e487b7100000000000000000000000000000000000000000000000000000000600052602160045260246000fd5b915060006101fb826104d8565b90506000826003811115610238577f4e487b7100000000000000000000000000000000000000000000000000000000600052602160045260246000fd5b9050600061025a606461024c89600461077e565b6107cf90919063ffffffff16565b9050600060048310610278576001836102739190610dd9565b61027a565b825b905060008060009054906101000a900473ffffffffffffffffffffffffffffffffffffffff1673ffffffffffffffffffffffffffffffffffffffff166326074f978a6040518263ffffffff1660e01b81526004016102d89190610d79565b60206040518083038186803b1580156102f057600080fd5b505afa158015610304573d6000803e3d6000fd5b505050506040513d601f19601f820116820180604052508101906103289190610ad7565b9050600061037761034387606461081990919063ffffffff16565b6103698461035b600a8861086390919063ffffffff16565b61086390919063ffffffff16565b61086390919063ffffffff16565b9050858410156103c1576001808111156103ba577f4e487b7100000000000000000000000000000000000000000000000000000000600052602160045260246000fd5b97506103c2565b5b60008054906101000a900473ffffffffffffffffffffffffffffffffffffffff1673ffffffffffffffffffffffffffffffffffffffff1663f5f565f88b836040518363ffffffff1660e01b815260040161041d929190610d94565b600060405180830381600087803b15801561043757600080fd5b505af115801561044b573d6000803e3d6000fd5b50505050897fa10960c01512bbda4e4d2dfc1b3452000df207c8eccb9097485cbcdd078c9af18861047a6108de565b8b60018111156104b3577f4e487b7100000000000000000000000000000000000000000000000000000000600052602160045260246000fd5b6040516104c293929190610cc0565b60405180910390a2505050505050509392505050565b60008061051e836003811115610517577f4e487b7100000000000000000000000000000000000000000000000000000000600052602160045260246000fd5b600161077e565b90506000600381111561055a577f4e487b7100000000000000000000000000000000000000000000000000000000600052602160045260246000fd5b836003811115610593577f4e487b7100000000000000000000000000000000000000000000000000000000600052602160045260246000fd5b14156105b5576105ad6046826108e690919063ffffffff16565b915050610779565b600160038111156105ef577f4e487b7100000000000000000000000000000000000000000000000000000000600052602160045260246000fd5b836003811115610628577f4e487b7100000000000000000000000000000000000000000000000000000000600052602160045260246000fd5b141561064a57610642603c826108e690919063ffffffff16565b915050610779565b60026003811115610684577f4e487b7100000000000000000000000000000000000000000000000000000000600052602160045260246000fd5b8360038111156106bd577f4e487b7100000000000000000000000000000000000000000000000000000000600052602160045260246000fd5b14156106df576106d76032826108e690919063ffffffff16565b915050610779565b600380811115610718577f4e487b7100000000000000000000000000000000000000000000000000000000600052602160045260246000fd5b836003811115610751577f4e487b7100000000000000000000000000000000000000000000000000000000600052602160045260246000fd5b14156107735761076b600a826108e690919063ffffffff16565b915050610779565b60649150505b919050565b600081600a61078d9190610eb3565b444285856040516020016107a49493929190610c72565b6040516020818303038152906040528051906020012060001c6107c79190611122565b905092915050565b600061081183836040518060400160405280601a81526020017f536166654d6174683a206469766973696f6e206279207a65726f000000000000815250610944565b905092915050565b600061085b83836040518060400160405280601e81526020017f536166654d6174683a207375627472616374696f6e206f766572666c6f7700008152506109a7565b905092915050565b60008083141561087657600090506108d8565b600082846108849190610fd1565b90508284826108939190610e2f565b146108d3576040517f08c379a00000000000000000000000000000000000000000000000000000000081526004016108ca90610d39565b60405180910390fd5b809150505b92915050565b600033905090565b60008082846108f59190610dd9565b90508381101561093a576040517f08c379a000000000000000000000000000000000000000000000000000000000815260040161093190610d19565b60405180910390fd5b8091505092915050565b6000808311829061098b576040517f08c379a00000000000000000000000000000000000000000000000000000000081526004016109829190610cf7565b60405180910390fd5b506000838561099a9190610e2f565b9050809150509392505050565b60008383111582906109ef576040517f08c379a00000000000000000000000000000000000000000000000000000000081526004016109e69190610cf7565b60405180910390fd5b50600083856109fe919061102b565b9050809150509392505050565b600081359050610a1a81611226565b92915050565b600081519050610a2f81611226565b92915050565b600081359050610a448161123d565b92915050565b600081519050610a598161123d565b92915050565b600060208284031215610a7157600080fd5b6000610a7f84828501610a20565b91505092915050565b600080600060608486031215610a9d57600080fd5b6000610aab86828701610a0b565b9350506020610abc86828701610a35565b9250506040610acd86828701610a35565b9150509250925092565b600060208284031215610ae957600080fd5b6000610af784828501610a4a565b91505092915050565b610b098161105f565b82525050565b610b18816110c1565b82525050565b610b27816110d3565b82525050565b6000610b3882610dbd565b610b428185610dc8565b9350610b528185602086016110e5565b610b5b816111e0565b840191505092915050565b6000610b73601b83610dc8565b91507f536166654d6174683a206164646974696f6e206f766572666c6f7700000000006000830152602082019050919050565b6000610bb3602183610dc8565b91507f536166654d6174683a206d756c7469706c69636174696f6e206f766572666c6f60008301527f77000000000000000000000000000000000000000000000000000000000000006020830152604082019050919050565b6000610c19600783610dc8565b91507f6e6f74206f776e000000000000000000000000000000000000000000000000006000830152602082019050919050565b610c55816110b7565b82525050565b610c6c610c67826110b7565b611118565b82525050565b6000610c7e8287610c5b565b602082019150610c8e8286610c5b565b602082019150610c9e8285610c5b565b602082019150610cae8284610c5b565b60208201915081905095945050505050565b6000606082019050610cd56000830186610b1e565b610ce26020830185610b00565b610cef6040830184610b0f565b949350505050565b60006020820190508181036000830152610d118184610b2d565b905092915050565b60006020820190508181036000830152610d3281610b66565b9050919050565b60006020820190508181036000830152610d5281610ba6565b9050919050565b60006020820190508181036000830152610d7281610c0c565b9050919050565b6000602082019050610d8e6000830184610c4c565b92915050565b6000604082019050610da96000830185610c4c565b610db66020830184610c4c565b9392505050565b600081519050919050565b600082825260208201905092915050565b6000610de4826110b7565b9150610def836110b7565b9250827fffffffffffffffffffffffffffffffffffffffffffffffffffffffffffffffff03821115610e2457610e23611153565b5b828201905092915050565b6000610e3a826110b7565b9150610e45836110b7565b925082610e5557610e54611182565b5b828204905092915050565b6000808291508390505b6001851115610eaa57808604811115610e8657610e85611153565b5b6001851615610e955780820291505b8081029050610ea3856111f1565b9450610e6a565b94509492505050565b6000610ebe826110b7565b9150610ec9836110b7565b9250610ef67fffffffffffffffffffffffffffffffffffffffffffffffffffffffffffffffff8484610efe565b905092915050565b600082610f0e5760019050610fca565b81610f1c5760009050610fca565b8160018114610f325760028114610f3c57610f6b565b6001915050610fca565b60ff841115610f4e57610f4d611153565b5b8360020a915084821115610f6557610f64611153565b5b50610fca565b5060208310610133831016604e8410600b8410161715610fa05782820a905083811115610f9b57610f9a611153565b5b610fca565b610fad8484846001610e60565b92509050818404811115610fc457610fc3611153565b5b81810290505b9392505050565b6000610fdc826110b7565b9150610fe7836110b7565b9250817fffffffffffffffffffffffffffffffffffffffffffffffffffffffffffffffff04831182151516156110205761101f611153565b5b828202905092915050565b6000611036826110b7565b9150611041836110b7565b92508282101561105457611053611153565b5b828203905092915050565b600061106a82611097565b9050919050565b600081905061107f826111fe565b919050565b600081905061109282611212565b919050565b600073ffffffffffffffffffffffffffffffffffffffff82169050919050565b6000819050919050565b60006110cc82611071565b9050919050565b60006110de82611084565b9050919050565b60005b838110156111035780820151818401526020810190506110e8565b83811115611112576000848401525b50505050565b6000819050919050565b600061112d826110b7565b9150611138836110b7565b92508261114857611147611182565b5b828206905092915050565b7f4e487b7100000000000000000000000000000000000000000000000000000000600052601160045260246000fd5b7f4e487b7100000000000000000000000000000000000000000000000000000000600052601260045260246000fd5b7f4e487b7100000000000000000000000000000000000000000000000000000000600052602160045260246000fd5b6000601f19601f8301169050919050565b60008160011c9050919050565b6002811061120f5761120e6111b1565b5b50565b60048110611223576112226111b1565b5b50565b61122f8161105f565b811461123a57600080fd5b50565b611246816110b7565b811461125157600080fd5b5056fea2646970667358221220d1a578dc5d5b59d10e9909fbe82a6111b102bf0d1c6ad612b4632032e676176d64736f6c63430008000033",
  "immutableReferences": {},
  "source": "// SPDX-License-Identifier: UNLICENSED\r\npragma solidity ^0.8.0;\r\n\r\nimport \"./Utils.sol\";\r\nimport \"./IHeroPrimeNFT.sol\";\r\nimport \"./IHeroPrimeToken.sol\";\r\n\r\ncontract HeroPrimeEngine is Context {\r\n    using SafeMath for uint256;\r\n    // Attack Logic\r\n    \r\n    enum NormalMonsterLevel {\r\n        LEVEL_1, // 70-80%\r\n        LEVEL_2, // 60-70%\r\n        LEVEL_3, // 50-60%\r\n        LEVEL_4  // 10-20%\r\n    }\r\n    event BattleEvent(\r\n        uint256 indexed _tokenId,\r\n        NormalMonsterLevel monster,\r\n        address user,\r\n        BattleResult result\r\n    );\r\n    enum BattleResult {\r\n        LOSE,\r\n        WIN\r\n    }\r\n    IHeroPrimeNFT internal heroPrimeNFT;\r\n    IHeroPrimeToken internal heroPrimeToken;\r\n\r\n    constructor(address token, address nft){\r\n        heroPrimeNFT = IHeroPrimeNFT(nft);\r\n        heroPrimeToken = IHeroPrimeToken(token);\r\n    }\r\n    \r\n    function getWinRate(NormalMonsterLevel _monster) private view returns (uint256) {\r\n        uint256 winRateRnd = random(uint256(_monster), 1);\r\n        if (_monster == NormalMonsterLevel.LEVEL_1) {\r\n            return winRateRnd.add(70);\r\n        } else if (_monster == NormalMonsterLevel.LEVEL_2) {\r\n            return winRateRnd.add(60);\r\n        } else if (_monster == NormalMonsterLevel.LEVEL_3) {\r\n            return winRateRnd.add(50);\r\n        } else if (_monster == NormalMonsterLevel.LEVEL_4) {\r\n            return winRateRnd.add(10);\r\n        }\r\n        return 100;\r\n    }\r\n\r\n    function random(uint256 _id, uint256 _length)\r\n        private\r\n        view\r\n        returns (uint256)\r\n    {\r\n        return\r\n            uint256(\r\n                uint256(\r\n                    keccak256(\r\n                        abi.encodePacked(\r\n                            block.difficulty,\r\n                            block.timestamp,\r\n                            _id,\r\n                            _length\r\n                        )\r\n                    )\r\n                )\r\n            ) % (10**_length);\r\n    }\r\n\r\n    function battle(address sender, uint256 _tokenId, uint _monsterLevelIndex) external returns(uint result){\r\n\r\n        NormalMonsterLevel _monster = NormalMonsterLevel(_monsterLevelIndex);\r\n\r\n        require(heroPrimeNFT.ownerOf(_tokenId) == sender, \"not own\");\r\n        \r\n        result = uint(BattleResult.LOSE);\r\n        uint256 winRate = getWinRate(_monster);\r\n        uint256 monsterLevel = uint256(_monster);\r\n        uint256 rnd = random(_tokenId, 4).div(100);\r\n\r\n        \r\n        uint256 monsterRate = monsterLevel < 4\r\n            ? monsterLevel\r\n            : monsterLevel + 1;\r\n\r\n            \r\n        uint256 level = heroPrimeNFT.heroPrimeLevel(_tokenId);\r\n\r\n        uint256 exp = monsterRate.mul(10).mul(level).mul(uint256(100).sub(winRate));\r\n\r\n        if (rnd < winRate) {\r\n            result = uint(BattleResult.WIN);\r\n            // uint256 reward = battleReward(level, winRate);\r\n            // zoonerToken.win(_msgSender(), reward);\r\n            // console.log(\"reward: %s\", reward);\r\n        } else {\r\n            // exp = exp.mul(manager.loseRate()).div(100);\r\n        }\r\n        \r\n        heroPrimeNFT.exp(_tokenId, exp);\r\n        \r\n        emit BattleEvent(_tokenId, _monster, _msgSender(), BattleResult(result));\r\n    }\r\n    \r\n    // Dungeon Logic\r\n}\r\n",
  "sourcePath": "C:\\workspace\\Personal\\truffle\\HeroPrime\\contracts\\HeroPrimeEngine.sol",
  "compiler": {
    "name": "solc",
    "version": "0.8.0+commit.c7dfd78e.Emscripten.clang"
  },
  "schemaVersion": "3.4.3",
  "updatedAt": "2021-10-09T16:52:29.351Z",
  "networkType": "ethereum",
  "devdoc": {
    "kind": "dev",
    "methods": {},
    "version": 1
  },
  "userdoc": {
    "kind": "user",
    "methods": {},
    "version": 1
  }
}