{
  "contractName": "HeroPrimeArtifactNFT",
  "abi": [
    {
      "inputs": [
        {
          "internalType": "string",
          "name": "_name",
          "type": "string"
        },
        {
          "internalType": "string",
          "name": "_symbol",
          "type": "string"
        },
        {
          "internalType": "address",
          "name": "_heroprimeERC20",
          "type": "address"
        }
      ],
      "stateMutability": "nonpayable",
      "type": "constructor"
    },
    {
      "anonymous": false,
      "inputs": [
        {
          "indexed": true,
          "internalType": "address",
          "name": "owner",
          "type": "address"
        },
        {
          "indexed": true,
          "internalType": "address",
          "name": "approved",
          "type": "address"
        },
        {
          "indexed": true,
          "internalType": "uint256",
          "name": "tokenId",
          "type": "uint256"
        }
      ],
      "name": "Approval",
      "type": "event"
    },
    {
      "anonymous": false,
      "inputs": [
        {
          "indexed": true,
          "internalType": "address",
          "name": "owner",
          "type": "address"
        },
        {
          "indexed": true,
          "internalType": "address",
          "name": "operator",
          "type": "address"
        },
        {
          "indexed": false,
          "internalType": "bool",
          "name": "approved",
          "type": "bool"
        }
      ],
      "name": "ApprovalForAll",
      "type": "event"
    },
    {
      "anonymous": false,
      "inputs": [
        {
          "indexed": true,
          "internalType": "uint256",
          "name": "tokenId",
          "type": "uint256"
        },
        {
          "indexed": false,
          "internalType": "address",
          "name": "seller",
          "type": "address"
        }
      ],
      "name": "CancelOrder",
      "type": "event"
    },
    {
      "anonymous": false,
      "inputs": [
        {
          "indexed": true,
          "internalType": "uint256",
          "name": "tokenId",
          "type": "uint256"
        },
        {
          "indexed": false,
          "internalType": "uint256",
          "name": "exp",
          "type": "uint256"
        }
      ],
      "name": "Exp",
      "type": "event"
    },
    {
      "anonymous": false,
      "inputs": [
        {
          "indexed": true,
          "internalType": "uint256",
          "name": "tokenId",
          "type": "uint256"
        },
        {
          "indexed": false,
          "internalType": "address",
          "name": "seller",
          "type": "address"
        }
      ],
      "name": "FillOrder",
      "type": "event"
    },
    {
      "anonymous": false,
      "inputs": [
        {
          "indexed": true,
          "internalType": "address",
          "name": "previousOwner",
          "type": "address"
        },
        {
          "indexed": true,
          "internalType": "address",
          "name": "newOwner",
          "type": "address"
        }
      ],
      "name": "OwnershipTransferred",
      "type": "event"
    },
    {
      "anonymous": false,
      "inputs": [
        {
          "indexed": true,
          "internalType": "uint256",
          "name": "tokenId",
          "type": "uint256"
        },
        {
          "indexed": false,
          "internalType": "address",
          "name": "seller",
          "type": "address"
        },
        {
          "indexed": false,
          "internalType": "uint256",
          "name": "price",
          "type": "uint256"
        }
      ],
      "name": "PlaceOrder",
      "type": "event"
    },
    {
      "anonymous": false,
      "inputs": [
        {
          "indexed": true,
          "internalType": "address",
          "name": "from",
          "type": "address"
        },
        {
          "indexed": true,
          "internalType": "address",
          "name": "to",
          "type": "address"
        },
        {
          "indexed": true,
          "internalType": "uint256",
          "name": "tokenId",
          "type": "uint256"
        }
      ],
      "name": "Transfer",
      "type": "event"
    },
    {
      "anonymous": false,
      "inputs": [
        {
          "indexed": true,
          "internalType": "uint256",
          "name": "tokenId",
          "type": "uint256"
        },
        {
          "indexed": false,
          "internalType": "address",
          "name": "buyer",
          "type": "address"
        }
      ],
      "name": "rolledHero",
      "type": "event"
    },
    {
      "inputs": [
        {
          "internalType": "address",
          "name": "to",
          "type": "address"
        },
        {
          "internalType": "uint256",
          "name": "tokenId",
          "type": "uint256"
        }
      ],
      "name": "approve",
      "outputs": [],
      "stateMutability": "nonpayable",
      "type": "function"
    },
    {
      "inputs": [
        {
          "internalType": "address",
          "name": "owner",
          "type": "address"
        }
      ],
      "name": "balanceOf",
      "outputs": [
        {
          "internalType": "uint256",
          "name": "",
          "type": "uint256"
        }
      ],
      "stateMutability": "view",
      "type": "function",
      "constant": true
    },
    {
      "inputs": [],
      "name": "baseURI",
      "outputs": [
        {
          "internalType": "string",
          "name": "",
          "type": "string"
        }
      ],
      "stateMutability": "view",
      "type": "function",
      "constant": true
    },
    {
      "inputs": [
        {
          "internalType": "uint256",
          "name": "tokenId",
          "type": "uint256"
        }
      ],
      "name": "getApproved",
      "outputs": [
        {
          "internalType": "address",
          "name": "",
          "type": "address"
        }
      ],
      "stateMutability": "view",
      "type": "function",
      "constant": true
    },
    {
      "inputs": [
        {
          "internalType": "address",
          "name": "owner",
          "type": "address"
        }
      ],
      "name": "getOwnerTokens",
      "outputs": [
        {
          "internalType": "uint256[]",
          "name": "",
          "type": "uint256[]"
        }
      ],
      "stateMutability": "nonpayable",
      "type": "function"
    },
    {
      "inputs": [],
      "name": "heroPrimeERC20",
      "outputs": [
        {
          "internalType": "contract IERC20",
          "name": "",
          "type": "address"
        }
      ],
      "stateMutability": "view",
      "type": "function",
      "constant": true
    },
    {
      "inputs": [
        {
          "internalType": "address",
          "name": "owner",
          "type": "address"
        },
        {
          "internalType": "address",
          "name": "operator",
          "type": "address"
        }
      ],
      "name": "isApprovedForAll",
      "outputs": [
        {
          "internalType": "bool",
          "name": "",
          "type": "bool"
        }
      ],
      "stateMutability": "view",
      "type": "function",
      "constant": true
    },
    {
      "inputs": [],
      "name": "latestTokenId",
      "outputs": [
        {
          "internalType": "uint256",
          "name": "",
          "type": "uint256"
        }
      ],
      "stateMutability": "view",
      "type": "function",
      "constant": true
    },
    {
      "inputs": [],
      "name": "manager",
      "outputs": [
        {
          "internalType": "contract IHeroPrimeManager",
          "name": "",
          "type": "address"
        }
      ],
      "stateMutability": "view",
      "type": "function",
      "constant": true
    },
    {
      "inputs": [],
      "name": "name",
      "outputs": [
        {
          "internalType": "string",
          "name": "",
          "type": "string"
        }
      ],
      "stateMutability": "view",
      "type": "function",
      "constant": true
    },
    {
      "inputs": [],
      "name": "owner",
      "outputs": [
        {
          "internalType": "address",
          "name": "",
          "type": "address"
        }
      ],
      "stateMutability": "view",
      "type": "function",
      "constant": true
    },
    {
      "inputs": [
        {
          "internalType": "uint256",
          "name": "tokenId",
          "type": "uint256"
        }
      ],
      "name": "ownerOf",
      "outputs": [
        {
          "internalType": "address",
          "name": "",
          "type": "address"
        }
      ],
      "stateMutability": "view",
      "type": "function",
      "constant": true
    },
    {
      "inputs": [],
      "name": "renounceOwnership",
      "outputs": [],
      "stateMutability": "nonpayable",
      "type": "function"
    },
    {
      "inputs": [
        {
          "internalType": "address",
          "name": "from",
          "type": "address"
        },
        {
          "internalType": "address",
          "name": "to",
          "type": "address"
        },
        {
          "internalType": "uint256",
          "name": "tokenId",
          "type": "uint256"
        }
      ],
      "name": "safeTransferFrom",
      "outputs": [],
      "stateMutability": "nonpayable",
      "type": "function"
    },
    {
      "inputs": [
        {
          "internalType": "address",
          "name": "from",
          "type": "address"
        },
        {
          "internalType": "address",
          "name": "to",
          "type": "address"
        },
        {
          "internalType": "uint256",
          "name": "tokenId",
          "type": "uint256"
        },
        {
          "internalType": "bytes",
          "name": "_data",
          "type": "bytes"
        }
      ],
      "name": "safeTransferFrom",
      "outputs": [],
      "stateMutability": "nonpayable",
      "type": "function"
    },
    {
      "inputs": [
        {
          "internalType": "address",
          "name": "operator",
          "type": "address"
        },
        {
          "internalType": "bool",
          "name": "approved",
          "type": "bool"
        }
      ],
      "name": "setApprovalForAll",
      "outputs": [],
      "stateMutability": "nonpayable",
      "type": "function"
    },
    {
      "inputs": [],
      "name": "symbol",
      "outputs": [
        {
          "internalType": "string",
          "name": "",
          "type": "string"
        }
      ],
      "stateMutability": "view",
      "type": "function",
      "constant": true
    },
    {
      "inputs": [
        {
          "internalType": "uint256",
          "name": "index",
          "type": "uint256"
        }
      ],
      "name": "tokenByIndex",
      "outputs": [
        {
          "internalType": "uint256",
          "name": "",
          "type": "uint256"
        }
      ],
      "stateMutability": "view",
      "type": "function",
      "constant": true
    },
    {
      "inputs": [
        {
          "internalType": "uint256",
          "name": "tokenId",
          "type": "uint256"
        }
      ],
      "name": "tokenURI",
      "outputs": [
        {
          "internalType": "string",
          "name": "",
          "type": "string"
        }
      ],
      "stateMutability": "view",
      "type": "function",
      "constant": true
    },
    {
      "inputs": [],
      "name": "totalSupply",
      "outputs": [
        {
          "internalType": "uint256",
          "name": "",
          "type": "uint256"
        }
      ],
      "stateMutability": "view",
      "type": "function",
      "constant": true
    },
    {
      "inputs": [
        {
          "internalType": "address",
          "name": "from",
          "type": "address"
        },
        {
          "internalType": "address",
          "name": "to",
          "type": "address"
        },
        {
          "internalType": "uint256",
          "name": "tokenId",
          "type": "uint256"
        }
      ],
      "name": "transferFrom",
      "outputs": [],
      "stateMutability": "nonpayable",
      "type": "function"
    },
    {
      "inputs": [
        {
          "internalType": "address",
          "name": "newOwner",
          "type": "address"
        }
      ],
      "name": "transferOwnership",
      "outputs": [],
      "stateMutability": "nonpayable",
      "type": "function"
    },
    {
      "inputs": [
        {
          "internalType": "address",
          "name": "_manager",
          "type": "address"
        }
      ],
      "name": "setManager",
      "outputs": [],
      "stateMutability": "nonpayable",
      "type": "function"
    },
    {
      "inputs": [
        {
          "internalType": "uint256",
          "name": "_tokenId",
          "type": "uint256"
        }
      ],
      "name": "getArtifact",
      "outputs": [
        {
          "components": [
            {
              "internalType": "uint256",
              "name": "id",
              "type": "uint256"
            },
            {
              "internalType": "uint256",
              "name": "generation",
              "type": "uint256"
            },
            {
              "internalType": "enum HeroPrimeArtifactNFT.Effect",
              "name": "element",
              "type": "uint8"
            },
            {
              "internalType": "uint256",
              "name": "exp",
              "type": "uint256"
            },
            {
              "internalType": "uint256",
              "name": "dna",
              "type": "uint256"
            },
            {
              "internalType": "uint256",
              "name": "farmTime",
              "type": "uint256"
            },
            {
              "internalType": "uint256",
              "name": "bornTime",
              "type": "uint256"
            }
          ],
          "internalType": "struct HeroPrimeArtifactNFT.Artifact",
          "name": "",
          "type": "tuple"
        }
      ],
      "stateMutability": "view",
      "type": "function",
      "constant": true
    },
    {
      "inputs": [
        {
          "internalType": "uint256[]",
          "name": "_tokenIds",
          "type": "uint256[]"
        }
      ],
      "name": "getArtifacts",
      "outputs": [
        {
          "components": [
            {
              "internalType": "uint256",
              "name": "id",
              "type": "uint256"
            },
            {
              "internalType": "uint256",
              "name": "generation",
              "type": "uint256"
            },
            {
              "internalType": "enum HeroPrimeArtifactNFT.Effect",
              "name": "element",
              "type": "uint8"
            },
            {
              "internalType": "uint256",
              "name": "exp",
              "type": "uint256"
            },
            {
              "internalType": "uint256",
              "name": "dna",
              "type": "uint256"
            },
            {
              "internalType": "uint256",
              "name": "farmTime",
              "type": "uint256"
            },
            {
              "internalType": "uint256",
              "name": "bornTime",
              "type": "uint256"
            }
          ],
          "internalType": "struct HeroPrimeArtifactNFT.Artifact[]",
          "name": "",
          "type": "tuple[]"
        }
      ],
      "stateMutability": "view",
      "type": "function",
      "constant": true
    },
    {
      "inputs": [
        {
          "internalType": "uint256",
          "name": "_tokenId",
          "type": "uint256"
        }
      ],
      "name": "getRare",
      "outputs": [
        {
          "internalType": "uint256",
          "name": "",
          "type": "uint256"
        }
      ],
      "stateMutability": "view",
      "type": "function",
      "constant": true
    },
    {
      "inputs": [
        {
          "internalType": "uint256",
          "name": "amount",
          "type": "uint256"
        },
        {
          "internalType": "address",
          "name": "receiver",
          "type": "address"
        },
        {
          "internalType": "uint256",
          "name": "elementindex",
          "type": "uint256"
        }
      ],
      "name": "rollArtifact",
      "outputs": [],
      "stateMutability": "nonpayable",
      "type": "function"
    },
    {
      "inputs": [
        {
          "internalType": "uint256",
          "name": "amount",
          "type": "uint256"
        },
        {
          "internalType": "address",
          "name": "receiver",
          "type": "address"
        }
      ],
      "name": "incrementRolls",
      "outputs": [],
      "stateMutability": "nonpayable",
      "type": "function"
    },
    {
      "inputs": [
        {
          "internalType": "address",
          "name": "owner",
          "type": "address"
        }
      ],
      "name": "getOwnerArtifactRolls",
      "outputs": [
        {
          "internalType": "uint256",
          "name": "",
          "type": "uint256"
        }
      ],
      "stateMutability": "view",
      "type": "function",
      "constant": true
    },
    {
      "inputs": [
        {
          "internalType": "uint256",
          "name": "_tokenId",
          "type": "uint256"
        },
        {
          "internalType": "uint256",
          "name": "_exp",
          "type": "uint256"
        }
      ],
      "name": "exp",
      "outputs": [],
      "stateMutability": "nonpayable",
      "type": "function"
    },
    {
      "inputs": [
        {
          "internalType": "uint256",
          "name": "_tokenId",
          "type": "uint256"
        },
        {
          "internalType": "uint256",
          "name": "_price",
          "type": "uint256"
        },
        {
          "internalType": "address",
          "name": "sender",
          "type": "address"
        }
      ],
      "name": "placeOrder",
      "outputs": [],
      "stateMutability": "nonpayable",
      "type": "function"
    },
    {
      "inputs": [
        {
          "internalType": "uint256",
          "name": "_tokenId",
          "type": "uint256"
        },
        {
          "internalType": "address",
          "name": "sender",
          "type": "address"
        }
      ],
      "name": "cancelOrder",
      "outputs": [],
      "stateMutability": "nonpayable",
      "type": "function"
    },
    {
      "inputs": [
        {
          "internalType": "uint256",
          "name": "_tokenId",
          "type": "uint256"
        },
        {
          "internalType": "address",
          "name": "sender",
          "type": "address"
        }
      ],
      "name": "fillOrder",
      "outputs": [],
      "stateMutability": "nonpayable",
      "type": "function"
    },
    {
      "inputs": [],
      "name": "marketsSize",
      "outputs": [
        {
          "internalType": "uint256",
          "name": "",
          "type": "uint256"
        }
      ],
      "stateMutability": "view",
      "type": "function",
      "constant": true
    },
    {
      "inputs": [],
      "name": "market",
      "outputs": [
        {
          "components": [
            {
              "internalType": "uint256",
              "name": "id",
              "type": "uint256"
            },
            {
              "internalType": "uint256",
              "name": "generation",
              "type": "uint256"
            },
            {
              "internalType": "enum HeroPrimeArtifactNFT.Effect",
              "name": "element",
              "type": "uint8"
            },
            {
              "internalType": "uint256",
              "name": "exp",
              "type": "uint256"
            },
            {
              "internalType": "uint256",
              "name": "dna",
              "type": "uint256"
            },
            {
              "internalType": "uint256",
              "name": "farmTime",
              "type": "uint256"
            },
            {
              "internalType": "uint256",
              "name": "bornTime",
              "type": "uint256"
            }
          ],
          "internalType": "struct HeroPrimeArtifactNFT.Artifact[]",
          "name": "resultHeroes",
          "type": "tuple[]"
        },
        {
          "components": [
            {
              "internalType": "uint256",
              "name": "tokenId",
              "type": "uint256"
            },
            {
              "internalType": "address",
              "name": "owner",
              "type": "address"
            },
            {
              "internalType": "uint256",
              "name": "price",
              "type": "uint256"
            }
          ],
          "internalType": "struct HeroPrimeArtifactNFT.ItemSale[]",
          "name": "resultSales",
          "type": "tuple[]"
        }
      ],
      "stateMutability": "view",
      "type": "function",
      "constant": true
    },
    {
      "inputs": [
        {
          "internalType": "address",
          "name": "_seller",
          "type": "address"
        }
      ],
      "name": "orders",
      "outputs": [
        {
          "internalType": "uint256",
          "name": "",
          "type": "uint256"
        }
      ],
      "stateMutability": "view",
      "type": "function",
      "constant": true
    },
    {
      "inputs": [
        {
          "internalType": "uint256",
          "name": "index",
          "type": "uint256"
        }
      ],
      "name": "tokenSaleByIndex",
      "outputs": [
        {
          "internalType": "uint256",
          "name": "",
          "type": "uint256"
        }
      ],
      "stateMutability": "view",
      "type": "function",
      "constant": true
    },
    {
      "inputs": [
        {
          "internalType": "address",
          "name": "_seller",
          "type": "address"
        },
        {
          "internalType": "uint256",
          "name": "index",
          "type": "uint256"
        }
      ],
      "name": "tokenSaleOfOwnerByIndex",
      "outputs": [
        {
          "internalType": "uint256",
          "name": "",
          "type": "uint256"
        }
      ],
      "stateMutability": "view",
      "type": "function",
      "constant": true
    },
    {
      "inputs": [
        {
          "internalType": "uint256",
          "name": "_tokenId",
          "type": "uint256"
        }
      ],
      "name": "getSale",
      "outputs": [
        {
          "components": [
            {
              "internalType": "uint256",
              "name": "tokenId",
              "type": "uint256"
            },
            {
              "internalType": "address",
              "name": "owner",
              "type": "address"
            },
            {
              "internalType": "uint256",
              "name": "price",
              "type": "uint256"
            }
          ],
          "internalType": "struct HeroPrimeArtifactNFT.ItemSale",
          "name": "",
          "type": "tuple"
        }
      ],
      "stateMutability": "view",
      "type": "function",
      "constant": true
    }
  ],
  "bytecode": "0x60806040523480156200001157600080fd5b506040516200615b3803806200615b8339818101604052810190620000379190620002a9565b828281600690805190602001906200005192919062000170565b5080600790805190602001906200006a92919062000170565b50505060006200007f6200016860201b60201c565b905080600a60006101000a81548173ffffffffffffffffffffffffffffffffffffffff021916908373ffffffffffffffffffffffffffffffffffffffff1602179055508073ffffffffffffffffffffffffffffffffffffffff16600073ffffffffffffffffffffffffffffffffffffffff167f8be0079c531659141344cd1fd0a4f28419497f9722a3daafe3b4186f6b6457e060405160405180910390a35080601260006101000a81548173ffffffffffffffffffffffffffffffffffffffff021916908373ffffffffffffffffffffffffffffffffffffffff160217905550505050620004b0565b600033905090565b8280546200017e9062000402565b90600052602060002090601f016020900481019282620001a25760008555620001ee565b82601f10620001bd57805160ff1916838001178555620001ee565b82800160010185558215620001ee579182015b82811115620001ed578251825591602001919060010190620001d0565b5b509050620001fd919062000201565b5090565b5b808211156200021c57600081600090555060010162000202565b5090565b600062000237620002318462000365565b62000331565b9050828152602081018484840111156200025057600080fd5b6200025d848285620003cc565b509392505050565b600081519050620002768162000496565b92915050565b600082601f8301126200028e57600080fd5b8151620002a084826020860162000220565b91505092915050565b600080600060608486031215620002bf57600080fd5b600084015167ffffffffffffffff811115620002da57600080fd5b620002e8868287016200027c565b935050602084015167ffffffffffffffff8111156200030657600080fd5b62000314868287016200027c565b9250506040620003278682870162000265565b9150509250925092565b6000604051905081810181811067ffffffffffffffff821117156200035b576200035a62000467565b5b8060405250919050565b600067ffffffffffffffff82111562000383576200038262000467565b5b601f19601f8301169050602081019050919050565b6000620003a582620003ac565b9050919050565b600073ffffffffffffffffffffffffffffffffffffffff82169050919050565b60005b83811015620003ec578082015181840152602081019050620003cf565b83811115620003fc576000848401525b50505050565b600060028204905060018216806200041b57607f821691505b6020821081141562000432576200043162000438565b5b50919050565b7f4e487b7100000000000000000000000000000000000000000000000000000000600052602260045260246000fd5b7f4e487b7100000000000000000000000000000000000000000000000000000000600052604160045260246000fd5b620004a18162000398565b8114620004ad57600080fd5b50565b615c9b80620004c06000396000f3fe608060405234801561001057600080fd5b506004361061023d5760003560e01c806380f556051161013b578063c75ab458116100b8578063e985e9c51161007c578063e985e9c5146106ff578063f2fde38b1461072f578063f40e84711461074b578063f5f565f81461077b578063fd4f9179146107975761023d565b8063c75ab45814610623578063c87b56dd14610653578063d0ebdbe714610683578063d63d4af01461069f578063d8f6d596146106cf5761023d565b80639d443201116100ff5780639d44320114610581578063a22cb4651461059f578063a3f7ac10146105bb578063a90b9c72146105d7578063b88d4fde146106075761023d565b806380f55605146104d85780638465ad44146104f75780638c0e8349146105275780638da5cb5b1461054557806395d89b41146105635761023d565b806342842e0e116101c95780636352211e1161018d5780636352211e146104345780636c0360eb1461046457806370a0823114610482578063715018a6146104b25780637323a7d3146104bc5761023d565b806342842e0e1461037e578063481c6a751461039a5780634aaecf54146103b85780634f6ccce7146103d4578063598a4fc8146104045761023d565b806318160ddd1161021057806318160ddd146102dc57806323b872dd146102fa57806335e4365f1461031657806336b92410146103325780633d554f1d1461034e5761023d565b806306fdde0314610242578063078e62d414610260578063081812fc14610290578063095ea7b3146102c0575b600080fd5b61024a6107b5565b6040516102579190615215565b60405180910390f35b61027a6004803603810190610275919061432f565b610847565b604051610287919061552d565b60405180910390f35b6102aa60048036038101906102a591906143d5565b6108a2565b6040516102b791906150ce565b60405180910390f35b6102da60048036038101906102d5919061432f565b610927565b005b6102e4610a3f565b6040516102f1919061552d565b60405180910390f35b610314600480360381019061030f9190614229565b610a50565b005b610330600480360381019061032b91906144ee565b610ab0565b005b61034c60048036038101906103479190614463565b610c4c565b005b6103686004803603810190610363919061436b565b610d96565b6040516103759190615149565b60405180910390f35b61039860048036038101906103939190614229565b610fa5565b005b6103a2610fc5565b6040516103af91906151fa565b60405180910390f35b6103d260048036038101906103cd9190614427565b610feb565b005b6103ee60048036038101906103e991906143d5565b6114df565b6040516103fb919061552d565b60405180910390f35b61041e600480360381019061041991906143d5565b611502565b60405161042b919061552d565b60405180910390f35b61044e600480360381019061044991906143d5565b61151f565b60405161045b91906150ce565b60405180910390f35b61046c611556565b6040516104799190615215565b60405180910390f35b61049c6004803603810190610497919061419b565b6115e8565b6040516104a9919061552d565b60405180910390f35b6104ba6116a6565b005b6104d660048036038101906104d19190614427565b6117fe565b005b6104e06119db565b6040516104ee92919061516b565b60405180910390f35b610511600480360381019061050c91906143d5565b611d41565b60405161051e91906154f7565b60405180910390f35b61052f611e31565b60405161053c919061552d565b60405180910390f35b61054d611e37565b60405161055a91906150ce565b60405180910390f35b61056b611e61565b6040516105789190615215565b60405180910390f35b610589611ef3565b604051610596919061552d565b60405180910390f35b6105b960048036038101906105b491906142f3565b611f04565b005b6105d560048036038101906105d09190614427565b612085565b005b6105f160048036038101906105ec91906143d5565b61210c565b6040516105fe919061552d565b60405180910390f35b610621600480360381019061061c9190614278565b6121c1565b005b61063d6004803603810190610638919061419b565b612223565b60405161064a919061552d565b60405180910390f35b61066d600480360381019061066891906143d5565b61226c565b60405161067a9190615215565b60405180910390f35b61069d6004803603810190610698919061419b565b6123d7565b005b6106b960048036038101906106b4919061419b565b6124b2565b6040516106c691906151a2565b60405180910390f35b6106e960048036038101906106e491906143d5565b61262f565b6040516106f69190615512565b60405180910390f35b610719600480360381019061071491906141ed565b61271b565b60405161072691906151c4565b60405180910390f35b6107496004803603810190610744919061419b565b6127af565b005b6107656004803603810190610760919061419b565b612852565b604051610772919061552d565b60405180910390f35b610795600480360381019061079091906144b2565b6128a2565b005b61079f612958565b6040516107ac91906151df565b60405180910390f35b6060600680546107c490615a24565b80601f01602080910402602001604051908101604052809291908181526020018280546107f090615a24565b801561083d5780601f106108125761010080835404028352916020019161083d565b820191906000526020600020905b81548152906001019060200180831161082057829003601f168201915b5050505050905090565b600061089a82601060008673ffffffffffffffffffffffffffffffffffffffff1673ffffffffffffffffffffffffffffffffffffffff16815260200190815260200160002061297e90919063ffffffff16565b905092915050565b60006108ad82612998565b6108ec576040517f08c379a00000000000000000000000000000000000000000000000000000000081526004016108e3906153b7565b60405180910390fd5b6004600083815260200190815260200160002060009054906101000a900473ffffffffffffffffffffffffffffffffffffffff169050919050565b60006109328261151f565b90508073ffffffffffffffffffffffffffffffffffffffff168373ffffffffffffffffffffffffffffffffffffffff1614156109a3576040517f08c379a000000000000000000000000000000000000000000000000000000000815260040161099a90615437565b60405180910390fd5b8073ffffffffffffffffffffffffffffffffffffffff166109c26129b5565b73ffffffffffffffffffffffffffffffffffffffff1614806109f157506109f0816109eb6129b5565b61271b565b5b610a30576040517f08c379a0000000000000000000000000000000000000000000000000000000008152600401610a2790615337565b60405180910390fd5b610a3a83836129bd565b505050565b6000610a4b6001612a76565b905090565b610a61610a5b6129b5565b82612a8b565b610aa0576040517f08c379a0000000000000000000000000000000000000000000000000000000008152600401610a9790615477565b60405180910390fd5b610aab838383612b69565b505050565b601360009054906101000a900473ffffffffffffffffffffffffffffffffffffffff1673ffffffffffffffffffffffffffffffffffffffff16610af16129b5565b73ffffffffffffffffffffffffffffffffffffffff1614610b47576040517f08c379a0000000000000000000000000000000000000000000000000000000008152600401610b3e906154b7565b60405180910390fd5b8073ffffffffffffffffffffffffffffffffffffffff16610b678461151f565b73ffffffffffffffffffffffffffffffffffffffff1614610bbd576040517f08c379a0000000000000000000000000000000000000000000000000000000008152600401610bb490615457565b60405180910390fd5b60008211610c00576040517f08c379a0000000000000000000000000000000000000000000000000000000008152600401610bf790615237565b60405180910390fd5b610c0d8360018484612d08565b827f88ba4afa23f9d5bf6fc21903b32126bc507e001fd6fd00affc837adeb5d4a6078284604051610c3f929190615120565b60405180910390a2505050565b82601160008473ffffffffffffffffffffffffffffffffffffffff1673ffffffffffffffffffffffffffffffffffffffff168152602001908152602001600020541015610cce576040517f08c379a0000000000000000000000000000000000000000000000000000000008152600401610cc590615417565b60405180910390fd5b6000816006811115610d09577f4e487b7100000000000000000000000000000000000000000000000000000000600052602160045260246000fd5b905060008411610d4e576040517f08c379a0000000000000000000000000000000000000000000000000000000008152600401610d45906152f7565b60405180910390fd5b6001841415610d6657610d6183826130bf565b610d90565b60005b84811015610d8e57610d7b84836130bf565b8080610d8690615a56565b915050610d69565b505b50505050565b60606000825167ffffffffffffffff811115610ddb577f4e487b7100000000000000000000000000000000000000000000000000000000600052604160045260246000fd5b604051908082528060200260200182016040528015610e1457816020015b610e01613f73565b815260200190600190039081610df95790505b50905060005b8351811015610f9b57600c6000858381518110610e60577f4e487b7100000000000000000000000000000000000000000000000000000000600052603260045260246000fd5b602002602001015181526020019081526020016000206040518060e001604052908160008201548152602001600182015481526020016002820160009054906101000a900460ff166006811115610ee0577f4e487b7100000000000000000000000000000000000000000000000000000000600052602160045260246000fd5b6006811115610f18577f4e487b7100000000000000000000000000000000000000000000000000000000600052602160045260246000fd5b8152602001600382015481526020016004820154815260200160058201548152602001600682015481525050828281518110610f7d577f4e487b7100000000000000000000000000000000000000000000000000000000600052603260045260246000fd5b60200260200101819052508080610f9390615a56565b915050610e1a565b5080915050919050565b610fc0838383604051806020016040528060008152506121c1565b505050565b601360009054906101000a900473ffffffffffffffffffffffffffffffffffffffff1681565b601360009054906101000a900473ffffffffffffffffffffffffffffffffffffffff1673ffffffffffffffffffffffffffffffffffffffff1661102c6129b5565b73ffffffffffffffffffffffffffffffffffffffff1614611082576040517f08c379a0000000000000000000000000000000000000000000000000000000008152600401611079906154b7565b60405180910390fd5b61109682600e61330290919063ffffffff16565b6110d5576040517f08c379a00000000000000000000000000000000000000000000000000000000081526004016110cc90615497565b60405180910390fd5b6000600d600084815260200190815260200160002090506000611255601360009054906101000a900473ffffffffffffffffffffffffffffffffffffffff1673ffffffffffffffffffffffffffffffffffffffff1663470ef6106040518163ffffffff1660e01b815260040160206040518083038186803b15801561115957600080fd5b505afa15801561116d573d6000803e3d6000fd5b505050506040513d601f19601f8201168201806040525081019061119191906143fe565b611247601360009054906101000a900473ffffffffffffffffffffffffffffffffffffffff1673ffffffffffffffffffffffffffffffffffffffff166343aa2b6c6040518163ffffffff1660e01b815260040160206040518083038186803b1580156111fc57600080fd5b505afa158015611210573d6000803e3d6000fd5b505050506040513d601f19601f8201168201806040525081019061123491906143fe565b856002015461331c90919063ffffffff16565b61339790919063ffffffff16565b9050601260009054906101000a900473ffffffffffffffffffffffffffffffffffffffff1673ffffffffffffffffffffffffffffffffffffffff166323b872dd84601360009054906101000a900473ffffffffffffffffffffffffffffffffffffffff1673ffffffffffffffffffffffffffffffffffffffff1663412753586040518163ffffffff1660e01b815260040160206040518083038186803b1580156112fe57600080fd5b505afa158015611312573d6000803e3d6000fd5b505050506040513d601f19601f8201168201806040525081019061133691906141c4565b846040518463ffffffff1660e01b8152600401611355939291906150e9565b602060405180830381600087803b15801561136f57600080fd5b505af1158015611383573d6000803e3d6000fd5b505050506040513d601f19601f820116820180604052508101906113a791906143ac565b50601260009054906101000a900473ffffffffffffffffffffffffffffffffffffffff1673ffffffffffffffffffffffffffffffffffffffff166323b872dd848460010160009054906101000a900473ffffffffffffffffffffffffffffffffffffffff166114238587600201546133e190919063ffffffff16565b6040518463ffffffff1660e01b8152600401611441939291906150e9565b602060405180830381600087803b15801561145b57600080fd5b505af115801561146f573d6000803e3d6000fd5b505050506040513d601f19601f8201168201806040525081019061149391906143ac565b506114a18460008086612d08565b837fe172f6058a4b7a5493aea0902d867636f05695ffeb71801046c3f4e5002caa97846040516114d191906150ce565b60405180910390a250505050565b6000806114f683600161342b90919063ffffffff16565b50905080915050919050565b600061151882600e61297e90919063ffffffff16565b9050919050565b600061154f82604051806060016040528060298152602001615c3d6029913960016134579092919063ffffffff16565b9050919050565b60606009805461156590615a24565b80601f016020809104026020016040519081016040528092919081815260200182805461159190615a24565b80156115de5780601f106115b3576101008083540402835291602001916115de565b820191906000526020600020905b8154815290600101906020018083116115c157829003601f168201915b5050505050905090565b60008073ffffffffffffffffffffffffffffffffffffffff168273ffffffffffffffffffffffffffffffffffffffff161415611659576040517f08c379a000000000000000000000000000000000000000000000000000000000815260040161165090615357565b60405180910390fd5b61169f6000808473ffffffffffffffffffffffffffffffffffffffff1673ffffffffffffffffffffffffffffffffffffffff168152602001908152602001600020613476565b9050919050565b6116ae6129b5565b73ffffffffffffffffffffffffffffffffffffffff16600a60009054906101000a900473ffffffffffffffffffffffffffffffffffffffff1673ffffffffffffffffffffffffffffffffffffffff161461173d576040517f08c379a0000000000000000000000000000000000000000000000000000000008152600401611734906153d7565b60405180910390fd5b600073ffffffffffffffffffffffffffffffffffffffff16600a60009054906101000a900473ffffffffffffffffffffffffffffffffffffffff1673ffffffffffffffffffffffffffffffffffffffff167f8be0079c531659141344cd1fd0a4f28419497f9722a3daafe3b4186f6b6457e060405160405180910390a36000600a60006101000a81548173ffffffffffffffffffffffffffffffffffffffff021916908373ffffffffffffffffffffffffffffffffffffffff160217905550565b601360009054906101000a900473ffffffffffffffffffffffffffffffffffffffff1673ffffffffffffffffffffffffffffffffffffffff1661183f6129b5565b73ffffffffffffffffffffffffffffffffffffffff1614611895576040517f08c379a000000000000000000000000000000000000000000000000000000000815260040161188c906154b7565b60405180910390fd5b6118a982600e61330290919063ffffffff16565b6118e8576040517f08c379a00000000000000000000000000000000000000000000000000000000081526004016118df90615497565b60405180910390fd5b6000600d600084815260200190815260200160002090508173ffffffffffffffffffffffffffffffffffffffff168160010160009054906101000a900473ffffffffffffffffffffffffffffffffffffffff1673ffffffffffffffffffffffffffffffffffffffff1614611991576040517f08c379a000000000000000000000000000000000000000000000000000000000815260040161198890615457565b60405180910390fd5b61199e8360008085612d08565b827f22369ba22944aadf9e9d6f4c51462417a50ea7876b9c62c7c46b5522e9c672cc836040516119ce91906150ce565b60405180910390a2505050565b6060806119e8600e613476565b67ffffffffffffffff811115611a27577f4e487b7100000000000000000000000000000000000000000000000000000000600052604160045260246000fd5b604051908082528060200260200182016040528015611a6057816020015b611a4d613f73565b815260200190600190039081611a455790505b509150611a6d600e613476565b67ffffffffffffffff811115611aac577f4e487b7100000000000000000000000000000000000000000000000000000000600052604160045260246000fd5b604051908082528060200260200182016040528015611ae557816020015b611ad2613fe8565b815260200190600190039081611aca5790505b50905060005b611af5600e613476565b811015611d3c57600c6000611b1483600e61297e90919063ffffffff16565b81526020019081526020016000206040518060e001604052908160008201548152602001600182015481526020016002820160009054906101000a900460ff166006811115611b8c577f4e487b7100000000000000000000000000000000000000000000000000000000600052602160045260246000fd5b6006811115611bc4577f4e487b7100000000000000000000000000000000000000000000000000000000600052602160045260246000fd5b8152602001600382015481526020016004820154815260200160058201548152602001600682015481525050838281518110611c29577f4e487b7100000000000000000000000000000000000000000000000000000000600052603260045260246000fd5b6020026020010181905250600d6000600c6000611c5085600e61297e90919063ffffffff16565b8152602001908152602001600020600001548152602001908152602001600020604051806060016040529081600082015481526020016001820160009054906101000a900473ffffffffffffffffffffffffffffffffffffffff1673ffffffffffffffffffffffffffffffffffffffff1673ffffffffffffffffffffffffffffffffffffffff168152602001600282015481525050828281518110611d1e577f4e487b7100000000000000000000000000000000000000000000000000000000600052603260045260246000fd5b60200260200101819052508080611d3490615a56565b915050611aeb565b509091565b611d49613f73565b600c60008381526020019081526020016000206040518060e001604052908160008201548152602001600182015481526020016002820160009054906101000a900460ff166006811115611dc6577f4e487b7100000000000000000000000000000000000000000000000000000000600052602160045260246000fd5b6006811115611dfe577f4e487b7100000000000000000000000000000000000000000000000000000000600052602160045260246000fd5b81526020016003820154815260200160048201548152602001600582015481526020016006820154815250509050919050565b600b5481565b6000600a60009054906101000a900473ffffffffffffffffffffffffffffffffffffffff16905090565b606060078054611e7090615a24565b80601f0160208091040260200160405190810160405280929190818152602001828054611e9c90615a24565b8015611ee95780601f10611ebe57610100808354040283529160200191611ee9565b820191906000526020600020905b815481529060010190602001808311611ecc57829003601f168201915b5050505050905090565b6000611eff600e613476565b905090565b611f0c6129b5565b73ffffffffffffffffffffffffffffffffffffffff168273ffffffffffffffffffffffffffffffffffffffff161415611f7a576040517f08c379a0000000000000000000000000000000000000000000000000000000008152600401611f71906152d7565b60405180910390fd5b8060056000611f876129b5565b73ffffffffffffffffffffffffffffffffffffffff1673ffffffffffffffffffffffffffffffffffffffff16815260200190815260200160002060008473ffffffffffffffffffffffffffffffffffffffff1673ffffffffffffffffffffffffffffffffffffffff16815260200190815260200160002060006101000a81548160ff0219169083151502179055508173ffffffffffffffffffffffffffffffffffffffff166120346129b5565b73ffffffffffffffffffffffffffffffffffffffff167f17307eab39ab6107e8899845ad3d59bd9653f200f220920489ca2b5937696c318360405161207991906151c4565b60405180910390a35050565b600082116120c8576040517f08c379a00000000000000000000000000000000000000000000000000000000081526004016120bf906152f7565b60405180910390fd5b60018214156120df576120da8161348b565b612108565b60005b82811015612106576120f38261348b565b80806120fe90615a56565b9150506120e2565b505b5050565b60008061211883611d41565b60800151905060008114156121315760009150506121bc565b60006a52b7d2dcc80cd2e40000008261214a91906156fd565b9050611469811015612161576001925050506121bc565b611e9d811015612176576002925050506121bc565b61220381101561218b576003925050506121bc565b6124908110156121a0576004925050506121bc565b6125ec8110156121b5576005925050506121bc565b6006925050505b919050565b6121d26121cc6129b5565b83612a8b565b612211576040517f08c379a000000000000000000000000000000000000000000000000000000000815260040161220890615477565b60405180910390fd5b61221d84848484613524565b50505050565b6000601160008373ffffffffffffffffffffffffffffffffffffffff1673ffffffffffffffffffffffffffffffffffffffff168152602001908152602001600020549050919050565b606061227782612998565b6122b6576040517f08c379a00000000000000000000000000000000000000000000000000000000081526004016122ad906153f7565b60405180910390fd5b60006008600084815260200190815260200160002080546122d690615a24565b80601f016020809104026020016040519081016040528092919081815260200182805461230290615a24565b801561234f5780601f106123245761010080835404028352916020019161234f565b820191906000526020600020905b81548152906001019060200180831161233257829003601f168201915b505050505090506000612360611556565b90506000815114156123765781925050506123d2565b6000825111156123ab578082604051602001612393929190615034565b604051602081830303815290604052925050506123d2565b80846040516020016123be929190615058565b604051602081830303815290604052925050505b919050565b6123df6129b5565b73ffffffffffffffffffffffffffffffffffffffff16600a60009054906101000a900473ffffffffffffffffffffffffffffffffffffffff1673ffffffffffffffffffffffffffffffffffffffff161461246e576040517f08c379a0000000000000000000000000000000000000000000000000000000008152600401612465906153d7565b60405180910390fd5b80601360006101000a81548173ffffffffffffffffffffffffffffffffffffffff021916908373ffffffffffffffffffffffffffffffffffffffff16021790555050565b606060006124fc6000808573ffffffffffffffffffffffffffffffffffffffff1673ffffffffffffffffffffffffffffffffffffffff168152602001908152602001600020613476565b905060008167ffffffffffffffff811115612540577f4e487b7100000000000000000000000000000000000000000000000000000000600052604160045260246000fd5b60405190808252806020026020018201604052801561256e5781602001602082028036833780820191505090505b50905060005b82811015612624576125cc816000808873ffffffffffffffffffffffffffffffffffffffff1673ffffffffffffffffffffffffffffffffffffffff16815260200190815260200160002061297e90919063ffffffff16565b828281518110612605577f4e487b7100000000000000000000000000000000000000000000000000000000600052603260045260246000fd5b602002602001018181525050808061261c90615a56565b915050612574565b508092505050919050565b612637613fe8565b61264b82600e61330290919063ffffffff16565b156126df57600d6000838152602001908152602001600020604051806060016040529081600082015481526020016001820160009054906101000a900473ffffffffffffffffffffffffffffffffffffffff1673ffffffffffffffffffffffffffffffffffffffff1673ffffffffffffffffffffffffffffffffffffffff1681526020016002820154815250509050612716565b604051806060016040528060008152602001600073ffffffffffffffffffffffffffffffffffffffff168152602001600081525090505b919050565b6000600560008473ffffffffffffffffffffffffffffffffffffffff1673ffffffffffffffffffffffffffffffffffffffff16815260200190815260200160002060008373ffffffffffffffffffffffffffffffffffffffff1673ffffffffffffffffffffffffffffffffffffffff16815260200190815260200160002060009054906101000a900460ff16905092915050565b6127b76129b5565b73ffffffffffffffffffffffffffffffffffffffff16600a60009054906101000a900473ffffffffffffffffffffffffffffffffffffffff1673ffffffffffffffffffffffffffffffffffffffff1614612846576040517f08c379a000000000000000000000000000000000000000000000000000000000815260040161283d906153d7565b60405180910390fd5b61284f81613535565b50565b600061289b601060008473ffffffffffffffffffffffffffffffffffffffff1673ffffffffffffffffffffffffffffffffffffffff168152602001908152602001600020613476565b9050919050565b600081116128e5576040517f08c379a00000000000000000000000000000000000000000000000000000000081526004016128dc906154d7565b60405180910390fd5b6000600c6000848152602001908152602001600020905061291382826003015461366590919063ffffffff16565b8160030181905550827f3056b9cd784671e7a0f5d6f930db4d14e1e876a87360c871cc4d88b9f54c44b28360405161294b919061552d565b60405180910390a2505050565b601260009054906101000a900473ffffffffffffffffffffffffffffffffffffffff1681565b600061298d83600001836136c3565b60001c905092915050565b60006129ae82600161371490919063ffffffff16565b9050919050565b600033905090565b816004600083815260200190815260200160002060006101000a81548173ffffffffffffffffffffffffffffffffffffffff021916908373ffffffffffffffffffffffffffffffffffffffff160217905550808273ffffffffffffffffffffffffffffffffffffffff16612a308361151f565b73ffffffffffffffffffffffffffffffffffffffff167f8c5be1e5ebec7d5bd14f71427d1e84f3dd0314c0f7b2291e5b200ac8c7c3b92560405160405180910390a45050565b6000612a848260000161372e565b9050919050565b6000612a9682612998565b612ad5576040517f08c379a0000000000000000000000000000000000000000000000000000000008152600401612acc90615317565b60405180910390fd5b6000612ae08361151f565b90508073ffffffffffffffffffffffffffffffffffffffff168473ffffffffffffffffffffffffffffffffffffffff161480612b4f57508373ffffffffffffffffffffffffffffffffffffffff16612b37846108a2565b73ffffffffffffffffffffffffffffffffffffffff16145b80612b605750612b5f818561271b565b5b91505092915050565b600073ffffffffffffffffffffffffffffffffffffffff168273ffffffffffffffffffffffffffffffffffffffff161415612bd9576040517f08c379a0000000000000000000000000000000000000000000000000000000008152600401612bd0906152b7565b60405180910390fd5b612be4838383613743565b612bef6000826129bd565b612c3f816000808673ffffffffffffffffffffffffffffffffffffffff1673ffffffffffffffffffffffffffffffffffffffff16815260200190815260200160002061374890919063ffffffff16565b50612c90816000808573ffffffffffffffffffffffffffffffffffffffff1673ffffffffffffffffffffffffffffffffffffffff16815260200190815260200160002061376290919063ffffffff16565b50612ca78183600161377c9092919063ffffffff16565b50808273ffffffffffffffffffffffffffffffffffffffff168473ffffffffffffffffffffffffffffffffffffffff167fddf252ad1be2c89b69c2b068fc378daa952ba7f163c4a11628f55a4df523b3ef60405160405180910390a4505050565b6000600d600086815260200190815260200160002090508315612edd57612dcf82601360009054906101000a900473ffffffffffffffffffffffffffffffffffffffff1673ffffffffffffffffffffffffffffffffffffffff1663412753586040518163ffffffff1660e01b815260040160206040518083038186803b158015612d9157600080fd5b505afa158015612da5573d6000803e3d6000fd5b505050506040513d601f19601f82011682018060405250810190612dc991906141c4565b87610a50565b612de385600e61376290919063ffffffff16565b50612e3585601060008573ffffffffffffffffffffffffffffffffffffffff1673ffffffffffffffffffffffffffffffffffffffff16815260200190815260200160002061376290919063ffffffff16565b5060405180606001604052808681526020018373ffffffffffffffffffffffffffffffffffffffff16815260200184815250600d60008781526020019081526020016000206000820151816000015560208201518160010160006101000a81548173ffffffffffffffffffffffffffffffffffffffff021916908373ffffffffffffffffffffffffffffffffffffffff160217905550604082015181600201559050506130b8565b612f87601360009054906101000a900473ffffffffffffffffffffffffffffffffffffffff1673ffffffffffffffffffffffffffffffffffffffff1663412753586040518163ffffffff1660e01b815260040160206040518083038186803b158015612f4857600080fd5b505afa158015612f5c573d6000803e3d6000fd5b505050506040513d601f19601f82011682018060405250810190612f8091906141c4565b8387610a50565b612f9b85600e61374890919063ffffffff16565b5061301185601060008460010160009054906101000a900473ffffffffffffffffffffffffffffffffffffffff1673ffffffffffffffffffffffffffffffffffffffff1673ffffffffffffffffffffffffffffffffffffffff16815260200190815260200160002061374890919063ffffffff16565b50604051806060016040528060008152602001600073ffffffffffffffffffffffffffffffffffffffff1681526020016000815250600d60008781526020019081526020016000206000820151816000015560208201518160010160006101000a81548173ffffffffffffffffffffffffffffffffffffffff021916908373ffffffffffffffffffffffffffffffffffffffff160217905550604082015181600201559050505b5050505050565b6131126001601160008573ffffffffffffffffffffffffffffffffffffffff1673ffffffffffffffffffffffffffffffffffffffff168152602001908152602001600020546133e190919063ffffffff16565b601160008473ffffffffffffffffffffffffffffffffffffffff1673ffffffffffffffffffffffffffffffffffffffff16815260200190815260200160002081905550600061315f6137b1565b905061316b83826137ce565b60006131ac6040518060400160405280600681526020017f7261726974790000000000000000000000000000000000000000000000000000815250836137e4565b90506040518060e001604052808381526020018281526020018460068111156131fe577f4e487b7100000000000000000000000000000000000000000000000000000000600052602160045260246000fd5b815260200160008152602001600081526020016000815260200142815250600c6000848152602001908152602001600020600082015181600001556020820151816001015560408201518160020160006101000a81548160ff02191690836006811115613294577f4e487b7100000000000000000000000000000000000000000000000000000000600052602160045260246000fd5b0217905550606082015181600301556080820151816004015560a0820151816005015560c08201518160060155905050817f2bf03af0706d54e76576b0b1fb7783f50164f3b0e78ee948e922bb4691540640856040516132f491906150ce565b60405180910390a250505050565b6000613314836000018360001b613914565b905092915050565b60008083141561332f5760009050613391565b6000828461333d919061589f565b905082848261334c91906156fd565b1461338c576040517f08c379a000000000000000000000000000000000000000000000000000000000815260040161338390615397565b60405180910390fd5b809150505b92915050565b60006133d983836040518060400160405280601a81526020017f536166654d6174683a206469766973696f6e206279207a65726f000000000000815250613937565b905092915050565b600061342383836040518060400160405280601e81526020017f536166654d6174683a207375627472616374696f6e206f766572666c6f77000081525061399a565b905092915050565b60008060008061343e86600001866139fe565b915091508160001c8160001c9350935050509250929050565b600061346a846000018460001b84613a3e565b60001c90509392505050565b600061348482600001613abf565b9050919050565b6134de6001601160008473ffffffffffffffffffffffffffffffffffffffff1673ffffffffffffffffffffffffffffffffffffffff1681526020019081526020016000205461366590919063ffffffff16565b601160008373ffffffffffffffffffffffffffffffffffffffff1673ffffffffffffffffffffffffffffffffffffffff1681526020019081526020016000208190555050565b61352f848484612b69565b50505050565b600073ffffffffffffffffffffffffffffffffffffffff168173ffffffffffffffffffffffffffffffffffffffff1614156135a5576040517f08c379a000000000000000000000000000000000000000000000000000000000815260040161359c90615257565b60405180910390fd5b8073ffffffffffffffffffffffffffffffffffffffff16600a60009054906101000a900473ffffffffffffffffffffffffffffffffffffffff1673ffffffffffffffffffffffffffffffffffffffff167f8be0079c531659141344cd1fd0a4f28419497f9722a3daafe3b4186f6b6457e060405160405180910390a380600a60006101000a81548173ffffffffffffffffffffffffffffffffffffffff021916908373ffffffffffffffffffffffffffffffffffffffff16021790555050565b600080828461367491906156a7565b9050838110156136b9576040517f08c379a00000000000000000000000000000000000000000000000000000000081526004016136b090615297565b60405180910390fd5b8091505092915050565b6000826000018281548110613701577f4e487b7100000000000000000000000000000000000000000000000000000000600052603260045260246000fd5b9060005260206000200154905092915050565b6000613726836000018360001b613ad0565b905092915050565b600061373c82600001613af0565b9050919050565b505050565b600061375a836000018360001b613b05565b905092915050565b6000613774836000018360001b613c8b565b905092915050565b60006137a8846000018460001b8473ffffffffffffffffffffffffffffffffffffffff1660001b613cfb565b90509392505050565b60006137c96001600b5461366590919063ffffffff16565b905090565b6137d88282613d36565b6137e0613ec3565b5050565b6000806040518060400160405280600681526020017f7261726974790000000000000000000000000000000000000000000000000000815250805190602001208480519060200120141561389757600061383f846002613edd565b905060058110156138535760019150613891565b600f8110156138655760029150613890565b6023811015613877576003915061388f565b6041811015613889576004915061388e565b600591505b5b5b5b5061390a565b6040518060400160405280600781526020017f656c656d656e740000000000000000000000000000000000000000000000000081525080519060200120848051906020012014156139095760006138ef846002613edd565b905061390560148261339790919063ffffffff16565b9150505b5b8091505092915050565b600080836001016000848152602001908152602001600020541415905092915050565b6000808311829061397e576040517f08c379a00000000000000000000000000000000000000000000000000000000081526004016139759190615215565b60405180910390fd5b506000838561398d91906156fd565b9050809150509392505050565b60008383111582906139e2576040517f08c379a00000000000000000000000000000000000000000000000000000000081526004016139d99190615215565b60405180910390fd5b50600083856139f191906158f9565b9050809150509392505050565b6000806000613a198486600001613f2e90919063ffffffff16565b9050808560020160008381526020019081526020016000205492509250509250929050565b6000808460020160008581526020019081526020016000205490506000801b81141580613a715750613a708585613ad0565b5b8390613ab3576040517f08c379a0000000000000000000000000000000000000000000000000000000008152600401613aaa9190615215565b60405180910390fd5b50809150509392505050565b600081600001805490509050919050565b6000613ae88284600001613f4590919063ffffffff16565b905092915050565b6000613afe82600001613abf565b9050919050565b60008083600101600084815260200190815260200160002054905060008114613c7f576000600182613b3791906158f9565b9050600060018660000180549050613b4f91906158f9565b9050818114613c0a576000866000018281548110613b96577f4e487b7100000000000000000000000000000000000000000000000000000000600052603260045260246000fd5b9060005260206000200154905080876000018481548110613be0577f4e487b7100000000000000000000000000000000000000000000000000000000600052603260045260246000fd5b90600052602060002001819055508387600101600083815260200190815260200160002081905550505b85600001805480613c44577f4e487b7100000000000000000000000000000000000000000000000000000000600052603160045260246000fd5b600190038181906000526020600020016000905590558560010160008681526020019081526020016000206000905560019350505050613c85565b60009150505b92915050565b6000613c978383613914565b613cf0578260000182908060018154018082558091505060019003906000526020600020016000909190919091505582600001805490508360010160008481526020019081526020016000208190555060019050613cf5565b600090505b92915050565b60008184600201600085815260200190815260200160002081905550613d2d8385600001613f5c90919063ffffffff16565b90509392505050565b600073ffffffffffffffffffffffffffffffffffffffff168273ffffffffffffffffffffffffffffffffffffffff161415613da6576040517f08c379a0000000000000000000000000000000000000000000000000000000008152600401613d9d90615377565b60405180910390fd5b613daf81612998565b15613def576040517f08c379a0000000000000000000000000000000000000000000000000000000008152600401613de690615277565b60405180910390fd5b613dfb60008383613743565b613e4b816000808573ffffffffffffffffffffffffffffffffffffffff1673ffffffffffffffffffffffffffffffffffffffff16815260200190815260200160002061376290919063ffffffff16565b50613e628183600161377c9092919063ffffffff16565b50808273ffffffffffffffffffffffffffffffffffffffff16600073ffffffffffffffffffffffffffffffffffffffff167fddf252ad1be2c89b69c2b068fc378daa952ba7f163c4a11628f55a4df523b3ef60405160405180910390a45050565b600b6000815480929190613ed690615a56565b9190505550565b600081600a613eec9190615781565b44428585604051602001613f039493929190615080565b6040516020818303038152906040528051906020012060001c613f269190615aa9565b905092915050565b6000613f3d83600001836136c3565b905092915050565b6000613f548360000183613914565b905092915050565b6000613f6b8360000183613c8b565b905092915050565b6040518060e00160405280600081526020016000815260200160006006811115613fc6577f4e487b7100000000000000000000000000000000000000000000000000000000600052602160045260246000fd5b8152602001600081526020016000815260200160008152602001600081525090565b604051806060016040528060008152602001600073ffffffffffffffffffffffffffffffffffffffff168152602001600081525090565b600061403261402d84615579565b615548565b9050808382526020820190508285602086028201111561405157600080fd5b60005b8581101561408157816140678882614171565b845260208401935060208301925050600181019050614054565b5050509392505050565b600061409e614099846155a5565b615548565b9050828152602081018484840111156140b657600080fd5b6140c18482856159e2565b509392505050565b6000813590506140d881615bf7565b92915050565b6000815190506140ed81615bf7565b92915050565b600082601f83011261410457600080fd5b813561411484826020860161401f565b91505092915050565b60008135905061412c81615c0e565b92915050565b60008151905061414181615c0e565b92915050565b600082601f83011261415857600080fd5b813561416884826020860161408b565b91505092915050565b60008135905061418081615c25565b92915050565b60008151905061419581615c25565b92915050565b6000602082840312156141ad57600080fd5b60006141bb848285016140c9565b91505092915050565b6000602082840312156141d657600080fd5b60006141e4848285016140de565b91505092915050565b6000806040838503121561420057600080fd5b600061420e858286016140c9565b925050602061421f858286016140c9565b9150509250929050565b60008060006060848603121561423e57600080fd5b600061424c868287016140c9565b935050602061425d868287016140c9565b925050604061426e86828701614171565b9150509250925092565b6000806000806080858703121561428e57600080fd5b600061429c878288016140c9565b94505060206142ad878288016140c9565b93505060406142be87828801614171565b925050606085013567ffffffffffffffff8111156142db57600080fd5b6142e787828801614147565b91505092959194509250565b6000806040838503121561430657600080fd5b6000614314858286016140c9565b92505060206143258582860161411d565b9150509250929050565b6000806040838503121561434257600080fd5b6000614350858286016140c9565b925050602061436185828601614171565b9150509250929050565b60006020828403121561437d57600080fd5b600082013567ffffffffffffffff81111561439757600080fd5b6143a3848285016140f3565b91505092915050565b6000602082840312156143be57600080fd5b60006143cc84828501614132565b91505092915050565b6000602082840312156143e757600080fd5b60006143f584828501614171565b91505092915050565b60006020828403121561441057600080fd5b600061441e84828501614186565b91505092915050565b6000806040838503121561443a57600080fd5b600061444885828601614171565b9250506020614459858286016140c9565b9150509250929050565b60008060006060848603121561447857600080fd5b600061448686828701614171565b9350506020614497868287016140c9565b92505060406144a886828701614171565b9150509250925092565b600080604083850312156144c557600080fd5b60006144d385828601614171565b92505060206144e485828601614171565b9150509250929050565b60008060006060848603121561450357600080fd5b600061451186828701614171565b935050602061452286828701614171565b9250506040614533868287016140c9565b9150509250925092565b60006145498383614e5f565b60e08301905092915050565b60006145618383614f7b565b60608301905092915050565b60006145798383614fff565b60208301905092915050565b61458e8161592d565b82525050565b61459d8161592d565b82525050565b60006145ae82615605565b6145b88185615658565b93506145c3836155d5565b8060005b838110156145f45781516145db888261453d565b97506145e683615631565b9250506001810190506145c7565b5085935050505092915050565b600061460c82615610565b6146168185615669565b9350614621836155e5565b8060005b838110156146525781516146398882614555565b97506146448361563e565b925050600181019050614625565b5085935050505092915050565b600061466a8261561b565b614674818561567a565b935061467f836155f5565b8060005b838110156146b0578151614697888261456d565b97506146a28361564b565b925050600181019050614683565b5085935050505092915050565b6146c68161593f565b82525050565b6146d581615988565b82525050565b6146e4816159ac565b82525050565b6146f3816159d0565b82525050565b600061470482615626565b61470e818561568b565b935061471e8185602086016159f1565b61472781615bc5565b840191505092915050565b600061473d82615626565b614747818561569c565b93506147578185602086016159f1565b80840191505092915050565b6000614770600f8361568b565b91507f6e6f7468696e67206973206672656500000000000000000000000000000000006000830152602082019050919050565b60006147b060268361568b565b91507f4f776e61626c653a206e6577206f776e657220697320746865207a65726f206160008301527f64647265737300000000000000000000000000000000000000000000000000006020830152604082019050919050565b6000614816601c8361568b565b91507f4552433732313a20746f6b656e20616c7265616479206d696e746564000000006000830152602082019050919050565b6000614856601b8361568b565b91507f536166654d6174683a206164646974696f6e206f766572666c6f7700000000006000830152602082019050919050565b600061489660248361568b565b91507f4552433732313a207472616e7366657220746f20746865207a65726f2061646460008301527f72657373000000000000000000000000000000000000000000000000000000006020830152604082019050919050565b60006148fc60198361568b565b91507f4552433732313a20617070726f766520746f2063616c6c6572000000000000006000830152602082019050919050565b600061493c600b8361568b565b91507f726571756972653a203e300000000000000000000000000000000000000000006000830152602082019050919050565b600061497c602c8361568b565b91507f4552433732313a206f70657261746f7220717565727920666f72206e6f6e657860008301527f697374656e7420746f6b656e00000000000000000000000000000000000000006020830152604082019050919050565b60006149e260388361568b565b91507f4552433732313a20617070726f76652063616c6c6572206973206e6f74206f7760008301527f6e6572206e6f7220617070726f76656420666f7220616c6c00000000000000006020830152604082019050919050565b6000614a48602a8361568b565b91507f4552433732313a2062616c616e636520717565727920666f7220746865207a6560008301527f726f2061646472657373000000000000000000000000000000000000000000006020830152604082019050919050565b6000614aae60208361568b565b91507f4552433732313a206d696e7420746f20746865207a65726f20616464726573736000830152602082019050919050565b6000614aee60218361568b565b91507f536166654d6174683a206d756c7469706c69636174696f6e206f766572666c6f60008301527f77000000000000000000000000000000000000000000000000000000000000006020830152604082019050919050565b6000614b54602c8361568b565b91507f4552433732313a20617070726f76656420717565727920666f72206e6f6e657860008301527f697374656e7420746f6b656e00000000000000000000000000000000000000006020830152604082019050919050565b6000614bba60208361568b565b91507f4f776e61626c653a2063616c6c6572206973206e6f7420746865206f776e65726000830152602082019050919050565b6000614bfa602f8361568b565b91507f4552433732314d657461646174613a2055524920717565727920666f72206e6f60008301527f6e6578697374656e7420746f6b656e00000000000000000000000000000000006020830152604082019050919050565b6000614c6060108361568b565b91507f6e6f7420456e6f75676820526f6c6c73000000000000000000000000000000006000830152602082019050919050565b6000614ca060218361568b565b91507f4552433732313a20617070726f76616c20746f2063757272656e74206f776e6560008301527f72000000000000000000000000000000000000000000000000000000000000006020830152604082019050919050565b6000614d0660078361568b565b91507f6e6f74206f776e000000000000000000000000000000000000000000000000006000830152602082019050919050565b6000614d4660318361568b565b91507f4552433732313a207472616e736665722063616c6c6572206973206e6f74206f60008301527f776e6572206e6f7220617070726f7665640000000000000000000000000000006020830152604082019050919050565b6000614dac60088361568b565b91507f6e6f742073616c650000000000000000000000000000000000000000000000006000830152602082019050919050565b6000614dec600b8361568b565b91507f4e6f7420416c6c6f7765640000000000000000000000000000000000000000006000830152602082019050919050565b6000614e2c60068361568b565b91507f6e6f2065787000000000000000000000000000000000000000000000000000006000830152602082019050919050565b60e082016000820151614e756000850182614fff565b506020820151614e886020850182614fff565b506040820151614e9b60408501826146ea565b506060820151614eae6060850182614fff565b506080820151614ec16080850182614fff565b5060a0820151614ed460a0850182614fff565b5060c0820151614ee760c0850182614fff565b50505050565b60e082016000820151614f036000850182614fff565b506020820151614f166020850182614fff565b506040820151614f2960408501826146ea565b506060820151614f3c6060850182614fff565b506080820151614f4f6080850182614fff565b5060a0820151614f6260a0850182614fff565b5060c0820151614f7560c0850182614fff565b50505050565b606082016000820151614f916000850182614fff565b506020820151614fa46020850182614585565b506040820151614fb76040850182614fff565b50505050565b606082016000820151614fd36000850182614fff565b506020820151614fe66020850182614585565b506040820151614ff96040850182614fff565b50505050565b6150088161597e565b82525050565b6150178161597e565b82525050565b61502e6150298261597e565b615a9f565b82525050565b60006150408285614732565b915061504c8284614732565b91508190509392505050565b60006150648285614732565b9150615070828461501d565b6020820191508190509392505050565b600061508c828761501d565b60208201915061509c828661501d565b6020820191506150ac828561501d565b6020820191506150bc828461501d565b60208201915081905095945050505050565b60006020820190506150e36000830184614594565b92915050565b60006060820190506150fe6000830186614594565b61510b6020830185614594565b615118604083018461500e565b949350505050565b60006040820190506151356000830185614594565b615142602083018461500e565b9392505050565b6000602082019050818103600083015261516381846145a3565b905092915050565b6000604082019050818103600083015261518581856145a3565b905081810360208301526151998184614601565b90509392505050565b600060208201905081810360008301526151bc818461465f565b905092915050565b60006020820190506151d960008301846146bd565b92915050565b60006020820190506151f460008301846146cc565b92915050565b600060208201905061520f60008301846146db565b92915050565b6000602082019050818103600083015261522f81846146f9565b905092915050565b6000602082019050818103600083015261525081614763565b9050919050565b60006020820190508181036000830152615270816147a3565b9050919050565b6000602082019050818103600083015261529081614809565b9050919050565b600060208201905081810360008301526152b081614849565b9050919050565b600060208201905081810360008301526152d081614889565b9050919050565b600060208201905081810360008301526152f0816148ef565b9050919050565b600060208201905081810360008301526153108161492f565b9050919050565b600060208201905081810360008301526153308161496f565b9050919050565b60006020820190508181036000830152615350816149d5565b9050919050565b6000602082019050818103600083015261537081614a3b565b9050919050565b6000602082019050818103600083015261539081614aa1565b9050919050565b600060208201905081810360008301526153b081614ae1565b9050919050565b600060208201905081810360008301526153d081614b47565b9050919050565b600060208201905081810360008301526153f081614bad565b9050919050565b6000602082019050818103600083015261541081614bed565b9050919050565b6000602082019050818103600083015261543081614c53565b9050919050565b6000602082019050818103600083015261545081614c93565b9050919050565b6000602082019050818103600083015261547081614cf9565b9050919050565b6000602082019050818103600083015261549081614d39565b9050919050565b600060208201905081810360008301526154b081614d9f565b9050919050565b600060208201905081810360008301526154d081614ddf565b9050919050565b600060208201905081810360008301526154f081614e1f565b9050919050565b600060e08201905061550c6000830184614eed565b92915050565b60006060820190506155276000830184614fbd565b92915050565b6000602082019050615542600083018461500e565b92915050565b6000604051905081810181811067ffffffffffffffff8211171561556f5761556e615b96565b5b8060405250919050565b600067ffffffffffffffff82111561559457615593615b96565b5b602082029050602081019050919050565b600067ffffffffffffffff8211156155c0576155bf615b96565b5b601f19601f8301169050602081019050919050565b6000819050602082019050919050565b6000819050602082019050919050565b6000819050602082019050919050565b600081519050919050565b600081519050919050565b600081519050919050565b600081519050919050565b6000602082019050919050565b6000602082019050919050565b6000602082019050919050565b600082825260208201905092915050565b600082825260208201905092915050565b600082825260208201905092915050565b600082825260208201905092915050565b600081905092915050565b60006156b28261597e565b91506156bd8361597e565b9250827fffffffffffffffffffffffffffffffffffffffffffffffffffffffffffffffff038211156156f2576156f1615ada565b5b828201905092915050565b60006157088261597e565b91506157138361597e565b92508261572357615722615b09565b5b828204905092915050565b6000808291508390505b60018511156157785780860481111561575457615753615ada565b5b60018516156157635780820291505b808102905061577185615bd6565b9450615738565b94509492505050565b600061578c8261597e565b91506157978361597e565b92506157c47fffffffffffffffffffffffffffffffffffffffffffffffffffffffffffffffff84846157cc565b905092915050565b6000826157dc5760019050615898565b816157ea5760009050615898565b8160018114615800576002811461580a57615839565b6001915050615898565b60ff84111561581c5761581b615ada565b5b8360020a91508482111561583357615832615ada565b5b50615898565b5060208310610133831016604e8410600b841016171561586e5782820a90508381111561586957615868615ada565b5b615898565b61587b848484600161572e565b9250905081840481111561589257615891615ada565b5b81810290505b9392505050565b60006158aa8261597e565b91506158b58361597e565b9250817fffffffffffffffffffffffffffffffffffffffffffffffffffffffffffffffff04831182151516156158ee576158ed615ada565b5b828202905092915050565b60006159048261597e565b915061590f8361597e565b92508282101561592257615921615ada565b5b828203905092915050565b60006159388261595e565b9050919050565b60008115159050919050565b600081905061595982615be3565b919050565b600073ffffffffffffffffffffffffffffffffffffffff82169050919050565b6000819050919050565b60006159938261599a565b9050919050565b60006159a58261595e565b9050919050565b60006159b7826159be565b9050919050565b60006159c98261595e565b9050919050565b60006159db8261594b565b9050919050565b82818337600083830152505050565b60005b83811015615a0f5780820151818401526020810190506159f4565b83811115615a1e576000848401525b50505050565b60006002820490506001821680615a3c57607f821691505b60208210811415615a5057615a4f615b67565b5b50919050565b6000615a618261597e565b91507fffffffffffffffffffffffffffffffffffffffffffffffffffffffffffffffff821415615a9457615a93615ada565b5b600182019050919050565b6000819050919050565b6000615ab48261597e565b9150615abf8361597e565b925082615acf57615ace615b09565b5b828206905092915050565b7f4e487b7100000000000000000000000000000000000000000000000000000000600052601160045260246000fd5b7f4e487b7100000000000000000000000000000000000000000000000000000000600052601260045260246000fd5b7f4e487b7100000000000000000000000000000000000000000000000000000000600052602160045260246000fd5b7f4e487b7100000000000000000000000000000000000000000000000000000000600052602260045260246000fd5b7f4e487b7100000000000000000000000000000000000000000000000000000000600052604160045260246000fd5b6000601f19601f8301169050919050565b60008160011c9050919050565b60078110615bf457615bf3615b38565b5b50565b615c008161592d565b8114615c0b57600080fd5b50565b615c178161593f565b8114615c2257600080fd5b50565b615c2e8161597e565b8114615c3957600080fd5b5056fe4552433732313a206f776e657220717565727920666f72206e6f6e6578697374656e7420746f6b656ea2646970667358221220d6dc957d02697f866be6ebdf51b2a833d9f5a81157a4a42f122a75ef642cfc4a64736f6c63430008000033",
  "immutableReferences": {},
  "source": "// SPDX-License-Identifier: UNLICENSED\r\npragma solidity ^0.8.0;\r\n\r\nimport \"./Utils.sol\";\r\nimport \"./IHeroPrimeManager.sol\";\r\nimport \"./IERC20.sol\";\r\nimport \"./ERC721.sol\";\r\n\r\ncontract HeroPrimeArtifactNFT is ERC721, Ownable {\r\n    using SafeMath for uint256;\r\n    using EnumerableSet for EnumerableSet.UintSet;\r\n    \r\n    enum Effect {\r\n        BOOSTA,\r\n        BOOSTB,\r\n        BOOSTC,\r\n        BOOSTD,\r\n        BOOSTE,\r\n        BOOSTF,\r\n        BOOSTJ\r\n    }\r\n    \r\n    event rolledHero(uint256 indexed tokenId, address buyer);\r\n    event Exp(uint256 indexed tokenId, uint256 exp);\r\n    \r\n    event PlaceOrder(uint256 indexed tokenId, address seller, uint256 price);\r\n    event CancelOrder(uint256 indexed tokenId, address seller);\r\n    event FillOrder(uint256 indexed tokenId, address seller);\r\n\r\n    struct Artifact {\r\n        uint id;\r\n        uint256 generation;\r\n        Effect element;\r\n        uint256 exp;\r\n        uint256 dna;\r\n        uint256 farmTime;\r\n        uint256 bornTime;\r\n    }\r\n    struct ItemSale {\r\n        uint256 tokenId;\r\n        address owner;\r\n        uint256 price;\r\n    }\r\n    \r\n    uint256 public latestTokenId;\r\n\r\n    mapping(uint256 => Artifact) internal heroPrimesArtifact;\r\n    mapping(uint256 => ItemSale) internal listings;\r\n    \r\n    EnumerableSet.UintSet private tokenSales;\r\n    mapping(address => EnumerableSet.UintSet) private sellerTokens;\r\n\r\n    mapping(address => uint256) internal heroPrimeArtifactRolls;\r\n\r\n    \r\n    IERC20 public heroPrimeERC20;\r\n    IHeroPrimeManager public manager;\r\n\r\n    constructor(\r\n        string memory _name,\r\n        string memory _symbol,\r\n        address _heroprimeERC20\r\n    ) ERC721(_name, _symbol) {\r\n        heroPrimeERC20 = IERC20(_heroprimeERC20);\r\n    }\r\n\r\n    function setManager(address _manager) external onlyOwner{\r\n        manager = IHeroPrimeManager(_manager);\r\n    }\r\n    modifier onlyManager(){\r\n        require(_msgSender() == address(manager), \"Not Allowed\");\r\n        _;\r\n    }\r\n    function _mint(address to, uint256 tokenId) internal override(ERC721) {\r\n        super._mint(to, tokenId);\r\n\r\n        _incrementTokenId();\r\n    }\r\n    \r\n    /**\r\n     * @dev calculates the next token ID based on value of latestTokenId\r\n     * @return uint256 for the next token ID\r\n     */\r\n    function _getNextTokenId() private view returns (uint256) {\r\n        return latestTokenId.add(1);\r\n    }\r\n\r\n    /**\r\n     * @dev increments the value of latestTokenId\r\n     */\r\n    function _incrementTokenId() private {\r\n        latestTokenId++;\r\n    }\r\n\r\n    function getArtifact(uint256 _tokenId)\r\n        public\r\n        view\r\n        returns (Artifact memory)\r\n    {\r\n        return heroPrimesArtifact[_tokenId];\r\n    }\r\n\r\n    function getArtifacts(uint256[] memory _tokenIds)\r\n        public\r\n        view\r\n        returns (Artifact[] memory)\r\n    {\r\n        Artifact[] memory result = new Artifact[](_tokenIds.length);\r\n        for (uint256 index = 0; index < _tokenIds.length; index++) {\r\n            result[index] = heroPrimesArtifact[_tokenIds[index]];\r\n        }\r\n        return result;\r\n    }\r\n\r\n    \r\n    function getRare(uint256 _tokenId) public view returns (uint256) {\r\n        uint256 dna = getArtifact(_tokenId).dna;\r\n        if (dna == 0) return 0;\r\n        uint256 rareParser = dna / 10**26;\r\n        if (rareParser < 5225) {\r\n            return 1;\r\n        } else if (rareParser < 7837) {\r\n            return 2;\r\n        } else if (rareParser < 8707) {\r\n            return 3;\r\n        } else if (rareParser < 9360) {\r\n            return 4;\r\n        } else if (rareParser < 9708) {\r\n            return 5;\r\n        } else {\r\n            return 6;\r\n        }\r\n    }\r\n\r\n\r\n    function rollArtifact(\r\n        uint256 amount,\r\n        address receiver,\r\n        uint elementindex\r\n    ) external {\r\n        require(heroPrimeArtifactRolls[receiver] >= amount, \"not Enough Rolls\" );\r\n        Effect element = Effect(elementindex);\r\n        require(amount > 0, \"require: >0\");\r\n        if (amount == 1) _rollArtifact(receiver, element);\r\n        else\r\n            for (uint256 index = 0; index < amount; index++) {\r\n                _rollArtifact(receiver, element);\r\n            }\r\n    }\r\n\r\n    function _rollArtifact(address receiver, Effect element) internal {\r\n        heroPrimeArtifactRolls[receiver] = heroPrimeArtifactRolls[receiver].sub(1);\r\n        uint256 nextTokenId = _getNextTokenId();\r\n        _mint(receiver, nextTokenId);\r\n        uint rarity = generation(\"rarity\", nextTokenId);\r\n        heroPrimesArtifact[nextTokenId] = Artifact({\r\n            id: nextTokenId,\r\n            generation: rarity,\r\n            element: element,\r\n            exp: 0,\r\n            dna: 0,\r\n            farmTime: 0,\r\n            bornTime: block.timestamp\r\n        });\r\n\r\n        emit rolledHero(nextTokenId, receiver);\r\n    }\r\n\r\n    function incrementRolls(uint256 amount, address receiver) external {\r\n        require(amount > 0, \"require: >0\");\r\n        if (amount == 1) _incrementRolls(receiver);\r\n        else\r\n            for (uint256 index = 0; index < amount; index++) {\r\n                _incrementRolls(receiver);\r\n            }\r\n    }\r\n\r\n    function _incrementRolls(address receiver) internal {\r\n        heroPrimeArtifactRolls[receiver] = heroPrimeArtifactRolls[receiver].add(1);\r\n    }\r\n\r\n    function getOwnerArtifactRolls(address owner) external view returns (uint256) {\r\n        return heroPrimeArtifactRolls[owner];\r\n    }\r\n    \r\n    function exp(uint256 _tokenId, uint256 _exp) public {\r\n        require(_exp > 0, \"no exp\");\r\n        Artifact storage heroPrime = heroPrimesArtifact[_tokenId];\r\n        heroPrime.exp = heroPrime.exp.add(_exp);\r\n        emit Exp(_tokenId, _exp);\r\n    }\r\n\r\n    \r\n\r\n    function generation(string memory field, uint id) internal view returns (uint256){\r\n        uint result;\r\n        if(keccak256(bytes(field)) == keccak256(bytes(\"rarity\"))) {\r\n            uint rand = random(id, 2);\r\n            if(rand < 5) {\r\n                result = 1;\r\n            } else if (rand < 15) {\r\n                result = 2;\r\n            } else if (rand < 35) {\r\n                result = 3;\r\n            } else if (rand < 65) {\r\n                result = 4;\r\n            } else {\r\n                result = 5;\r\n            }\r\n        } else if(keccak256(bytes(field)) == keccak256(bytes(\"element\"))) {\r\n            uint rand = random(id, 2);\r\n            result = rand.div(20);\r\n        }\r\n        return result;\r\n    }\r\n  function random(uint256 _id, uint256 _length)\r\n        private\r\n        view\r\n        returns (uint256)\r\n    {\r\n        return\r\n            uint256(\r\n                uint256(\r\n                    keccak256(\r\n                        abi.encodePacked(\r\n                            block.difficulty,\r\n                            block.timestamp,\r\n                            _id,\r\n                            _length\r\n                        )\r\n                    )\r\n                )\r\n            ) % (10**_length);\r\n    }\r\n\r\n\r\n\r\n    // marketplace\r\n\r\n    function placeOrder(uint256 _tokenId, uint256 _price, address sender) external onlyManager {\r\n        require(ownerOf(_tokenId) == sender, \"not own\");\r\n        require(_price > 0, \"nothing is free\");\r\n\r\n        tokenOrder(_tokenId, true, _price, sender);\r\n\r\n        emit PlaceOrder(_tokenId, sender, _price);\r\n    }\r\n\r\n    function cancelOrder(uint256 _tokenId, address sender) external onlyManager {\r\n        require(tokenSales.contains(_tokenId), \"not sale\");\r\n        ItemSale storage itemSale = listings[_tokenId];\r\n        require(itemSale.owner == sender, \"not own\");\r\n\r\n        tokenOrder(_tokenId, false, 0, sender);\r\n\r\n        emit CancelOrder(_tokenId, sender);\r\n    }\r\n\r\n    function fillOrder(uint256 _tokenId, address sender) external onlyManager {\r\n        require(tokenSales.contains(_tokenId), \"not sale\");\r\n        ItemSale storage itemSale = listings[_tokenId];\r\n        uint256 feeMarket = itemSale.price.mul(manager.feeMarketRate()).div(\r\n            manager.divPercent()\r\n        );\r\n        heroPrimeERC20.transferFrom(sender, manager.feeAddress(), feeMarket);\r\n        heroPrimeERC20.transferFrom(\r\n            sender,\r\n            itemSale.owner,\r\n            itemSale.price.sub(feeMarket)\r\n        );\r\n\r\n        tokenOrder(_tokenId, false, 0, sender);\r\n        emit FillOrder(_tokenId, sender);\r\n    }\r\n\r\n    function tokenOrder(\r\n        uint256 _tokenId,\r\n        bool _sell,\r\n        uint256 _price,\r\n        address sender\r\n    ) internal {\r\n        ItemSale storage itemSale = listings[_tokenId];\r\n        if (_sell) {\r\n            transferFrom(sender, manager.feeAddress(), _tokenId);\r\n            tokenSales.add(_tokenId);\r\n            sellerTokens[sender].add(_tokenId);\r\n\r\n            listings[_tokenId] = ItemSale({\r\n                tokenId: _tokenId,\r\n                price: _price,\r\n                owner: sender\r\n            });\r\n        } else {\r\n            transferFrom(manager.feeAddress(), sender, _tokenId);\r\n\r\n            tokenSales.remove(_tokenId);\r\n            sellerTokens[itemSale.owner].remove(_tokenId);\r\n            listings[_tokenId] = ItemSale({\r\n                tokenId: 0,\r\n                price: 0,\r\n                owner: address(0)\r\n            });\r\n        }\r\n    }\r\n\r\n    function marketsSize() public view returns (uint256) {\r\n        return tokenSales.length();\r\n    }\r\n    function market() public view returns (Artifact[] memory resultHeroes, ItemSale[] memory resultSales ) {\r\n        resultHeroes = new Artifact[](tokenSales.length());\r\n        resultSales = new ItemSale[](tokenSales.length());\r\n        for (uint256 index = 0; index < tokenSales.length(); index++) {\r\n            resultHeroes[index] = heroPrimesArtifact[tokenSales.at(index)];\r\n            resultSales[index] = listings[heroPrimesArtifact[tokenSales.at(index)].id];\r\n        }\r\n    }\r\n\r\n    function orders(address _seller) public view returns (uint256) {\r\n        return sellerTokens[_seller].length();\r\n    }\r\n\r\n    function tokenSaleByIndex(uint256 index) public view returns (uint256) {\r\n        return tokenSales.at(index);\r\n    }\r\n\r\n    function tokenSaleOfOwnerByIndex(address _seller, uint256 index)\r\n        public\r\n        view\r\n        returns (uint256)\r\n    {\r\n        return sellerTokens[_seller].at(index);\r\n    }\r\n\r\n    function getSale(uint256 _tokenId) public view returns (ItemSale memory) {\r\n        if (tokenSales.contains(_tokenId)) return listings[_tokenId];\r\n        return ItemSale({tokenId: 0, owner: address(0), price: 0});\r\n    }\r\n}",
  "sourcePath": "C:\\workspace\\Personal\\truffle\\HeroPrime\\contracts\\HeroPrimeArtifactNFT.sol",
  "compiler": {
    "name": "solc",
    "version": "0.8.0+commit.c7dfd78e.Emscripten.clang"
  },
  "schemaVersion": "3.4.3",
  "updatedAt": "2021-10-09T16:52:29.317Z",
  "networkType": "ethereum",
  "devdoc": {
    "kind": "dev",
    "methods": {
      "approve(address,uint256)": {
        "details": "See {IERC721-approve}."
      },
      "balanceOf(address)": {
        "details": "See {IERC721-balanceOf}."
      },
      "baseURI()": {
        "details": "Returns the base URI set via {_setBaseURI}. This will be automatically added as a prefix in {tokenURI} to each token's URI, or to the token ID if no specific URI is set for that token ID."
      },
      "getApproved(uint256)": {
        "details": "See {IERC721-getApproved}."
      },
      "isApprovedForAll(address,address)": {
        "details": "See {IERC721-isApprovedForAll}."
      },
      "name()": {
        "details": "See {IERC721Metadata-name}."
      },
      "owner()": {
        "details": "Returns the address of the current owner."
      },
      "ownerOf(uint256)": {
        "details": "See {IERC721-ownerOf}."
      },
      "renounceOwnership()": {
        "details": "Leaves the contract without owner. It will not be possible to call `onlyOwner` functions anymore. Can only be called by the current owner. NOTE: Renouncing ownership will leave the contract without an owner, thereby removing any functionality that is only available to the owner."
      },
      "safeTransferFrom(address,address,uint256)": {
        "details": "See {IERC721-safeTransferFrom}."
      },
      "safeTransferFrom(address,address,uint256,bytes)": {
        "details": "See {IERC721-safeTransferFrom}."
      },
      "setApprovalForAll(address,bool)": {
        "details": "See {IERC721-setApprovalForAll}."
      },
      "symbol()": {
        "details": "See {IERC721Metadata-symbol}."
      },
      "tokenByIndex(uint256)": {
        "details": "See {IERC721Enumerable-tokenByIndex}."
      },
      "tokenURI(uint256)": {
        "details": "See {IERC721Metadata-tokenURI}."
      },
      "totalSupply()": {
        "details": "See {IERC721Enumerable-totalSupply}."
      },
      "transferFrom(address,address,uint256)": {
        "details": "See {IERC721-transferFrom}."
      },
      "transferOwnership(address)": {
        "details": "Transfers ownership of the contract to a new account (`newOwner`). Can only be called by the current owner."
      }
    },
    "version": 1
  },
  "userdoc": {
    "kind": "user",
    "methods": {},
    "version": 1
  }
}