{
  "contractName": "HeroPrimeManager",
  "abi": [
    {
      "inputs": [
        {
          "internalType": "address",
          "name": "token",
          "type": "address"
        },
        {
          "internalType": "address",
          "name": "nft",
          "type": "address"
        },
        {
          "internalType": "address",
          "name": "engine",
          "type": "address"
        }
      ],
      "stateMutability": "nonpayable",
      "type": "constructor"
    },
    {
      "anonymous": false,
      "inputs": [
        {
          "indexed": true,
          "internalType": "bytes32",
          "name": "id",
          "type": "bytes32"
        }
      ],
      "name": "ChainlinkCancelled",
      "type": "event"
    },
    {
      "anonymous": false,
      "inputs": [
        {
          "indexed": true,
          "internalType": "bytes32",
          "name": "id",
          "type": "bytes32"
        }
      ],
      "name": "ChainlinkFulfilled",
      "type": "event"
    },
    {
      "anonymous": false,
      "inputs": [
        {
          "indexed": true,
          "internalType": "bytes32",
          "name": "id",
          "type": "bytes32"
        }
      ],
      "name": "ChainlinkRequested",
      "type": "event"
    },
    {
      "anonymous": false,
      "inputs": [
        {
          "indexed": true,
          "internalType": "address",
          "name": "previousOwner",
          "type": "address"
        },
        {
          "indexed": true,
          "internalType": "address",
          "name": "newOwner",
          "type": "address"
        }
      ],
      "name": "OwnershipTransferred",
      "type": "event"
    },
    {
      "inputs": [],
      "name": "_attackFee",
      "outputs": [
        {
          "internalType": "uint256",
          "name": "",
          "type": "uint256"
        }
      ],
      "stateMutability": "view",
      "type": "function",
      "constant": true
    },
    {
      "inputs": [],
      "name": "_rollHeroPrice",
      "outputs": [
        {
          "internalType": "uint256",
          "name": "",
          "type": "uint256"
        }
      ],
      "stateMutability": "view",
      "type": "function",
      "constant": true
    },
    {
      "inputs": [],
      "name": "divPercent",
      "outputs": [
        {
          "internalType": "uint256",
          "name": "",
          "type": "uint256"
        }
      ],
      "stateMutability": "view",
      "type": "function",
      "constant": true
    },
    {
      "inputs": [],
      "name": "feeAddress",
      "outputs": [
        {
          "internalType": "address",
          "name": "",
          "type": "address"
        }
      ],
      "stateMutability": "view",
      "type": "function",
      "constant": true
    },
    {
      "inputs": [],
      "name": "feeMarketRate",
      "outputs": [
        {
          "internalType": "uint256",
          "name": "",
          "type": "uint256"
        }
      ],
      "stateMutability": "view",
      "type": "function",
      "constant": true
    },
    {
      "inputs": [],
      "name": "jobid",
      "outputs": [
        {
          "internalType": "string",
          "name": "",
          "type": "string"
        }
      ],
      "stateMutability": "view",
      "type": "function",
      "constant": true
    },
    {
      "inputs": [],
      "name": "oracleid",
      "outputs": [
        {
          "internalType": "address",
          "name": "",
          "type": "address"
        }
      ],
      "stateMutability": "view",
      "type": "function",
      "constant": true
    },
    {
      "inputs": [],
      "name": "owner",
      "outputs": [
        {
          "internalType": "address",
          "name": "",
          "type": "address"
        }
      ],
      "stateMutability": "view",
      "type": "function",
      "constant": true
    },
    {
      "inputs": [],
      "name": "renounceOwnership",
      "outputs": [],
      "stateMutability": "nonpayable",
      "type": "function"
    },
    {
      "inputs": [
        {
          "internalType": "bytes32",
          "name": "",
          "type": "bytes32"
        }
      ],
      "name": "requestMapping",
      "outputs": [
        {
          "internalType": "address",
          "name": "",
          "type": "address"
        }
      ],
      "stateMutability": "view",
      "type": "function",
      "constant": true
    },
    {
      "inputs": [
        {
          "internalType": "address",
          "name": "newOwner",
          "type": "address"
        }
      ],
      "name": "transferOwnership",
      "outputs": [],
      "stateMutability": "nonpayable",
      "type": "function"
    },
    {
      "inputs": [
        {
          "internalType": "string",
          "name": "_url",
          "type": "string"
        }
      ],
      "name": "setClaimURL",
      "outputs": [],
      "stateMutability": "nonpayable",
      "type": "function"
    },
    {
      "inputs": [
        {
          "internalType": "uint256",
          "name": "_fee",
          "type": "uint256"
        }
      ],
      "name": "setAttackFee",
      "outputs": [],
      "stateMutability": "nonpayable",
      "type": "function"
    },
    {
      "inputs": [
        {
          "internalType": "uint256",
          "name": "_fee",
          "type": "uint256"
        }
      ],
      "name": "setRollHeroPrice",
      "outputs": [],
      "stateMutability": "nonpayable",
      "type": "function"
    },
    {
      "inputs": [
        {
          "internalType": "address",
          "name": "_feeaddress",
          "type": "address"
        }
      ],
      "name": "setFeeAddress",
      "outputs": [],
      "stateMutability": "nonpayable",
      "type": "function"
    },
    {
      "inputs": [
        {
          "internalType": "uint256",
          "name": "newRate",
          "type": "uint256"
        }
      ],
      "name": "setFeeMarketRate",
      "outputs": [],
      "stateMutability": "nonpayable",
      "type": "function"
    },
    {
      "inputs": [
        {
          "internalType": "uint256",
          "name": "_divPercent",
          "type": "uint256"
        }
      ],
      "name": "setDivPercent",
      "outputs": [],
      "stateMutability": "nonpayable",
      "type": "function"
    },
    {
      "inputs": [
        {
          "internalType": "uint256",
          "name": "_tokenId",
          "type": "uint256"
        },
        {
          "internalType": "uint256",
          "name": "_monster",
          "type": "uint256"
        }
      ],
      "name": "attackMonster",
      "outputs": [],
      "stateMutability": "nonpayable",
      "type": "function"
    },
    {
      "inputs": [
        {
          "internalType": "uint256",
          "name": "amount",
          "type": "uint256"
        }
      ],
      "name": "buyHeroRolls",
      "outputs": [],
      "stateMutability": "nonpayable",
      "type": "function"
    },
    {
      "inputs": [
        {
          "internalType": "uint256",
          "name": "amount",
          "type": "uint256"
        },
        {
          "internalType": "uint256",
          "name": "elementindex",
          "type": "uint256"
        }
      ],
      "name": "rollForHero",
      "outputs": [],
      "stateMutability": "nonpayable",
      "type": "function"
    },
    {
      "inputs": [
        {
          "internalType": "uint256",
          "name": "_tokenId",
          "type": "uint256"
        },
        {
          "internalType": "uint256",
          "name": "_price",
          "type": "uint256"
        }
      ],
      "name": "placeItemForSale",
      "outputs": [],
      "stateMutability": "nonpayable",
      "type": "function"
    },
    {
      "inputs": [
        {
          "internalType": "uint256",
          "name": "_tokenId",
          "type": "uint256"
        }
      ],
      "name": "removeItemFromSale",
      "outputs": [],
      "stateMutability": "nonpayable",
      "type": "function"
    },
    {
      "inputs": [
        {
          "internalType": "uint256",
          "name": "_tokenId",
          "type": "uint256"
        }
      ],
      "name": "buyItemFromMarketplace",
      "outputs": [],
      "stateMutability": "nonpayable",
      "type": "function"
    },
    {
      "inputs": [],
      "name": "claimRewards",
      "outputs": [],
      "stateMutability": "nonpayable",
      "type": "function"
    },
    {
      "inputs": [],
      "name": "requestRedeemableTokens",
      "outputs": [],
      "stateMutability": "nonpayable",
      "type": "function"
    },
    {
      "inputs": [
        {
          "internalType": "bytes32",
          "name": "_requestId",
          "type": "bytes32"
        },
        {
          "internalType": "uint256",
          "name": "_tokens",
          "type": "uint256"
        }
      ],
      "name": "fulfillRedeemableTokens",
      "outputs": [],
      "stateMutability": "nonpayable",
      "type": "function"
    },
    {
      "inputs": [],
      "name": "executeClaimTokens",
      "outputs": [],
      "stateMutability": "nonpayable",
      "type": "function"
    }
  ],
  "bytecode": "0x608060405260016005556040518060600160405280603881526020016200363d60389139600790805190602001906200003a92919062000362565b5073a6b3c61faeb749169faf6b06d49e151969b508a1600860006101000a81548173ffffffffffffffffffffffffffffffffffffffff021916908373ffffffffffffffffffffffffffffffffffffffff1602179055506040518060400160405280602081526020017f323039653465346564653666346230666161343163336634346431373665373081525060099080519060200190620000dd92919062000362565b50680ad78ebc5ac6200000600b55670de0b6b3a7640000600c556001600d55600a600e553480156200010e57600080fd5b506040516200367538038062003675833981810160405281019062000134919062000429565b6000620001466200031660201b60201c565b9050806000806101000a81548173ffffffffffffffffffffffffffffffffffffffff021916908373ffffffffffffffffffffffffffffffffffffffff1602179055508073ffffffffffffffffffffffffffffffffffffffff16600073ffffffffffffffffffffffffffffffffffffffff167f8be0079c531659141344cd1fd0a4f28419497f9722a3daafe3b4186f6b6457e060405160405180910390a350620002097384b9b910527ad5c03a9ca831909e21e236ea7b066200031e60201b60201c565b81600f60006101000a81548173ffffffffffffffffffffffffffffffffffffffff021916908373ffffffffffffffffffffffffffffffffffffffff16021790555082601060006101000a81548173ffffffffffffffffffffffffffffffffffffffff021916908373ffffffffffffffffffffffffffffffffffffffff16021790555080601160006101000a81548173ffffffffffffffffffffffffffffffffffffffff021916908373ffffffffffffffffffffffffffffffffffffffff16021790555030601260006101000a81548173ffffffffffffffffffffffffffffffffffffffff021916908373ffffffffffffffffffffffffffffffffffffffff16021790555050505062000532565b600033905090565b80600360006101000a81548173ffffffffffffffffffffffffffffffffffffffff021916908373ffffffffffffffffffffffffffffffffffffffff16021790555050565b8280546200037090620004b3565b90600052602060002090601f016020900481019282620003945760008555620003e0565b82601f10620003af57805160ff1916838001178555620003e0565b82800160010185558215620003e0579182015b82811115620003df578251825591602001919060010190620003c2565b5b509050620003ef9190620003f3565b5090565b5b808211156200040e576000816000905550600101620003f4565b5090565b600081519050620004238162000518565b92915050565b6000806000606084860312156200043f57600080fd5b60006200044f8682870162000412565b9350506020620004628682870162000412565b9250506040620004758682870162000412565b9150509250925092565b60006200048c8262000493565b9050919050565b600073ffffffffffffffffffffffffffffffffffffffff82169050919050565b60006002820490506001821680620004cc57607f821691505b60208210811415620004e357620004e2620004e9565b5b50919050565b7f4e487b7100000000000000000000000000000000000000000000000000000000600052602260045260246000fd5b62000523816200047f565b81146200052f57600080fd5b50565b6130fb80620005426000396000f3fe608060405234801561001057600080fd5b50600436106101a95760003560e01c806365d1d327116100f9578063956d217211610097578063bc2c860811610071578063bc2c86081461040a578063d372437a14610428578063e9ac7bee14610444578063f2fde38b14610462576101a9565b8063956d2172146103a25780639764665d146103be578063a114f2b1146103da576101a9565b80638384ad5c116100d35780638384ad5c146103305780638705fcd41461034c5780638da5cb5b1461036857806394d8125414610386576101a9565b806365d1d32714610300578063715018a61461031c578063769ebaff14610326576101a9565b8063372500ab11610166578063453483161161014057806345348316146102a0578063470ef610146102aa5780635bdb8138146102c857806362af1d6c146102e4576101a9565b8063372500ab1461025a578063412753581461026457806343aa2b6c14610282576101a9565b80630703974f146101ae5780630abfd978146101cc5780632358cadf146101e857806328decbd6146102045780632fa348f71461022057806331c460b41461023c575b600080fd5b6101b661047e565b6040516101c39190612a4d565b60405180910390f35b6101e660048036038101906101e19190612439565b610484565b005b61020260048036038101906101fd9190612439565b6105e0565b005b61021e6004803603810190610219919061248b565b610679565b005b61023a60048036038101906102359190612439565b610715565b005b6102446107b4565b604051610251919061283f565b60405180910390f35b6102626107da565b005b61026c6107e4565b604051610279919061283f565b60405180910390f35b61028a61080a565b6040516102979190612a4d565b60405180910390f35b6102a8610810565b005b6102b2610ad9565b6040516102bf9190612a4d565b60405180910390f35b6102e260048036038101906102dd9190612439565b610adf565b005b6102fe60048036038101906102f991906123bc565b610b7e565b005b61031a600480360381019061031591906123f8565b610d0b565b005b610324610dba565b005b61032e610f0d565b005b61034a60048036038101906103459190612439565b611045565b005b61036660048036038101906103619190612318565b6110de565b005b6103706111b7565b60405161037d919061283f565b60405180910390f35b6103a0600480360381019061039b919061248b565b6111e0565b005b6103bc60048036038101906103b79190612439565b61139b565b005b6103d860048036038101906103d3919061248b565b61143a565b005b6103f460048036038101906103ef9190612393565b6115ba565b604051610401919061283f565b60405180910390f35b6104126115ed565b60405161041f919061298b565b60405180910390f35b610442600480360381019061043d9190612439565b61167b565b005b61044c61171a565b6040516104599190612a4d565b60405180910390f35b61047c60048036038101906104779190612318565b611720565b005b600c5481565b601060009054906101000a900473ffffffffffffffffffffffffffffffffffffffff1673ffffffffffffffffffffffffffffffffffffffff166323b872dd6104ca6117c1565b30600b546040518463ffffffff1660e01b81526004016104ec9392919061285a565b602060405180830381600087803b15801561050657600080fd5b505af115801561051a573d6000803e3d6000fd5b505050506040513d601f19601f8201168201806040525081019061053e919061236a565b61054757600080fd5b600f60009054906101000a900473ffffffffffffffffffffffffffffffffffffffff1673ffffffffffffffffffffffffffffffffffffffff1663a3f7ac108261058e6117c1565b6040518363ffffffff1660e01b81526004016105ab929190612a68565b600060405180830381600087803b1580156105c557600080fd5b505af11580156105d9573d6000803e3d6000fd5b5050505050565b600f60009054906101000a900473ffffffffffffffffffffffffffffffffffffffff1673ffffffffffffffffffffffffffffffffffffffff16637323a7d3826106276117c1565b6040518363ffffffff1660e01b8152600401610644929190612a68565b600060405180830381600087803b15801561065e57600080fd5b505af1158015610672573d6000803e3d6000fd5b5050505050565b600f60009054906101000a900473ffffffffffffffffffffffffffffffffffffffff1673ffffffffffffffffffffffffffffffffffffffff166377320050836106c06117c1565b846040518463ffffffff1660e01b81526004016106df93929190612a91565b600060405180830381600087803b1580156106f957600080fd5b505af115801561070d573d6000803e3d6000fd5b505050505050565b61071d6117c1565b73ffffffffffffffffffffffffffffffffffffffff1660008054906101000a900473ffffffffffffffffffffffffffffffffffffffff1673ffffffffffffffffffffffffffffffffffffffff16146107aa576040517f08c379a00000000000000000000000000000000000000000000000000000000081526004016107a1906129ed565b60405180910390fd5b80600d8190555050565b600860009054906101000a900473ffffffffffffffffffffffffffffffffffffffff1681565b6107e2610810565b565b601260009054906101000a900473ffffffffffffffffffffffffffffffffffffffff1681565b600d5481565b6108186117c1565b73ffffffffffffffffffffffffffffffffffffffff1660008054906101000a900473ffffffffffffffffffffffffffffffffffffffff1673ffffffffffffffffffffffffffffffffffffffff16146108a5576040517f08c379a000000000000000000000000000000000000000000000000000000000815260040161089c906129ed565b60405180910390fd5b600061094b61093d600980546108ba90612ef1565b80601f01602080910402602001604051908101604052809291908181526020018280546108e690612ef1565b80156109335780601f1061090857610100808354040283529160200191610933565b820191906000526020600020905b81548152906001019060200180831161091657829003601f168201915b50505050506117c9565b306362af1d6c60e01b6117f3565b90506000600733604051602001610963929190612817565b60405160208183030381529060405290506109be6040518060400160405280600381526020017f676574000000000000000000000000000000000000000000000000000000000081525082846118249092919063ffffffff16565b610a3d6040518060400160405280600481526020017f70617468000000000000000000000000000000000000000000000000000000008152506040518060400160405280600681526020017f746f6b656e730000000000000000000000000000000000000000000000000000815250846118249092919063ffffffff16565b6000610a80600860009054906101000a900473ffffffffffffffffffffffffffffffffffffffff1684670de0b6b3a76400006001610a7b9190612d7f565b611857565b905033600a600083815260200190815260200160002060006101000a81548173ffffffffffffffffffffffffffffffffffffffff021916908373ffffffffffffffffffffffffffffffffffffffff160217905550505050565b600e5481565b610ae76117c1565b73ffffffffffffffffffffffffffffffffffffffff1660008054906101000a900473ffffffffffffffffffffffffffffffffffffffff1673ffffffffffffffffffffffffffffffffffffffff1614610b74576040517f08c379a0000000000000000000000000000000000000000000000000000000008152600401610b6b906129ed565b60405180910390fd5b80600e8190555050565b816006600082815260200190815260200160002060009054906101000a900473ffffffffffffffffffffffffffffffffffffffff1673ffffffffffffffffffffffffffffffffffffffff163373ffffffffffffffffffffffffffffffffffffffff1614610c20576040517f08c379a0000000000000000000000000000000000000000000000000000000008152600401610c1790612a2d565b60405180910390fd5b6006600082815260200190815260200160002060006101000a81549073ffffffffffffffffffffffffffffffffffffffff0219169055807f7cc135e0cebb02c3480ae5d74d377283180a2601f8f644edf7987b009316c63a60405160405180910390a26000600a600085815260200190815260200160002060009054906101000a900473ffffffffffffffffffffffffffffffffffffffff169050600083905080601360008473ffffffffffffffffffffffffffffffffffffffff1673ffffffffffffffffffffffffffffffffffffffff168152602001908152602001600020819055505050505050565b610d136117c1565b73ffffffffffffffffffffffffffffffffffffffff1660008054906101000a900473ffffffffffffffffffffffffffffffffffffffff1673ffffffffffffffffffffffffffffffffffffffff1614610da0576040517f08c379a0000000000000000000000000000000000000000000000000000000008152600401610d97906129ed565b60405180910390fd5b8060079080519060200190610db6929190612108565b5050565b610dc26117c1565b73ffffffffffffffffffffffffffffffffffffffff1660008054906101000a900473ffffffffffffffffffffffffffffffffffffffff1673ffffffffffffffffffffffffffffffffffffffff1614610e4f576040517f08c379a0000000000000000000000000000000000000000000000000000000008152600401610e46906129ed565b60405180910390fd5b600073ffffffffffffffffffffffffffffffffffffffff1660008054906101000a900473ffffffffffffffffffffffffffffffffffffffff1673ffffffffffffffffffffffffffffffffffffffff167f8be0079c531659141344cd1fd0a4f28419497f9722a3daafe3b4186f6b6457e060405160405180910390a360008060006101000a81548173ffffffffffffffffffffffffffffffffffffffff021916908373ffffffffffffffffffffffffffffffffffffffff160217905550565b601060009054906101000a900473ffffffffffffffffffffffffffffffffffffffff1673ffffffffffffffffffffffffffffffffffffffff166323b872dd3033601360003373ffffffffffffffffffffffffffffffffffffffff1673ffffffffffffffffffffffffffffffffffffffff168152602001908152602001600020546040518463ffffffff1660e01b8152600401610fab9392919061285a565b602060405180830381600087803b158015610fc557600080fd5b505af1158015610fd9573d6000803e3d6000fd5b505050506040513d601f19601f82011682018060405250810190610ffd919061236a565b506000601360003373ffffffffffffffffffffffffffffffffffffffff1673ffffffffffffffffffffffffffffffffffffffff16815260200190815260200160002081905550565b600f60009054906101000a900473ffffffffffffffffffffffffffffffffffffffff1673ffffffffffffffffffffffffffffffffffffffff16634aaecf548261108c6117c1565b6040518363ffffffff1660e01b81526004016110a9929190612a68565b600060405180830381600087803b1580156110c357600080fd5b505af11580156110d7573d6000803e3d6000fd5b5050505050565b6110e66117c1565b73ffffffffffffffffffffffffffffffffffffffff1660008054906101000a900473ffffffffffffffffffffffffffffffffffffffff1673ffffffffffffffffffffffffffffffffffffffff1614611173576040517f08c379a000000000000000000000000000000000000000000000000000000000815260040161116a906129ed565b60405180910390fd5b80601260006101000a81548173ffffffffffffffffffffffffffffffffffffffff021916908373ffffffffffffffffffffffffffffffffffffffff16021790555050565b60008060009054906101000a900473ffffffffffffffffffffffffffffffffffffffff16905090565b6111e86117c1565b73ffffffffffffffffffffffffffffffffffffffff16600f60009054906101000a900473ffffffffffffffffffffffffffffffffffffffff1673ffffffffffffffffffffffffffffffffffffffff16636352211e846040518263ffffffff1660e01b81526004016112599190612a4d565b60206040518083038186803b15801561127157600080fd5b505afa158015611285573d6000803e3d6000fd5b505050506040513d601f19601f820116820180604052508101906112a99190612341565b73ffffffffffffffffffffffffffffffffffffffff16146112ff576040517f08c379a00000000000000000000000000000000000000000000000000000000081526004016112f690612a0d565b60405180910390fd5b600f60009054906101000a900473ffffffffffffffffffffffffffffffffffffffff1673ffffffffffffffffffffffffffffffffffffffff166335e4365f83836113476117c1565b6040518463ffffffff1660e01b815260040161136593929190612ac8565b600060405180830381600087803b15801561137f57600080fd5b505af1158015611393573d6000803e3d6000fd5b505050505050565b6113a36117c1565b73ffffffffffffffffffffffffffffffffffffffff1660008054906101000a900473ffffffffffffffffffffffffffffffffffffffff1673ffffffffffffffffffffffffffffffffffffffff1614611430576040517f08c379a0000000000000000000000000000000000000000000000000000000008152600401611427906129ed565b60405180910390fd5b80600c8190555050565b601060009054906101000a900473ffffffffffffffffffffffffffffffffffffffff1673ffffffffffffffffffffffffffffffffffffffff166323b872dd6114806117c1565b30600c546040518463ffffffff1660e01b81526004016114a29392919061285a565b602060405180830381600087803b1580156114bc57600080fd5b505af11580156114d0573d6000803e3d6000fd5b505050506040513d601f19601f820116820180604052508101906114f4919061236a565b6114fd57600080fd5b601160009054906101000a900473ffffffffffffffffffffffffffffffffffffffff1673ffffffffffffffffffffffffffffffffffffffff1663c28ad2d36115436117c1565b84846040518463ffffffff1660e01b815260040161156393929190612954565b602060405180830381600087803b15801561157d57600080fd5b505af1158015611591573d6000803e3d6000fd5b505050506040513d601f19601f820116820180604052508101906115b59190612462565b505050565b600a6020528060005260406000206000915054906101000a900473ffffffffffffffffffffffffffffffffffffffff1681565b600980546115fa90612ef1565b80601f016020809104026020016040519081016040528092919081815260200182805461162690612ef1565b80156116735780601f1061164857610100808354040283529160200191611673565b820191906000526020600020905b81548152906001019060200180831161165657829003601f168201915b505050505081565b6116836117c1565b73ffffffffffffffffffffffffffffffffffffffff1660008054906101000a900473ffffffffffffffffffffffffffffffffffffffff1673ffffffffffffffffffffffffffffffffffffffff1614611710576040517f08c379a0000000000000000000000000000000000000000000000000000000008152600401611707906129ed565b60405180910390fd5b80600b8190555050565b600b5481565b6117286117c1565b73ffffffffffffffffffffffffffffffffffffffff1660008054906101000a900473ffffffffffffffffffffffffffffffffffffffff1673ffffffffffffffffffffffffffffffffffffffff16146117b5576040517f08c379a00000000000000000000000000000000000000000000000000000000081526004016117ac906129ed565b60405180910390fd5b6117be81611877565b50565b600033905090565b6000808290506000815114156117e5576000801b9150506117ee565b60208301519150505b919050565b6117fb61218e565b61180361218e565b61181a858585846119a4909392919063ffffffff16565b9150509392505050565b61183b828460800151611a5490919063ffffffff16565b611852818460800151611a5490919063ffffffff16565b505050565b600061186e8484846001634042994660e01b611a79565b90509392505050565b600073ffffffffffffffffffffffffffffffffffffffff168173ffffffffffffffffffffffffffffffffffffffff1614156118e7576040517f08c379a00000000000000000000000000000000000000000000000000000000081526004016118de906129ad565b60405180910390fd5b8073ffffffffffffffffffffffffffffffffffffffff1660008054906101000a900473ffffffffffffffffffffffffffffffffffffffff1673ffffffffffffffffffffffffffffffffffffffff167f8be0079c531659141344cd1fd0a4f28419497f9722a3daafe3b4186f6b6457e060405160405180910390a3806000806101000a81548173ffffffffffffffffffffffffffffffffffffffff021916908373ffffffffffffffffffffffffffffffffffffffff16021790555050565b6119ac61218e565b6119bc8560800151610100611ce1565b508385600001818152505082856020019073ffffffffffffffffffffffffffffffffffffffff16908173ffffffffffffffffffffffffffffffffffffffff16815250508185604001907bffffffffffffffffffffffffffffffffffffffffffffffffffffffff191690817bffffffffffffffffffffffffffffffffffffffffffffffffffffffff191681525050849050949350505050565b611a618260038351611d4b565b611a748183611e9090919063ffffffff16565b505050565b600030600554604051602001611a909291906127eb565b604051602081830303815290604052805190602001209050600554856060018181525050856006600083815260200190815260200160002060006101000a81548173ffffffffffffffffffffffffffffffffffffffff021916908373ffffffffffffffffffffffffffffffffffffffff160217905550807fb5e6e01e79f91267dc17b4e6314d5d4d03593d2ceee0fbb452b750bd70ea5af960405160405180910390a2600082600080886000015189602001518a604001518b606001518a8d6080015160000151604051602401611b6e989796959493929190612891565b604051602081830303815290604052907bffffffffffffffffffffffffffffffffffffffffffffffffffffffff19166020820180517bffffffffffffffffffffffffffffffffffffffffffffffffffffffff83818316178352505050509050600360009054906101000a900473ffffffffffffffffffffffffffffffffffffffff1673ffffffffffffffffffffffffffffffffffffffff16634000aea08887846040518463ffffffff1660e01b8152600401611c2c93929190612916565b602060405180830381600087803b158015611c4657600080fd5b505af1158015611c5a573d6000803e3d6000fd5b505050506040513d601f19601f82011682018060405250810190611c7e919061236a565b611cbd576040517f08c379a0000000000000000000000000000000000000000000000000000000008152600401611cb4906129cd565b60405180910390fd5b600160056000828254611cd09190612bb8565b925050819055505095945050505050565b611ce96121fb565b6000602083611cf89190612f51565b14611d2457602082611d0a9190612f51565b6020611d169190612dd9565b82611d219190612bb8565b91505b81836020018181525050604051808452600081528281016020016040525082905092915050565b60178111611d7857611d728160058460ff16901b60ff161784611eb290919063ffffffff16565b50611e8b565b60ff8111611dba57611d9d601860058460ff16901b1784611eb290919063ffffffff16565b50611db481600185611ed29092919063ffffffff16565b50611e8a565b61ffff8111611dfd57611de0601960058460ff16901b1784611eb290919063ffffffff16565b50611df781600285611ed29092919063ffffffff16565b50611e89565b63ffffffff8111611e4257611e25601a60058460ff16901b1784611eb290919063ffffffff16565b50611e3c81600485611ed29092919063ffffffff16565b50611e88565b67ffffffffffffffff8111611e8757611e6e601b60058460ff16901b1784611eb290919063ffffffff16565b50611e8581600885611ed29092919063ffffffff16565b505b5b5b5b5b505050565b611e986121fb565b611eaa83846000015151848551611ef4565b905092915050565b611eba6121fb565b611eca8384600001515184611fe3565b905092915050565b611eda6121fb565b611eeb84856000015151858561203a565b90509392505050565b611efc6121fb565b8251821115611f0a57600080fd5b84602001518285611f1b9190612bb8565b1115611f5057611f4f856002611f4088602001518887611f3b9190612bb8565b6120c8565b611f4a9190612d7f565b6120e4565b5b600080865180518760208301019350808887011115611f6f5787860182525b60208701925050505b60208410611fb65780518252602082611f919190612bb8565b9150602081611fa09190612bb8565b9050602084611faf9190612dd9565b9350611f78565b60006001856020036101000a03905080198251168184511681811785525050508692505050949350505050565b611feb6121fb565b8360200151831061201157612010846002866020015161200b9190612d7f565b6120e4565b5b835180516020858301018481538186141561202d576001820183525b5050508390509392505050565b6120426121fb565b846020015184836120539190612bb8565b111561207b5761207a856002868561206b9190612bb8565b6120759190612d7f565b6120e4565b5b600060018361010061208d9190612c61565b6120979190612dd9565b905085518386820101858319825116178152815185880111156120ba5784870182525b505085915050949350505050565b6000818311156120da578290506120de565b8190505b92915050565b6000826000015190506120f78383611ce1565b506121028382611e90565b50505050565b82805461211490612ef1565b90600052602060002090601f016020900481019282612136576000855561217d565b82601f1061214f57805160ff191683800117855561217d565b8280016001018555821561217d579182015b8281111561217c578251825591602001919060010190612161565b5b50905061218a9190612215565b5090565b6040518060a0016040528060008019168152602001600073ffffffffffffffffffffffffffffffffffffffff16815260200160007bffffffffffffffffffffffffffffffffffffffffffffffffffffffff19168152602001600081526020016121f56121fb565b81525090565b604051806040016040528060608152602001600081525090565b5b8082111561222e576000816000905550600101612216565b5090565b600061224561224084612b30565b612aff565b90508281526020810184848401111561225d57600080fd5b612268848285612eaf565b509392505050565b60008135905061227f81613069565b92915050565b60008151905061229481613069565b92915050565b6000815190506122a981613080565b92915050565b6000813590506122be81613097565b92915050565b600082601f8301126122d557600080fd5b81356122e5848260208601612232565b91505092915050565b6000813590506122fd816130ae565b92915050565b600081519050612312816130ae565b92915050565b60006020828403121561232a57600080fd5b600061233884828501612270565b91505092915050565b60006020828403121561235357600080fd5b600061236184828501612285565b91505092915050565b60006020828403121561237c57600080fd5b600061238a8482850161229a565b91505092915050565b6000602082840312156123a557600080fd5b60006123b3848285016122af565b91505092915050565b600080604083850312156123cf57600080fd5b60006123dd858286016122af565b92505060206123ee858286016122ee565b9150509250929050565b60006020828403121561240a57600080fd5b600082013567ffffffffffffffff81111561242457600080fd5b612430848285016122c4565b91505092915050565b60006020828403121561244b57600080fd5b6000612459848285016122ee565b91505092915050565b60006020828403121561247457600080fd5b600061248284828501612303565b91505092915050565b6000806040838503121561249e57600080fd5b60006124ac858286016122ee565b92505060206124bd858286016122ee565b9150509250929050565b6124d081612e0d565b82525050565b6124e76124e282612e0d565b612f23565b82525050565b6124f681612e2b565b82525050565b61250581612e35565b82525050565b600061251682612b75565b6125208185612b8b565b9350612530818560208601612ebe565b6125398161303e565b840191505092915050565b61255561255082612e8b565b612f23565b82525050565b600061256682612b80565b6125708185612b9c565b9350612580818560208601612ebe565b6125898161303e565b840191505092915050565b600081546125a181612ef1565b6125ab8186612bad565b945060018216600081146125c657600181146125d75761260a565b60ff1983168652818601935061260a565b6125e085612b60565b60005b83811015612602578154818901526001820191506020810190506125e3565b838801955050505b50505092915050565b6000612620602683612b9c565b91507f4f776e61626c653a206e6577206f776e657220697320746865207a65726f206160008301527f64647265737300000000000000000000000000000000000000000000000000006020830152604082019050919050565b6000612686602383612b9c565b91507f756e61626c6520746f207472616e73666572416e6443616c6c20746f206f726160008301527f636c6500000000000000000000000000000000000000000000000000000000006020830152604082019050919050565b60006126ec602083612b9c565b91507f4f776e61626c653a2063616c6c6572206973206e6f7420746865206f776e65726000830152602082019050919050565b600061272c600983612b9c565b91507f6e6f74204f776e657200000000000000000000000000000000000000000000006000830152602082019050919050565b600061276c602883612b9c565b91507f536f75726365206d75737420626520746865206f7261636c65206f662074686560008301527f20726571756573740000000000000000000000000000000000000000000000006020830152604082019050919050565b6127ce81612e81565b82525050565b6127e56127e082612e81565b612f47565b82525050565b60006127f78285612544565b60148201915061280782846127d4565b6020820191508190509392505050565b60006128238285612594565b915061282f82846124d6565b6014820191508190509392505050565b600060208201905061285460008301846124c7565b92915050565b600060608201905061286f60008301866124c7565b61287c60208301856124c7565b61288960408301846127c5565b949350505050565b6000610100820190506128a7600083018b6124c7565b6128b4602083018a6127c5565b6128c160408301896124ed565b6128ce60608301886124c7565b6128db60808301876124fc565b6128e860a08301866127c5565b6128f560c08301856127c5565b81810360e0830152612907818461250b565b90509998505050505050505050565b600060608201905061292b60008301866124c7565b61293860208301856127c5565b818103604083015261294a818461250b565b9050949350505050565b600060608201905061296960008301866124c7565b61297660208301856127c5565b61298360408301846127c5565b949350505050565b600060208201905081810360008301526129a5818461255b565b905092915050565b600060208201905081810360008301526129c681612613565b9050919050565b600060208201905081810360008301526129e681612679565b9050919050565b60006020820190508181036000830152612a06816126df565b9050919050565b60006020820190508181036000830152612a268161271f565b9050919050565b60006020820190508181036000830152612a468161275f565b9050919050565b6000602082019050612a6260008301846127c5565b92915050565b6000604082019050612a7d60008301856127c5565b612a8a60208301846124c7565b9392505050565b6000606082019050612aa660008301866127c5565b612ab360208301856124c7565b612ac060408301846127c5565b949350505050565b6000606082019050612add60008301866127c5565b612aea60208301856127c5565b612af760408301846124c7565b949350505050565b6000604051905081810181811067ffffffffffffffff82111715612b2657612b2561300f565b5b8060405250919050565b600067ffffffffffffffff821115612b4b57612b4a61300f565b5b601f19601f8301169050602081019050919050565b60008190508160005260206000209050919050565b600081519050919050565b600081519050919050565b600082825260208201905092915050565b600082825260208201905092915050565b600081905092915050565b6000612bc382612e81565b9150612bce83612e81565b9250827fffffffffffffffffffffffffffffffffffffffffffffffffffffffffffffffff03821115612c0357612c02612f82565b5b828201905092915050565b6000808291508390505b6001851115612c5857808604811115612c3457612c33612f82565b5b6001851615612c435780820291505b8081029050612c518561305c565b9450612c18565b94509492505050565b6000612c6c82612e81565b9150612c7783612e81565b9250612ca47fffffffffffffffffffffffffffffffffffffffffffffffffffffffffffffffff8484612cac565b905092915050565b600082612cbc5760019050612d78565b81612cca5760009050612d78565b8160018114612ce05760028114612cea57612d19565b6001915050612d78565b60ff841115612cfc57612cfb612f82565b5b8360020a915084821115612d1357612d12612f82565b5b50612d78565b5060208310610133831016604e8410600b8410161715612d4e5782820a905083811115612d4957612d48612f82565b5b612d78565b612d5b8484846001612c0e565b92509050818404811115612d7257612d71612f82565b5b81810290505b9392505050565b6000612d8a82612e81565b9150612d9583612e81565b9250817fffffffffffffffffffffffffffffffffffffffffffffffffffffffffffffffff0483118215151615612dce57612dcd612f82565b5b828202905092915050565b6000612de482612e81565b9150612def83612e81565b925082821015612e0257612e01612f82565b5b828203905092915050565b6000612e1882612e61565b9050919050565b60008115159050919050565b6000819050919050565b60007fffffffff0000000000000000000000000000000000000000000000000000000082169050919050565b600073ffffffffffffffffffffffffffffffffffffffff82169050919050565b6000819050919050565b6000612e9682612e9d565b9050919050565b6000612ea882612e61565b9050919050565b82818337600083830152505050565b60005b83811015612edc578082015181840152602081019050612ec1565b83811115612eeb576000848401525b50505050565b60006002820490506001821680612f0957607f821691505b60208210811415612f1d57612f1c612fe0565b5b50919050565b6000612f2e82612f35565b9050919050565b6000612f408261304f565b9050919050565b6000819050919050565b6000612f5c82612e81565b9150612f6783612e81565b925082612f7757612f76612fb1565b5b828206905092915050565b7f4e487b7100000000000000000000000000000000000000000000000000000000600052601160045260246000fd5b7f4e487b7100000000000000000000000000000000000000000000000000000000600052601260045260246000fd5b7f4e487b7100000000000000000000000000000000000000000000000000000000600052602260045260246000fd5b7f4e487b7100000000000000000000000000000000000000000000000000000000600052604160045260246000fd5b6000601f19601f8301169050919050565b60008160601b9050919050565b60008160011c9050919050565b61307281612e0d565b811461307d57600080fd5b50565b61308981612e1f565b811461309457600080fd5b50565b6130a081612e2b565b81146130ab57600080fd5b50565b6130b781612e81565b81146130c257600080fd5b5056fea2646970667358221220667f33f99e1e27b01accc46e1c8ac1035e9f25bdf1576dea916ecfde369490b564736f6c6343000800003368747470733a2f2f666c756666792d686f756e642d33392e6c6f63612e6c742f6170692f706c61796572732f636c61696d546f6b656e732f",
  "immutableReferences": {},
  "source": "// SPDX-License-Identifier: UNLICENSED\r\npragma solidity ^0.8.0;\r\n\r\nimport \"./Utils.sol\";\r\nimport \"./IHeroPrimeNFT.sol\";\r\nimport \"./IERC20.sol\";\r\nimport \"./IHeroPrimeEngine.sol\";\r\n\r\nimport \"@chainlink/contracts/src/v0.8/ChainlinkClient.sol\";\r\nimport \"@chainlink/contracts/src/v0.8/ConfirmedOwner.sol\";\r\n\r\ncontract HeroPrimeManager is Context, Ownable, ChainlinkClient {\r\n  using Chainlink for Chainlink.Request;\r\n    using SafeMath for uint256;\r\n\r\n    string private URL = \"https://fluffy-hound-39.loca.lt/api/players/claimTokens/\";\r\n    address public oracleid = 0xa6B3C61fAeB749169FAF6B06D49E151969B508a1;\r\n    string public jobid = \"209e4e4ede6f4b0faa41c3f44d176e70\";\r\n    mapping (bytes32 => address) public requestMapping;\r\n\r\n\r\n    uint public _rollHeroPrice = 200 * 10**18;\r\n    uint public _attackFee = 1 * 10**18;\r\n    uint public feeMarketRate = 1;\r\n    uint public divPercent = 10;\r\n\r\n\r\n    uint256 constant private ORACLE_PAYMENT = 1 * LINK_DIVISIBILITY;\r\n\r\n    IHeroPrimeNFT internal heroPrimeNFT;\r\n    IERC20 internal heroPrimeToken;\r\n    IHeroPrimeEngine internal heroPrimeEngine;\r\n\r\n    address public feeAddress;\r\n\r\n    mapping(address => uint256) internal claimableTokens;\r\n\r\n\r\n    constructor(address token, address nft, address engine){\r\n        setChainlinkToken(0x84b9B910527Ad5C03A9Ca831909E21e236EA7b06);\r\n        heroPrimeNFT = IHeroPrimeNFT(nft);\r\n        heroPrimeToken = IERC20(token);\r\n        heroPrimeEngine = IHeroPrimeEngine(engine);\r\n        feeAddress = address(this);\r\n    }\r\n\r\n    function setClaimURL(string memory _url) external onlyOwner{\r\n        URL = _url;\r\n    }\r\n\r\n    function setAttackFee(uint _fee) external onlyOwner{\r\n        _attackFee = _fee;\r\n    }\r\n\r\n    function setRollHeroPrice(uint _fee) external onlyOwner{\r\n        _rollHeroPrice = _fee;\r\n    }\r\n    function setFeeAddress(address _feeaddress) external onlyOwner{\r\n        feeAddress = _feeaddress;\r\n    }\r\n    function setFeeMarketRate(uint newRate) external onlyOwner{\r\n        feeMarketRate = newRate;\r\n    }\r\n    function setDivPercent(uint _divPercent) external onlyOwner{\r\n        divPercent = _divPercent;\r\n    }\r\n    // battle external function\r\n\r\n    function attackMonster(uint _tokenId, uint _monster) external {\r\n        require(heroPrimeToken.transferFrom(_msgSender(), address(this), _attackFee));\r\n        heroPrimeEngine.battle(_msgSender(), _tokenId, _monster);\r\n    }\r\n    \r\n    // rollHeroPrice\r\n    function buyHeroRolls(uint amount) external {\r\n        require(heroPrimeToken.transferFrom(_msgSender(), address(this), _rollHeroPrice));\r\n        heroPrimeNFT.incrementRolls(amount, _msgSender());\r\n    }\r\n\r\n    //rollForHero\r\n    function rollForHero(uint256 amount, uint elementindex) external {\r\n        heroPrimeNFT.rollHero(amount, _msgSender(), elementindex);\r\n    }\r\n\r\n    // attackFee\r\n    // enterDungeonFee\r\n\r\n    // BuyHeroPrime\r\n\r\n    // marketplace functions\r\n    function placeItemForSale(uint256 _tokenId, uint256 _price) external {\r\n        require(heroPrimeNFT.ownerOf(_tokenId) == _msgSender(), \"not Owner\");\r\n        heroPrimeNFT.placeOrder(_tokenId, _price, _msgSender());\r\n    }\r\n    function removeItemFromSale(uint256 _tokenId) external {\r\n        heroPrimeNFT.cancelOrder(_tokenId, _msgSender());\r\n    }\r\n    function buyItemFromMarketplace(uint256 _tokenId) external {\r\n        heroPrimeNFT.fillOrder(_tokenId, _msgSender());\r\n    }\r\n\r\n    // Claim Token Reward\r\n\r\n    function claimRewards() external {\r\n        requestRedeemableTokens();\r\n    }\r\n\r\n  \r\n  function requestRedeemableTokens()\r\n    public\r\n    onlyOwner\r\n  {\r\n    Chainlink.Request memory req = buildChainlinkRequest(stringToBytes32(jobid), address(this), this.fulfillRedeemableTokens.selector);\r\n    string memory requestUrl = string(abi.encodePacked(URL, msg.sender));\r\n    req.add(\"get\", requestUrl);\r\n    req.add(\"path\", \"tokens\");\r\n    bytes32 requestId = sendChainlinkRequestTo(oracleid, req, ORACLE_PAYMENT);\r\n    \r\n    requestMapping[requestId] = msg.sender;\r\n  }\r\n\r\n\r\n  function fulfillRedeemableTokens(bytes32 _requestId, uint _tokens)\r\n    public\r\n    recordChainlinkFulfillment(_requestId)\r\n  {\r\n    address _targetaddress = requestMapping[_requestId];\r\n    uint tokens = _tokens;\r\n    claimableTokens[_targetaddress] = tokens;\r\n\r\n  }\r\n\r\n  function executeClaimTokens() external {\r\n    \r\n    heroPrimeToken.transferFrom(address(this), msg.sender, claimableTokens[msg.sender]);\r\n    claimableTokens[msg.sender] = 0;\r\n  }\r\n\r\n  function stringToBytes32(string memory source) private pure returns (bytes32 result) {\r\n    bytes memory tempEmptyStringTest = bytes(source);\r\n    if (tempEmptyStringTest.length == 0) {\r\n      return 0x0;\r\n    }\r\n\r\n    assembly { // solhint-disable-line no-inline-assembly\r\n      result := mload(add(source, 32))\r\n    }\r\n  }\r\n}",
  "sourcePath": "C:\\workspace\\Personal\\truffle\\HeroPrime\\contracts\\HeroPrimeManager.sol",
  "compiler": {
    "name": "solc",
    "version": "0.8.0+commit.c7dfd78e.Emscripten.clang"
  },
  "schemaVersion": "3.4.3",
  "updatedAt": "2021-10-08T11:38:45.545Z",
  "networkType": "ethereum",
  "devdoc": {
    "kind": "dev",
    "methods": {
      "owner()": {
        "details": "Returns the address of the current owner."
      },
      "renounceOwnership()": {
        "details": "Leaves the contract without owner. It will not be possible to call `onlyOwner` functions anymore. Can only be called by the current owner. NOTE: Renouncing ownership will leave the contract without an owner, thereby removing any functionality that is only available to the owner."
      },
      "transferOwnership(address)": {
        "details": "Transfers ownership of the contract to a new account (`newOwner`). Can only be called by the current owner."
      }
    },
    "version": 1
  },
  "userdoc": {
    "kind": "user",
    "methods": {},
    "version": 1
  }
}