{
    "contractName": "HeroPrimeNFT",
    "abi": [
        {
            "inputs": [
                {
                    "internalType": "string",
                    "name": "_name",
                    "type": "string"
                },
                {
                    "internalType": "string",
                    "name": "_symbol",
                    "type": "string"
                },
                {
                    "internalType": "address",
                    "name": "_heroprimeERC20",
                    "type": "address"
                }
            ],
            "stateMutability": "nonpayable",
            "type": "constructor"
        },
        {
            "anonymous": false,
            "inputs": [
                {
                    "indexed": true,
                    "internalType": "address",
                    "name": "owner",
                    "type": "address"
                },
                {
                    "indexed": true,
                    "internalType": "address",
                    "name": "approved",
                    "type": "address"
                },
                {
                    "indexed": true,
                    "internalType": "uint256",
                    "name": "tokenId",
                    "type": "uint256"
                }
            ],
            "name": "Approval",
            "type": "event"
        },
        {
            "anonymous": false,
            "inputs": [
                {
                    "indexed": true,
                    "internalType": "address",
                    "name": "owner",
                    "type": "address"
                },
                {
                    "indexed": true,
                    "internalType": "address",
                    "name": "operator",
                    "type": "address"
                },
                {
                    "indexed": false,
                    "internalType": "bool",
                    "name": "approved",
                    "type": "bool"
                }
            ],
            "name": "ApprovalForAll",
            "type": "event"
        },
        {
            "anonymous": false,
            "inputs": [
                {
                    "indexed": true,
                    "internalType": "uint256",
                    "name": "tokenId",
                    "type": "uint256"
                },
                {
                    "indexed": false,
                    "internalType": "uint256",
                    "name": "exp",
                    "type": "uint256"
                }
            ],
            "name": "Exp",
            "type": "event"
        },
        {
            "anonymous": false,
            "inputs": [
                {
                    "indexed": true,
                    "internalType": "address",
                    "name": "from",
                    "type": "address"
                },
                {
                    "indexed": true,
                    "internalType": "address",
                    "name": "to",
                    "type": "address"
                },
                {
                    "indexed": true,
                    "internalType": "uint256",
                    "name": "tokenId",
                    "type": "uint256"
                }
            ],
            "name": "Transfer",
            "type": "event"
        },
        {
            "anonymous": false,
            "inputs": [
                {
                    "indexed": true,
                    "internalType": "uint256",
                    "name": "tokenId",
                    "type": "uint256"
                },
                {
                    "indexed": false,
                    "internalType": "address",
                    "name": "buyer",
                    "type": "address"
                }
            ],
            "name": "rolledHero",
            "type": "event"
        },
        {
            "inputs": [
                {
                    "internalType": "address",
                    "name": "to",
                    "type": "address"
                },
                {
                    "internalType": "uint256",
                    "name": "tokenId",
                    "type": "uint256"
                }
            ],
            "name": "approve",
            "outputs": [],
            "stateMutability": "nonpayable",
            "type": "function"
        },
        {
            "inputs": [
                {
                    "internalType": "address",
                    "name": "owner",
                    "type": "address"
                }
            ],
            "name": "balanceOf",
            "outputs": [
                {
                    "internalType": "uint256",
                    "name": "",
                    "type": "uint256"
                }
            ],
            "stateMutability": "view",
            "type": "function"
        },
        {
            "inputs": [],
            "name": "baseURI",
            "outputs": [
                {
                    "internalType": "string",
                    "name": "",
                    "type": "string"
                }
            ],
            "stateMutability": "view",
            "type": "function"
        },
        {
            "inputs": [
                {
                    "internalType": "uint256",
                    "name": "_tokenId",
                    "type": "uint256"
                },
                {
                    "internalType": "uint256",
                    "name": "_exp",
                    "type": "uint256"
                }
            ],
            "name": "exp",
            "outputs": [],
            "stateMutability": "nonpayable",
            "type": "function"
        },
        {
            "inputs": [
                {
                    "internalType": "uint256",
                    "name": "tokenId",
                    "type": "uint256"
                }
            ],
            "name": "getApproved",
            "outputs": [
                {
                    "internalType": "address",
                    "name": "",
                    "type": "address"
                }
            ],
            "stateMutability": "view",
            "type": "function"
        },
        {
            "inputs": [
                {
                    "internalType": "uint256",
                    "name": "_tokenId",
                    "type": "uint256"
                }
            ],
            "name": "getHeroPrime",
            "outputs": [
                {
                    "components": [
                        {
                            "internalType": "uint256",
                            "name": "generation",
                            "type": "uint256"
                        },
                        {
                            "internalType": "enum HeroPrimeNFT.Element",
                            "name": "element",
                            "type": "uint8"
                        },
                        {
                            "internalType": "uint256",
                            "name": "exp",
                            "type": "uint256"
                        },
                        {
                            "internalType": "uint256",
                            "name": "dna",
                            "type": "uint256"
                        },
                        {
                            "internalType": "uint256",
                            "name": "farmTime",
                            "type": "uint256"
                        },
                        {
                            "internalType": "uint256",
                            "name": "bornTime",
                            "type": "uint256"
                        }
                    ],
                    "internalType": "struct HeroPrimeNFT.HeroPrime",
                    "name": "",
                    "type": "tuple"
                }
            ],
            "stateMutability": "view",
            "type": "function"
        },
        {
            "inputs": [],
            "name": "getHeroPrimeRolls",
            "outputs": [
                {
                    "internalType": "uint256",
                    "name": "",
                    "type": "uint256"
                }
            ],
            "stateMutability": "view",
            "type": "function"
        },
        {
            "inputs": [
                {
                    "internalType": "uint256",
                    "name": "_tokenId",
                    "type": "uint256"
                }
            ],
            "name": "getRare",
            "outputs": [
                {
                    "internalType": "uint256",
                    "name": "",
                    "type": "uint256"
                }
            ],
            "stateMutability": "view",
            "type": "function"
        },
        {
            "inputs": [],
            "name": "heroPrimeERC20",
            "outputs": [
                {
                    "internalType": "contract IERC20",
                    "name": "",
                    "type": "address"
                }
            ],
            "stateMutability": "view",
            "type": "function"
        },
        {
            "inputs": [
                {
                    "internalType": "uint256",
                    "name": "_tokenId",
                    "type": "uint256"
                }
            ],
            "name": "heroPrimeLevel",
            "outputs": [
                {
                    "internalType": "uint256",
                    "name": "",
                    "type": "uint256"
                }
            ],
            "stateMutability": "view",
            "type": "function"
        },
        {
            "inputs": [
                {
                    "internalType": "uint256",
                    "name": "amount",
                    "type": "uint256"
                },
                {
                    "internalType": "address",
                    "name": "receiver",
                    "type": "address"
                }
            ],
            "name": "incrementRolls",
            "outputs": [],
            "stateMutability": "nonpayable",
            "type": "function"
        },
        {
            "inputs": [
                {
                    "internalType": "address",
                    "name": "owner",
                    "type": "address"
                },
                {
                    "internalType": "address",
                    "name": "operator",
                    "type": "address"
                }
            ],
            "name": "isApprovedForAll",
            "outputs": [
                {
                    "internalType": "bool",
                    "name": "",
                    "type": "bool"
                }
            ],
            "stateMutability": "view",
            "type": "function"
        },
        {
            "inputs": [],
            "name": "latestTokenId",
            "outputs": [
                {
                    "internalType": "uint256",
                    "name": "",
                    "type": "uint256"
                }
            ],
            "stateMutability": "view",
            "type": "function"
        },
        {
            "inputs": [],
            "name": "name",
            "outputs": [
                {
                    "internalType": "string",
                    "name": "",
                    "type": "string"
                }
            ],
            "stateMutability": "view",
            "type": "function"
        },
        {
            "inputs": [
                {
                    "internalType": "uint256",
                    "name": "tokenId",
                    "type": "uint256"
                }
            ],
            "name": "ownerOf",
            "outputs": [
                {
                    "internalType": "address",
                    "name": "",
                    "type": "address"
                }
            ],
            "stateMutability": "view",
            "type": "function"
        },
        {
            "inputs": [
                {
                    "internalType": "uint256",
                    "name": "amount",
                    "type": "uint256"
                },
                {
                    "internalType": "address",
                    "name": "receiver",
                    "type": "address"
                },
                {
                    "internalType": "enum HeroPrimeNFT.Element",
                    "name": "element",
                    "type": "uint8"
                }
            ],
            "name": "rollHero",
            "outputs": [],
            "stateMutability": "nonpayable",
            "type": "function"
        },
        {
            "inputs": [
                {
                    "internalType": "address",
                    "name": "from",
                    "type": "address"
                },
                {
                    "internalType": "address",
                    "name": "to",
                    "type": "address"
                },
                {
                    "internalType": "uint256",
                    "name": "tokenId",
                    "type": "uint256"
                }
            ],
            "name": "safeTransferFrom",
            "outputs": [],
            "stateMutability": "nonpayable",
            "type": "function"
        },
        {
            "inputs": [
                {
                    "internalType": "address",
                    "name": "from",
                    "type": "address"
                },
                {
                    "internalType": "address",
                    "name": "to",
                    "type": "address"
                },
                {
                    "internalType": "uint256",
                    "name": "tokenId",
                    "type": "uint256"
                },
                {
                    "internalType": "bytes",
                    "name": "_data",
                    "type": "bytes"
                }
            ],
            "name": "safeTransferFrom",
            "outputs": [],
            "stateMutability": "nonpayable",
            "type": "function"
        },
        {
            "inputs": [
                {
                    "internalType": "address",
                    "name": "operator",
                    "type": "address"
                },
                {
                    "internalType": "bool",
                    "name": "approved",
                    "type": "bool"
                }
            ],
            "name": "setApprovalForAll",
            "outputs": [],
            "stateMutability": "nonpayable",
            "type": "function"
        },
        {
            "inputs": [],
            "name": "symbol",
            "outputs": [
                {
                    "internalType": "string",
                    "name": "",
                    "type": "string"
                }
            ],
            "stateMutability": "view",
            "type": "function"
        },
        {
            "inputs": [
                {
                    "internalType": "uint256",
                    "name": "index",
                    "type": "uint256"
                }
            ],
            "name": "tokenByIndex",
            "outputs": [
                {
                    "internalType": "uint256",
                    "name": "",
                    "type": "uint256"
                }
            ],
            "stateMutability": "view",
            "type": "function"
        },
        {
            "inputs": [
                {
                    "internalType": "uint256",
                    "name": "tokenId",
                    "type": "uint256"
                }
            ],
            "name": "tokenURI",
            "outputs": [
                {
                    "internalType": "string",
                    "name": "",
                    "type": "string"
                }
            ],
            "stateMutability": "view",
            "type": "function"
        },
        {
            "inputs": [],
            "name": "totalSupply",
            "outputs": [
                {
                    "internalType": "uint256",
                    "name": "",
                    "type": "uint256"
                }
            ],
            "stateMutability": "view",
            "type": "function"
        },
        {
            "inputs": [
                {
                    "internalType": "address",
                    "name": "from",
                    "type": "address"
                },
                {
                    "internalType": "address",
                    "name": "to",
                    "type": "address"
                },
                {
                    "internalType": "uint256",
                    "name": "tokenId",
                    "type": "uint256"
                }
            ],
            "name": "transferFrom",
            "outputs": [],
            "stateMutability": "nonpayable",
            "type": "function"
        }
    ],
    "bytecode": "60806040523480156200001157600080fd5b5060405162001e4038038062001e408339810160408190526200003491620001ff565b8251839083906200004d906006906020850190620000a2565b50805162000063906007906020840190620000a2565b5050601180546001600160a01b0319166001600160a01b03939093169290921790915550503360009081526010602052604090206002905550620002df565b828054620000b0906200028c565b90600052602060002090601f016020900481019282620000d457600085556200011f565b82601f10620000ef57805160ff19168380011785556200011f565b828001600101855582156200011f579182015b828111156200011f57825182559160200191906001019062000102565b506200012d92915062000131565b5090565b5b808211156200012d576000815560010162000132565b600082601f8301126200015a57600080fd5b81516001600160401b0380821115620001775762000177620002c9565b604051601f8301601f19908116603f01168101908282118183101715620001a257620001a2620002c9565b81604052838152602092508683858801011115620001bf57600080fd5b600091505b83821015620001e35785820183015181830184015290820190620001c4565b83821115620001f55760008385830101525b9695505050505050565b6000806000606084860312156200021557600080fd5b83516001600160401b03808211156200022d57600080fd5b6200023b8783880162000148565b945060208601519150808211156200025257600080fd5b50620002618682870162000148565b604086015190935090506001600160a01b03811681146200028157600080fd5b809150509250925092565b600181811c90821680620002a157607f821691505b60208210811415620002c357634e487b7160e01b600052602260045260246000fd5b50919050565b634e487b7160e01b600052604160045260246000fd5b611b5180620002ef6000396000f3fe608060405234801561001057600080fd5b50600436106101585760003560e01c80638c0e8349116100c3578063c87b56dd1161007c578063c87b56dd146102bd578063df7534be146102d0578063e7199b47146102e3578063e985e9c514610303578063f5f565f814610326578063fd4f91791461033957600080fd5b80638c0e83491461026057806395d89b4114610269578063a22cb46514610271578063a3f7ac1014610284578063a90b9c7214610297578063b88d4fde146102aa57600080fd5b806326074f971161011557806326074f97146101f957806342842e0e1461020c5780634f6ccce71461021f5780636352211e146102325780636c0360eb1461024557806370a082311461024d57600080fd5b806306fdde031461015d578063081812fc1461017b578063095ea7b3146101a657806318160ddd146101bb5780632067cee8146101d157806323b872dd146101e6575b600080fd5b61016561034c565b60405161017291906118cc565b60405180910390f35b61018e6101893660046117d9565b6103de565b6040516001600160a01b039091168152602001610172565b6101b96101b43660046117af565b61046b565b005b6101c3610581565b604051908152602001610172565b336000908152601060205260409020546101c3565b6101b96101f436600461165b565b610592565b6101c36102073660046117d9565b6105c3565b6101b961021a36600461165b565b6105e0565b6101c361022d3660046117d9565b6105fb565b61018e6102403660046117d9565b610611565b610165610639565b6101c361025b36600461160d565b610648565b6101c3600a5481565b6101656106d4565b6101b961027f366004611773565b6106e3565b6101b96102923660046117f2565b6107a8565b6101c36102a53660046117d9565b610822565b6101b96102b8366004611697565b6108c9565b6101656102cb3660046117d9565b610901565b6101b96102de366004611815565b610a6b565b6102f66102f13660046117d9565b610ae3565b6040516101729190611950565b610316610311366004611628565b610b9d565b6040519015158152602001610172565b6101b9610334366004611859565b610bcb565b60115461018e906001600160a01b031681565b60606006805461035b90611a2e565b80601f016020809104026020016040519081016040528092919081815260200182805461038790611a2e565b80156103d45780601f106103a9576101008083540402835291602001916103d4565b820191906000526020600020905b8154815290600101906020018083116103b757829003601f168201915b5050505050905090565b60006103e982610c61565b61044f5760405162461bcd60e51b815260206004820152602c60248201527f4552433732313a20617070726f76656420717565727920666f72206e6f6e657860448201526b34b9ba32b73a103a37b5b2b760a11b60648201526084015b60405180910390fd5b506000908152600460205260409020546001600160a01b031690565b600061047682610611565b9050806001600160a01b0316836001600160a01b031614156104e45760405162461bcd60e51b815260206004820152602160248201527f4552433732313a20617070726f76616c20746f2063757272656e74206f776e656044820152603960f91b6064820152608401610446565b336001600160a01b038216148061050057506105008133610b9d565b6105725760405162461bcd60e51b815260206004820152603860248201527f4552433732313a20617070726f76652063616c6c6572206973206e6f74206f7760448201527f6e6572206e6f7220617070726f76656420666f7220616c6c00000000000000006064820152608401610446565b61057c8383610c6e565b505050565b600061058d6001610cdc565b905090565b61059c3382610ce7565b6105b85760405162461bcd60e51b8152600401610446906118ff565b61057c838383610db1565b60006105da6105d183610ae3565b60400151610f32565b92915050565b61057c838383604051806020016040528060008152506108c9565b600080610609600184610f9a565b509392505050565b60006105da82604051806060016040528060298152602001611af36029913960019190610fb6565b60606009805461035b90611a2e565b60006001600160a01b0382166106b35760405162461bcd60e51b815260206004820152602a60248201527f4552433732313a2062616c616e636520717565727920666f7220746865207a65604482015269726f206164647265737360b01b6064820152608401610446565b6001600160a01b03821660009081526020819052604090206105da90610fc3565b60606007805461035b90611a2e565b6001600160a01b03821633141561073c5760405162461bcd60e51b815260206004820152601960248201527f4552433732313a20617070726f766520746f2063616c6c6572000000000000006044820152606401610446565b3360008181526005602090815260408083206001600160a01b03871680855290835292819020805460ff191686151590811790915590519081529192917f17307eab39ab6107e8899845ad3d59bd9653f200f220920489ca2b5937696c31910160405180910390a35050565b600082116107e65760405162461bcd60e51b815260206004820152600b60248201526a0726571756972653a203e360ac1b6044820152606401610446565b81600114156107fc576107f881610fcd565b5050565b60005b8281101561057c5761081082610fcd565b8061081a81611a69565b9150506107ff565b60008061082e83610ae3565b606001519050806108425750600092915050565b60006108596a52b7d2dcc80cd2e4000000836119c9565b905061146981101561086f575060019392505050565b611e9d811015610883575060029392505050565b612203811015610897575060039392505050565b6124908110156108ab575060049392505050565b6125ec8110156108bf575060059392505050565b5060069392505050565b6108d33383610ce7565b6108ef5760405162461bcd60e51b8152600401610446906118ff565b6108fb8484848461100d565b50505050565b606061090c82610c61565b6109705760405162461bcd60e51b815260206004820152602f60248201527f4552433732314d657461646174613a2055524920717565727920666f72206e6f60448201526e3732bc34b9ba32b73a103a37b5b2b760891b6064820152608401610446565b6000828152600860205260408120805461098990611a2e565b80601f01602080910402602001604051908101604052809291908181526020018280546109b590611a2e565b8015610a025780601f106109d757610100808354040283529160200191610a02565b820191906000526020600020905b8154815290600101906020018083116109e557829003601f168201915b505050505090506000610a13610639565b9050805160001415610a26575092915050565b815115610a58578082604051602001610a4092919061187b565b60405160208183030381529060405292505050919050565b8084604051602001610a409291906118aa565b60008311610aa95760405162461bcd60e51b815260206004820152600b60248201526a0726571756972653a203e360ac1b6044820152606401610446565b8260011415610abc5761057c8282611018565b60005b838110156108fb57610ad18383611018565b80610adb81611a69565b915050610abf565b610b1d6040805160c08101909152600080825260208201908152602001600081526020016000815260200160008152602001600081525090565b6000828152600b6020908152604091829020825160c08101909352805483526001810154909183019060ff166005811115610b5a57610b5a611a9a565b6005811115610b6b57610b6b611a9a565b815260028201546020820152600382015460408201526004820154606082015260059091015460809091015292915050565b6001600160a01b03918216600090815260056020908152604080832093909416825291909152205460ff1690565b60008111610c045760405162461bcd60e51b815260206004820152600660248201526506e6f206578760d41b6044820152606401610446565b6000828152600b602052604090206002810154610c219083611152565b600282015560405182815283907f3056b9cd784671e7a0f5d6f930db4d14e1e876a87360c871cc4d88b9f54c44b2906020015b60405180910390a2505050565b60006105da6001836111b8565b600081815260046020526040902080546001600160a01b0319166001600160a01b0384169081179091558190610ca382610611565b6001600160a01b03167f8c5be1e5ebec7d5bd14f71427d1e84f3dd0314c0f7b2291e5b200ac8c7c3b92560405160405180910390a45050565b60006105da826111c4565b6000610cf282610c61565b610d535760405162461bcd60e51b815260206004820152602c60248201527f4552433732313a206f70657261746f7220717565727920666f72206e6f6e657860448201526b34b9ba32b73a103a37b5b2b760a11b6064820152608401610446565b6000610d5e83610611565b9050806001600160a01b0316846001600160a01b03161480610d995750836001600160a01b0316610d8e846103de565b6001600160a01b0316145b80610da95750610da98185610b9d565b949350505050565b826001600160a01b0316610dc482610611565b6001600160a01b031614610e2c5760405162461bcd60e51b815260206004820152602960248201527f4552433732313a207472616e73666572206f6620746f6b656e2074686174206960448201526839903737ba1037bbb760b91b6064820152608401610446565b6001600160a01b038216610e8e5760405162461bcd60e51b8152602060048201526024808201527f4552433732313a207472616e7366657220746f20746865207a65726f206164646044820152637265737360e01b6064820152608401610446565b610e99600082610c6e565b6001600160a01b0383166000908152602081905260409020610ebb90826111cf565b506001600160a01b0382166000908152602081905260409020610ede90826111db565b50610eeb600182846111e7565b5080826001600160a01b0316846001600160a01b03167fddf252ad1be2c89b69c2b068fc378daa952ba7f163c4a11628f55a4df523b3ef60405160405180910390a4505050565b60006064821015610f4557506001919050565b61015e821015610f5757506002919050565b6103e8821015610f6957506003919050565b6107d0821015610f7b57506004919050565b610fa0821015610f8d57506005919050565b506006919050565b919050565b6000808080610fa986866111fd565b9097909650945050505050565b6000610da9848484611228565b60006105da825490565b6001600160a01b038116600090815260106020526040902054610ff1906001611152565b6001600160a01b03909116600090815260106020526040902055565b6108fb848484610db1565b6001600160a01b03821660009081526010602052604090205461103c906001611274565b6001600160a01b0383166000908152601060205260408120919091556110606112b6565b905061106c83826112c7565b6040518060c001604052806000815260200183600581111561109057611090611a9a565b81526000602080830182905260408084018390526060840183905242608090940193909352848252600b8152919020825181559082015160018083018054909160ff19909116908360058111156110e9576110e9611a9a565b02179055506040828101516002830155606083015160038301556080830151600483015560a090920151600590910155516001600160a01b038416815281907f2bf03af0706d54e76576b0b1fb7783f50164f3b0e78ee948e922bb469154064090602001610c54565b60008061115f83856119b1565b9050838110156111b15760405162461bcd60e51b815260206004820152601b60248201527f536166654d6174683a206164646974696f6e206f766572666c6f7700000000006044820152606401610446565b9392505050565b60006111b183836112d9565b60006105da82610fc3565b60006111b183836112f8565b60006111b183836113eb565b6000610da984846001600160a01b03851661143a565b6000808061120b8585611457565b600081815260029690960160205260409095205494959350505050565b60008281526002840160205260408120548015158061124c575061124c85856112d9565b839061126b5760405162461bcd60e51b815260040161044691906118cc565b50949350505050565b60006111b183836040518060400160405280601e81526020017f536166654d6174683a207375627472616374696f6e206f766572666c6f770000815250611463565b600a5460009061058d906001611152565b6112d1828261149d565b6107f86115b5565b60006111b18383600081815260018301602052604081205415156111b1565b600081815260018301602052604081205480156113e157600061131c6001836119eb565b8554909150600090611330906001906119eb565b905081811461139557600086600001828154811061135057611350611ac6565b906000526020600020015490508087600001848154811061137357611373611ac6565b6000918252602080832090910192909255918252600188019052604090208390555b85548690806113a6576113a6611ab0565b6001900381819060005260206000200160009055905585600101600086815260200190815260200160002060009055600193505050506105da565b60009150506105da565b6000818152600183016020526040812054611432575081546001818101845560008481526020808220909301849055845484825282860190935260409020919091556105da565b5060006105da565b60008281526002840160205260408120829055610da984846111db565b60006111b183836115cc565b600081848411156114875760405162461bcd60e51b815260040161044691906118cc565b50600061149484866119eb565b95945050505050565b6001600160a01b0382166114f35760405162461bcd60e51b815260206004820181905260248201527f4552433732313a206d696e7420746f20746865207a65726f20616464726573736044820152606401610446565b6114fc81610c61565b156115495760405162461bcd60e51b815260206004820152601c60248201527f4552433732313a20746f6b656e20616c7265616479206d696e746564000000006044820152606401610446565b6001600160a01b038216600090815260208190526040902061156b90826111db565b50611578600182846111e7565b5060405181906001600160a01b038416906000907fddf252ad1be2c89b69c2b068fc378daa952ba7f163c4a11628f55a4df523b3ef908290a45050565b600a80549060006115c583611a69565b9190505550565b60008260000182815481106115e3576115e3611ac6565b9060005260206000200154905092915050565b80356001600160a01b0381168114610f9557600080fd5b60006020828403121561161f57600080fd5b6111b1826115f6565b6000806040838503121561163b57600080fd5b611644836115f6565b9150611652602084016115f6565b90509250929050565b60008060006060848603121561167057600080fd5b611679846115f6565b9250611687602085016115f6565b9150604084013590509250925092565b600080600080608085870312156116ad57600080fd5b6116b6856115f6565b93506116c4602086016115f6565b925060408501359150606085013567ffffffffffffffff808211156116e857600080fd5b818701915087601f8301126116fc57600080fd5b81358181111561170e5761170e611adc565b604051601f8201601f19908116603f0116810190838211818310171561173657611736611adc565b816040528281528a602084870101111561174f57600080fd5b82602086016020830137600060208483010152809550505050505092959194509250565b6000806040838503121561178657600080fd5b61178f836115f6565b9150602083013580151581146117a457600080fd5b809150509250929050565b600080604083850312156117c257600080fd5b6117cb836115f6565b946020939093013593505050565b6000602082840312156117eb57600080fd5b5035919050565b6000806040838503121561180557600080fd5b82359150611652602084016115f6565b60008060006060848603121561182a57600080fd5b8335925061183a602085016115f6565b915060408401356006811061184e57600080fd5b809150509250925092565b6000806040838503121561186c57600080fd5b50508035926020909101359150565b6000835161188d818460208801611a02565b8351908301906118a1818360208801611a02565b01949350505050565b600083516118bc818460208801611a02565b9190910191825250602001919050565b60208152600082518060208401526118eb816040850160208701611a02565b601f01601f19169190910160400192915050565b60208082526031908201527f4552433732313a207472616e736665722063616c6c6572206973206e6f74206f6040820152701ddb995c881b9bdc88185c1c1c9bdd9959607a1b606082015260800190565b81518152602082015160c08201906006811061197c57634e487b7160e01b600052602160045260246000fd5b8060208401525060408301516040830152606083015160608301526080830151608083015260a083015160a083015292915050565b600082198211156119c4576119c4611a84565b500190565b6000826119e657634e487b7160e01b600052601260045260246000fd5b500490565b6000828210156119fd576119fd611a84565b500390565b60005b83811015611a1d578181015183820152602001611a05565b838111156108fb5750506000910152565b600181811c90821680611a4257607f821691505b60208210811415611a6357634e487b7160e01b600052602260045260246000fd5b50919050565b6000600019821415611a7d57611a7d611a84565b5060010190565b634e487b7160e01b600052601160045260246000fd5b634e487b7160e01b600052602160045260246000fd5b634e487b7160e01b600052603160045260246000fd5b634e487b7160e01b600052603260045260246000fd5b634e487b7160e01b600052604160045260246000fdfe4552433732313a206f776e657220717565727920666f72206e6f6e6578697374656e7420746f6b656ea26469706673582212206455f0749cf0c1f70dea6aed43c67f6a6b1e117327884c0cd526ed53797b8a6364736f6c63430008070033",
    "sourcePath": "c:/workspace/Personal/truffle/HeroPrime/contracts/HeroPrimeNFT.sol",
    "compiler": {
        "name": "solc",
        "version": "0.8.7+commit.e28d00a7"
    },
    "functionHashes": {
        "approve(address,uint256)": "095ea7b3",
        "balanceOf(address)": "70a08231",
        "baseURI()": "6c0360eb",
        "exp(uint256,uint256)": "f5f565f8",
        "getApproved(uint256)": "081812fc",
        "getHeroPrime(uint256)": "e7199b47",
        "getHeroPrimeRolls()": "2067cee8",
        "getRare(uint256)": "a90b9c72",
        "heroPrimeERC20()": "fd4f9179",
        "heroPrimeLevel(uint256)": "26074f97",
        "incrementRolls(uint256,address)": "a3f7ac10",
        "isApprovedForAll(address,address)": "e985e9c5",
        "latestTokenId()": "8c0e8349",
        "name()": "06fdde03",
        "ownerOf(uint256)": "6352211e",
        "rollHero(uint256,address,uint8)": "df7534be",
        "safeTransferFrom(address,address,uint256)": "42842e0e",
        "safeTransferFrom(address,address,uint256,bytes)": "b88d4fde",
        "setApprovalForAll(address,bool)": "a22cb465",
        "symbol()": "95d89b41",
        "tokenByIndex(uint256)": "4f6ccce7",
        "tokenURI(uint256)": "c87b56dd",
        "totalSupply()": "18160ddd",
        "transferFrom(address,address,uint256)": "23b872dd"
    },
    "gasEstimates": {
        "creation": {
            "codeDepositCost": "1398600",
            "executionCost": "infinite",
            "totalCost": "infinite"
        },
        "external": {
            "approve(address,uint256)": "infinite",
            "balanceOf(address)": "infinite",
            "baseURI()": "infinite",
            "exp(uint256,uint256)": "26258",
            "getApproved(uint256)": "infinite",
            "getHeroPrime(uint256)": "13616",
            "getHeroPrimeRolls()": "2472",
            "getRare(uint256)": "13740",
            "heroPrimeERC20()": "2469",
            "heroPrimeLevel(uint256)": "13592",
            "incrementRolls(uint256,address)": "infinite",
            "isApprovedForAll(address,address)": "infinite",
            "latestTokenId()": "2318",
            "name()": "infinite",
            "ownerOf(uint256)": "infinite",
            "rollHero(uint256,address,uint8)": "infinite",
            "safeTransferFrom(address,address,uint256)": "infinite",
            "safeTransferFrom(address,address,uint256,bytes)": "infinite",
            "setApprovalForAll(address,bool)": "26695",
            "symbol()": "infinite",
            "tokenByIndex(uint256)": "7056",
            "tokenURI(uint256)": "infinite",
            "totalSupply()": "infinite",
            "transferFrom(address,address,uint256)": "infinite"
        },
        "internal": {
            "_getNextTokenId()": "infinite",
            "_incrementRolls(address)": "infinite",
            "_incrementTokenId()": "24301",
            "_mint(address,uint256)": "infinite",
            "_rollHero(address,enum HeroPrimeNFT.Element)": "infinite",
            "getLevel(uint256)": "155"
        }
    }
}