{
  "contractName": "HeroPrimeManager",
  "abi": [
    {
      "inputs": [
        {
          "internalType": "address",
          "name": "token",
          "type": "address"
        },
        {
          "internalType": "address",
          "name": "nft",
          "type": "address"
        },
        {
          "internalType": "address",
          "name": "engine",
          "type": "address"
        }
      ],
      "stateMutability": "nonpayable",
      "type": "constructor"
    },
    {
      "anonymous": false,
      "inputs": [
        {
          "indexed": true,
          "internalType": "address",
          "name": "previousOwner",
          "type": "address"
        },
        {
          "indexed": true,
          "internalType": "address",
          "name": "newOwner",
          "type": "address"
        }
      ],
      "name": "OwnershipTransferred",
      "type": "event"
    },
    {
      "inputs": [],
      "name": "_attackFee",
      "outputs": [
        {
          "internalType": "uint256",
          "name": "",
          "type": "uint256"
        }
      ],
      "stateMutability": "view",
      "type": "function",
      "constant": true
    },
    {
      "inputs": [],
      "name": "_rollHeroPrice",
      "outputs": [
        {
          "internalType": "uint256",
          "name": "",
          "type": "uint256"
        }
      ],
      "stateMutability": "view",
      "type": "function",
      "constant": true
    },
    {
      "inputs": [],
      "name": "divPercent",
      "outputs": [
        {
          "internalType": "uint256",
          "name": "",
          "type": "uint256"
        }
      ],
      "stateMutability": "view",
      "type": "function",
      "constant": true
    },
    {
      "inputs": [],
      "name": "feeAddress",
      "outputs": [
        {
          "internalType": "address",
          "name": "",
          "type": "address"
        }
      ],
      "stateMutability": "view",
      "type": "function",
      "constant": true
    },
    {
      "inputs": [],
      "name": "feeMarketRate",
      "outputs": [
        {
          "internalType": "uint256",
          "name": "",
          "type": "uint256"
        }
      ],
      "stateMutability": "view",
      "type": "function",
      "constant": true
    },
    {
      "inputs": [],
      "name": "owner",
      "outputs": [
        {
          "internalType": "address",
          "name": "",
          "type": "address"
        }
      ],
      "stateMutability": "view",
      "type": "function",
      "constant": true
    },
    {
      "inputs": [],
      "name": "renounceOwnership",
      "outputs": [],
      "stateMutability": "nonpayable",
      "type": "function"
    },
    {
      "inputs": [
        {
          "internalType": "address",
          "name": "newOwner",
          "type": "address"
        }
      ],
      "name": "transferOwnership",
      "outputs": [],
      "stateMutability": "nonpayable",
      "type": "function"
    },
    {
      "inputs": [
        {
          "internalType": "uint256",
          "name": "_fee",
          "type": "uint256"
        }
      ],
      "name": "setAttackFee",
      "outputs": [],
      "stateMutability": "nonpayable",
      "type": "function"
    },
    {
      "inputs": [
        {
          "internalType": "uint256",
          "name": "_fee",
          "type": "uint256"
        }
      ],
      "name": "setRollHeroPrice",
      "outputs": [],
      "stateMutability": "nonpayable",
      "type": "function"
    },
    {
      "inputs": [
        {
          "internalType": "address",
          "name": "_feeaddress",
          "type": "address"
        }
      ],
      "name": "setFeeAddress",
      "outputs": [],
      "stateMutability": "nonpayable",
      "type": "function"
    },
    {
      "inputs": [
        {
          "internalType": "uint256",
          "name": "newRate",
          "type": "uint256"
        }
      ],
      "name": "setFeeMarketRate",
      "outputs": [],
      "stateMutability": "nonpayable",
      "type": "function"
    },
    {
      "inputs": [
        {
          "internalType": "uint256",
          "name": "_divPercent",
          "type": "uint256"
        }
      ],
      "name": "setDivPercent",
      "outputs": [],
      "stateMutability": "nonpayable",
      "type": "function"
    },
    {
      "inputs": [
        {
          "internalType": "uint256",
          "name": "_tokenId",
          "type": "uint256"
        },
        {
          "internalType": "uint256",
          "name": "_monster",
          "type": "uint256"
        }
      ],
      "name": "attackMonster",
      "outputs": [],
      "stateMutability": "nonpayable",
      "type": "function"
    },
    {
      "inputs": [
        {
          "internalType": "uint256",
          "name": "amount",
          "type": "uint256"
        }
      ],
      "name": "buyHeroRolls",
      "outputs": [],
      "stateMutability": "nonpayable",
      "type": "function"
    },
    {
      "inputs": [
        {
          "internalType": "uint256",
          "name": "amount",
          "type": "uint256"
        },
        {
          "internalType": "uint256",
          "name": "elementindex",
          "type": "uint256"
        }
      ],
      "name": "rollForHero",
      "outputs": [],
      "stateMutability": "nonpayable",
      "type": "function"
    },
    {
      "inputs": [
        {
          "internalType": "string",
          "name": "field",
          "type": "string"
        },
        {
          "internalType": "uint256",
          "name": "id",
          "type": "uint256"
        }
      ],
      "name": "generation",
      "outputs": [
        {
          "internalType": "uint256",
          "name": "",
          "type": "uint256"
        }
      ],
      "stateMutability": "view",
      "type": "function",
      "constant": true
    },
    {
      "inputs": [
        {
          "internalType": "uint256",
          "name": "_tokenId",
          "type": "uint256"
        },
        {
          "internalType": "uint256",
          "name": "_price",
          "type": "uint256"
        }
      ],
      "name": "placeItemForSale",
      "outputs": [],
      "stateMutability": "nonpayable",
      "type": "function"
    },
    {
      "inputs": [
        {
          "internalType": "uint256",
          "name": "_tokenId",
          "type": "uint256"
        }
      ],
      "name": "removeItemFromSale",
      "outputs": [],
      "stateMutability": "nonpayable",
      "type": "function"
    },
    {
      "inputs": [
        {
          "internalType": "uint256",
          "name": "_tokenId",
          "type": "uint256"
        }
      ],
      "name": "buyItemFromMarketplace",
      "outputs": [],
      "stateMutability": "nonpayable",
      "type": "function"
    }
  ],
  "bytecode": "0x6080604052680ad78ebc5ac6200000600155670de0b6b3a76400006002556001600355600a6004553480156200003457600080fd5b5060405162001f2e38038062001f2e83398181016040528101906200005a919062000236565b60006200006c6200021760201b60201c565b9050806000806101000a81548173ffffffffffffffffffffffffffffffffffffffff021916908373ffffffffffffffffffffffffffffffffffffffff1602179055508073ffffffffffffffffffffffffffffffffffffffff16600073ffffffffffffffffffffffffffffffffffffffff167f8be0079c531659141344cd1fd0a4f28419497f9722a3daafe3b4186f6b6457e060405160405180910390a35081600560006101000a81548173ffffffffffffffffffffffffffffffffffffffff021916908373ffffffffffffffffffffffffffffffffffffffff16021790555082600660006101000a81548173ffffffffffffffffffffffffffffffffffffffff021916908373ffffffffffffffffffffffffffffffffffffffff16021790555080600760006101000a81548173ffffffffffffffffffffffffffffffffffffffff021916908373ffffffffffffffffffffffffffffffffffffffff16021790555030600860006101000a81548173ffffffffffffffffffffffffffffffffffffffff021916908373ffffffffffffffffffffffffffffffffffffffff160217905550505050620002da565b600033905090565b6000815190506200023081620002c0565b92915050565b6000806000606084860312156200024c57600080fd5b60006200025c868287016200021f565b93505060206200026f868287016200021f565b925050604062000282868287016200021f565b9150509250925092565b60006200029982620002a0565b9050919050565b600073ffffffffffffffffffffffffffffffffffffffff82169050919050565b620002cb816200028c565b8114620002d757600080fd5b50565b611c4480620002ea6000396000f3fe608060405234801561001057600080fd5b506004361061012c5760003560e01c8063715018a6116100ad578063956d217211610071578063956d2172146102e15780639764665d146102fd578063d372437a14610319578063e9ac7bee14610335578063f2fde38b146103535761012c565b8063715018a6146102655780638384ad5c1461026f5780638705fcd41461028b5780638da5cb5b146102a757806394d81254146102c55761012c565b806341275358116100f457806341275358146101bf57806343aa2b6c146101dd578063470ef610146101fb5780635bdb8138146102195780635d687b68146102355761012c565b80630703974f146101315780630abfd9781461014f5780632358cadf1461016b57806328decbd6146101875780632fa348f7146101a3575b600080fd5b61013961036f565b6040516101469190611788565b60405180910390f35b6101696004803603810190610164919061144d565b610375565b005b6101856004803603810190610180919061144d565b6104d1565b005b6101a1600480360381019061019c919061149f565b61056a565b005b6101bd60048036038101906101b8919061144d565b610606565b005b6101c76106a5565b6040516101d4919061167d565b60405180910390f35b6101e56106cb565b6040516101f29190611788565b60405180910390f35b6102036106d1565b6040516102109190611788565b60405180910390f35b610233600480360381019061022e919061144d565b6106d7565b005b61024f600480360381019061024a91906113f9565b610776565b60405161025c9190611788565b60405180910390f35b61026d61086c565b005b6102896004803603810190610284919061144d565b6109bf565b005b6102a560048036038101906102a0919061137e565b610a58565b005b6102af610b31565b6040516102bc919061167d565b60405180910390f35b6102df60048036038101906102da919061149f565b610b5a565b005b6102fb60048036038101906102f6919061144d565b610d15565b005b6103176004803603810190610312919061149f565b610db4565b005b610333600480360381019061032e919061144d565b610f34565b005b61033d610fd3565b60405161034a9190611788565b60405180910390f35b61036d6004803603810190610368919061137e565b610fd9565b005b60025481565b600660009054906101000a900473ffffffffffffffffffffffffffffffffffffffff1673ffffffffffffffffffffffffffffffffffffffff166323b872dd6103bb61107a565b306001546040518463ffffffff1660e01b81526004016103dd93929190611698565b602060405180830381600087803b1580156103f757600080fd5b505af115801561040b573d6000803e3d6000fd5b505050506040513d601f19601f8201168201806040525081019061042f91906113d0565b61043857600080fd5b600560009054906101000a900473ffffffffffffffffffffffffffffffffffffffff1673ffffffffffffffffffffffffffffffffffffffff1663a3f7ac108261047f61107a565b6040518363ffffffff1660e01b815260040161049c9291906117a3565b600060405180830381600087803b1580156104b657600080fd5b505af11580156104ca573d6000803e3d6000fd5b5050505050565b600560009054906101000a900473ffffffffffffffffffffffffffffffffffffffff1673ffffffffffffffffffffffffffffffffffffffff16637323a7d38261051861107a565b6040518363ffffffff1660e01b81526004016105359291906117a3565b600060405180830381600087803b15801561054f57600080fd5b505af1158015610563573d6000803e3d6000fd5b5050505050565b600560009054906101000a900473ffffffffffffffffffffffffffffffffffffffff1673ffffffffffffffffffffffffffffffffffffffff166377320050836105b161107a565b846040518463ffffffff1660e01b81526004016105d0939291906117cc565b600060405180830381600087803b1580156105ea57600080fd5b505af11580156105fe573d6000803e3d6000fd5b505050505050565b61060e61107a565b73ffffffffffffffffffffffffffffffffffffffff1660008054906101000a900473ffffffffffffffffffffffffffffffffffffffff1673ffffffffffffffffffffffffffffffffffffffff161461069b576040517f08c379a000000000000000000000000000000000000000000000000000000000815260040161069290611748565b60405180910390fd5b8060038190555050565b600860009054906101000a900473ffffffffffffffffffffffffffffffffffffffff1681565b60035481565b60045481565b6106df61107a565b73ffffffffffffffffffffffffffffffffffffffff1660008054906101000a900473ffffffffffffffffffffffffffffffffffffffff1673ffffffffffffffffffffffffffffffffffffffff161461076c576040517f08c379a000000000000000000000000000000000000000000000000000000000815260040161076390611748565b60405180910390fd5b8060048190555050565b6000806040518060400160405280600681526020017f726172697479000000000000000000000000000000000000000000000000000081525080519060200120848051906020012014156107ef5760006107d1846002611082565b90506107e76010826110d390919063ffffffff16565b915050610862565b6040518060400160405280600781526020017f656c656d656e74000000000000000000000000000000000000000000000000008152508051906020012084805190602001201415610861576000610847846002611082565b905061085d6014826110d390919063ffffffff16565b9150505b5b8091505092915050565b61087461107a565b73ffffffffffffffffffffffffffffffffffffffff1660008054906101000a900473ffffffffffffffffffffffffffffffffffffffff1673ffffffffffffffffffffffffffffffffffffffff1614610901576040517f08c379a00000000000000000000000000000000000000000000000000000000081526004016108f890611748565b60405180910390fd5b600073ffffffffffffffffffffffffffffffffffffffff1660008054906101000a900473ffffffffffffffffffffffffffffffffffffffff1673ffffffffffffffffffffffffffffffffffffffff167f8be0079c531659141344cd1fd0a4f28419497f9722a3daafe3b4186f6b6457e060405160405180910390a360008060006101000a81548173ffffffffffffffffffffffffffffffffffffffff021916908373ffffffffffffffffffffffffffffffffffffffff160217905550565b600560009054906101000a900473ffffffffffffffffffffffffffffffffffffffff1673ffffffffffffffffffffffffffffffffffffffff16634aaecf5482610a0661107a565b6040518363ffffffff1660e01b8152600401610a239291906117a3565b600060405180830381600087803b158015610a3d57600080fd5b505af1158015610a51573d6000803e3d6000fd5b5050505050565b610a6061107a565b73ffffffffffffffffffffffffffffffffffffffff1660008054906101000a900473ffffffffffffffffffffffffffffffffffffffff1673ffffffffffffffffffffffffffffffffffffffff1614610aed576040517f08c379a0000000000000000000000000000000000000000000000000000000008152600401610ae490611748565b60405180910390fd5b80600860006101000a81548173ffffffffffffffffffffffffffffffffffffffff021916908373ffffffffffffffffffffffffffffffffffffffff16021790555050565b60008060009054906101000a900473ffffffffffffffffffffffffffffffffffffffff16905090565b610b6261107a565b73ffffffffffffffffffffffffffffffffffffffff16600560009054906101000a900473ffffffffffffffffffffffffffffffffffffffff1673ffffffffffffffffffffffffffffffffffffffff16636352211e846040518263ffffffff1660e01b8152600401610bd39190611788565b60206040518083038186803b158015610beb57600080fd5b505afa158015610bff573d6000803e3d6000fd5b505050506040513d601f19601f82011682018060405250810190610c2391906113a7565b73ffffffffffffffffffffffffffffffffffffffff1614610c79576040517f08c379a0000000000000000000000000000000000000000000000000000000008152600401610c7090611768565b60405180910390fd5b600560009054906101000a900473ffffffffffffffffffffffffffffffffffffffff1673ffffffffffffffffffffffffffffffffffffffff166335e4365f8383610cc161107a565b6040518463ffffffff1660e01b8152600401610cdf93929190611803565b600060405180830381600087803b158015610cf957600080fd5b505af1158015610d0d573d6000803e3d6000fd5b505050505050565b610d1d61107a565b73ffffffffffffffffffffffffffffffffffffffff1660008054906101000a900473ffffffffffffffffffffffffffffffffffffffff1673ffffffffffffffffffffffffffffffffffffffff1614610daa576040517f08c379a0000000000000000000000000000000000000000000000000000000008152600401610da190611748565b60405180910390fd5b8060028190555050565b600660009054906101000a900473ffffffffffffffffffffffffffffffffffffffff1673ffffffffffffffffffffffffffffffffffffffff166323b872dd610dfa61107a565b306002546040518463ffffffff1660e01b8152600401610e1c93929190611698565b602060405180830381600087803b158015610e3657600080fd5b505af1158015610e4a573d6000803e3d6000fd5b505050506040513d601f19601f82011682018060405250810190610e6e91906113d0565b610e7757600080fd5b600760009054906101000a900473ffffffffffffffffffffffffffffffffffffffff1673ffffffffffffffffffffffffffffffffffffffff1663c28ad2d3610ebd61107a565b84846040518463ffffffff1660e01b8152600401610edd939291906116cf565b602060405180830381600087803b158015610ef757600080fd5b505af1158015610f0b573d6000803e3d6000fd5b505050506040513d601f19601f82011682018060405250810190610f2f9190611476565b505050565b610f3c61107a565b73ffffffffffffffffffffffffffffffffffffffff1660008054906101000a900473ffffffffffffffffffffffffffffffffffffffff1673ffffffffffffffffffffffffffffffffffffffff1614610fc9576040517f08c379a0000000000000000000000000000000000000000000000000000000008152600401610fc090611748565b60405180910390fd5b8060018190555050565b60015481565b610fe161107a565b73ffffffffffffffffffffffffffffffffffffffff1660008054906101000a900473ffffffffffffffffffffffffffffffffffffffff1673ffffffffffffffffffffffffffffffffffffffff161461106e576040517f08c379a000000000000000000000000000000000000000000000000000000000815260040161106590611748565b60405180910390fd5b6110778161111d565b50565b600033905090565b600081600a611091919061193b565b444285856040516020016110a8949392919061162f565b6040516020818303038152906040528051906020012060001c6110cb9190611aed565b905092915050565b600061111583836040518060400160405280601a81526020017f536166654d6174683a206469766973696f6e206279207a65726f00000000000081525061124a565b905092915050565b600073ffffffffffffffffffffffffffffffffffffffff168173ffffffffffffffffffffffffffffffffffffffff16141561118d576040517f08c379a000000000000000000000000000000000000000000000000000000000815260040161118490611728565b60405180910390fd5b8073ffffffffffffffffffffffffffffffffffffffff1660008054906101000a900473ffffffffffffffffffffffffffffffffffffffff1673ffffffffffffffffffffffffffffffffffffffff167f8be0079c531659141344cd1fd0a4f28419497f9722a3daafe3b4186f6b6457e060405160405180910390a3806000806101000a81548173ffffffffffffffffffffffffffffffffffffffff021916908373ffffffffffffffffffffffffffffffffffffffff16021790555050565b60008083118290611291576040517f08c379a00000000000000000000000000000000000000000000000000000000081526004016112889190611706565b60405180910390fd5b50600083856112a091906118b7565b9050809150509392505050565b60006112c06112bb8461186b565b61183a565b9050828152602081018484840111156112d857600080fd5b6112e3848285611aa1565b509392505050565b6000813590506112fa81611bc9565b92915050565b60008151905061130f81611bc9565b92915050565b60008151905061132481611be0565b92915050565b600082601f83011261133b57600080fd5b813561134b8482602086016112ad565b91505092915050565b60008135905061136381611bf7565b92915050565b60008151905061137881611bf7565b92915050565b60006020828403121561139057600080fd5b600061139e848285016112eb565b91505092915050565b6000602082840312156113b957600080fd5b60006113c784828501611300565b91505092915050565b6000602082840312156113e257600080fd5b60006113f084828501611315565b91505092915050565b6000806040838503121561140c57600080fd5b600083013567ffffffffffffffff81111561142657600080fd5b6114328582860161132a565b925050602061144385828601611354565b9150509250929050565b60006020828403121561145f57600080fd5b600061146d84828501611354565b91505092915050565b60006020828403121561148857600080fd5b600061149684828501611369565b91505092915050565b600080604083850312156114b257600080fd5b60006114c085828601611354565b92505060206114d185828601611354565b9150509250929050565b6114e481611a59565b82525050565b60006114f58261189b565b6114ff81856118a6565b935061150f818560208601611ab0565b61151881611bab565b840191505092915050565b60006115306026836118a6565b91507f4f776e61626c653a206e6577206f776e657220697320746865207a65726f206160008301527f64647265737300000000000000000000000000000000000000000000000000006020830152604082019050919050565b60006115966020836118a6565b91507f4f776e61626c653a2063616c6c6572206973206e6f7420746865206f776e65726000830152602082019050919050565b60006115d66009836118a6565b91507f6e6f74204f776e657200000000000000000000000000000000000000000000006000830152602082019050919050565b61161281611a97565b82525050565b61162961162482611a97565b611ae3565b82525050565b600061163b8287611618565b60208201915061164b8286611618565b60208201915061165b8285611618565b60208201915061166b8284611618565b60208201915081905095945050505050565b600060208201905061169260008301846114db565b92915050565b60006060820190506116ad60008301866114db565b6116ba60208301856114db565b6116c76040830184611609565b949350505050565b60006060820190506116e460008301866114db565b6116f16020830185611609565b6116fe6040830184611609565b949350505050565b6000602082019050818103600083015261172081846114ea565b905092915050565b6000602082019050818103600083015261174181611523565b9050919050565b6000602082019050818103600083015261176181611589565b9050919050565b60006020820190508181036000830152611781816115c9565b9050919050565b600060208201905061179d6000830184611609565b92915050565b60006040820190506117b86000830185611609565b6117c560208301846114db565b9392505050565b60006060820190506117e16000830186611609565b6117ee60208301856114db565b6117fb6040830184611609565b949350505050565b60006060820190506118186000830186611609565b6118256020830185611609565b61183260408301846114db565b949350505050565b6000604051905081810181811067ffffffffffffffff8211171561186157611860611b7c565b5b8060405250919050565b600067ffffffffffffffff82111561188657611885611b7c565b5b601f19601f8301169050602081019050919050565b600081519050919050565b600082825260208201905092915050565b60006118c282611a97565b91506118cd83611a97565b9250826118dd576118dc611b4d565b5b828204905092915050565b6000808291508390505b60018511156119325780860481111561190e5761190d611b1e565b5b600185161561191d5780820291505b808102905061192b85611bbc565b94506118f2565b94509492505050565b600061194682611a97565b915061195183611a97565b925061197e7fffffffffffffffffffffffffffffffffffffffffffffffffffffffffffffffff8484611986565b905092915050565b6000826119965760019050611a52565b816119a45760009050611a52565b81600181146119ba57600281146119c4576119f3565b6001915050611a52565b60ff8411156119d6576119d5611b1e565b5b8360020a9150848211156119ed576119ec611b1e565b5b50611a52565b5060208310610133831016604e8410600b8410161715611a285782820a905083811115611a2357611a22611b1e565b5b611a52565b611a3584848460016118e8565b92509050818404811115611a4c57611a4b611b1e565b5b81810290505b9392505050565b6000611a6482611a77565b9050919050565b60008115159050919050565b600073ffffffffffffffffffffffffffffffffffffffff82169050919050565b6000819050919050565b82818337600083830152505050565b60005b83811015611ace578082015181840152602081019050611ab3565b83811115611add576000848401525b50505050565b6000819050919050565b6000611af882611a97565b9150611b0383611a97565b925082611b1357611b12611b4d565b5b828206905092915050565b7f4e487b7100000000000000000000000000000000000000000000000000000000600052601160045260246000fd5b7f4e487b7100000000000000000000000000000000000000000000000000000000600052601260045260246000fd5b7f4e487b7100000000000000000000000000000000000000000000000000000000600052604160045260246000fd5b6000601f19601f8301169050919050565b60008160011c9050919050565b611bd281611a59565b8114611bdd57600080fd5b50565b611be981611a6b565b8114611bf457600080fd5b50565b611c0081611a97565b8114611c0b57600080fd5b5056fea2646970667358221220e646afeaf9fd57bd00a163923eb2eb46b5a823237346622c3cbb304de6bca19164736f6c63430008000033",
  "immutableReferences": {},
  "source": "// SPDX-License-Identifier: UNLICENSED\r\npragma solidity ^0.8.0;\r\n\r\nimport \"./Utils.sol\";\r\nimport \"./IHeroPrimeNFT.sol\";\r\nimport \"./IERC20.sol\";\r\nimport \"./IHeroPrimeEngine.sol\";\r\n\r\ncontract HeroPrimeManager is Context, Ownable {\r\n    using SafeMath for uint256;\r\n\r\n    uint public _rollHeroPrice = 200 * 10**18;\r\n    uint public _attackFee = 1 * 10**18;\r\n    uint public feeMarketRate = 1;\r\n    uint public divPercent = 10;\r\n\r\n\r\n    IHeroPrimeNFT internal heroPrimeNFT;\r\n    IERC20 internal heroPrimeToken;\r\n    IHeroPrimeEngine internal heroPrimeEngine;\r\n\r\n    address public feeAddress;\r\n\r\n    constructor(address token, address nft, address engine){\r\n        heroPrimeNFT = IHeroPrimeNFT(nft);\r\n        heroPrimeToken = IERC20(token);\r\n        heroPrimeEngine = IHeroPrimeEngine(engine);\r\n        feeAddress = address(this);\r\n    }\r\n\r\n    function setAttackFee(uint _fee) external onlyOwner{\r\n        _attackFee = _fee;\r\n    }\r\n\r\n    function setRollHeroPrice(uint _fee) external onlyOwner{\r\n        _rollHeroPrice = _fee;\r\n    }\r\n    function setFeeAddress(address _feeaddress) external onlyOwner{\r\n        feeAddress = _feeaddress;\r\n    }\r\n    function setFeeMarketRate(uint newRate) external onlyOwner{\r\n        feeMarketRate = newRate;\r\n    }\r\n    function setDivPercent(uint _divPercent) external onlyOwner{\r\n        divPercent = _divPercent;\r\n    }\r\n    // battle external function\r\n\r\n    function attackMonster(uint _tokenId, uint _monster) external {\r\n        require(heroPrimeToken.transferFrom(_msgSender(), address(this), _attackFee));\r\n        heroPrimeEngine.battle(_msgSender(), _tokenId, _monster);\r\n    }\r\n    \r\n    // rollHeroPrice\r\n    function buyHeroRolls(uint amount) external {\r\n        require(heroPrimeToken.transferFrom(_msgSender(), address(this), _rollHeroPrice));\r\n        heroPrimeNFT.incrementRolls(amount, _msgSender());\r\n    }\r\n\r\n    //rollForHero\r\n    function rollForHero(uint256 amount, uint elementindex) external {\r\n        heroPrimeNFT.rollHero(amount, _msgSender(), elementindex);\r\n    }\r\n\r\n    function generation(string memory field, uint id) public view returns (uint256){\r\n        uint result;\r\n        if(keccak256(bytes(field)) == keccak256(bytes(\"rarity\"))) {\r\n            uint rand = random(id, 2);\r\n            result = rand.div(16);\r\n        } else if(keccak256(bytes(field)) == keccak256(bytes(\"element\"))) {\r\n            uint rand = random(id, 2);\r\n            result = rand.div(20);\r\n        }\r\n        return result;\r\n    }\r\n  function random(uint256 _id, uint256 _length)\r\n        private\r\n        view\r\n        returns (uint256)\r\n    {\r\n        return\r\n            uint256(\r\n                uint256(\r\n                    keccak256(\r\n                        abi.encodePacked(\r\n                            block.difficulty,\r\n                            block.timestamp,\r\n                            _id,\r\n                            _length\r\n                        )\r\n                    )\r\n                )\r\n            ) % (10**_length);\r\n    }\r\n    // attackFee\r\n    // enterDungeonFee\r\n\r\n    // BuyHeroPrime\r\n\r\n    // marketplace functions\r\n    function placeItemForSale(uint256 _tokenId, uint256 _price) external {\r\n        require(heroPrimeNFT.ownerOf(_tokenId) == _msgSender(), \"not Owner\");\r\n        heroPrimeNFT.placeOrder(_tokenId, _price, _msgSender());\r\n    }\r\n    function removeItemFromSale(uint256 _tokenId) external {\r\n        heroPrimeNFT.cancelOrder(_tokenId, _msgSender());\r\n    }\r\n    function buyItemFromMarketplace(uint256 _tokenId) external {\r\n        heroPrimeNFT.fillOrder(_tokenId, _msgSender());\r\n    }\r\n}",
  "sourcePath": "C:\\workspace\\Personal\\truffle\\HeroPrime\\contracts\\HeroPrimeManager.sol",
  "compiler": {
    "name": "solc",
    "version": "0.8.0+commit.c7dfd78e.Emscripten.clang"
  },
  "schemaVersion": "3.4.3",
  "updatedAt": "2021-09-22T22:19:56.223Z",
  "networkType": "ethereum",
  "devdoc": {
    "kind": "dev",
    "methods": {
      "owner()": {
        "details": "Returns the address of the current owner."
      },
      "renounceOwnership()": {
        "details": "Leaves the contract without owner. It will not be possible to call `onlyOwner` functions anymore. Can only be called by the current owner. NOTE: Renouncing ownership will leave the contract without an owner, thereby removing any functionality that is only available to the owner."
      },
      "transferOwnership(address)": {
        "details": "Transfers ownership of the contract to a new account (`newOwner`). Can only be called by the current owner."
      }
    },
    "version": 1
  },
  "userdoc": {
    "kind": "user",
    "methods": {},
    "version": 1
  }
}