{
  "contractName": "HeroPrimeManager",
  "abi": [
    {
      "inputs": [
        {
          "internalType": "address",
          "name": "token",
          "type": "address"
        },
        {
          "internalType": "address",
          "name": "nft",
          "type": "address"
        },
        {
          "internalType": "address",
          "name": "engine",
          "type": "address"
        }
      ],
      "stateMutability": "nonpayable",
      "type": "constructor"
    },
    {
      "anonymous": false,
      "inputs": [
        {
          "indexed": true,
          "internalType": "address",
          "name": "previousOwner",
          "type": "address"
        },
        {
          "indexed": true,
          "internalType": "address",
          "name": "newOwner",
          "type": "address"
        }
      ],
      "name": "OwnershipTransferred",
      "type": "event"
    },
    {
      "inputs": [],
      "name": "_attackFee",
      "outputs": [
        {
          "internalType": "uint256",
          "name": "",
          "type": "uint256"
        }
      ],
      "stateMutability": "view",
      "type": "function",
      "constant": true
    },
    {
      "inputs": [],
      "name": "_rollHeroPrice",
      "outputs": [
        {
          "internalType": "uint256",
          "name": "",
          "type": "uint256"
        }
      ],
      "stateMutability": "view",
      "type": "function",
      "constant": true
    },
    {
      "inputs": [],
      "name": "divPercent",
      "outputs": [
        {
          "internalType": "uint256",
          "name": "",
          "type": "uint256"
        }
      ],
      "stateMutability": "view",
      "type": "function",
      "constant": true
    },
    {
      "inputs": [],
      "name": "feeAddress",
      "outputs": [
        {
          "internalType": "address",
          "name": "",
          "type": "address"
        }
      ],
      "stateMutability": "view",
      "type": "function",
      "constant": true
    },
    {
      "inputs": [],
      "name": "feeMarketRate",
      "outputs": [
        {
          "internalType": "uint256",
          "name": "",
          "type": "uint256"
        }
      ],
      "stateMutability": "view",
      "type": "function",
      "constant": true
    },
    {
      "inputs": [],
      "name": "owner",
      "outputs": [
        {
          "internalType": "address",
          "name": "",
          "type": "address"
        }
      ],
      "stateMutability": "view",
      "type": "function",
      "constant": true
    },
    {
      "inputs": [],
      "name": "renounceOwnership",
      "outputs": [],
      "stateMutability": "nonpayable",
      "type": "function"
    },
    {
      "inputs": [
        {
          "internalType": "address",
          "name": "newOwner",
          "type": "address"
        }
      ],
      "name": "transferOwnership",
      "outputs": [],
      "stateMutability": "nonpayable",
      "type": "function"
    },
    {
      "inputs": [
        {
          "internalType": "uint256",
          "name": "_fee",
          "type": "uint256"
        }
      ],
      "name": "setAttackFee",
      "outputs": [],
      "stateMutability": "nonpayable",
      "type": "function"
    },
    {
      "inputs": [
        {
          "internalType": "uint256",
          "name": "_fee",
          "type": "uint256"
        }
      ],
      "name": "setRollHeroPrice",
      "outputs": [],
      "stateMutability": "nonpayable",
      "type": "function"
    },
    {
      "inputs": [
        {
          "internalType": "address",
          "name": "_feeaddress",
          "type": "address"
        }
      ],
      "name": "setFeeAddress",
      "outputs": [],
      "stateMutability": "nonpayable",
      "type": "function"
    },
    {
      "inputs": [
        {
          "internalType": "uint256",
          "name": "newRate",
          "type": "uint256"
        }
      ],
      "name": "setFeeMarketRate",
      "outputs": [],
      "stateMutability": "nonpayable",
      "type": "function"
    },
    {
      "inputs": [
        {
          "internalType": "uint256",
          "name": "_divPercent",
          "type": "uint256"
        }
      ],
      "name": "setDivPercent",
      "outputs": [],
      "stateMutability": "nonpayable",
      "type": "function"
    },
    {
      "inputs": [
        {
          "internalType": "uint256",
          "name": "_tokenId",
          "type": "uint256"
        },
        {
          "internalType": "uint256",
          "name": "_monster",
          "type": "uint256"
        }
      ],
      "name": "attackMonster",
      "outputs": [],
      "stateMutability": "nonpayable",
      "type": "function"
    },
    {
      "inputs": [
        {
          "internalType": "uint256",
          "name": "amount",
          "type": "uint256"
        }
      ],
      "name": "buyHeroRolls",
      "outputs": [],
      "stateMutability": "nonpayable",
      "type": "function"
    },
    {
      "inputs": [
        {
          "internalType": "uint256",
          "name": "amount",
          "type": "uint256"
        },
        {
          "internalType": "uint256",
          "name": "elementindex",
          "type": "uint256"
        }
      ],
      "name": "rollForHero",
      "outputs": [],
      "stateMutability": "nonpayable",
      "type": "function"
    },
    {
      "inputs": [],
      "name": "generation",
      "outputs": [
        {
          "internalType": "uint256",
          "name": "",
          "type": "uint256"
        }
      ],
      "stateMutability": "view",
      "type": "function",
      "constant": true
    },
    {
      "inputs": [
        {
          "internalType": "uint256",
          "name": "_tokenId",
          "type": "uint256"
        },
        {
          "internalType": "uint256",
          "name": "_price",
          "type": "uint256"
        }
      ],
      "name": "placeItemForSale",
      "outputs": [],
      "stateMutability": "nonpayable",
      "type": "function"
    },
    {
      "inputs": [
        {
          "internalType": "uint256",
          "name": "_tokenId",
          "type": "uint256"
        }
      ],
      "name": "removeItemFromSale",
      "outputs": [],
      "stateMutability": "nonpayable",
      "type": "function"
    },
    {
      "inputs": [
        {
          "internalType": "uint256",
          "name": "_tokenId",
          "type": "uint256"
        }
      ],
      "name": "buyItemFromMarketplace",
      "outputs": [],
      "stateMutability": "nonpayable",
      "type": "function"
    }
  ],
  "bytecode": "0x6080604052680ad78ebc5ac6200000600155670de0b6b3a76400006002556001600355600a6004553480156200003457600080fd5b506040516200187b3803806200187b83398181016040528101906200005a919062000236565b60006200006c6200021760201b60201c565b9050806000806101000a81548173ffffffffffffffffffffffffffffffffffffffff021916908373ffffffffffffffffffffffffffffffffffffffff1602179055508073ffffffffffffffffffffffffffffffffffffffff16600073ffffffffffffffffffffffffffffffffffffffff167f8be0079c531659141344cd1fd0a4f28419497f9722a3daafe3b4186f6b6457e060405160405180910390a35081600560006101000a81548173ffffffffffffffffffffffffffffffffffffffff021916908373ffffffffffffffffffffffffffffffffffffffff16021790555082600660006101000a81548173ffffffffffffffffffffffffffffffffffffffff021916908373ffffffffffffffffffffffffffffffffffffffff16021790555080600760006101000a81548173ffffffffffffffffffffffffffffffffffffffff021916908373ffffffffffffffffffffffffffffffffffffffff16021790555030600860006101000a81548173ffffffffffffffffffffffffffffffffffffffff021916908373ffffffffffffffffffffffffffffffffffffffff160217905550505050620002da565b600033905090565b6000815190506200023081620002c0565b92915050565b6000806000606084860312156200024c57600080fd5b60006200025c868287016200021f565b93505060206200026f868287016200021f565b925050604062000282868287016200021f565b9150509250925092565b60006200029982620002a0565b9050919050565b600073ffffffffffffffffffffffffffffffffffffffff82169050919050565b620002cb816200028c565b8114620002d757600080fd5b50565b61159180620002ea6000396000f3fe608060405234801561001057600080fd5b506004361061012c5760003560e01c8063715018a6116100ad578063956d217211610071578063956d2172146102cf5780639764665d146102eb578063d372437a14610307578063e9ac7bee14610323578063f2fde38b146103415761012c565b8063715018a6146102535780638384ad5c1461025d5780638705fcd4146102795780638da5cb5b1461029557806394d81254146102b35761012c565b80632fa348f7116100f45780632fa348f7146101c157806341275358146101dd57806343aa2b6c146101fb578063470ef610146102195780635bdb8138146102375761012c565b80630703974f146101315780630abfd9781461014f578063172195221461016b5780632358cadf1461018957806328decbd6146101a5575b600080fd5b61013961035d565b604051610146919061140b565b60405180910390f35b61016960048036038101906101649190611190565b610363565b005b6101736104bf565b604051610180919061140b565b60405180910390f35b6101a3600480360381019061019e9190611190565b6104c4565b005b6101bf60048036038101906101ba91906111e2565b61055d565b005b6101db60048036038101906101d69190611190565b6105f9565b005b6101e5610698565b6040516101f29190611322565b60405180910390f35b6102036106be565b604051610210919061140b565b60405180910390f35b6102216106c4565b60405161022e919061140b565b60405180910390f35b610251600480360381019061024c9190611190565b6106ca565b005b61025b610769565b005b61027760048036038101906102729190611190565b6108bc565b005b610293600480360381019061028e9190611115565b610955565b005b61029d610a2e565b6040516102aa9190611322565b60405180910390f35b6102cd60048036038101906102c891906111e2565b610a57565b005b6102e960048036038101906102e49190611190565b610c12565b005b610305600480360381019061030091906111e2565b610cb1565b005b610321600480360381019061031c9190611190565b610e31565b005b61032b610ed0565b604051610338919061140b565b60405180910390f35b61035b60048036038101906103569190611115565b610ed6565b005b60025481565b600660009054906101000a900473ffffffffffffffffffffffffffffffffffffffff1673ffffffffffffffffffffffffffffffffffffffff166323b872dd6103a9610f77565b306001546040518463ffffffff1660e01b81526004016103cb9392919061133d565b602060405180830381600087803b1580156103e557600080fd5b505af11580156103f9573d6000803e3d6000fd5b505050506040513d601f19601f8201168201806040525081019061041d9190611167565b61042657600080fd5b600560009054906101000a900473ffffffffffffffffffffffffffffffffffffffff1673ffffffffffffffffffffffffffffffffffffffff1663a3f7ac108261046d610f77565b6040518363ffffffff1660e01b815260040161048a929190611426565b600060405180830381600087803b1580156104a457600080fd5b505af11580156104b8573d6000803e3d6000fd5b5050505050565b600090565b600560009054906101000a900473ffffffffffffffffffffffffffffffffffffffff1673ffffffffffffffffffffffffffffffffffffffff16637323a7d38261050b610f77565b6040518363ffffffff1660e01b8152600401610528929190611426565b600060405180830381600087803b15801561054257600080fd5b505af1158015610556573d6000803e3d6000fd5b5050505050565b600560009054906101000a900473ffffffffffffffffffffffffffffffffffffffff1673ffffffffffffffffffffffffffffffffffffffff166377320050836105a4610f77565b846040518463ffffffff1660e01b81526004016105c39392919061144f565b600060405180830381600087803b1580156105dd57600080fd5b505af11580156105f1573d6000803e3d6000fd5b505050505050565b610601610f77565b73ffffffffffffffffffffffffffffffffffffffff1660008054906101000a900473ffffffffffffffffffffffffffffffffffffffff1673ffffffffffffffffffffffffffffffffffffffff161461068e576040517f08c379a0000000000000000000000000000000000000000000000000000000008152600401610685906113cb565b60405180910390fd5b8060038190555050565b600860009054906101000a900473ffffffffffffffffffffffffffffffffffffffff1681565b60035481565b60045481565b6106d2610f77565b73ffffffffffffffffffffffffffffffffffffffff1660008054906101000a900473ffffffffffffffffffffffffffffffffffffffff1673ffffffffffffffffffffffffffffffffffffffff161461075f576040517f08c379a0000000000000000000000000000000000000000000000000000000008152600401610756906113cb565b60405180910390fd5b8060048190555050565b610771610f77565b73ffffffffffffffffffffffffffffffffffffffff1660008054906101000a900473ffffffffffffffffffffffffffffffffffffffff1673ffffffffffffffffffffffffffffffffffffffff16146107fe576040517f08c379a00000000000000000000000000000000000000000000000000000000081526004016107f5906113cb565b60405180910390fd5b600073ffffffffffffffffffffffffffffffffffffffff1660008054906101000a900473ffffffffffffffffffffffffffffffffffffffff1673ffffffffffffffffffffffffffffffffffffffff167f8be0079c531659141344cd1fd0a4f28419497f9722a3daafe3b4186f6b6457e060405160405180910390a360008060006101000a81548173ffffffffffffffffffffffffffffffffffffffff021916908373ffffffffffffffffffffffffffffffffffffffff160217905550565b600560009054906101000a900473ffffffffffffffffffffffffffffffffffffffff1673ffffffffffffffffffffffffffffffffffffffff16634aaecf5482610903610f77565b6040518363ffffffff1660e01b8152600401610920929190611426565b600060405180830381600087803b15801561093a57600080fd5b505af115801561094e573d6000803e3d6000fd5b5050505050565b61095d610f77565b73ffffffffffffffffffffffffffffffffffffffff1660008054906101000a900473ffffffffffffffffffffffffffffffffffffffff1673ffffffffffffffffffffffffffffffffffffffff16146109ea576040517f08c379a00000000000000000000000000000000000000000000000000000000081526004016109e1906113cb565b60405180910390fd5b80600860006101000a81548173ffffffffffffffffffffffffffffffffffffffff021916908373ffffffffffffffffffffffffffffffffffffffff16021790555050565b60008060009054906101000a900473ffffffffffffffffffffffffffffffffffffffff16905090565b610a5f610f77565b73ffffffffffffffffffffffffffffffffffffffff16600560009054906101000a900473ffffffffffffffffffffffffffffffffffffffff1673ffffffffffffffffffffffffffffffffffffffff16636352211e846040518263ffffffff1660e01b8152600401610ad0919061140b565b60206040518083038186803b158015610ae857600080fd5b505afa158015610afc573d6000803e3d6000fd5b505050506040513d601f19601f82011682018060405250810190610b20919061113e565b73ffffffffffffffffffffffffffffffffffffffff1614610b76576040517f08c379a0000000000000000000000000000000000000000000000000000000008152600401610b6d906113eb565b60405180910390fd5b600560009054906101000a900473ffffffffffffffffffffffffffffffffffffffff1673ffffffffffffffffffffffffffffffffffffffff166335e4365f8383610bbe610f77565b6040518463ffffffff1660e01b8152600401610bdc93929190611486565b600060405180830381600087803b158015610bf657600080fd5b505af1158015610c0a573d6000803e3d6000fd5b505050505050565b610c1a610f77565b73ffffffffffffffffffffffffffffffffffffffff1660008054906101000a900473ffffffffffffffffffffffffffffffffffffffff1673ffffffffffffffffffffffffffffffffffffffff1614610ca7576040517f08c379a0000000000000000000000000000000000000000000000000000000008152600401610c9e906113cb565b60405180910390fd5b8060028190555050565b600660009054906101000a900473ffffffffffffffffffffffffffffffffffffffff1673ffffffffffffffffffffffffffffffffffffffff166323b872dd610cf7610f77565b306002546040518463ffffffff1660e01b8152600401610d199392919061133d565b602060405180830381600087803b158015610d3357600080fd5b505af1158015610d47573d6000803e3d6000fd5b505050506040513d601f19601f82011682018060405250810190610d6b9190611167565b610d7457600080fd5b600760009054906101000a900473ffffffffffffffffffffffffffffffffffffffff1673ffffffffffffffffffffffffffffffffffffffff1663c28ad2d3610dba610f77565b84846040518463ffffffff1660e01b8152600401610dda93929190611374565b602060405180830381600087803b158015610df457600080fd5b505af1158015610e08573d6000803e3d6000fd5b505050506040513d601f19601f82011682018060405250810190610e2c91906111b9565b505050565b610e39610f77565b73ffffffffffffffffffffffffffffffffffffffff1660008054906101000a900473ffffffffffffffffffffffffffffffffffffffff1673ffffffffffffffffffffffffffffffffffffffff1614610ec6576040517f08c379a0000000000000000000000000000000000000000000000000000000008152600401610ebd906113cb565b60405180910390fd5b8060018190555050565b60015481565b610ede610f77565b73ffffffffffffffffffffffffffffffffffffffff1660008054906101000a900473ffffffffffffffffffffffffffffffffffffffff1673ffffffffffffffffffffffffffffffffffffffff1614610f6b576040517f08c379a0000000000000000000000000000000000000000000000000000000008152600401610f62906113cb565b60405180910390fd5b610f7481610f7f565b50565b600033905090565b600073ffffffffffffffffffffffffffffffffffffffff168173ffffffffffffffffffffffffffffffffffffffff161415610fef576040517f08c379a0000000000000000000000000000000000000000000000000000000008152600401610fe6906113ab565b60405180910390fd5b8073ffffffffffffffffffffffffffffffffffffffff1660008054906101000a900473ffffffffffffffffffffffffffffffffffffffff1673ffffffffffffffffffffffffffffffffffffffff167f8be0079c531659141344cd1fd0a4f28419497f9722a3daafe3b4186f6b6457e060405160405180910390a3806000806101000a81548173ffffffffffffffffffffffffffffffffffffffff021916908373ffffffffffffffffffffffffffffffffffffffff16021790555050565b6000813590506110bb81611516565b92915050565b6000815190506110d081611516565b92915050565b6000815190506110e58161152d565b92915050565b6000813590506110fa81611544565b92915050565b60008151905061110f81611544565b92915050565b60006020828403121561112757600080fd5b6000611135848285016110ac565b91505092915050565b60006020828403121561115057600080fd5b600061115e848285016110c1565b91505092915050565b60006020828403121561117957600080fd5b6000611187848285016110d6565b91505092915050565b6000602082840312156111a257600080fd5b60006111b0848285016110eb565b91505092915050565b6000602082840312156111cb57600080fd5b60006111d984828501611100565b91505092915050565b600080604083850312156111f557600080fd5b6000611203858286016110eb565b9250506020611214858286016110eb565b9150509250929050565b611227816114ce565b82525050565b600061123a6026836114bd565b91507f4f776e61626c653a206e6577206f776e657220697320746865207a65726f206160008301527f64647265737300000000000000000000000000000000000000000000000000006020830152604082019050919050565b60006112a06020836114bd565b91507f4f776e61626c653a2063616c6c6572206973206e6f7420746865206f776e65726000830152602082019050919050565b60006112e06009836114bd565b91507f6e6f74204f776e657200000000000000000000000000000000000000000000006000830152602082019050919050565b61131c8161150c565b82525050565b6000602082019050611337600083018461121e565b92915050565b6000606082019050611352600083018661121e565b61135f602083018561121e565b61136c6040830184611313565b949350505050565b6000606082019050611389600083018661121e565b6113966020830185611313565b6113a36040830184611313565b949350505050565b600060208201905081810360008301526113c48161122d565b9050919050565b600060208201905081810360008301526113e481611293565b9050919050565b60006020820190508181036000830152611404816112d3565b9050919050565b60006020820190506114206000830184611313565b92915050565b600060408201905061143b6000830185611313565b611448602083018461121e565b9392505050565b60006060820190506114646000830186611313565b611471602083018561121e565b61147e6040830184611313565b949350505050565b600060608201905061149b6000830186611313565b6114a86020830185611313565b6114b5604083018461121e565b949350505050565b600082825260208201905092915050565b60006114d9826114ec565b9050919050565b60008115159050919050565b600073ffffffffffffffffffffffffffffffffffffffff82169050919050565b6000819050919050565b61151f816114ce565b811461152a57600080fd5b50565b611536816114e0565b811461154157600080fd5b50565b61154d8161150c565b811461155857600080fd5b5056fea264697066735822122031dd7d403a2590b0da2849245f7fdfc9cb7a2070c287fd15c3e49fb005883f9d64736f6c63430008000033",
  "immutableReferences": {},
  "source": "// SPDX-License-Identifier: UNLICENSED\r\npragma solidity ^0.8.0;\r\n\r\nimport \"./Utils.sol\";\r\nimport \"./IHeroPrimeNFT.sol\";\r\nimport \"./IERC20.sol\";\r\nimport \"./IHeroPrimeEngine.sol\";\r\n\r\ncontract HeroPrimeManager is Context, Ownable {\r\n    using SafeMath for uint256;\r\n\r\n    uint public _rollHeroPrice = 200 * 10**18;\r\n    uint public _attackFee = 1 * 10**18;\r\n    uint public feeMarketRate = 1;\r\n    uint public divPercent = 10;\r\n\r\n\r\n    IHeroPrimeNFT internal heroPrimeNFT;\r\n    IERC20 internal heroPrimeToken;\r\n    IHeroPrimeEngine internal heroPrimeEngine;\r\n\r\n    address public feeAddress;\r\n\r\n    constructor(address token, address nft, address engine){\r\n        heroPrimeNFT = IHeroPrimeNFT(nft);\r\n        heroPrimeToken = IERC20(token);\r\n        heroPrimeEngine = IHeroPrimeEngine(engine);\r\n        feeAddress = address(this);\r\n    }\r\n\r\n    function setAttackFee(uint _fee) external onlyOwner{\r\n        _attackFee = _fee;\r\n    }\r\n\r\n    function setRollHeroPrice(uint _fee) external onlyOwner{\r\n        _rollHeroPrice = _fee;\r\n    }\r\n    function setFeeAddress(address _feeaddress) external onlyOwner{\r\n        feeAddress = _feeaddress;\r\n    }\r\n    function setFeeMarketRate(uint newRate) external onlyOwner{\r\n        feeMarketRate = newRate;\r\n    }\r\n    function setDivPercent(uint _divPercent) external onlyOwner{\r\n        divPercent = _divPercent;\r\n    }\r\n    // battle external function\r\n\r\n    function attackMonster(uint _tokenId, uint _monster) external {\r\n        require(heroPrimeToken.transferFrom(_msgSender(), address(this), _attackFee));\r\n        heroPrimeEngine.battle(_msgSender(), _tokenId, _monster);\r\n    }\r\n    \r\n    // rollHeroPrice\r\n    function buyHeroRolls(uint amount) external {\r\n        require(heroPrimeToken.transferFrom(_msgSender(), address(this), _rollHeroPrice));\r\n        heroPrimeNFT.incrementRolls(amount, _msgSender());\r\n    }\r\n\r\n    //rollForHero\r\n    function rollForHero(uint256 amount, uint elementindex) external {\r\n        heroPrimeNFT.rollHero(amount, _msgSender(), elementindex);\r\n    }\r\n\r\n    function generation() external view returns (uint256){\r\n        \r\n    }\r\n\r\n    // attackFee\r\n    // enterDungeonFee\r\n\r\n    // BuyHeroPrime\r\n\r\n    // marketplace functions\r\n    function placeItemForSale(uint256 _tokenId, uint256 _price) external {\r\n        require(heroPrimeNFT.ownerOf(_tokenId) == _msgSender(), \"not Owner\");\r\n        heroPrimeNFT.placeOrder(_tokenId, _price, _msgSender());\r\n    }\r\n    function removeItemFromSale(uint256 _tokenId) external {\r\n        heroPrimeNFT.cancelOrder(_tokenId, _msgSender());\r\n    }\r\n    function buyItemFromMarketplace(uint256 _tokenId) external {\r\n        heroPrimeNFT.fillOrder(_tokenId, _msgSender());\r\n    }\r\n}",
  "sourcePath": "C:\\workspace\\Personal\\truffle\\HeroPrime\\contracts\\HeroPrimeManager.sol",
  "compiler": {
    "name": "solc",
    "version": "0.8.0+commit.c7dfd78e.Emscripten.clang"
  },
  "schemaVersion": "3.4.3",
  "updatedAt": "2021-09-18T15:56:15.899Z",
  "networkType": "ethereum",
  "devdoc": {
    "kind": "dev",
    "methods": {
      "owner()": {
        "details": "Returns the address of the current owner."
      },
      "renounceOwnership()": {
        "details": "Leaves the contract without owner. It will not be possible to call `onlyOwner` functions anymore. Can only be called by the current owner. NOTE: Renouncing ownership will leave the contract without an owner, thereby removing any functionality that is only available to the owner."
      },
      "transferOwnership(address)": {
        "details": "Transfers ownership of the contract to a new account (`newOwner`). Can only be called by the current owner."
      }
    },
    "version": 1
  },
  "userdoc": {
    "kind": "user",
    "methods": {},
    "version": 1
  }
}