{
  "contractName": "HeroPrimeNFT",
  "abi": [
    {
      "inputs": [
        {
          "internalType": "string",
          "name": "_name",
          "type": "string"
        },
        {
          "internalType": "string",
          "name": "_symbol",
          "type": "string"
        },
        {
          "internalType": "address",
          "name": "_heroprimeERC20",
          "type": "address"
        }
      ],
      "stateMutability": "nonpayable",
      "type": "constructor"
    },
    {
      "anonymous": false,
      "inputs": [
        {
          "indexed": true,
          "internalType": "address",
          "name": "owner",
          "type": "address"
        },
        {
          "indexed": true,
          "internalType": "address",
          "name": "approved",
          "type": "address"
        },
        {
          "indexed": true,
          "internalType": "uint256",
          "name": "tokenId",
          "type": "uint256"
        }
      ],
      "name": "Approval",
      "type": "event"
    },
    {
      "anonymous": false,
      "inputs": [
        {
          "indexed": true,
          "internalType": "address",
          "name": "owner",
          "type": "address"
        },
        {
          "indexed": true,
          "internalType": "address",
          "name": "operator",
          "type": "address"
        },
        {
          "indexed": false,
          "internalType": "bool",
          "name": "approved",
          "type": "bool"
        }
      ],
      "name": "ApprovalForAll",
      "type": "event"
    },
    {
      "anonymous": false,
      "inputs": [
        {
          "indexed": true,
          "internalType": "uint256",
          "name": "tokenId",
          "type": "uint256"
        },
        {
          "indexed": false,
          "internalType": "address",
          "name": "seller",
          "type": "address"
        }
      ],
      "name": "CancelOrder",
      "type": "event"
    },
    {
      "anonymous": false,
      "inputs": [
        {
          "indexed": true,
          "internalType": "uint256",
          "name": "tokenId",
          "type": "uint256"
        },
        {
          "indexed": false,
          "internalType": "uint256",
          "name": "exp",
          "type": "uint256"
        }
      ],
      "name": "Exp",
      "type": "event"
    },
    {
      "anonymous": false,
      "inputs": [
        {
          "indexed": true,
          "internalType": "uint256",
          "name": "tokenId",
          "type": "uint256"
        },
        {
          "indexed": false,
          "internalType": "address",
          "name": "seller",
          "type": "address"
        }
      ],
      "name": "FillOrder",
      "type": "event"
    },
    {
      "anonymous": false,
      "inputs": [
        {
          "indexed": true,
          "internalType": "address",
          "name": "previousOwner",
          "type": "address"
        },
        {
          "indexed": true,
          "internalType": "address",
          "name": "newOwner",
          "type": "address"
        }
      ],
      "name": "OwnershipTransferred",
      "type": "event"
    },
    {
      "anonymous": false,
      "inputs": [
        {
          "indexed": true,
          "internalType": "uint256",
          "name": "tokenId",
          "type": "uint256"
        },
        {
          "indexed": false,
          "internalType": "address",
          "name": "seller",
          "type": "address"
        },
        {
          "indexed": false,
          "internalType": "uint256",
          "name": "price",
          "type": "uint256"
        }
      ],
      "name": "PlaceOrder",
      "type": "event"
    },
    {
      "anonymous": false,
      "inputs": [
        {
          "indexed": true,
          "internalType": "address",
          "name": "from",
          "type": "address"
        },
        {
          "indexed": true,
          "internalType": "address",
          "name": "to",
          "type": "address"
        },
        {
          "indexed": true,
          "internalType": "uint256",
          "name": "tokenId",
          "type": "uint256"
        }
      ],
      "name": "Transfer",
      "type": "event"
    },
    {
      "anonymous": false,
      "inputs": [
        {
          "indexed": true,
          "internalType": "uint256",
          "name": "tokenId",
          "type": "uint256"
        },
        {
          "indexed": false,
          "internalType": "address",
          "name": "buyer",
          "type": "address"
        }
      ],
      "name": "rolledHero",
      "type": "event"
    },
    {
      "inputs": [
        {
          "internalType": "address",
          "name": "to",
          "type": "address"
        },
        {
          "internalType": "uint256",
          "name": "tokenId",
          "type": "uint256"
        }
      ],
      "name": "approve",
      "outputs": [],
      "stateMutability": "nonpayable",
      "type": "function"
    },
    {
      "inputs": [
        {
          "internalType": "address",
          "name": "owner",
          "type": "address"
        }
      ],
      "name": "balanceOf",
      "outputs": [
        {
          "internalType": "uint256",
          "name": "",
          "type": "uint256"
        }
      ],
      "stateMutability": "view",
      "type": "function",
      "constant": true
    },
    {
      "inputs": [],
      "name": "baseURI",
      "outputs": [
        {
          "internalType": "string",
          "name": "",
          "type": "string"
        }
      ],
      "stateMutability": "view",
      "type": "function",
      "constant": true
    },
    {
      "inputs": [
        {
          "internalType": "uint256",
          "name": "tokenId",
          "type": "uint256"
        }
      ],
      "name": "getApproved",
      "outputs": [
        {
          "internalType": "address",
          "name": "",
          "type": "address"
        }
      ],
      "stateMutability": "view",
      "type": "function",
      "constant": true
    },
    {
      "inputs": [
        {
          "internalType": "address",
          "name": "owner",
          "type": "address"
        }
      ],
      "name": "getOwnerTokens",
      "outputs": [
        {
          "internalType": "uint256[]",
          "name": "",
          "type": "uint256[]"
        }
      ],
      "stateMutability": "nonpayable",
      "type": "function"
    },
    {
      "inputs": [],
      "name": "heroPrimeERC20",
      "outputs": [
        {
          "internalType": "contract IERC20",
          "name": "",
          "type": "address"
        }
      ],
      "stateMutability": "view",
      "type": "function",
      "constant": true
    },
    {
      "inputs": [
        {
          "internalType": "address",
          "name": "owner",
          "type": "address"
        },
        {
          "internalType": "address",
          "name": "operator",
          "type": "address"
        }
      ],
      "name": "isApprovedForAll",
      "outputs": [
        {
          "internalType": "bool",
          "name": "",
          "type": "bool"
        }
      ],
      "stateMutability": "view",
      "type": "function",
      "constant": true
    },
    {
      "inputs": [],
      "name": "latestTokenId",
      "outputs": [
        {
          "internalType": "uint256",
          "name": "",
          "type": "uint256"
        }
      ],
      "stateMutability": "view",
      "type": "function",
      "constant": true
    },
    {
      "inputs": [],
      "name": "manager",
      "outputs": [
        {
          "internalType": "contract IHeroPrimeManager",
          "name": "",
          "type": "address"
        }
      ],
      "stateMutability": "view",
      "type": "function",
      "constant": true
    },
    {
      "inputs": [],
      "name": "name",
      "outputs": [
        {
          "internalType": "string",
          "name": "",
          "type": "string"
        }
      ],
      "stateMutability": "view",
      "type": "function",
      "constant": true
    },
    {
      "inputs": [],
      "name": "owner",
      "outputs": [
        {
          "internalType": "address",
          "name": "",
          "type": "address"
        }
      ],
      "stateMutability": "view",
      "type": "function",
      "constant": true
    },
    {
      "inputs": [
        {
          "internalType": "uint256",
          "name": "tokenId",
          "type": "uint256"
        }
      ],
      "name": "ownerOf",
      "outputs": [
        {
          "internalType": "address",
          "name": "",
          "type": "address"
        }
      ],
      "stateMutability": "view",
      "type": "function",
      "constant": true
    },
    {
      "inputs": [],
      "name": "renounceOwnership",
      "outputs": [],
      "stateMutability": "nonpayable",
      "type": "function"
    },
    {
      "inputs": [
        {
          "internalType": "address",
          "name": "from",
          "type": "address"
        },
        {
          "internalType": "address",
          "name": "to",
          "type": "address"
        },
        {
          "internalType": "uint256",
          "name": "tokenId",
          "type": "uint256"
        }
      ],
      "name": "safeTransferFrom",
      "outputs": [],
      "stateMutability": "nonpayable",
      "type": "function"
    },
    {
      "inputs": [
        {
          "internalType": "address",
          "name": "from",
          "type": "address"
        },
        {
          "internalType": "address",
          "name": "to",
          "type": "address"
        },
        {
          "internalType": "uint256",
          "name": "tokenId",
          "type": "uint256"
        },
        {
          "internalType": "bytes",
          "name": "_data",
          "type": "bytes"
        }
      ],
      "name": "safeTransferFrom",
      "outputs": [],
      "stateMutability": "nonpayable",
      "type": "function"
    },
    {
      "inputs": [
        {
          "internalType": "address",
          "name": "operator",
          "type": "address"
        },
        {
          "internalType": "bool",
          "name": "approved",
          "type": "bool"
        }
      ],
      "name": "setApprovalForAll",
      "outputs": [],
      "stateMutability": "nonpayable",
      "type": "function"
    },
    {
      "inputs": [],
      "name": "symbol",
      "outputs": [
        {
          "internalType": "string",
          "name": "",
          "type": "string"
        }
      ],
      "stateMutability": "view",
      "type": "function",
      "constant": true
    },
    {
      "inputs": [
        {
          "internalType": "uint256",
          "name": "index",
          "type": "uint256"
        }
      ],
      "name": "tokenByIndex",
      "outputs": [
        {
          "internalType": "uint256",
          "name": "",
          "type": "uint256"
        }
      ],
      "stateMutability": "view",
      "type": "function",
      "constant": true
    },
    {
      "inputs": [
        {
          "internalType": "uint256",
          "name": "tokenId",
          "type": "uint256"
        }
      ],
      "name": "tokenURI",
      "outputs": [
        {
          "internalType": "string",
          "name": "",
          "type": "string"
        }
      ],
      "stateMutability": "view",
      "type": "function",
      "constant": true
    },
    {
      "inputs": [],
      "name": "totalSupply",
      "outputs": [
        {
          "internalType": "uint256",
          "name": "",
          "type": "uint256"
        }
      ],
      "stateMutability": "view",
      "type": "function",
      "constant": true
    },
    {
      "inputs": [
        {
          "internalType": "address",
          "name": "from",
          "type": "address"
        },
        {
          "internalType": "address",
          "name": "to",
          "type": "address"
        },
        {
          "internalType": "uint256",
          "name": "tokenId",
          "type": "uint256"
        }
      ],
      "name": "transferFrom",
      "outputs": [],
      "stateMutability": "nonpayable",
      "type": "function"
    },
    {
      "inputs": [
        {
          "internalType": "address",
          "name": "newOwner",
          "type": "address"
        }
      ],
      "name": "transferOwnership",
      "outputs": [],
      "stateMutability": "nonpayable",
      "type": "function"
    },
    {
      "inputs": [
        {
          "internalType": "address",
          "name": "_manager",
          "type": "address"
        }
      ],
      "name": "setManager",
      "outputs": [],
      "stateMutability": "nonpayable",
      "type": "function"
    },
    {
      "inputs": [
        {
          "internalType": "uint256",
          "name": "_tokenId",
          "type": "uint256"
        }
      ],
      "name": "getHeroPrime",
      "outputs": [
        {
          "components": [
            {
              "internalType": "uint256",
              "name": "id",
              "type": "uint256"
            },
            {
              "internalType": "uint256",
              "name": "generation",
              "type": "uint256"
            },
            {
              "internalType": "enum HeroPrimeNFT.Element",
              "name": "element",
              "type": "uint8"
            },
            {
              "internalType": "uint256",
              "name": "exp",
              "type": "uint256"
            },
            {
              "internalType": "uint256",
              "name": "dna",
              "type": "uint256"
            },
            {
              "internalType": "uint256",
              "name": "farmTime",
              "type": "uint256"
            },
            {
              "internalType": "uint256",
              "name": "bornTime",
              "type": "uint256"
            }
          ],
          "internalType": "struct HeroPrimeNFT.HeroPrime",
          "name": "",
          "type": "tuple"
        }
      ],
      "stateMutability": "view",
      "type": "function",
      "constant": true
    },
    {
      "inputs": [
        {
          "internalType": "uint256[]",
          "name": "_tokenIds",
          "type": "uint256[]"
        }
      ],
      "name": "getHeroPrimes",
      "outputs": [
        {
          "components": [
            {
              "internalType": "uint256",
              "name": "id",
              "type": "uint256"
            },
            {
              "internalType": "uint256",
              "name": "generation",
              "type": "uint256"
            },
            {
              "internalType": "enum HeroPrimeNFT.Element",
              "name": "element",
              "type": "uint8"
            },
            {
              "internalType": "uint256",
              "name": "exp",
              "type": "uint256"
            },
            {
              "internalType": "uint256",
              "name": "dna",
              "type": "uint256"
            },
            {
              "internalType": "uint256",
              "name": "farmTime",
              "type": "uint256"
            },
            {
              "internalType": "uint256",
              "name": "bornTime",
              "type": "uint256"
            }
          ],
          "internalType": "struct HeroPrimeNFT.HeroPrime[]",
          "name": "",
          "type": "tuple[]"
        }
      ],
      "stateMutability": "view",
      "type": "function",
      "constant": true
    },
    {
      "inputs": [
        {
          "internalType": "uint256",
          "name": "_tokenId",
          "type": "uint256"
        }
      ],
      "name": "heroPrimeLevel",
      "outputs": [
        {
          "internalType": "uint256",
          "name": "",
          "type": "uint256"
        }
      ],
      "stateMutability": "view",
      "type": "function",
      "constant": true
    },
    {
      "inputs": [
        {
          "internalType": "uint256",
          "name": "_tokenId",
          "type": "uint256"
        }
      ],
      "name": "getRare",
      "outputs": [
        {
          "internalType": "uint256",
          "name": "",
          "type": "uint256"
        }
      ],
      "stateMutability": "view",
      "type": "function",
      "constant": true
    },
    {
      "inputs": [
        {
          "internalType": "uint256",
          "name": "amount",
          "type": "uint256"
        },
        {
          "internalType": "address",
          "name": "receiver",
          "type": "address"
        },
        {
          "internalType": "uint256",
          "name": "elementindex",
          "type": "uint256"
        }
      ],
      "name": "rollHero",
      "outputs": [],
      "stateMutability": "nonpayable",
      "type": "function"
    },
    {
      "inputs": [
        {
          "internalType": "uint256",
          "name": "amount",
          "type": "uint256"
        },
        {
          "internalType": "address",
          "name": "receiver",
          "type": "address"
        }
      ],
      "name": "incrementRolls",
      "outputs": [],
      "stateMutability": "nonpayable",
      "type": "function"
    },
    {
      "inputs": [
        {
          "internalType": "address",
          "name": "owner",
          "type": "address"
        }
      ],
      "name": "getOwnerHeroPrimeRolls",
      "outputs": [
        {
          "internalType": "uint256",
          "name": "",
          "type": "uint256"
        }
      ],
      "stateMutability": "view",
      "type": "function",
      "constant": true
    },
    {
      "inputs": [
        {
          "internalType": "uint256",
          "name": "_tokenId",
          "type": "uint256"
        },
        {
          "internalType": "uint256",
          "name": "_exp",
          "type": "uint256"
        }
      ],
      "name": "exp",
      "outputs": [],
      "stateMutability": "nonpayable",
      "type": "function"
    },
    {
      "inputs": [
        {
          "internalType": "uint256",
          "name": "_tokenId",
          "type": "uint256"
        },
        {
          "internalType": "uint256",
          "name": "_price",
          "type": "uint256"
        },
        {
          "internalType": "address",
          "name": "sender",
          "type": "address"
        }
      ],
      "name": "placeOrder",
      "outputs": [],
      "stateMutability": "nonpayable",
      "type": "function"
    },
    {
      "inputs": [
        {
          "internalType": "uint256",
          "name": "_tokenId",
          "type": "uint256"
        },
        {
          "internalType": "address",
          "name": "sender",
          "type": "address"
        }
      ],
      "name": "cancelOrder",
      "outputs": [],
      "stateMutability": "nonpayable",
      "type": "function"
    },
    {
      "inputs": [
        {
          "internalType": "uint256",
          "name": "_tokenId",
          "type": "uint256"
        },
        {
          "internalType": "address",
          "name": "sender",
          "type": "address"
        }
      ],
      "name": "fillOrder",
      "outputs": [],
      "stateMutability": "nonpayable",
      "type": "function"
    },
    {
      "inputs": [],
      "name": "marketsSize",
      "outputs": [
        {
          "internalType": "uint256",
          "name": "",
          "type": "uint256"
        }
      ],
      "stateMutability": "view",
      "type": "function",
      "constant": true
    },
    {
      "inputs": [],
      "name": "market",
      "outputs": [
        {
          "components": [
            {
              "internalType": "uint256",
              "name": "id",
              "type": "uint256"
            },
            {
              "internalType": "uint256",
              "name": "generation",
              "type": "uint256"
            },
            {
              "internalType": "enum HeroPrimeNFT.Element",
              "name": "element",
              "type": "uint8"
            },
            {
              "internalType": "uint256",
              "name": "exp",
              "type": "uint256"
            },
            {
              "internalType": "uint256",
              "name": "dna",
              "type": "uint256"
            },
            {
              "internalType": "uint256",
              "name": "farmTime",
              "type": "uint256"
            },
            {
              "internalType": "uint256",
              "name": "bornTime",
              "type": "uint256"
            }
          ],
          "internalType": "struct HeroPrimeNFT.HeroPrime[]",
          "name": "resultHeroes",
          "type": "tuple[]"
        },
        {
          "components": [
            {
              "internalType": "uint256",
              "name": "tokenId",
              "type": "uint256"
            },
            {
              "internalType": "address",
              "name": "owner",
              "type": "address"
            },
            {
              "internalType": "uint256",
              "name": "price",
              "type": "uint256"
            }
          ],
          "internalType": "struct HeroPrimeNFT.ItemSale[]",
          "name": "resultSales",
          "type": "tuple[]"
        }
      ],
      "stateMutability": "view",
      "type": "function",
      "constant": true
    },
    {
      "inputs": [
        {
          "internalType": "address",
          "name": "_seller",
          "type": "address"
        }
      ],
      "name": "orders",
      "outputs": [
        {
          "internalType": "uint256",
          "name": "",
          "type": "uint256"
        }
      ],
      "stateMutability": "view",
      "type": "function",
      "constant": true
    },
    {
      "inputs": [
        {
          "internalType": "uint256",
          "name": "index",
          "type": "uint256"
        }
      ],
      "name": "tokenSaleByIndex",
      "outputs": [
        {
          "internalType": "uint256",
          "name": "",
          "type": "uint256"
        }
      ],
      "stateMutability": "view",
      "type": "function",
      "constant": true
    },
    {
      "inputs": [
        {
          "internalType": "address",
          "name": "_seller",
          "type": "address"
        },
        {
          "internalType": "uint256",
          "name": "index",
          "type": "uint256"
        }
      ],
      "name": "tokenSaleOfOwnerByIndex",
      "outputs": [
        {
          "internalType": "uint256",
          "name": "",
          "type": "uint256"
        }
      ],
      "stateMutability": "view",
      "type": "function",
      "constant": true
    },
    {
      "inputs": [
        {
          "internalType": "uint256",
          "name": "_tokenId",
          "type": "uint256"
        }
      ],
      "name": "getSale",
      "outputs": [
        {
          "components": [
            {
              "internalType": "uint256",
              "name": "tokenId",
              "type": "uint256"
            },
            {
              "internalType": "address",
              "name": "owner",
              "type": "address"
            },
            {
              "internalType": "uint256",
              "name": "price",
              "type": "uint256"
            }
          ],
          "internalType": "struct HeroPrimeNFT.ItemSale",
          "name": "",
          "type": "tuple"
        }
      ],
      "stateMutability": "view",
      "type": "function",
      "constant": true
    }
  ],
  "bytecode": "0x60806040523480156200001157600080fd5b506040516200621e3803806200621e8339818101604052810190620000379190620002a9565b828281600690805190602001906200005192919062000170565b5080600790805190602001906200006a92919062000170565b50505060006200007f6200016860201b60201c565b905080600a60006101000a81548173ffffffffffffffffffffffffffffffffffffffff021916908373ffffffffffffffffffffffffffffffffffffffff1602179055508073ffffffffffffffffffffffffffffffffffffffff16600073ffffffffffffffffffffffffffffffffffffffff167f8be0079c531659141344cd1fd0a4f28419497f9722a3daafe3b4186f6b6457e060405160405180910390a35080601260006101000a81548173ffffffffffffffffffffffffffffffffffffffff021916908373ffffffffffffffffffffffffffffffffffffffff160217905550505050620004b0565b600033905090565b8280546200017e9062000402565b90600052602060002090601f016020900481019282620001a25760008555620001ee565b82601f10620001bd57805160ff1916838001178555620001ee565b82800160010185558215620001ee579182015b82811115620001ed578251825591602001919060010190620001d0565b5b509050620001fd919062000201565b5090565b5b808211156200021c57600081600090555060010162000202565b5090565b600062000237620002318462000365565b62000331565b9050828152602081018484840111156200025057600080fd5b6200025d848285620003cc565b509392505050565b600081519050620002768162000496565b92915050565b600082601f8301126200028e57600080fd5b8151620002a084826020860162000220565b91505092915050565b600080600060608486031215620002bf57600080fd5b600084015167ffffffffffffffff811115620002da57600080fd5b620002e8868287016200027c565b935050602084015167ffffffffffffffff8111156200030657600080fd5b62000314868287016200027c565b9250506040620003278682870162000265565b9150509250925092565b6000604051905081810181811067ffffffffffffffff821117156200035b576200035a62000467565b5b8060405250919050565b600067ffffffffffffffff82111562000383576200038262000467565b5b601f19601f8301169050602081019050919050565b6000620003a582620003ac565b9050919050565b600073ffffffffffffffffffffffffffffffffffffffff82169050919050565b60005b83811015620003ec578082015181840152602081019050620003cf565b83811115620003fc576000848401525b50505050565b600060028204905060018216806200041b57607f821691505b6020821081141562000432576200043162000438565b5b50919050565b7f4e487b7100000000000000000000000000000000000000000000000000000000600052602260045260246000fd5b7f4e487b7100000000000000000000000000000000000000000000000000000000600052604160045260246000fd5b620004a18162000398565b8114620004ad57600080fd5b50565b615d5e80620004c06000396000f3fe608060405234801561001057600080fd5b50600436106102485760003560e01c806380f556051161013b578063c87b56dd116100b8578063e985e9c51161007c578063e985e9c51461073a578063f2fde38b1461076a578063f40e847114610786578063f5f565f8146107b6578063fd4f9179146107d257610248565b8063c87b56dd1461065e578063d0ebdbe71461068e578063d63d4af0146106aa578063d8f6d596146106da578063e7199b471461070a57610248565b80639d443201116100ff5780639d443201146105bc578063a22cb465146105da578063a3f7ac10146105f6578063a90b9c7214610612578063b88d4fde1461064257610248565b806380f5560514610513578063841a2502146105325780638c0e8349146105625780638da5cb5b1461058057806395d89b411461059e57610248565b80634aaecf54116101c95780636c0360eb1161018d5780636c0360eb1461048357806370a08231146104a1578063715018a6146104d15780637323a7d3146104db57806377320050146104f757610248565b80634aaecf54146103a75780634ab6c3f6146103c35780634f6ccce7146103f3578063598a4fc8146104235780636352211e1461045357610248565b806323b872dd1161021057806323b872dd1461030557806326074f971461032157806335e4365f1461035157806342842e0e1461036d578063481c6a751461038957610248565b806306fdde031461024d578063078e62d41461026b578063081812fc1461029b578063095ea7b3146102cb57806318160ddd146102e7575b600080fd5b6102556107f0565b60405161026291906152d8565b60405180910390f35b610285600480360381019061028091906143f2565b610882565b60405161029291906155f0565b60405180910390f35b6102b560048036038101906102b09190614498565b6108dd565b6040516102c29190615191565b60405180910390f35b6102e560048036038101906102e091906143f2565b610962565b005b6102ef610a7a565b6040516102fc91906155f0565b60405180910390f35b61031f600480360381019061031a91906142ec565b610a8b565b005b61033b60048036038101906103369190614498565b610aeb565b60405161034891906155f0565b60405180910390f35b61036b600480360381019061036691906145b1565b610b09565b005b610387600480360381019061038291906142ec565b610ca5565b005b610391610cc5565b60405161039e91906152bd565b60405180910390f35b6103c160048036038101906103bc91906144ea565b610ceb565b005b6103dd60048036038101906103d8919061425e565b6111df565b6040516103ea91906155f0565b60405180910390f35b61040d60048036038101906104089190614498565b611228565b60405161041a91906155f0565b60405180910390f35b61043d60048036038101906104389190614498565b61124b565b60405161044a91906155f0565b60405180910390f35b61046d60048036038101906104689190614498565b611268565b60405161047a9190615191565b60405180910390f35b61048b61129f565b60405161049891906152d8565b60405180910390f35b6104bb60048036038101906104b6919061425e565b611331565b6040516104c891906155f0565b60405180910390f35b6104d96113ef565b005b6104f560048036038101906104f091906144ea565b611547565b005b610511600480360381019061050c9190614526565b611724565b005b61051b61186e565b60405161052992919061522e565b60405180910390f35b61054c6004803603810190610547919061442e565b611bd4565b604051610559919061520c565b60405180910390f35b61056a611de3565b60405161057791906155f0565b60405180910390f35b610588611de9565b6040516105959190615191565b60405180910390f35b6105a6611e13565b6040516105b391906152d8565b60405180910390f35b6105c4611ea5565b6040516105d191906155f0565b60405180910390f35b6105f460048036038101906105ef91906143b6565b611eb6565b005b610610600480360381019061060b91906144ea565b612037565b005b61062c60048036038101906106279190614498565b6120be565b60405161063991906155f0565b60405180910390f35b61065c6004803603810190610657919061433b565b612173565b005b61067860048036038101906106739190614498565b6121d5565b60405161068591906152d8565b60405180910390f35b6106a860048036038101906106a3919061425e565b612340565b005b6106c460048036038101906106bf919061425e565b61241b565b6040516106d19190615265565b60405180910390f35b6106f460048036038101906106ef9190614498565b612598565b60405161070191906155d5565b60405180910390f35b610724600480360381019061071f9190614498565b612684565b60405161073191906155ba565b60405180910390f35b610754600480360381019061074f91906142b0565b612774565b6040516107619190615287565b60405180910390f35b610784600480360381019061077f919061425e565b612808565b005b6107a0600480360381019061079b919061425e565b6128ab565b6040516107ad91906155f0565b60405180910390f35b6107d060048036038101906107cb9190614575565b6128fb565b005b6107da6129b1565b6040516107e791906152a2565b60405180910390f35b6060600680546107ff90615ae7565b80601f016020809104026020016040519081016040528092919081815260200182805461082b90615ae7565b80156108785780601f1061084d57610100808354040283529160200191610878565b820191906000526020600020905b81548152906001019060200180831161085b57829003601f168201915b5050505050905090565b60006108d582601060008673ffffffffffffffffffffffffffffffffffffffff1673ffffffffffffffffffffffffffffffffffffffff1681526020019081526020016000206129d790919063ffffffff16565b905092915050565b60006108e8826129f1565b610927576040517f08c379a000000000000000000000000000000000000000000000000000000000815260040161091e9061547a565b60405180910390fd5b6004600083815260200190815260200160002060009054906101000a900473ffffffffffffffffffffffffffffffffffffffff169050919050565b600061096d82611268565b90508073ffffffffffffffffffffffffffffffffffffffff168373ffffffffffffffffffffffffffffffffffffffff1614156109de576040517f08c379a00000000000000000000000000000000000000000000000000000000081526004016109d5906154fa565b60405180910390fd5b8073ffffffffffffffffffffffffffffffffffffffff166109fd612a0e565b73ffffffffffffffffffffffffffffffffffffffff161480610a2c5750610a2b81610a26612a0e565b612774565b5b610a6b576040517f08c379a0000000000000000000000000000000000000000000000000000000008152600401610a62906153fa565b60405180910390fd5b610a758383612a16565b505050565b6000610a866001612acf565b905090565b610a9c610a96612a0e565b82612ae4565b610adb576040517f08c379a0000000000000000000000000000000000000000000000000000000008152600401610ad29061553a565b60405180910390fd5b610ae6838383612bc2565b505050565b6000610b02610af983612684565b60600151612d61565b9050919050565b601360009054906101000a900473ffffffffffffffffffffffffffffffffffffffff1673ffffffffffffffffffffffffffffffffffffffff16610b4a612a0e565b73ffffffffffffffffffffffffffffffffffffffff1614610ba0576040517f08c379a0000000000000000000000000000000000000000000000000000000008152600401610b979061557a565b60405180910390fd5b8073ffffffffffffffffffffffffffffffffffffffff16610bc084611268565b73ffffffffffffffffffffffffffffffffffffffff1614610c16576040517f08c379a0000000000000000000000000000000000000000000000000000000008152600401610c0d9061551a565b60405180910390fd5b60008211610c59576040517f08c379a0000000000000000000000000000000000000000000000000000000008152600401610c50906152fa565b60405180910390fd5b610c668360018484612dcb565b827f88ba4afa23f9d5bf6fc21903b32126bc507e001fd6fd00affc837adeb5d4a6078284604051610c989291906151e3565b60405180910390a2505050565b610cc083838360405180602001604052806000815250612173565b505050565b601360009054906101000a900473ffffffffffffffffffffffffffffffffffffffff1681565b601360009054906101000a900473ffffffffffffffffffffffffffffffffffffffff1673ffffffffffffffffffffffffffffffffffffffff16610d2c612a0e565b73ffffffffffffffffffffffffffffffffffffffff1614610d82576040517f08c379a0000000000000000000000000000000000000000000000000000000008152600401610d799061557a565b60405180910390fd5b610d9682600e61318290919063ffffffff16565b610dd5576040517f08c379a0000000000000000000000000000000000000000000000000000000008152600401610dcc9061555a565b60405180910390fd5b6000600d600084815260200190815260200160002090506000610f55601360009054906101000a900473ffffffffffffffffffffffffffffffffffffffff1673ffffffffffffffffffffffffffffffffffffffff1663470ef6106040518163ffffffff1660e01b815260040160206040518083038186803b158015610e5957600080fd5b505afa158015610e6d573d6000803e3d6000fd5b505050506040513d601f19601f82011682018060405250810190610e9191906144c1565b610f47601360009054906101000a900473ffffffffffffffffffffffffffffffffffffffff1673ffffffffffffffffffffffffffffffffffffffff166343aa2b6c6040518163ffffffff1660e01b815260040160206040518083038186803b158015610efc57600080fd5b505afa158015610f10573d6000803e3d6000fd5b505050506040513d601f19601f82011682018060405250810190610f3491906144c1565b856002015461319c90919063ffffffff16565b61321790919063ffffffff16565b9050601260009054906101000a900473ffffffffffffffffffffffffffffffffffffffff1673ffffffffffffffffffffffffffffffffffffffff166323b872dd84601360009054906101000a900473ffffffffffffffffffffffffffffffffffffffff1673ffffffffffffffffffffffffffffffffffffffff1663412753586040518163ffffffff1660e01b815260040160206040518083038186803b158015610ffe57600080fd5b505afa158015611012573d6000803e3d6000fd5b505050506040513d601f19601f820116820180604052508101906110369190614287565b846040518463ffffffff1660e01b8152600401611055939291906151ac565b602060405180830381600087803b15801561106f57600080fd5b505af1158015611083573d6000803e3d6000fd5b505050506040513d601f19601f820116820180604052508101906110a7919061446f565b50601260009054906101000a900473ffffffffffffffffffffffffffffffffffffffff1673ffffffffffffffffffffffffffffffffffffffff166323b872dd848460010160009054906101000a900473ffffffffffffffffffffffffffffffffffffffff1661112385876002015461326190919063ffffffff16565b6040518463ffffffff1660e01b8152600401611141939291906151ac565b602060405180830381600087803b15801561115b57600080fd5b505af115801561116f573d6000803e3d6000fd5b505050506040513d601f19601f82011682018060405250810190611193919061446f565b506111a18460008086612dcb565b837fe172f6058a4b7a5493aea0902d867636f05695ffeb71801046c3f4e5002caa97846040516111d19190615191565b60405180910390a250505050565b6000601160008373ffffffffffffffffffffffffffffffffffffffff1673ffffffffffffffffffffffffffffffffffffffff168152602001908152602001600020549050919050565b60008061123f8360016132ab90919063ffffffff16565b50905080915050919050565b600061126182600e6129d790919063ffffffff16565b9050919050565b600061129882604051806060016040528060298152602001615d006029913960016132d79092919063ffffffff16565b9050919050565b6060600980546112ae90615ae7565b80601f01602080910402602001604051908101604052809291908181526020018280546112da90615ae7565b80156113275780601f106112fc57610100808354040283529160200191611327565b820191906000526020600020905b81548152906001019060200180831161130a57829003601f168201915b5050505050905090565b60008073ffffffffffffffffffffffffffffffffffffffff168273ffffffffffffffffffffffffffffffffffffffff1614156113a2576040517f08c379a00000000000000000000000000000000000000000000000000000000081526004016113999061541a565b60405180910390fd5b6113e86000808473ffffffffffffffffffffffffffffffffffffffff1673ffffffffffffffffffffffffffffffffffffffff1681526020019081526020016000206132f6565b9050919050565b6113f7612a0e565b73ffffffffffffffffffffffffffffffffffffffff16600a60009054906101000a900473ffffffffffffffffffffffffffffffffffffffff1673ffffffffffffffffffffffffffffffffffffffff1614611486576040517f08c379a000000000000000000000000000000000000000000000000000000000815260040161147d9061549a565b60405180910390fd5b600073ffffffffffffffffffffffffffffffffffffffff16600a60009054906101000a900473ffffffffffffffffffffffffffffffffffffffff1673ffffffffffffffffffffffffffffffffffffffff167f8be0079c531659141344cd1fd0a4f28419497f9722a3daafe3b4186f6b6457e060405160405180910390a36000600a60006101000a81548173ffffffffffffffffffffffffffffffffffffffff021916908373ffffffffffffffffffffffffffffffffffffffff160217905550565b601360009054906101000a900473ffffffffffffffffffffffffffffffffffffffff1673ffffffffffffffffffffffffffffffffffffffff16611588612a0e565b73ffffffffffffffffffffffffffffffffffffffff16146115de576040517f08c379a00000000000000000000000000000000000000000000000000000000081526004016115d59061557a565b60405180910390fd5b6115f282600e61318290919063ffffffff16565b611631576040517f08c379a00000000000000000000000000000000000000000000000000000000081526004016116289061555a565b60405180910390fd5b6000600d600084815260200190815260200160002090508173ffffffffffffffffffffffffffffffffffffffff168160010160009054906101000a900473ffffffffffffffffffffffffffffffffffffffff1673ffffffffffffffffffffffffffffffffffffffff16146116da576040517f08c379a00000000000000000000000000000000000000000000000000000000081526004016116d19061551a565b60405180910390fd5b6116e78360008085612dcb565b827f22369ba22944aadf9e9d6f4c51462417a50ea7876b9c62c7c46b5522e9c672cc836040516117179190615191565b60405180910390a2505050565b82601160008473ffffffffffffffffffffffffffffffffffffffff1673ffffffffffffffffffffffffffffffffffffffff1681526020019081526020016000205410156117a6576040517f08c379a000000000000000000000000000000000000000000000000000000000815260040161179d906154da565b60405180910390fd5b60008160048111156117e1577f4e487b7100000000000000000000000000000000000000000000000000000000600052602160045260246000fd5b905060008411611826576040517f08c379a000000000000000000000000000000000000000000000000000000000815260040161181d906153ba565b60405180910390fd5b600184141561183e57611839838261330b565b611868565b60005b8481101561186657611853848361330b565b808061185e90615b19565b915050611841565b505b50505050565b60608061187b600e6132f6565b67ffffffffffffffff8111156118ba577f4e487b7100000000000000000000000000000000000000000000000000000000600052604160045260246000fd5b6040519080825280602002602001820160405280156118f357816020015b6118e0614036565b8152602001906001900390816118d85790505b509150611900600e6132f6565b67ffffffffffffffff81111561193f577f4e487b7100000000000000000000000000000000000000000000000000000000600052604160045260246000fd5b60405190808252806020026020018201604052801561197857816020015b6119656140ab565b81526020019060019003908161195d5790505b50905060005b611988600e6132f6565b811015611bcf57600c60006119a783600e6129d790919063ffffffff16565b81526020019081526020016000206040518060e001604052908160008201548152602001600182015481526020016002820160009054906101000a900460ff166004811115611a1f577f4e487b7100000000000000000000000000000000000000000000000000000000600052602160045260246000fd5b6004811115611a57577f4e487b7100000000000000000000000000000000000000000000000000000000600052602160045260246000fd5b8152602001600382015481526020016004820154815260200160058201548152602001600682015481525050838281518110611abc577f4e487b7100000000000000000000000000000000000000000000000000000000600052603260045260246000fd5b6020026020010181905250600d6000600c6000611ae385600e6129d790919063ffffffff16565b8152602001908152602001600020600001548152602001908152602001600020604051806060016040529081600082015481526020016001820160009054906101000a900473ffffffffffffffffffffffffffffffffffffffff1673ffffffffffffffffffffffffffffffffffffffff1673ffffffffffffffffffffffffffffffffffffffff168152602001600282015481525050828281518110611bb1577f4e487b7100000000000000000000000000000000000000000000000000000000600052603260045260246000fd5b60200260200101819052508080611bc790615b19565b91505061197e565b509091565b60606000825167ffffffffffffffff811115611c19577f4e487b7100000000000000000000000000000000000000000000000000000000600052604160045260246000fd5b604051908082528060200260200182016040528015611c5257816020015b611c3f614036565b815260200190600190039081611c375790505b50905060005b8351811015611dd957600c6000858381518110611c9e577f4e487b7100000000000000000000000000000000000000000000000000000000600052603260045260246000fd5b602002602001015181526020019081526020016000206040518060e001604052908160008201548152602001600182015481526020016002820160009054906101000a900460ff166004811115611d1e577f4e487b7100000000000000000000000000000000000000000000000000000000600052602160045260246000fd5b6004811115611d56577f4e487b7100000000000000000000000000000000000000000000000000000000600052602160045260246000fd5b8152602001600382015481526020016004820154815260200160058201548152602001600682015481525050828281518110611dbb577f4e487b7100000000000000000000000000000000000000000000000000000000600052603260045260246000fd5b60200260200101819052508080611dd190615b19565b915050611c58565b5080915050919050565b600b5481565b6000600a60009054906101000a900473ffffffffffffffffffffffffffffffffffffffff16905090565b606060078054611e2290615ae7565b80601f0160208091040260200160405190810160405280929190818152602001828054611e4e90615ae7565b8015611e9b5780601f10611e7057610100808354040283529160200191611e9b565b820191906000526020600020905b815481529060010190602001808311611e7e57829003601f168201915b5050505050905090565b6000611eb1600e6132f6565b905090565b611ebe612a0e565b73ffffffffffffffffffffffffffffffffffffffff168273ffffffffffffffffffffffffffffffffffffffff161415611f2c576040517f08c379a0000000000000000000000000000000000000000000000000000000008152600401611f239061539a565b60405180910390fd5b8060056000611f39612a0e565b73ffffffffffffffffffffffffffffffffffffffff1673ffffffffffffffffffffffffffffffffffffffff16815260200190815260200160002060008473ffffffffffffffffffffffffffffffffffffffff1673ffffffffffffffffffffffffffffffffffffffff16815260200190815260200160002060006101000a81548160ff0219169083151502179055508173ffffffffffffffffffffffffffffffffffffffff16611fe6612a0e565b73ffffffffffffffffffffffffffffffffffffffff167f17307eab39ab6107e8899845ad3d59bd9653f200f220920489ca2b5937696c318360405161202b9190615287565b60405180910390a35050565b6000821161207a576040517f08c379a0000000000000000000000000000000000000000000000000000000008152600401612071906153ba565b60405180910390fd5b60018214156120915761208c8161354e565b6120ba565b60005b828110156120b8576120a58261354e565b80806120b090615b19565b915050612094565b505b5050565b6000806120ca83612684565b60800151905060008114156120e357600091505061216e565b60006a52b7d2dcc80cd2e4000000826120fc91906157c0565b90506114698110156121135760019250505061216e565b611e9d8110156121285760029250505061216e565b61220381101561213d5760039250505061216e565b6124908110156121525760049250505061216e565b6125ec8110156121675760059250505061216e565b6006925050505b919050565b61218461217e612a0e565b83612ae4565b6121c3576040517f08c379a00000000000000000000000000000000000000000000000000000000081526004016121ba9061553a565b60405180910390fd5b6121cf848484846135e7565b50505050565b60606121e0826129f1565b61221f576040517f08c379a0000000000000000000000000000000000000000000000000000000008152600401612216906154ba565b60405180910390fd5b600060086000848152602001908152602001600020805461223f90615ae7565b80601f016020809104026020016040519081016040528092919081815260200182805461226b90615ae7565b80156122b85780601f1061228d576101008083540402835291602001916122b8565b820191906000526020600020905b81548152906001019060200180831161229b57829003601f168201915b5050505050905060006122c961129f565b90506000815114156122df57819250505061233b565b6000825111156123145780826040516020016122fc9291906150f7565b6040516020818303038152906040529250505061233b565b808460405160200161232792919061511b565b604051602081830303815290604052925050505b919050565b612348612a0e565b73ffffffffffffffffffffffffffffffffffffffff16600a60009054906101000a900473ffffffffffffffffffffffffffffffffffffffff1673ffffffffffffffffffffffffffffffffffffffff16146123d7576040517f08c379a00000000000000000000000000000000000000000000000000000000081526004016123ce9061549a565b60405180910390fd5b80601360006101000a81548173ffffffffffffffffffffffffffffffffffffffff021916908373ffffffffffffffffffffffffffffffffffffffff16021790555050565b606060006124656000808573ffffffffffffffffffffffffffffffffffffffff1673ffffffffffffffffffffffffffffffffffffffff1681526020019081526020016000206132f6565b905060008167ffffffffffffffff8111156124a9577f4e487b7100000000000000000000000000000000000000000000000000000000600052604160045260246000fd5b6040519080825280602002602001820160405280156124d75781602001602082028036833780820191505090505b50905060005b8281101561258d57612535816000808873ffffffffffffffffffffffffffffffffffffffff1673ffffffffffffffffffffffffffffffffffffffff1681526020019081526020016000206129d790919063ffffffff16565b82828151811061256e577f4e487b7100000000000000000000000000000000000000000000000000000000600052603260045260246000fd5b602002602001018181525050808061258590615b19565b9150506124dd565b508092505050919050565b6125a06140ab565b6125b482600e61318290919063ffffffff16565b1561264857600d6000838152602001908152602001600020604051806060016040529081600082015481526020016001820160009054906101000a900473ffffffffffffffffffffffffffffffffffffffff1673ffffffffffffffffffffffffffffffffffffffff1673ffffffffffffffffffffffffffffffffffffffff168152602001600282015481525050905061267f565b604051806060016040528060008152602001600073ffffffffffffffffffffffffffffffffffffffff168152602001600081525090505b919050565b61268c614036565b600c60008381526020019081526020016000206040518060e001604052908160008201548152602001600182015481526020016002820160009054906101000a900460ff166004811115612709577f4e487b7100000000000000000000000000000000000000000000000000000000600052602160045260246000fd5b6004811115612741577f4e487b7100000000000000000000000000000000000000000000000000000000600052602160045260246000fd5b81526020016003820154815260200160048201548152602001600582015481526020016006820154815250509050919050565b6000600560008473ffffffffffffffffffffffffffffffffffffffff1673ffffffffffffffffffffffffffffffffffffffff16815260200190815260200160002060008373ffffffffffffffffffffffffffffffffffffffff1673ffffffffffffffffffffffffffffffffffffffff16815260200190815260200160002060009054906101000a900460ff16905092915050565b612810612a0e565b73ffffffffffffffffffffffffffffffffffffffff16600a60009054906101000a900473ffffffffffffffffffffffffffffffffffffffff1673ffffffffffffffffffffffffffffffffffffffff161461289f576040517f08c379a00000000000000000000000000000000000000000000000000000000081526004016128969061549a565b60405180910390fd5b6128a8816135f8565b50565b60006128f4601060008473ffffffffffffffffffffffffffffffffffffffff1673ffffffffffffffffffffffffffffffffffffffff1681526020019081526020016000206132f6565b9050919050565b6000811161293e576040517f08c379a00000000000000000000000000000000000000000000000000000000081526004016129359061559a565b60405180910390fd5b6000600c6000848152602001908152602001600020905061296c82826003015461372890919063ffffffff16565b8160030181905550827f3056b9cd784671e7a0f5d6f930db4d14e1e876a87360c871cc4d88b9f54c44b2836040516129a491906155f0565b60405180910390a2505050565b601260009054906101000a900473ffffffffffffffffffffffffffffffffffffffff1681565b60006129e68360000183613786565b60001c905092915050565b6000612a078260016137d790919063ffffffff16565b9050919050565b600033905090565b816004600083815260200190815260200160002060006101000a81548173ffffffffffffffffffffffffffffffffffffffff021916908373ffffffffffffffffffffffffffffffffffffffff160217905550808273ffffffffffffffffffffffffffffffffffffffff16612a8983611268565b73ffffffffffffffffffffffffffffffffffffffff167f8c5be1e5ebec7d5bd14f71427d1e84f3dd0314c0f7b2291e5b200ac8c7c3b92560405160405180910390a45050565b6000612add826000016137f1565b9050919050565b6000612aef826129f1565b612b2e576040517f08c379a0000000000000000000000000000000000000000000000000000000008152600401612b25906153da565b60405180910390fd5b6000612b3983611268565b90508073ffffffffffffffffffffffffffffffffffffffff168473ffffffffffffffffffffffffffffffffffffffff161480612ba857508373ffffffffffffffffffffffffffffffffffffffff16612b90846108dd565b73ffffffffffffffffffffffffffffffffffffffff16145b80612bb95750612bb88185612774565b5b91505092915050565b600073ffffffffffffffffffffffffffffffffffffffff168273ffffffffffffffffffffffffffffffffffffffff161415612c32576040517f08c379a0000000000000000000000000000000000000000000000000000000008152600401612c299061537a565b60405180910390fd5b612c3d838383613806565b612c48600082612a16565b612c98816000808673ffffffffffffffffffffffffffffffffffffffff1673ffffffffffffffffffffffffffffffffffffffff16815260200190815260200160002061380b90919063ffffffff16565b50612ce9816000808573ffffffffffffffffffffffffffffffffffffffff1673ffffffffffffffffffffffffffffffffffffffff16815260200190815260200160002061382590919063ffffffff16565b50612d008183600161383f9092919063ffffffff16565b50808273ffffffffffffffffffffffffffffffffffffffff168473ffffffffffffffffffffffffffffffffffffffff167fddf252ad1be2c89b69c2b068fc378daa952ba7f163c4a11628f55a4df523b3ef60405160405180910390a4505050565b60006064821015612d755760019050612dc6565b61015e821015612d885760029050612dc6565b6103e8821015612d9b5760039050612dc6565b6107d0821015612dae5760049050612dc6565b610fa0821015612dc15760059050612dc6565b600690505b919050565b6000600d600086815260200190815260200160002090508315612fa057612e9282601360009054906101000a900473ffffffffffffffffffffffffffffffffffffffff1673ffffffffffffffffffffffffffffffffffffffff1663412753586040518163ffffffff1660e01b815260040160206040518083038186803b158015612e5457600080fd5b505afa158015612e68573d6000803e3d6000fd5b505050506040513d601f19601f82011682018060405250810190612e8c9190614287565b87610a8b565b612ea685600e61382590919063ffffffff16565b50612ef885601060008573ffffffffffffffffffffffffffffffffffffffff1673ffffffffffffffffffffffffffffffffffffffff16815260200190815260200160002061382590919063ffffffff16565b5060405180606001604052808681526020018373ffffffffffffffffffffffffffffffffffffffff16815260200184815250600d60008781526020019081526020016000206000820151816000015560208201518160010160006101000a81548173ffffffffffffffffffffffffffffffffffffffff021916908373ffffffffffffffffffffffffffffffffffffffff1602179055506040820151816002015590505061317b565b61304a601360009054906101000a900473ffffffffffffffffffffffffffffffffffffffff1673ffffffffffffffffffffffffffffffffffffffff1663412753586040518163ffffffff1660e01b815260040160206040518083038186803b15801561300b57600080fd5b505afa15801561301f573d6000803e3d6000fd5b505050506040513d601f19601f820116820180604052508101906130439190614287565b8387610a8b565b61305e85600e61380b90919063ffffffff16565b506130d485601060008460010160009054906101000a900473ffffffffffffffffffffffffffffffffffffffff1673ffffffffffffffffffffffffffffffffffffffff1673ffffffffffffffffffffffffffffffffffffffff16815260200190815260200160002061380b90919063ffffffff16565b50604051806060016040528060008152602001600073ffffffffffffffffffffffffffffffffffffffff1681526020016000815250600d60008781526020019081526020016000206000820151816000015560208201518160010160006101000a81548173ffffffffffffffffffffffffffffffffffffffff021916908373ffffffffffffffffffffffffffffffffffffffff160217905550604082015181600201559050505b5050505050565b6000613194836000018360001b613874565b905092915050565b6000808314156131af5760009050613211565b600082846131bd9190615962565b90508284826131cc91906157c0565b1461320c576040517f08c379a00000000000000000000000000000000000000000000000000000000081526004016132039061545a565b60405180910390fd5b809150505b92915050565b600061325983836040518060400160405280601a81526020017f536166654d6174683a206469766973696f6e206279207a65726f000000000000815250613897565b905092915050565b60006132a383836040518060400160405280601e81526020017f536166654d6174683a207375627472616374696f6e206f766572666c6f7700008152506138fa565b905092915050565b6000806000806132be866000018661395e565b915091508160001c8160001c9350935050509250929050565b60006132ea846000018460001b8461399e565b60001c90509392505050565b600061330482600001613a1f565b9050919050565b61335e6001601160008573ffffffffffffffffffffffffffffffffffffffff1673ffffffffffffffffffffffffffffffffffffffff1681526020019081526020016000205461326190919063ffffffff16565b601160008473ffffffffffffffffffffffffffffffffffffffff1673ffffffffffffffffffffffffffffffffffffffff1681526020019081526020016000208190555060006133ab613a30565b90506133b78382613a4d565b60006133f86040518060400160405280600681526020017f726172697479000000000000000000000000000000000000000000000000000081525083613a63565b90506040518060e0016040528083815260200182815260200184600481111561344a577f4e487b7100000000000000000000000000000000000000000000000000000000600052602160045260246000fd5b815260200160008152602001600081526020016000815260200142815250600c6000848152602001908152602001600020600082015181600001556020820151816001015560408201518160020160006101000a81548160ff021916908360048111156134e0577f4e487b7100000000000000000000000000000000000000000000000000000000600052602160045260246000fd5b0217905550606082015181600301556080820151816004015560a0820151816005015560c08201518160060155905050817f2bf03af0706d54e76576b0b1fb7783f50164f3b0e78ee948e922bb4691540640856040516135409190615191565b60405180910390a250505050565b6135a16001601160008473ffffffffffffffffffffffffffffffffffffffff1673ffffffffffffffffffffffffffffffffffffffff1681526020019081526020016000205461372890919063ffffffff16565b601160008373ffffffffffffffffffffffffffffffffffffffff1673ffffffffffffffffffffffffffffffffffffffff1681526020019081526020016000208190555050565b6135f2848484612bc2565b50505050565b600073ffffffffffffffffffffffffffffffffffffffff168173ffffffffffffffffffffffffffffffffffffffff161415613668576040517f08c379a000000000000000000000000000000000000000000000000000000000815260040161365f9061531a565b60405180910390fd5b8073ffffffffffffffffffffffffffffffffffffffff16600a60009054906101000a900473ffffffffffffffffffffffffffffffffffffffff1673ffffffffffffffffffffffffffffffffffffffff167f8be0079c531659141344cd1fd0a4f28419497f9722a3daafe3b4186f6b6457e060405160405180910390a380600a60006101000a81548173ffffffffffffffffffffffffffffffffffffffff021916908373ffffffffffffffffffffffffffffffffffffffff16021790555050565b6000808284613737919061576a565b90508381101561377c576040517f08c379a00000000000000000000000000000000000000000000000000000000081526004016137739061535a565b60405180910390fd5b8091505092915050565b60008260000182815481106137c4577f4e487b7100000000000000000000000000000000000000000000000000000000600052603260045260246000fd5b9060005260206000200154905092915050565b60006137e9836000018360001b613b93565b905092915050565b60006137ff82600001613bb3565b9050919050565b505050565b600061381d836000018360001b613bc8565b905092915050565b6000613837836000018360001b613d4e565b905092915050565b600061386b846000018460001b8473ffffffffffffffffffffffffffffffffffffffff1660001b613dbe565b90509392505050565b600080836001016000848152602001908152602001600020541415905092915050565b600080831182906138de576040517f08c379a00000000000000000000000000000000000000000000000000000000081526004016138d591906152d8565b60405180910390fd5b50600083856138ed91906157c0565b9050809150509392505050565b6000838311158290613942576040517f08c379a000000000000000000000000000000000000000000000000000000000815260040161393991906152d8565b60405180910390fd5b506000838561395191906159bc565b9050809150509392505050565b60008060006139798486600001613df990919063ffffffff16565b9050808560020160008381526020019081526020016000205492509250509250929050565b6000808460020160008581526020019081526020016000205490506000801b811415806139d157506139d08585613b93565b5b8390613a13576040517f08c379a0000000000000000000000000000000000000000000000000000000008152600401613a0a91906152d8565b60405180910390fd5b50809150509392505050565b600081600001805490509050919050565b6000613a486001600b5461372890919063ffffffff16565b905090565b613a578282613e10565b613a5f613f9d565b5050565b6000806040518060400160405280600681526020017f72617269747900000000000000000000000000000000000000000000000000008152508051906020012084805190602001201415613b16576000613abe846002613fb7565b90506005811015613ad25760019150613b10565b600f811015613ae45760029150613b0f565b6023811015613af65760039150613b0e565b6041811015613b085760049150613b0d565b600591505b5b5b5b50613b89565b6040518060400160405280600781526020017f656c656d656e74000000000000000000000000000000000000000000000000008152508051906020012084805190602001201415613b88576000613b6e846002613fb7565b9050613b8460148261321790919063ffffffff16565b9150505b5b8091505092915050565b6000613bab828460000161400890919063ffffffff16565b905092915050565b6000613bc182600001613a1f565b9050919050565b60008083600101600084815260200190815260200160002054905060008114613d42576000600182613bfa91906159bc565b9050600060018660000180549050613c1291906159bc565b9050818114613ccd576000866000018281548110613c59577f4e487b7100000000000000000000000000000000000000000000000000000000600052603260045260246000fd5b9060005260206000200154905080876000018481548110613ca3577f4e487b7100000000000000000000000000000000000000000000000000000000600052603260045260246000fd5b90600052602060002001819055508387600101600083815260200190815260200160002081905550505b85600001805480613d07577f4e487b7100000000000000000000000000000000000000000000000000000000600052603160045260246000fd5b600190038181906000526020600020016000905590558560010160008681526020019081526020016000206000905560019350505050613d48565b60009150505b92915050565b6000613d5a8383613874565b613db3578260000182908060018154018082558091505060019003906000526020600020016000909190919091505582600001805490508360010160008481526020019081526020016000208190555060019050613db8565b600090505b92915050565b60008184600201600085815260200190815260200160002081905550613df0838560000161401f90919063ffffffff16565b90509392505050565b6000613e088360000183613786565b905092915050565b600073ffffffffffffffffffffffffffffffffffffffff168273ffffffffffffffffffffffffffffffffffffffff161415613e80576040517f08c379a0000000000000000000000000000000000000000000000000000000008152600401613e779061543a565b60405180910390fd5b613e89816129f1565b15613ec9576040517f08c379a0000000000000000000000000000000000000000000000000000000008152600401613ec09061533a565b60405180910390fd5b613ed560008383613806565b613f25816000808573ffffffffffffffffffffffffffffffffffffffff1673ffffffffffffffffffffffffffffffffffffffff16815260200190815260200160002061382590919063ffffffff16565b50613f3c8183600161383f9092919063ffffffff16565b50808273ffffffffffffffffffffffffffffffffffffffff16600073ffffffffffffffffffffffffffffffffffffffff167fddf252ad1be2c89b69c2b068fc378daa952ba7f163c4a11628f55a4df523b3ef60405160405180910390a45050565b600b6000815480929190613fb090615b19565b9190505550565b600081600a613fc69190615844565b44428585604051602001613fdd9493929190615143565b6040516020818303038152906040528051906020012060001c6140009190615b6c565b905092915050565b60006140178360000183613874565b905092915050565b600061402e8360000183613d4e565b905092915050565b6040518060e00160405280600081526020016000815260200160006004811115614089577f4e487b7100000000000000000000000000000000000000000000000000000000600052602160045260246000fd5b8152602001600081526020016000815260200160008152602001600081525090565b604051806060016040528060008152602001600073ffffffffffffffffffffffffffffffffffffffff168152602001600081525090565b60006140f56140f08461563c565b61560b565b9050808382526020820190508285602086028201111561411457600080fd5b60005b85811015614144578161412a8882614234565b845260208401935060208301925050600181019050614117565b5050509392505050565b600061416161415c84615668565b61560b565b90508281526020810184848401111561417957600080fd5b614184848285615aa5565b509392505050565b60008135905061419b81615cba565b92915050565b6000815190506141b081615cba565b92915050565b600082601f8301126141c757600080fd5b81356141d78482602086016140e2565b91505092915050565b6000813590506141ef81615cd1565b92915050565b60008151905061420481615cd1565b92915050565b600082601f83011261421b57600080fd5b813561422b84826020860161414e565b91505092915050565b60008135905061424381615ce8565b92915050565b60008151905061425881615ce8565b92915050565b60006020828403121561427057600080fd5b600061427e8482850161418c565b91505092915050565b60006020828403121561429957600080fd5b60006142a7848285016141a1565b91505092915050565b600080604083850312156142c357600080fd5b60006142d18582860161418c565b92505060206142e28582860161418c565b9150509250929050565b60008060006060848603121561430157600080fd5b600061430f8682870161418c565b93505060206143208682870161418c565b925050604061433186828701614234565b9150509250925092565b6000806000806080858703121561435157600080fd5b600061435f8782880161418c565b94505060206143708782880161418c565b935050604061438187828801614234565b925050606085013567ffffffffffffffff81111561439e57600080fd5b6143aa8782880161420a565b91505092959194509250565b600080604083850312156143c957600080fd5b60006143d78582860161418c565b92505060206143e8858286016141e0565b9150509250929050565b6000806040838503121561440557600080fd5b60006144138582860161418c565b925050602061442485828601614234565b9150509250929050565b60006020828403121561444057600080fd5b600082013567ffffffffffffffff81111561445a57600080fd5b614466848285016141b6565b91505092915050565b60006020828403121561448157600080fd5b600061448f848285016141f5565b91505092915050565b6000602082840312156144aa57600080fd5b60006144b884828501614234565b91505092915050565b6000602082840312156144d357600080fd5b60006144e184828501614249565b91505092915050565b600080604083850312156144fd57600080fd5b600061450b85828601614234565b925050602061451c8582860161418c565b9150509250929050565b60008060006060848603121561453b57600080fd5b600061454986828701614234565b935050602061455a8682870161418c565b925050604061456b86828701614234565b9150509250925092565b6000806040838503121561458857600080fd5b600061459685828601614234565b92505060206145a785828601614234565b9150509250929050565b6000806000606084860312156145c657600080fd5b60006145d486828701614234565b93505060206145e586828701614234565b92505060406145f68682870161418c565b9150509250925092565b600061460c8383614f22565b60e08301905092915050565b6000614624838361503e565b60608301905092915050565b600061463c83836150c2565b60208301905092915050565b614651816159f0565b82525050565b614660816159f0565b82525050565b6000614671826156c8565b61467b818561571b565b935061468683615698565b8060005b838110156146b757815161469e8882614600565b97506146a9836156f4565b92505060018101905061468a565b5085935050505092915050565b60006146cf826156d3565b6146d9818561572c565b93506146e4836156a8565b8060005b838110156147155781516146fc8882614618565b975061470783615701565b9250506001810190506146e8565b5085935050505092915050565b600061472d826156de565b614737818561573d565b9350614742836156b8565b8060005b8381101561477357815161475a8882614630565b97506147658361570e565b925050600181019050614746565b5085935050505092915050565b61478981615a02565b82525050565b61479881615a4b565b82525050565b6147a781615a6f565b82525050565b6147b681615a93565b82525050565b60006147c7826156e9565b6147d1818561574e565b93506147e1818560208601615ab4565b6147ea81615c88565b840191505092915050565b6000614800826156e9565b61480a818561575f565b935061481a818560208601615ab4565b80840191505092915050565b6000614833600f8361574e565b91507f6e6f7468696e67206973206672656500000000000000000000000000000000006000830152602082019050919050565b600061487360268361574e565b91507f4f776e61626c653a206e6577206f776e657220697320746865207a65726f206160008301527f64647265737300000000000000000000000000000000000000000000000000006020830152604082019050919050565b60006148d9601c8361574e565b91507f4552433732313a20746f6b656e20616c7265616479206d696e746564000000006000830152602082019050919050565b6000614919601b8361574e565b91507f536166654d6174683a206164646974696f6e206f766572666c6f7700000000006000830152602082019050919050565b600061495960248361574e565b91507f4552433732313a207472616e7366657220746f20746865207a65726f2061646460008301527f72657373000000000000000000000000000000000000000000000000000000006020830152604082019050919050565b60006149bf60198361574e565b91507f4552433732313a20617070726f766520746f2063616c6c6572000000000000006000830152602082019050919050565b60006149ff600b8361574e565b91507f726571756972653a203e300000000000000000000000000000000000000000006000830152602082019050919050565b6000614a3f602c8361574e565b91507f4552433732313a206f70657261746f7220717565727920666f72206e6f6e657860008301527f697374656e7420746f6b656e00000000000000000000000000000000000000006020830152604082019050919050565b6000614aa560388361574e565b91507f4552433732313a20617070726f76652063616c6c6572206973206e6f74206f7760008301527f6e6572206e6f7220617070726f76656420666f7220616c6c00000000000000006020830152604082019050919050565b6000614b0b602a8361574e565b91507f4552433732313a2062616c616e636520717565727920666f7220746865207a6560008301527f726f2061646472657373000000000000000000000000000000000000000000006020830152604082019050919050565b6000614b7160208361574e565b91507f4552433732313a206d696e7420746f20746865207a65726f20616464726573736000830152602082019050919050565b6000614bb160218361574e565b91507f536166654d6174683a206d756c7469706c69636174696f6e206f766572666c6f60008301527f77000000000000000000000000000000000000000000000000000000000000006020830152604082019050919050565b6000614c17602c8361574e565b91507f4552433732313a20617070726f76656420717565727920666f72206e6f6e657860008301527f697374656e7420746f6b656e00000000000000000000000000000000000000006020830152604082019050919050565b6000614c7d60208361574e565b91507f4f776e61626c653a2063616c6c6572206973206e6f7420746865206f776e65726000830152602082019050919050565b6000614cbd602f8361574e565b91507f4552433732314d657461646174613a2055524920717565727920666f72206e6f60008301527f6e6578697374656e7420746f6b656e00000000000000000000000000000000006020830152604082019050919050565b6000614d2360108361574e565b91507f6e6f7420456e6f75676820526f6c6c73000000000000000000000000000000006000830152602082019050919050565b6000614d6360218361574e565b91507f4552433732313a20617070726f76616c20746f2063757272656e74206f776e6560008301527f72000000000000000000000000000000000000000000000000000000000000006020830152604082019050919050565b6000614dc960078361574e565b91507f6e6f74206f776e000000000000000000000000000000000000000000000000006000830152602082019050919050565b6000614e0960318361574e565b91507f4552433732313a207472616e736665722063616c6c6572206973206e6f74206f60008301527f776e6572206e6f7220617070726f7665640000000000000000000000000000006020830152604082019050919050565b6000614e6f60088361574e565b91507f6e6f742073616c650000000000000000000000000000000000000000000000006000830152602082019050919050565b6000614eaf600b8361574e565b91507f4e6f7420416c6c6f7765640000000000000000000000000000000000000000006000830152602082019050919050565b6000614eef60068361574e565b91507f6e6f2065787000000000000000000000000000000000000000000000000000006000830152602082019050919050565b60e082016000820151614f3860008501826150c2565b506020820151614f4b60208501826150c2565b506040820151614f5e60408501826147ad565b506060820151614f7160608501826150c2565b506080820151614f8460808501826150c2565b5060a0820151614f9760a08501826150c2565b5060c0820151614faa60c08501826150c2565b50505050565b60e082016000820151614fc660008501826150c2565b506020820151614fd960208501826150c2565b506040820151614fec60408501826147ad565b506060820151614fff60608501826150c2565b50608082015161501260808501826150c2565b5060a082015161502560a08501826150c2565b5060c082015161503860c08501826150c2565b50505050565b60608201600082015161505460008501826150c2565b5060208201516150676020850182614648565b50604082015161507a60408501826150c2565b50505050565b60608201600082015161509660008501826150c2565b5060208201516150a96020850182614648565b5060408201516150bc60408501826150c2565b50505050565b6150cb81615a41565b82525050565b6150da81615a41565b82525050565b6150f16150ec82615a41565b615b62565b82525050565b600061510382856147f5565b915061510f82846147f5565b91508190509392505050565b600061512782856147f5565b915061513382846150e0565b6020820191508190509392505050565b600061514f82876150e0565b60208201915061515f82866150e0565b60208201915061516f82856150e0565b60208201915061517f82846150e0565b60208201915081905095945050505050565b60006020820190506151a66000830184614657565b92915050565b60006060820190506151c16000830186614657565b6151ce6020830185614657565b6151db60408301846150d1565b949350505050565b60006040820190506151f86000830185614657565b61520560208301846150d1565b9392505050565b600060208201905081810360008301526152268184614666565b905092915050565b600060408201905081810360008301526152488185614666565b9050818103602083015261525c81846146c4565b90509392505050565b6000602082019050818103600083015261527f8184614722565b905092915050565b600060208201905061529c6000830184614780565b92915050565b60006020820190506152b7600083018461478f565b92915050565b60006020820190506152d2600083018461479e565b92915050565b600060208201905081810360008301526152f281846147bc565b905092915050565b6000602082019050818103600083015261531381614826565b9050919050565b6000602082019050818103600083015261533381614866565b9050919050565b60006020820190508181036000830152615353816148cc565b9050919050565b600060208201905081810360008301526153738161490c565b9050919050565b600060208201905081810360008301526153938161494c565b9050919050565b600060208201905081810360008301526153b3816149b2565b9050919050565b600060208201905081810360008301526153d3816149f2565b9050919050565b600060208201905081810360008301526153f381614a32565b9050919050565b6000602082019050818103600083015261541381614a98565b9050919050565b6000602082019050818103600083015261543381614afe565b9050919050565b6000602082019050818103600083015261545381614b64565b9050919050565b6000602082019050818103600083015261547381614ba4565b9050919050565b6000602082019050818103600083015261549381614c0a565b9050919050565b600060208201905081810360008301526154b381614c70565b9050919050565b600060208201905081810360008301526154d381614cb0565b9050919050565b600060208201905081810360008301526154f381614d16565b9050919050565b6000602082019050818103600083015261551381614d56565b9050919050565b6000602082019050818103600083015261553381614dbc565b9050919050565b6000602082019050818103600083015261555381614dfc565b9050919050565b6000602082019050818103600083015261557381614e62565b9050919050565b6000602082019050818103600083015261559381614ea2565b9050919050565b600060208201905081810360008301526155b381614ee2565b9050919050565b600060e0820190506155cf6000830184614fb0565b92915050565b60006060820190506155ea6000830184615080565b92915050565b600060208201905061560560008301846150d1565b92915050565b6000604051905081810181811067ffffffffffffffff8211171561563257615631615c59565b5b8060405250919050565b600067ffffffffffffffff82111561565757615656615c59565b5b602082029050602081019050919050565b600067ffffffffffffffff82111561568357615682615c59565b5b601f19601f8301169050602081019050919050565b6000819050602082019050919050565b6000819050602082019050919050565b6000819050602082019050919050565b600081519050919050565b600081519050919050565b600081519050919050565b600081519050919050565b6000602082019050919050565b6000602082019050919050565b6000602082019050919050565b600082825260208201905092915050565b600082825260208201905092915050565b600082825260208201905092915050565b600082825260208201905092915050565b600081905092915050565b600061577582615a41565b915061578083615a41565b9250827fffffffffffffffffffffffffffffffffffffffffffffffffffffffffffffffff038211156157b5576157b4615b9d565b5b828201905092915050565b60006157cb82615a41565b91506157d683615a41565b9250826157e6576157e5615bcc565b5b828204905092915050565b6000808291508390505b600185111561583b5780860481111561581757615816615b9d565b5b60018516156158265780820291505b808102905061583485615c99565b94506157fb565b94509492505050565b600061584f82615a41565b915061585a83615a41565b92506158877fffffffffffffffffffffffffffffffffffffffffffffffffffffffffffffffff848461588f565b905092915050565b60008261589f576001905061595b565b816158ad576000905061595b565b81600181146158c357600281146158cd576158fc565b600191505061595b565b60ff8411156158df576158de615b9d565b5b8360020a9150848211156158f6576158f5615b9d565b5b5061595b565b5060208310610133831016604e8410600b84101617156159315782820a90508381111561592c5761592b615b9d565b5b61595b565b61593e84848460016157f1565b9250905081840481111561595557615954615b9d565b5b81810290505b9392505050565b600061596d82615a41565b915061597883615a41565b9250817fffffffffffffffffffffffffffffffffffffffffffffffffffffffffffffffff04831182151516156159b1576159b0615b9d565b5b828202905092915050565b60006159c782615a41565b91506159d283615a41565b9250828210156159e5576159e4615b9d565b5b828203905092915050565b60006159fb82615a21565b9050919050565b60008115159050919050565b6000819050615a1c82615ca6565b919050565b600073ffffffffffffffffffffffffffffffffffffffff82169050919050565b6000819050919050565b6000615a5682615a5d565b9050919050565b6000615a6882615a21565b9050919050565b6000615a7a82615a81565b9050919050565b6000615a8c82615a21565b9050919050565b6000615a9e82615a0e565b9050919050565b82818337600083830152505050565b60005b83811015615ad2578082015181840152602081019050615ab7565b83811115615ae1576000848401525b50505050565b60006002820490506001821680615aff57607f821691505b60208210811415615b1357615b12615c2a565b5b50919050565b6000615b2482615a41565b91507fffffffffffffffffffffffffffffffffffffffffffffffffffffffffffffffff821415615b5757615b56615b9d565b5b600182019050919050565b6000819050919050565b6000615b7782615a41565b9150615b8283615a41565b925082615b9257615b91615bcc565b5b828206905092915050565b7f4e487b7100000000000000000000000000000000000000000000000000000000600052601160045260246000fd5b7f4e487b7100000000000000000000000000000000000000000000000000000000600052601260045260246000fd5b7f4e487b7100000000000000000000000000000000000000000000000000000000600052602160045260246000fd5b7f4e487b7100000000000000000000000000000000000000000000000000000000600052602260045260246000fd5b7f4e487b7100000000000000000000000000000000000000000000000000000000600052604160045260246000fd5b6000601f19601f8301169050919050565b60008160011c9050919050565b60058110615cb757615cb6615bfb565b5b50565b615cc3816159f0565b8114615cce57600080fd5b50565b615cda81615a02565b8114615ce557600080fd5b50565b615cf181615a41565b8114615cfc57600080fd5b5056fe4552433732313a206f776e657220717565727920666f72206e6f6e6578697374656e7420746f6b656ea264697066735822122015db78db77fa47ec0a59d90200224ee25a6928f8ad29a9bd5bbe8eea5fecbf7764736f6c63430008000033",
  "immutableReferences": {},
  "source": "// SPDX-License-Identifier: UNLICENSED\r\npragma solidity ^0.8.0;\r\n\r\nimport \"./Utils.sol\";\r\nimport \"./IHeroPrimeManager.sol\";\r\nimport \"./IERC20.sol\";\r\nimport \"./ERC721.sol\";\r\n\r\ncontract HeroPrimeNFT is ERC721, Ownable {\r\n    using SafeMath for uint256;\r\n    using EnumerableSet for EnumerableSet.UintSet;\r\n    \r\n    enum Element {\r\n        FIRE,\r\n        WATER,\r\n        LIGHT,\r\n        DARK,\r\n        EARTH\r\n    }\r\n    \r\n    event rolledHero(uint256 indexed tokenId, address buyer);\r\n    event Exp(uint256 indexed tokenId, uint256 exp);\r\n    \r\n    event PlaceOrder(uint256 indexed tokenId, address seller, uint256 price);\r\n    event CancelOrder(uint256 indexed tokenId, address seller);\r\n    event FillOrder(uint256 indexed tokenId, address seller);\r\n\r\n    struct HeroPrime {\r\n        uint id;\r\n        uint256 generation;\r\n        Element element;\r\n        uint256 exp;\r\n        uint256 dna;\r\n        uint256 farmTime;\r\n        uint256 bornTime;\r\n    }\r\n    struct ItemSale {\r\n        uint256 tokenId;\r\n        address owner;\r\n        uint256 price;\r\n    }\r\n    \r\n    uint256 public latestTokenId;\r\n\r\n    mapping(uint256 => HeroPrime) internal heroPrimes;\r\n    mapping(uint256 => ItemSale) internal listings;\r\n    \r\n    EnumerableSet.UintSet private tokenSales;\r\n    mapping(address => EnumerableSet.UintSet) private sellerTokens;\r\n\r\n    mapping(address => uint256) internal heroPrimeRolls;\r\n\r\n    \r\n    IERC20 public heroPrimeERC20;\r\n    IHeroPrimeManager public manager;\r\n\r\n    constructor(\r\n        string memory _name,\r\n        string memory _symbol,\r\n        address _heroprimeERC20\r\n    ) ERC721(_name, _symbol) {\r\n        heroPrimeERC20 = IERC20(_heroprimeERC20);\r\n    }\r\n\r\n    function setManager(address _manager) external onlyOwner{\r\n        manager = IHeroPrimeManager(_manager);\r\n    }\r\n    modifier onlyManager(){\r\n        require(_msgSender() == address(manager), \"Not Allowed\");\r\n        _;\r\n    }\r\n    function _mint(address to, uint256 tokenId) internal override(ERC721) {\r\n        super._mint(to, tokenId);\r\n\r\n        _incrementTokenId();\r\n    }\r\n    \r\n    /**\r\n     * @dev calculates the next token ID based on value of latestTokenId\r\n     * @return uint256 for the next token ID\r\n     */\r\n    function _getNextTokenId() private view returns (uint256) {\r\n        return latestTokenId.add(1);\r\n    }\r\n\r\n    /**\r\n     * @dev increments the value of latestTokenId\r\n     */\r\n    function _incrementTokenId() private {\r\n        latestTokenId++;\r\n    }\r\n\r\n    function getHeroPrime(uint256 _tokenId)\r\n        public\r\n        view\r\n        returns (HeroPrime memory)\r\n    {\r\n        return heroPrimes[_tokenId];\r\n    }\r\n\r\n    function getHeroPrimes(uint256[] memory _tokenIds)\r\n        public\r\n        view\r\n        returns (HeroPrime[] memory)\r\n    {\r\n        HeroPrime[] memory result = new HeroPrime[](_tokenIds.length);\r\n        for (uint256 index = 0; index < _tokenIds.length; index++) {\r\n            result[index] = heroPrimes[_tokenIds[index]];\r\n        }\r\n        return result;\r\n    }\r\n\r\n    function heroPrimeLevel(uint256 _tokenId) public view returns (uint256) {\r\n        return getLevel(getHeroPrime(_tokenId).exp);\r\n    }\r\n\r\n    function getLevel(uint256 _exp) internal pure returns (uint256) {\r\n        if (_exp < 100) {\r\n            return 1;\r\n        } else if (_exp < 350) {\r\n            return 2;\r\n        } else if (_exp < 1000) {\r\n            return 3;\r\n        } else if (_exp < 2000) {\r\n            return 4;\r\n        } else if (_exp < 4000) {\r\n            return 5;\r\n        } else {\r\n            return 6;\r\n        }\r\n    }\r\n    \r\n    function getRare(uint256 _tokenId) public view returns (uint256) {\r\n        uint256 dna = getHeroPrime(_tokenId).dna;\r\n        if (dna == 0) return 0;\r\n        uint256 rareParser = dna / 10**26;\r\n        if (rareParser < 5225) {\r\n            return 1;\r\n        } else if (rareParser < 7837) {\r\n            return 2;\r\n        } else if (rareParser < 8707) {\r\n            return 3;\r\n        } else if (rareParser < 9360) {\r\n            return 4;\r\n        } else if (rareParser < 9708) {\r\n            return 5;\r\n        } else {\r\n            return 6;\r\n        }\r\n    }\r\n\r\n\r\n    function rollHero(\r\n        uint256 amount,\r\n        address receiver,\r\n        uint elementindex\r\n    ) external {\r\n        require(heroPrimeRolls[receiver] >= amount, \"not Enough Rolls\" );\r\n        Element element = Element(elementindex);\r\n        require(amount > 0, \"require: >0\");\r\n        if (amount == 1) _rollHero(receiver, element);\r\n        else\r\n            for (uint256 index = 0; index < amount; index++) {\r\n                _rollHero(receiver, element);\r\n            }\r\n    }\r\n\r\n    function _rollHero(address receiver, Element element) internal {\r\n        heroPrimeRolls[receiver] = heroPrimeRolls[receiver].sub(1);\r\n        uint256 nextTokenId = _getNextTokenId();\r\n        _mint(receiver, nextTokenId);\r\n        uint rarity = generation(\"rarity\", nextTokenId);\r\n        heroPrimes[nextTokenId] = HeroPrime({\r\n            id: nextTokenId,\r\n            generation: rarity,\r\n            element: element,\r\n            exp: 0,\r\n            dna: 0,\r\n            farmTime: 0,\r\n            bornTime: block.timestamp\r\n        });\r\n\r\n        emit rolledHero(nextTokenId, receiver);\r\n    }\r\n\r\n    function incrementRolls(uint256 amount, address receiver) external {\r\n        require(amount > 0, \"require: >0\");\r\n        if (amount == 1) _incrementRolls(receiver);\r\n        else\r\n            for (uint256 index = 0; index < amount; index++) {\r\n                _incrementRolls(receiver);\r\n            }\r\n    }\r\n\r\n    function _incrementRolls(address receiver) internal {\r\n        heroPrimeRolls[receiver] = heroPrimeRolls[receiver].add(1);\r\n    }\r\n\r\n    function getOwnerHeroPrimeRolls(address owner) external view returns (uint256) {\r\n        return heroPrimeRolls[owner];\r\n    }\r\n    \r\n    function exp(uint256 _tokenId, uint256 _exp) public {\r\n        require(_exp > 0, \"no exp\");\r\n        HeroPrime storage heroPrime = heroPrimes[_tokenId];\r\n        heroPrime.exp = heroPrime.exp.add(_exp);\r\n        emit Exp(_tokenId, _exp);\r\n    }\r\n\r\n    \r\n\r\n    function generation(string memory field, uint id) internal view returns (uint256){\r\n        uint result;\r\n        if(keccak256(bytes(field)) == keccak256(bytes(\"rarity\"))) {\r\n            uint rand = random(id, 2);\r\n            if(rand < 5) {\r\n                result = 1;\r\n            } else if (rand < 15) {\r\n                result = 2;\r\n            } else if (rand < 35) {\r\n                result = 3;\r\n            } else if (rand < 65) {\r\n                result = 4;\r\n            } else {\r\n                result = 5;\r\n            }\r\n        } else if(keccak256(bytes(field)) == keccak256(bytes(\"element\"))) {\r\n            uint rand = random(id, 2);\r\n            result = rand.div(20);\r\n        }\r\n        return result;\r\n    }\r\n  function random(uint256 _id, uint256 _length)\r\n        private\r\n        view\r\n        returns (uint256)\r\n    {\r\n        return\r\n            uint256(\r\n                uint256(\r\n                    keccak256(\r\n                        abi.encodePacked(\r\n                            block.difficulty,\r\n                            block.timestamp,\r\n                            _id,\r\n                            _length\r\n                        )\r\n                    )\r\n                )\r\n            ) % (10**_length);\r\n    }\r\n\r\n\r\n\r\n    // marketplace\r\n\r\n    function placeOrder(uint256 _tokenId, uint256 _price, address sender) external onlyManager {\r\n        require(ownerOf(_tokenId) == sender, \"not own\");\r\n        require(_price > 0, \"nothing is free\");\r\n\r\n        tokenOrder(_tokenId, true, _price, sender);\r\n\r\n        emit PlaceOrder(_tokenId, sender, _price);\r\n    }\r\n\r\n    function cancelOrder(uint256 _tokenId, address sender) external onlyManager {\r\n        require(tokenSales.contains(_tokenId), \"not sale\");\r\n        ItemSale storage itemSale = listings[_tokenId];\r\n        require(itemSale.owner == sender, \"not own\");\r\n\r\n        tokenOrder(_tokenId, false, 0, sender);\r\n\r\n        emit CancelOrder(_tokenId, sender);\r\n    }\r\n\r\n    function fillOrder(uint256 _tokenId, address sender) external onlyManager {\r\n        require(tokenSales.contains(_tokenId), \"not sale\");\r\n        ItemSale storage itemSale = listings[_tokenId];\r\n        uint256 feeMarket = itemSale.price.mul(manager.feeMarketRate()).div(\r\n            manager.divPercent()\r\n        );\r\n        heroPrimeERC20.transferFrom(sender, manager.feeAddress(), feeMarket);\r\n        heroPrimeERC20.transferFrom(\r\n            sender,\r\n            itemSale.owner,\r\n            itemSale.price.sub(feeMarket)\r\n        );\r\n\r\n        tokenOrder(_tokenId, false, 0, sender);\r\n        emit FillOrder(_tokenId, sender);\r\n    }\r\n\r\n    function tokenOrder(\r\n        uint256 _tokenId,\r\n        bool _sell,\r\n        uint256 _price,\r\n        address sender\r\n    ) internal {\r\n        ItemSale storage itemSale = listings[_tokenId];\r\n        if (_sell) {\r\n            transferFrom(sender, manager.feeAddress(), _tokenId);\r\n            tokenSales.add(_tokenId);\r\n            sellerTokens[sender].add(_tokenId);\r\n\r\n            listings[_tokenId] = ItemSale({\r\n                tokenId: _tokenId,\r\n                price: _price,\r\n                owner: sender\r\n            });\r\n        } else {\r\n            transferFrom(manager.feeAddress(), sender, _tokenId);\r\n\r\n            tokenSales.remove(_tokenId);\r\n            sellerTokens[itemSale.owner].remove(_tokenId);\r\n            listings[_tokenId] = ItemSale({\r\n                tokenId: 0,\r\n                price: 0,\r\n                owner: address(0)\r\n            });\r\n        }\r\n    }\r\n\r\n    function marketsSize() public view returns (uint256) {\r\n        return tokenSales.length();\r\n    }\r\n    function market() public view returns (HeroPrime[] memory resultHeroes, ItemSale[] memory resultSales ) {\r\n        resultHeroes = new HeroPrime[](tokenSales.length());\r\n        resultSales = new ItemSale[](tokenSales.length());\r\n        for (uint256 index = 0; index < tokenSales.length(); index++) {\r\n            resultHeroes[index] = heroPrimes[tokenSales.at(index)];\r\n            resultSales[index] = listings[heroPrimes[tokenSales.at(index)].id];\r\n        }\r\n    }\r\n\r\n    function orders(address _seller) public view returns (uint256) {\r\n        return sellerTokens[_seller].length();\r\n    }\r\n\r\n    function tokenSaleByIndex(uint256 index) public view returns (uint256) {\r\n        return tokenSales.at(index);\r\n    }\r\n\r\n    function tokenSaleOfOwnerByIndex(address _seller, uint256 index)\r\n        public\r\n        view\r\n        returns (uint256)\r\n    {\r\n        return sellerTokens[_seller].at(index);\r\n    }\r\n\r\n    function getSale(uint256 _tokenId) public view returns (ItemSale memory) {\r\n        if (tokenSales.contains(_tokenId)) return listings[_tokenId];\r\n        return ItemSale({tokenId: 0, owner: address(0), price: 0});\r\n    }\r\n}",
  "sourcePath": "C:\\workspace\\Personal\\truffle\\HeroPrime\\contracts\\HeroPrimeNFT.sol",
  "compiler": {
    "name": "solc",
    "version": "0.8.0+commit.c7dfd78e.Emscripten.clang"
  },
  "schemaVersion": "3.4.3",
  "updatedAt": "2021-10-09T16:52:29.264Z",
  "networkType": "ethereum",
  "devdoc": {
    "kind": "dev",
    "methods": {
      "approve(address,uint256)": {
        "details": "See {IERC721-approve}."
      },
      "balanceOf(address)": {
        "details": "See {IERC721-balanceOf}."
      },
      "baseURI()": {
        "details": "Returns the base URI set via {_setBaseURI}. This will be automatically added as a prefix in {tokenURI} to each token's URI, or to the token ID if no specific URI is set for that token ID."
      },
      "getApproved(uint256)": {
        "details": "See {IERC721-getApproved}."
      },
      "isApprovedForAll(address,address)": {
        "details": "See {IERC721-isApprovedForAll}."
      },
      "name()": {
        "details": "See {IERC721Metadata-name}."
      },
      "owner()": {
        "details": "Returns the address of the current owner."
      },
      "ownerOf(uint256)": {
        "details": "See {IERC721-ownerOf}."
      },
      "renounceOwnership()": {
        "details": "Leaves the contract without owner. It will not be possible to call `onlyOwner` functions anymore. Can only be called by the current owner. NOTE: Renouncing ownership will leave the contract without an owner, thereby removing any functionality that is only available to the owner."
      },
      "safeTransferFrom(address,address,uint256)": {
        "details": "See {IERC721-safeTransferFrom}."
      },
      "safeTransferFrom(address,address,uint256,bytes)": {
        "details": "See {IERC721-safeTransferFrom}."
      },
      "setApprovalForAll(address,bool)": {
        "details": "See {IERC721-setApprovalForAll}."
      },
      "symbol()": {
        "details": "See {IERC721Metadata-symbol}."
      },
      "tokenByIndex(uint256)": {
        "details": "See {IERC721Enumerable-tokenByIndex}."
      },
      "tokenURI(uint256)": {
        "details": "See {IERC721Metadata-tokenURI}."
      },
      "totalSupply()": {
        "details": "See {IERC721Enumerable-totalSupply}."
      },
      "transferFrom(address,address,uint256)": {
        "details": "See {IERC721-transferFrom}."
      },
      "transferOwnership(address)": {
        "details": "Transfers ownership of the contract to a new account (`newOwner`). Can only be called by the current owner."
      }
    },
    "version": 1
  },
  "userdoc": {
    "kind": "user",
    "methods": {},
    "version": 1
  }
}