{
  "contractName": "HeroPrimeManager",
  "abi": [
    {
      "inputs": [
        {
          "internalType": "address",
          "name": "token",
          "type": "address"
        },
        {
          "internalType": "address",
          "name": "nft",
          "type": "address"
        },
        {
          "internalType": "address",
          "name": "artifactnft",
          "type": "address"
        },
        {
          "internalType": "address",
          "name": "engine",
          "type": "address"
        }
      ],
      "stateMutability": "nonpayable",
      "type": "constructor"
    },
    {
      "anonymous": false,
      "inputs": [
        {
          "indexed": true,
          "internalType": "bytes32",
          "name": "id",
          "type": "bytes32"
        }
      ],
      "name": "ChainlinkCancelled",
      "type": "event"
    },
    {
      "anonymous": false,
      "inputs": [
        {
          "indexed": true,
          "internalType": "bytes32",
          "name": "id",
          "type": "bytes32"
        }
      ],
      "name": "ChainlinkFulfilled",
      "type": "event"
    },
    {
      "anonymous": false,
      "inputs": [
        {
          "indexed": true,
          "internalType": "bytes32",
          "name": "id",
          "type": "bytes32"
        }
      ],
      "name": "ChainlinkRequested",
      "type": "event"
    },
    {
      "anonymous": false,
      "inputs": [
        {
          "indexed": true,
          "internalType": "address",
          "name": "previousOwner",
          "type": "address"
        },
        {
          "indexed": true,
          "internalType": "address",
          "name": "newOwner",
          "type": "address"
        }
      ],
      "name": "OwnershipTransferred",
      "type": "event"
    },
    {
      "inputs": [],
      "name": "_attackFee",
      "outputs": [
        {
          "internalType": "uint256",
          "name": "",
          "type": "uint256"
        }
      ],
      "stateMutability": "view",
      "type": "function",
      "constant": true
    },
    {
      "inputs": [],
      "name": "_rollArtifactPrice",
      "outputs": [
        {
          "internalType": "uint256",
          "name": "",
          "type": "uint256"
        }
      ],
      "stateMutability": "view",
      "type": "function",
      "constant": true
    },
    {
      "inputs": [],
      "name": "_rollHeroPrice",
      "outputs": [
        {
          "internalType": "uint256",
          "name": "",
          "type": "uint256"
        }
      ],
      "stateMutability": "view",
      "type": "function",
      "constant": true
    },
    {
      "inputs": [],
      "name": "divPercent",
      "outputs": [
        {
          "internalType": "uint256",
          "name": "",
          "type": "uint256"
        }
      ],
      "stateMutability": "view",
      "type": "function",
      "constant": true
    },
    {
      "inputs": [],
      "name": "feeAddress",
      "outputs": [
        {
          "internalType": "address",
          "name": "",
          "type": "address"
        }
      ],
      "stateMutability": "view",
      "type": "function",
      "constant": true
    },
    {
      "inputs": [],
      "name": "feeMarketRate",
      "outputs": [
        {
          "internalType": "uint256",
          "name": "",
          "type": "uint256"
        }
      ],
      "stateMutability": "view",
      "type": "function",
      "constant": true
    },
    {
      "inputs": [],
      "name": "owner",
      "outputs": [
        {
          "internalType": "address",
          "name": "",
          "type": "address"
        }
      ],
      "stateMutability": "view",
      "type": "function",
      "constant": true
    },
    {
      "inputs": [],
      "name": "renounceOwnership",
      "outputs": [],
      "stateMutability": "nonpayable",
      "type": "function"
    },
    {
      "inputs": [
        {
          "internalType": "bytes32",
          "name": "",
          "type": "bytes32"
        }
      ],
      "name": "requestMapping",
      "outputs": [
        {
          "internalType": "address",
          "name": "",
          "type": "address"
        }
      ],
      "stateMutability": "view",
      "type": "function",
      "constant": true
    },
    {
      "inputs": [
        {
          "internalType": "address",
          "name": "newOwner",
          "type": "address"
        }
      ],
      "name": "transferOwnership",
      "outputs": [],
      "stateMutability": "nonpayable",
      "type": "function"
    },
    {
      "inputs": [
        {
          "internalType": "string",
          "name": "_url",
          "type": "string"
        }
      ],
      "name": "setClaimURL",
      "outputs": [],
      "stateMutability": "nonpayable",
      "type": "function"
    },
    {
      "inputs": [
        {
          "internalType": "uint256",
          "name": "_fee",
          "type": "uint256"
        }
      ],
      "name": "setAttackFee",
      "outputs": [],
      "stateMutability": "nonpayable",
      "type": "function"
    },
    {
      "inputs": [
        {
          "internalType": "uint256",
          "name": "_fee",
          "type": "uint256"
        }
      ],
      "name": "setRollHeroPrice",
      "outputs": [],
      "stateMutability": "nonpayable",
      "type": "function"
    },
    {
      "inputs": [
        {
          "internalType": "uint256",
          "name": "_fee",
          "type": "uint256"
        }
      ],
      "name": "setRollArtifactPrice",
      "outputs": [],
      "stateMutability": "nonpayable",
      "type": "function"
    },
    {
      "inputs": [
        {
          "internalType": "address",
          "name": "_feeaddress",
          "type": "address"
        }
      ],
      "name": "setFeeAddress",
      "outputs": [],
      "stateMutability": "nonpayable",
      "type": "function"
    },
    {
      "inputs": [
        {
          "internalType": "uint256",
          "name": "newRate",
          "type": "uint256"
        }
      ],
      "name": "setFeeMarketRate",
      "outputs": [],
      "stateMutability": "nonpayable",
      "type": "function"
    },
    {
      "inputs": [
        {
          "internalType": "uint256",
          "name": "_divPercent",
          "type": "uint256"
        }
      ],
      "name": "setDivPercent",
      "outputs": [],
      "stateMutability": "nonpayable",
      "type": "function"
    },
    {
      "inputs": [
        {
          "internalType": "uint256",
          "name": "_tokenId",
          "type": "uint256"
        },
        {
          "internalType": "uint256",
          "name": "_monster",
          "type": "uint256"
        }
      ],
      "name": "attackMonster",
      "outputs": [],
      "stateMutability": "nonpayable",
      "type": "function"
    },
    {
      "inputs": [
        {
          "internalType": "uint256",
          "name": "amount",
          "type": "uint256"
        }
      ],
      "name": "buyHeroRolls",
      "outputs": [],
      "stateMutability": "nonpayable",
      "type": "function"
    },
    {
      "inputs": [
        {
          "internalType": "uint256",
          "name": "amount",
          "type": "uint256"
        },
        {
          "internalType": "uint256",
          "name": "elementindex",
          "type": "uint256"
        }
      ],
      "name": "rollForHero",
      "outputs": [],
      "stateMutability": "nonpayable",
      "type": "function"
    },
    {
      "inputs": [
        {
          "internalType": "uint256",
          "name": "amount",
          "type": "uint256"
        }
      ],
      "name": "buyArtifactRolls",
      "outputs": [],
      "stateMutability": "nonpayable",
      "type": "function"
    },
    {
      "inputs": [
        {
          "internalType": "uint256",
          "name": "amount",
          "type": "uint256"
        },
        {
          "internalType": "uint256",
          "name": "elementindex",
          "type": "uint256"
        }
      ],
      "name": "rollForArtifact",
      "outputs": [],
      "stateMutability": "nonpayable",
      "type": "function"
    },
    {
      "inputs": [
        {
          "internalType": "uint256",
          "name": "_tokenId",
          "type": "uint256"
        },
        {
          "internalType": "uint256",
          "name": "_price",
          "type": "uint256"
        }
      ],
      "name": "placeItemForSale",
      "outputs": [],
      "stateMutability": "nonpayable",
      "type": "function"
    },
    {
      "inputs": [
        {
          "internalType": "uint256",
          "name": "_tokenId",
          "type": "uint256"
        }
      ],
      "name": "removeItemFromSale",
      "outputs": [],
      "stateMutability": "nonpayable",
      "type": "function"
    },
    {
      "inputs": [
        {
          "internalType": "uint256",
          "name": "_tokenId",
          "type": "uint256"
        }
      ],
      "name": "buyItemFromMarketplace",
      "outputs": [],
      "stateMutability": "nonpayable",
      "type": "function"
    },
    {
      "inputs": [
        {
          "internalType": "uint256",
          "name": "_tokenId",
          "type": "uint256"
        },
        {
          "internalType": "uint256",
          "name": "_price",
          "type": "uint256"
        }
      ],
      "name": "placeItemForSaleArtifact",
      "outputs": [],
      "stateMutability": "nonpayable",
      "type": "function"
    },
    {
      "inputs": [
        {
          "internalType": "uint256",
          "name": "_tokenId",
          "type": "uint256"
        }
      ],
      "name": "removeItemFromSaleArtifact",
      "outputs": [],
      "stateMutability": "nonpayable",
      "type": "function"
    },
    {
      "inputs": [
        {
          "internalType": "uint256",
          "name": "_tokenId",
          "type": "uint256"
        }
      ],
      "name": "buyItemFromMarketplaceArtifact",
      "outputs": [],
      "stateMutability": "nonpayable",
      "type": "function"
    },
    {
      "inputs": [
        {
          "internalType": "address",
          "name": "_oracle",
          "type": "address"
        },
        {
          "internalType": "string",
          "name": "_jobId",
          "type": "string"
        }
      ],
      "name": "claimRewards",
      "outputs": [],
      "stateMutability": "nonpayable",
      "type": "function"
    },
    {
      "inputs": [
        {
          "internalType": "address",
          "name": "_oracle",
          "type": "address"
        },
        {
          "internalType": "string",
          "name": "_jobId",
          "type": "string"
        }
      ],
      "name": "requestRedeemableTokens",
      "outputs": [],
      "stateMutability": "nonpayable",
      "type": "function"
    },
    {
      "inputs": [
        {
          "internalType": "bytes32",
          "name": "_requestId",
          "type": "bytes32"
        },
        {
          "internalType": "uint256",
          "name": "_tokens",
          "type": "uint256"
        }
      ],
      "name": "fulfillRedeemableTokens",
      "outputs": [],
      "stateMutability": "nonpayable",
      "type": "function"
    },
    {
      "inputs": [],
      "name": "executeClaimTokens",
      "outputs": [],
      "stateMutability": "nonpayable",
      "type": "function"
    },
    {
      "inputs": [
        {
          "internalType": "address",
          "name": "owner",
          "type": "address"
        }
      ],
      "name": "readClaimableTokens",
      "outputs": [
        {
          "internalType": "uint256",
          "name": "",
          "type": "uint256"
        }
      ],
      "stateMutability": "view",
      "type": "function",
      "constant": true
    }
  ],
  "bytecode": "0x6080604052600160055560405180606001604052806038815260200162003fbf60389139600790805190602001906200003a9291906200030e565b50680ad78ebc5ac6200000600955680ad78ebc5ac6200000600a55670de0b6b3a7640000600b556001600c55600a600d553480156200007857600080fd5b5060405162003ff738038062003ff783398181016040528101906200009e9190620003d5565b6000620000b0620002c260201b60201c565b9050806000806101000a81548173ffffffffffffffffffffffffffffffffffffffff021916908373ffffffffffffffffffffffffffffffffffffffff1602179055508073ffffffffffffffffffffffffffffffffffffffff16600073ffffffffffffffffffffffffffffffffffffffff167f8be0079c531659141344cd1fd0a4f28419497f9722a3daafe3b4186f6b6457e060405160405180910390a350620001737384b9b910527ad5c03a9ca831909e21e236ea7b06620002ca60201b60201c565b82600e60006101000a81548173ffffffffffffffffffffffffffffffffffffffff021916908373ffffffffffffffffffffffffffffffffffffffff16021790555081600f60006101000a81548173ffffffffffffffffffffffffffffffffffffffff021916908373ffffffffffffffffffffffffffffffffffffffff16021790555083601060006101000a81548173ffffffffffffffffffffffffffffffffffffffff021916908373ffffffffffffffffffffffffffffffffffffffff16021790555080601160006101000a81548173ffffffffffffffffffffffffffffffffffffffff021916908373ffffffffffffffffffffffffffffffffffffffff16021790555030601260006101000a81548173ffffffffffffffffffffffffffffffffffffffff021916908373ffffffffffffffffffffffffffffffffffffffff16021790555050505050620004f4565b600033905090565b80600360006101000a81548173ffffffffffffffffffffffffffffffffffffffff021916908373ffffffffffffffffffffffffffffffffffffffff16021790555050565b8280546200031c9062000475565b90600052602060002090601f0160209004810192826200034057600085556200038c565b82601f106200035b57805160ff19168380011785556200038c565b828001600101855582156200038c579182015b828111156200038b5782518255916020019190600101906200036e565b5b5090506200039b91906200039f565b5090565b5b80821115620003ba576000816000905550600101620003a0565b5090565b600081519050620003cf81620004da565b92915050565b60008060008060808587031215620003ec57600080fd5b6000620003fc87828801620003be565b94505060206200040f87828801620003be565b93505060406200042287828801620003be565b92505060606200043587828801620003be565b91505092959194509250565b60006200044e8262000455565b9050919050565b600073ffffffffffffffffffffffffffffffffffffffff82169050919050565b600060028204905060018216806200048e57607f821691505b60208210811415620004a557620004a4620004ab565b5b50919050565b7f4e487b7100000000000000000000000000000000000000000000000000000000600052602260045260246000fd5b620004e58162000441565b8114620004f157600080fd5b50565b613abb80620005046000396000f3fe608060405234801561001057600080fd5b50600436106101fb5760003560e01c80638182f57c1161011a578063a114f2b1116100ad578063cd2b57b11161007c578063cd2b57b114610520578063d372437a1461053c578063e9ac7bee14610558578063f2fde38b14610576578063fbc4e7a714610592576101fb565b8063a114f2b11461049a578063a79476fe146104ca578063b015846e146104e6578063c2fbbb0714610504576101fb565b80638da5cb5b116100e95780638da5cb5b1461042857806394d8125414610446578063956d2172146104625780639764665d1461047e576101fb565b80638182f57c146103a45780638384ad5c146103c05780638705fcd4146103dc5780638913cee0146103f8576101fb565b8063470ef6101161019257806362af1d6c1161016157806362af1d6c1461035857806365d1d32714610374578063715018a614610390578063769ebaff1461039a576101fb565b8063470ef610146102e657806354dbdc38146103045780635bdb8138146103205780635e7e471d1461033c576101fb565b80632ee3a2d0116101ce5780632ee3a2d0146102725780632fa348f71461028e57806341275358146102aa57806343aa2b6c146102c8576101fb565b80630703974f146102005780630abfd9781461021e5780632358cadf1461023a57806328decbd614610256575b600080fd5b6102086105ae565b60405161021591906132af565b60405180910390f35b61023860048036038101906102339190612cb7565b6105b4565b005b610254600480360381019061024f9190612cb7565b610710565b005b610270600480360381019061026b9190612d09565b6107a9565b005b61028c60048036038101906102879190612cb7565b610845565b005b6102a860048036038101906102a39190612cb7565b6108de565b005b6102b261097d565b6040516102bf919061309a565b60405180910390f35b6102d06109a3565b6040516102dd91906132af565b60405180910390f35b6102ee6109a9565b6040516102fb91906132af565b60405180910390f35b61031e60048036038101906103199190612b94565b6109af565b005b61033a60048036038101906103359190612cb7565b6109bd565b005b61035660048036038101906103519190612cb7565b610a5c565b005b610372600480360381019061036d9190612c3a565b610bb8565b005b61038e60048036038101906103899190612c76565b610d45565b005b610398610df4565b005b6103a2610f47565b005b6103be60048036038101906103b99190612d09565b61107d565b005b6103da60048036038101906103d59190612cb7565b611119565b005b6103f660048036038101906103f19190612b42565b6111b2565b005b610412600480360381019061040d9190612b42565b61128b565b60405161041f91906132af565b60405180910390f35b6104306112d4565b60405161043d919061309a565b60405180910390f35b610460600480360381019061045b9190612d09565b6112fd565b005b61047c60048036038101906104779190612cb7565b6114b8565b005b61049860048036038101906104939190612d09565b611557565b005b6104b460048036038101906104af9190612c11565b6116d7565b6040516104c1919061309a565b60405180910390f35b6104e460048036038101906104df9190612cb7565b61170a565b005b6104ee6117a9565b6040516104fb91906132af565b60405180910390f35b61051e60048036038101906105199190612cb7565b6117af565b005b61053a60048036038101906105359190612b94565b611848565b005b61055660048036038101906105519190612cb7565b611a6f565b005b610560611b0e565b60405161056d91906132af565b60405180910390f35b610590600480360381019061058b9190612b42565b611b14565b005b6105ac60048036038101906105a79190612d09565b611bb5565b005b600b5481565b601060009054906101000a900473ffffffffffffffffffffffffffffffffffffffff1673ffffffffffffffffffffffffffffffffffffffff166323b872dd6105fa611d70565b306009546040518463ffffffff1660e01b815260040161061c939291906130b5565b602060405180830381600087803b15801561063657600080fd5b505af115801561064a573d6000803e3d6000fd5b505050506040513d601f19601f8201168201806040525081019061066e9190612be8565b61067757600080fd5b600e60009054906101000a900473ffffffffffffffffffffffffffffffffffffffff1673ffffffffffffffffffffffffffffffffffffffff1663a3f7ac10826106be611d70565b6040518363ffffffff1660e01b81526004016106db9291906132ca565b600060405180830381600087803b1580156106f557600080fd5b505af1158015610709573d6000803e3d6000fd5b5050505050565b600e60009054906101000a900473ffffffffffffffffffffffffffffffffffffffff1673ffffffffffffffffffffffffffffffffffffffff16637323a7d382610757611d70565b6040518363ffffffff1660e01b81526004016107749291906132ca565b600060405180830381600087803b15801561078e57600080fd5b505af11580156107a2573d6000803e3d6000fd5b5050505050565b600e60009054906101000a900473ffffffffffffffffffffffffffffffffffffffff1673ffffffffffffffffffffffffffffffffffffffff166377320050836107f0611d70565b846040518463ffffffff1660e01b815260040161080f939291906132f3565b600060405180830381600087803b15801561082957600080fd5b505af115801561083d573d6000803e3d6000fd5b505050505050565b600f60009054906101000a900473ffffffffffffffffffffffffffffffffffffffff1673ffffffffffffffffffffffffffffffffffffffff16637323a7d38261088c611d70565b6040518363ffffffff1660e01b81526004016108a99291906132ca565b600060405180830381600087803b1580156108c357600080fd5b505af11580156108d7573d6000803e3d6000fd5b5050505050565b6108e6611d70565b73ffffffffffffffffffffffffffffffffffffffff1660008054906101000a900473ffffffffffffffffffffffffffffffffffffffff1673ffffffffffffffffffffffffffffffffffffffff1614610973576040517f08c379a000000000000000000000000000000000000000000000000000000000815260040161096a9061324f565b60405180910390fd5b80600c8190555050565b601260009054906101000a900473ffffffffffffffffffffffffffffffffffffffff1681565b600c5481565b600d5481565b6109b98282611848565b5050565b6109c5611d70565b73ffffffffffffffffffffffffffffffffffffffff1660008054906101000a900473ffffffffffffffffffffffffffffffffffffffff1673ffffffffffffffffffffffffffffffffffffffff1614610a52576040517f08c379a0000000000000000000000000000000000000000000000000000000008152600401610a499061324f565b60405180910390fd5b80600d8190555050565b601060009054906101000a900473ffffffffffffffffffffffffffffffffffffffff1673ffffffffffffffffffffffffffffffffffffffff166323b872dd610aa2611d70565b30600a546040518463ffffffff1660e01b8152600401610ac4939291906130b5565b602060405180830381600087803b158015610ade57600080fd5b505af1158015610af2573d6000803e3d6000fd5b505050506040513d601f19601f82011682018060405250810190610b169190612be8565b610b1f57600080fd5b600f60009054906101000a900473ffffffffffffffffffffffffffffffffffffffff1673ffffffffffffffffffffffffffffffffffffffff1663a3f7ac1082610b66611d70565b6040518363ffffffff1660e01b8152600401610b839291906132ca565b600060405180830381600087803b158015610b9d57600080fd5b505af1158015610bb1573d6000803e3d6000fd5b5050505050565b816006600082815260200190815260200160002060009054906101000a900473ffffffffffffffffffffffffffffffffffffffff1673ffffffffffffffffffffffffffffffffffffffff163373ffffffffffffffffffffffffffffffffffffffff1614610c5a576040517f08c379a0000000000000000000000000000000000000000000000000000000008152600401610c519061328f565b60405180910390fd5b6006600082815260200190815260200160002060006101000a81549073ffffffffffffffffffffffffffffffffffffffff0219169055807f7cc135e0cebb02c3480ae5d74d377283180a2601f8f644edf7987b009316c63a60405160405180910390a260006008600085815260200190815260200160002060009054906101000a900473ffffffffffffffffffffffffffffffffffffffff169050600083905080601360008473ffffffffffffffffffffffffffffffffffffffff1673ffffffffffffffffffffffffffffffffffffffff168152602001908152602001600020819055505050505050565b610d4d611d70565b73ffffffffffffffffffffffffffffffffffffffff1660008054906101000a900473ffffffffffffffffffffffffffffffffffffffff1673ffffffffffffffffffffffffffffffffffffffff1614610dda576040517f08c379a0000000000000000000000000000000000000000000000000000000008152600401610dd19061324f565b60405180910390fd5b8060079080519060200190610df0929190612932565b5050565b610dfc611d70565b73ffffffffffffffffffffffffffffffffffffffff1660008054906101000a900473ffffffffffffffffffffffffffffffffffffffff1673ffffffffffffffffffffffffffffffffffffffff1614610e89576040517f08c379a0000000000000000000000000000000000000000000000000000000008152600401610e809061324f565b60405180910390fd5b600073ffffffffffffffffffffffffffffffffffffffff1660008054906101000a900473ffffffffffffffffffffffffffffffffffffffff1673ffffffffffffffffffffffffffffffffffffffff167f8be0079c531659141344cd1fd0a4f28419497f9722a3daafe3b4186f6b6457e060405160405180910390a360008060006101000a81548173ffffffffffffffffffffffffffffffffffffffff021916908373ffffffffffffffffffffffffffffffffffffffff160217905550565b601060009054906101000a900473ffffffffffffffffffffffffffffffffffffffff1673ffffffffffffffffffffffffffffffffffffffff1663a9059cbb33601360003373ffffffffffffffffffffffffffffffffffffffff1673ffffffffffffffffffffffffffffffffffffffff168152602001908152602001600020546040518363ffffffff1660e01b8152600401610fe39291906130ec565b602060405180830381600087803b158015610ffd57600080fd5b505af1158015611011573d6000803e3d6000fd5b505050506040513d601f19601f820116820180604052508101906110359190612be8565b506000601360003373ffffffffffffffffffffffffffffffffffffffff1673ffffffffffffffffffffffffffffffffffffffff16815260200190815260200160002081905550565b600f60009054906101000a900473ffffffffffffffffffffffffffffffffffffffff1673ffffffffffffffffffffffffffffffffffffffff166336b92410836110c4611d70565b846040518463ffffffff1660e01b81526004016110e3939291906132f3565b600060405180830381600087803b1580156110fd57600080fd5b505af1158015611111573d6000803e3d6000fd5b505050505050565b600e60009054906101000a900473ffffffffffffffffffffffffffffffffffffffff1673ffffffffffffffffffffffffffffffffffffffff16634aaecf5482611160611d70565b6040518363ffffffff1660e01b815260040161117d9291906132ca565b600060405180830381600087803b15801561119757600080fd5b505af11580156111ab573d6000803e3d6000fd5b5050505050565b6111ba611d70565b73ffffffffffffffffffffffffffffffffffffffff1660008054906101000a900473ffffffffffffffffffffffffffffffffffffffff1673ffffffffffffffffffffffffffffffffffffffff1614611247576040517f08c379a000000000000000000000000000000000000000000000000000000000815260040161123e9061324f565b60405180910390fd5b80601260006101000a81548173ffffffffffffffffffffffffffffffffffffffff021916908373ffffffffffffffffffffffffffffffffffffffff16021790555050565b6000601360008373ffffffffffffffffffffffffffffffffffffffff1673ffffffffffffffffffffffffffffffffffffffff168152602001908152602001600020549050919050565b60008060009054906101000a900473ffffffffffffffffffffffffffffffffffffffff16905090565b611305611d70565b73ffffffffffffffffffffffffffffffffffffffff16600e60009054906101000a900473ffffffffffffffffffffffffffffffffffffffff1673ffffffffffffffffffffffffffffffffffffffff16636352211e846040518263ffffffff1660e01b815260040161137691906132af565b60206040518083038186803b15801561138e57600080fd5b505afa1580156113a2573d6000803e3d6000fd5b505050506040513d601f19601f820116820180604052508101906113c69190612b6b565b73ffffffffffffffffffffffffffffffffffffffff161461141c576040517f08c379a00000000000000000000000000000000000000000000000000000000081526004016114139061326f565b60405180910390fd5b600e60009054906101000a900473ffffffffffffffffffffffffffffffffffffffff1673ffffffffffffffffffffffffffffffffffffffff166335e4365f8383611464611d70565b6040518463ffffffff1660e01b81526004016114829392919061332a565b600060405180830381600087803b15801561149c57600080fd5b505af11580156114b0573d6000803e3d6000fd5b505050505050565b6114c0611d70565b73ffffffffffffffffffffffffffffffffffffffff1660008054906101000a900473ffffffffffffffffffffffffffffffffffffffff1673ffffffffffffffffffffffffffffffffffffffff161461154d576040517f08c379a00000000000000000000000000000000000000000000000000000000081526004016115449061324f565b60405180910390fd5b80600b8190555050565b601060009054906101000a900473ffffffffffffffffffffffffffffffffffffffff1673ffffffffffffffffffffffffffffffffffffffff166323b872dd61159d611d70565b30600b546040518463ffffffff1660e01b81526004016115bf939291906130b5565b602060405180830381600087803b1580156115d957600080fd5b505af11580156115ed573d6000803e3d6000fd5b505050506040513d601f19601f820116820180604052508101906116119190612be8565b61161a57600080fd5b601160009054906101000a900473ffffffffffffffffffffffffffffffffffffffff1673ffffffffffffffffffffffffffffffffffffffff1663c28ad2d3611660611d70565b84846040518463ffffffff1660e01b8152600401611680939291906131d8565b602060405180830381600087803b15801561169a57600080fd5b505af11580156116ae573d6000803e3d6000fd5b505050506040513d601f19601f820116820180604052508101906116d29190612ce0565b505050565b60086020528060005260406000206000915054906101000a900473ffffffffffffffffffffffffffffffffffffffff1681565b611712611d70565b73ffffffffffffffffffffffffffffffffffffffff1660008054906101000a900473ffffffffffffffffffffffffffffffffffffffff1673ffffffffffffffffffffffffffffffffffffffff161461179f576040517f08c379a00000000000000000000000000000000000000000000000000000000081526004016117969061324f565b60405180910390fd5b80600a8190555050565b600a5481565b600f60009054906101000a900473ffffffffffffffffffffffffffffffffffffffff1673ffffffffffffffffffffffffffffffffffffffff16634aaecf54826117f6611d70565b6040518363ffffffff1660e01b81526004016118139291906132ca565b600060405180830381600087803b15801561182d57600080fd5b505af1158015611841573d6000803e3d6000fd5b5050505050565b611850611d70565b73ffffffffffffffffffffffffffffffffffffffff1660008054906101000a900473ffffffffffffffffffffffffffffffffffffffff1673ffffffffffffffffffffffffffffffffffffffff16146118dd576040517f08c379a00000000000000000000000000000000000000000000000000000000081526004016118d49061324f565b60405180910390fd5b60006118f96118eb83611d78565b306362af1d6c60e01b611da2565b90506000600761190833611dd3565b604051602001611919929190613076565b60405160208183030381529060405290506119746040518060400160405280600381526020017f676574000000000000000000000000000000000000000000000000000000000081525082846120089092919063ffffffff16565b6119f36040518060400160405280600481526020017f70617468000000000000000000000000000000000000000000000000000000008152506040518060400160405280600681526020017f746f6b656e730000000000000000000000000000000000000000000000000000815250846120089092919063ffffffff16565b6000611a148584670de0b6b3a76400006001611a0f919061367a565b61203b565b9050336008600083815260200190815260200160002060006101000a81548173ffffffffffffffffffffffffffffffffffffffff021916908373ffffffffffffffffffffffffffffffffffffffff1602179055505050505050565b611a77611d70565b73ffffffffffffffffffffffffffffffffffffffff1660008054906101000a900473ffffffffffffffffffffffffffffffffffffffff1673ffffffffffffffffffffffffffffffffffffffff1614611b04576040517f08c379a0000000000000000000000000000000000000000000000000000000008152600401611afb9061324f565b60405180910390fd5b8060098190555050565b60095481565b611b1c611d70565b73ffffffffffffffffffffffffffffffffffffffff1660008054906101000a900473ffffffffffffffffffffffffffffffffffffffff1673ffffffffffffffffffffffffffffffffffffffff1614611ba9576040517f08c379a0000000000000000000000000000000000000000000000000000000008152600401611ba09061324f565b60405180910390fd5b611bb28161205b565b50565b611bbd611d70565b73ffffffffffffffffffffffffffffffffffffffff16600f60009054906101000a900473ffffffffffffffffffffffffffffffffffffffff1673ffffffffffffffffffffffffffffffffffffffff16636352211e846040518263ffffffff1660e01b8152600401611c2e91906132af565b60206040518083038186803b158015611c4657600080fd5b505afa158015611c5a573d6000803e3d6000fd5b505050506040513d601f19601f82011682018060405250810190611c7e9190612b6b565b73ffffffffffffffffffffffffffffffffffffffff1614611cd4576040517f08c379a0000000000000000000000000000000000000000000000000000000008152600401611ccb9061326f565b60405180910390fd5b600f60009054906101000a900473ffffffffffffffffffffffffffffffffffffffff1673ffffffffffffffffffffffffffffffffffffffff166335e4365f8383611d1c611d70565b6040518463ffffffff1660e01b8152600401611d3a9392919061332a565b600060405180830381600087803b158015611d5457600080fd5b505af1158015611d68573d6000803e3d6000fd5b505050505050565b600033905090565b600080829050600081511415611d94576000801b915050611d9d565b60208301519150505b919050565b611daa6129b8565b611db26129b8565b611dc985858584612188909392919063ffffffff16565b9150509392505050565b60606000602867ffffffffffffffff811115611e18577f4e487b7100000000000000000000000000000000000000000000000000000000600052604160045260246000fd5b6040519080825280601f01601f191660200182016040528015611e4a5781602001600182028036833780820191505090505b50905060005b6014811015611ffe576000816013611e68919061370f565b6008611e74919061367a565b6002611e80919061355c565b8573ffffffffffffffffffffffffffffffffffffffff16611ea191906134a7565b60f81b9050600060108260f81c611eb891906134d8565b60f81b905060008160f81c6010611ecf91906136d4565b8360f81c611edd9190613743565b60f81b9050611eeb82612238565b85856002611ef9919061367a565b81518110611f30577f4e487b7100000000000000000000000000000000000000000000000000000000600052603260045260246000fd5b60200101907effffffffffffffffffffffffffffffffffffffffffffffffffffffffffffff1916908160001a905350611f6881612238565b856001866002611f78919061367a565b611f82919061341a565b81518110611fb9577f4e487b7100000000000000000000000000000000000000000000000000000000600052603260045260246000fd5b60200101907effffffffffffffffffffffffffffffffffffffffffffffffffffffffffffff1916908160001a9053505050508080611ff69061389a565b915050611e50565b5080915050919050565b61201f82846080015161227e90919063ffffffff16565b61203681846080015161227e90919063ffffffff16565b505050565b60006120528484846001634042994660e01b6122a3565b90509392505050565b600073ffffffffffffffffffffffffffffffffffffffff168173ffffffffffffffffffffffffffffffffffffffff1614156120cb576040517f08c379a00000000000000000000000000000000000000000000000000000000081526004016120c29061320f565b60405180910390fd5b8073ffffffffffffffffffffffffffffffffffffffff1660008054906101000a900473ffffffffffffffffffffffffffffffffffffffff1673ffffffffffffffffffffffffffffffffffffffff167f8be0079c531659141344cd1fd0a4f28419497f9722a3daafe3b4186f6b6457e060405160405180910390a3806000806101000a81548173ffffffffffffffffffffffffffffffffffffffff021916908373ffffffffffffffffffffffffffffffffffffffff16021790555050565b6121906129b8565b6121a0856080015161010061250b565b508385600001818152505082856020019073ffffffffffffffffffffffffffffffffffffffff16908173ffffffffffffffffffffffffffffffffffffffff16815250508185604001907bffffffffffffffffffffffffffffffffffffffffffffffffffffffff191690817bffffffffffffffffffffffffffffffffffffffffffffffffffffffff191681525050849050949350505050565b6000600a8260f81c60ff1610156122635760308260f81c6122599190613470565b60f81b9050612279565b60578260f81c6122739190613470565b60f81b90505b919050565b61228b8260038351612575565b61229e81836126ba90919063ffffffff16565b505050565b6000306005546040516020016122ba92919061304a565b604051602081830303815290604052805190602001209050600554856060018181525050856006600083815260200190815260200160002060006101000a81548173ffffffffffffffffffffffffffffffffffffffff021916908373ffffffffffffffffffffffffffffffffffffffff160217905550807fb5e6e01e79f91267dc17b4e6314d5d4d03593d2ceee0fbb452b750bd70ea5af960405160405180910390a2600082600080886000015189602001518a604001518b606001518a8d6080015160000151604051602401612398989796959493929190613115565b604051602081830303815290604052907bffffffffffffffffffffffffffffffffffffffffffffffffffffffff19166020820180517bffffffffffffffffffffffffffffffffffffffffffffffffffffffff83818316178352505050509050600360009054906101000a900473ffffffffffffffffffffffffffffffffffffffff1673ffffffffffffffffffffffffffffffffffffffff16634000aea08887846040518463ffffffff1660e01b81526004016124569392919061319a565b602060405180830381600087803b15801561247057600080fd5b505af1158015612484573d6000803e3d6000fd5b505050506040513d601f19601f820116820180604052508101906124a89190612be8565b6124e7576040517f08c379a00000000000000000000000000000000000000000000000000000000081526004016124de9061322f565b60405180910390fd5b6001600560008282546124fa919061341a565b925050819055505095945050505050565b612513612a25565b60006020836125229190613911565b1461254e576020826125349190613911565b6020612540919061370f565b8261254b919061341a565b91505b81836020018181525050604051808452600081528281016020016040525082905092915050565b601781116125a25761259c8160058460ff16901b60ff1617846126dc90919063ffffffff16565b506126b5565b60ff81116125e4576125c7601860058460ff16901b17846126dc90919063ffffffff16565b506125de816001856126fc9092919063ffffffff16565b506126b4565b61ffff81116126275761260a601960058460ff16901b17846126dc90919063ffffffff16565b50612621816002856126fc9092919063ffffffff16565b506126b3565b63ffffffff811161266c5761264f601a60058460ff16901b17846126dc90919063ffffffff16565b50612666816004856126fc9092919063ffffffff16565b506126b2565b67ffffffffffffffff81116126b157612698601b60058460ff16901b17846126dc90919063ffffffff16565b506126af816008856126fc9092919063ffffffff16565b505b5b5b5b5b505050565b6126c2612a25565b6126d48384600001515184855161271e565b905092915050565b6126e4612a25565b6126f4838460000151518461280d565b905092915050565b612704612a25565b612715848560000151518585612864565b90509392505050565b612726612a25565b825182111561273457600080fd5b84602001518285612745919061341a565b111561277a5761277985600261276a88602001518887612765919061341a565b6128f2565b612774919061367a565b61290e565b5b6000808651805187602083010193508088870111156127995787860182525b60208701925050505b602084106127e057805182526020826127bb919061341a565b91506020816127ca919061341a565b90506020846127d9919061370f565b93506127a2565b60006001856020036101000a03905080198251168184511681811785525050508692505050949350505050565b612815612a25565b8360200151831061283b5761283a8460028660200151612835919061367a565b61290e565b5b8351805160208583010184815381861415612857576001820183525b5050508390509392505050565b61286c612a25565b8460200151848361287d919061341a565b11156128a5576128a48560028685612895919061341a565b61289f919061367a565b61290e565b5b60006001836101006128b7919061355c565b6128c1919061370f565b905085518386820101858319825116178152815185880111156128e45784870182525b505085915050949350505050565b60008183111561290457829050612908565b8190505b92915050565b600082600001519050612921838361250b565b5061292c83826126ba565b50505050565b82805461293e90613868565b90600052602060002090601f01602090048101928261296057600085556129a7565b82601f1061297957805160ff19168380011785556129a7565b828001600101855582156129a7579182015b828111156129a657825182559160200191906001019061298b565b5b5090506129b49190612a3f565b5090565b6040518060a0016040528060008019168152602001600073ffffffffffffffffffffffffffffffffffffffff16815260200160007bffffffffffffffffffffffffffffffffffffffffffffffffffffffff1916815260200160008152602001612a1f612a25565b81525090565b604051806040016040528060608152602001600081525090565b5b80821115612a58576000816000905550600101612a40565b5090565b6000612a6f612a6a84613392565b613361565b905082815260208101848484011115612a8757600080fd5b612a92848285613826565b509392505050565b600081359050612aa981613a29565b92915050565b600081519050612abe81613a29565b92915050565b600081519050612ad381613a40565b92915050565b600081359050612ae881613a57565b92915050565b600082601f830112612aff57600080fd5b8135612b0f848260208601612a5c565b91505092915050565b600081359050612b2781613a6e565b92915050565b600081519050612b3c81613a6e565b92915050565b600060208284031215612b5457600080fd5b6000612b6284828501612a9a565b91505092915050565b600060208284031215612b7d57600080fd5b6000612b8b84828501612aaf565b91505092915050565b60008060408385031215612ba757600080fd5b6000612bb585828601612a9a565b925050602083013567ffffffffffffffff811115612bd257600080fd5b612bde85828601612aee565b9150509250929050565b600060208284031215612bfa57600080fd5b6000612c0884828501612ac4565b91505092915050565b600060208284031215612c2357600080fd5b6000612c3184828501612ad9565b91505092915050565b60008060408385031215612c4d57600080fd5b6000612c5b85828601612ad9565b9250506020612c6c85828601612b18565b9150509250929050565b600060208284031215612c8857600080fd5b600082013567ffffffffffffffff811115612ca257600080fd5b612cae84828501612aee565b91505092915050565b600060208284031215612cc957600080fd5b6000612cd784828501612b18565b91505092915050565b600060208284031215612cf257600080fd5b6000612d0084828501612b2d565b91505092915050565b60008060408385031215612d1c57600080fd5b6000612d2a85828601612b18565b9250506020612d3b85828601612b18565b9150509250929050565b612d4e81613777565b82525050565b612d5d81613795565b82525050565b612d6c8161379f565b82525050565b6000612d7d826133d7565b612d8781856133ed565b9350612d97818560208601613835565b612da0816139fe565b840191505092915050565b612dbc612db782613802565b6138e3565b82525050565b6000612dcd826133e2565b612dd7818561340f565b9350612de7818560208601613835565b80840191505092915050565b60008154612e0081613868565b612e0a818661340f565b94506001821660008114612e255760018114612e3657612e69565b60ff19831686528186019350612e69565b612e3f856133c2565b60005b83811015612e6157815481890152600182019150602081019050612e42565b838801955050505b50505092915050565b6000612e7f6026836133fe565b91507f4f776e61626c653a206e6577206f776e657220697320746865207a65726f206160008301527f64647265737300000000000000000000000000000000000000000000000000006020830152604082019050919050565b6000612ee56023836133fe565b91507f756e61626c6520746f207472616e73666572416e6443616c6c20746f206f726160008301527f636c6500000000000000000000000000000000000000000000000000000000006020830152604082019050919050565b6000612f4b6020836133fe565b91507f4f776e61626c653a2063616c6c6572206973206e6f7420746865206f776e65726000830152602082019050919050565b6000612f8b6009836133fe565b91507f6e6f74204f776e657200000000000000000000000000000000000000000000006000830152602082019050919050565b6000612fcb6028836133fe565b91507f536f75726365206d75737420626520746865206f7261636c65206f662074686560008301527f20726571756573740000000000000000000000000000000000000000000000006020830152604082019050919050565b61302d816137eb565b82525050565b61304461303f826137eb565b613907565b82525050565b60006130568285612dab565b6014820191506130668284613033565b6020820191508190509392505050565b60006130828285612df3565b915061308e8284612dc2565b91508190509392505050565b60006020820190506130af6000830184612d45565b92915050565b60006060820190506130ca6000830186612d45565b6130d76020830185612d45565b6130e46040830184613024565b949350505050565b60006040820190506131016000830185612d45565b61310e6020830184613024565b9392505050565b60006101008201905061312b600083018b612d45565b613138602083018a613024565b6131456040830189612d54565b6131526060830188612d45565b61315f6080830187612d63565b61316c60a0830186613024565b61317960c0830185613024565b81810360e083015261318b8184612d72565b90509998505050505050505050565b60006060820190506131af6000830186612d45565b6131bc6020830185613024565b81810360408301526131ce8184612d72565b9050949350505050565b60006060820190506131ed6000830186612d45565b6131fa6020830185613024565b6132076040830184613024565b949350505050565b6000602082019050818103600083015261322881612e72565b9050919050565b6000602082019050818103600083015261324881612ed8565b9050919050565b6000602082019050818103600083015261326881612f3e565b9050919050565b6000602082019050818103600083015261328881612f7e565b9050919050565b600060208201905081810360008301526132a881612fbe565b9050919050565b60006020820190506132c46000830184613024565b92915050565b60006040820190506132df6000830185613024565b6132ec6020830184612d45565b9392505050565b60006060820190506133086000830186613024565b6133156020830185612d45565b6133226040830184613024565b949350505050565b600060608201905061333f6000830186613024565b61334c6020830185613024565b6133596040830184612d45565b949350505050565b6000604051905081810181811067ffffffffffffffff82111715613388576133876139cf565b5b8060405250919050565b600067ffffffffffffffff8211156133ad576133ac6139cf565b5b601f19601f8301169050602081019050919050565b60008190508160005260206000209050919050565b600081519050919050565b600081519050919050565b600082825260208201905092915050565b600082825260208201905092915050565b600081905092915050565b6000613425826137eb565b9150613430836137eb565b9250827fffffffffffffffffffffffffffffffffffffffffffffffffffffffffffffffff0382111561346557613464613942565b5b828201905092915050565b600061347b826137f5565b9150613486836137f5565b92508260ff0382111561349c5761349b613942565b5b828201905092915050565b60006134b2826137eb565b91506134bd836137eb565b9250826134cd576134cc613971565b5b828204905092915050565b60006134e3826137f5565b91506134ee836137f5565b9250826134fe576134fd613971565b5b828204905092915050565b6000808291508390505b60018511156135535780860481111561352f5761352e613942565b5b600185161561353e5780820291505b808102905061354c85613a1c565b9450613513565b94509492505050565b6000613567826137eb565b9150613572836137eb565b925061359f7fffffffffffffffffffffffffffffffffffffffffffffffffffffffffffffffff84846135a7565b905092915050565b6000826135b75760019050613673565b816135c55760009050613673565b81600181146135db57600281146135e557613614565b6001915050613673565b60ff8411156135f7576135f6613942565b5b8360020a91508482111561360e5761360d613942565b5b50613673565b5060208310610133831016604e8410600b84101617156136495782820a90508381111561364457613643613942565b5b613673565b6136568484846001613509565b9250905081840481111561366d5761366c613942565b5b81810290505b9392505050565b6000613685826137eb565b9150613690836137eb565b9250817fffffffffffffffffffffffffffffffffffffffffffffffffffffffffffffffff04831182151516156136c9576136c8613942565b5b828202905092915050565b60006136df826137f5565b91506136ea836137f5565b92508160ff048311821515161561370457613703613942565b5b828202905092915050565b600061371a826137eb565b9150613725836137eb565b92508282101561373857613737613942565b5b828203905092915050565b600061374e826137f5565b9150613759836137f5565b92508282101561376c5761376b613942565b5b828203905092915050565b6000613782826137cb565b9050919050565b60008115159050919050565b6000819050919050565b60007fffffffff0000000000000000000000000000000000000000000000000000000082169050919050565b600073ffffffffffffffffffffffffffffffffffffffff82169050919050565b6000819050919050565b600060ff82169050919050565b600061380d82613814565b9050919050565b600061381f826137cb565b9050919050565b82818337600083830152505050565b60005b83811015613853578082015181840152602081019050613838565b83811115613862576000848401525b50505050565b6000600282049050600182168061388057607f821691505b60208210811415613894576138936139a0565b5b50919050565b60006138a5826137eb565b91507fffffffffffffffffffffffffffffffffffffffffffffffffffffffffffffffff8214156138d8576138d7613942565b5b600182019050919050565b60006138ee826138f5565b9050919050565b600061390082613a0f565b9050919050565b6000819050919050565b600061391c826137eb565b9150613927836137eb565b92508261393757613936613971565b5b828206905092915050565b7f4e487b7100000000000000000000000000000000000000000000000000000000600052601160045260246000fd5b7f4e487b7100000000000000000000000000000000000000000000000000000000600052601260045260246000fd5b7f4e487b7100000000000000000000000000000000000000000000000000000000600052602260045260246000fd5b7f4e487b7100000000000000000000000000000000000000000000000000000000600052604160045260246000fd5b6000601f19601f8301169050919050565b60008160601b9050919050565b60008160011c9050919050565b613a3281613777565b8114613a3d57600080fd5b50565b613a4981613789565b8114613a5457600080fd5b50565b613a6081613795565b8114613a6b57600080fd5b50565b613a77816137eb565b8114613a8257600080fd5b5056fea2646970667358221220bf5a6fb2356ce17d95d7e24bd80cc416aaf2b03abd86e94bcbdc513ba9978ad464736f6c6343000800003368747470733a2f2f666c756666792d686f756e642d33392e6c6f63612e6c742f6170692f706c61796572732f636c61696d546f6b656e732f",
  "immutableReferences": {},
  "source": "// SPDX-License-Identifier: UNLICENSED\r\npragma solidity ^0.8.0;\r\n\r\nimport \"./Utils.sol\";\r\nimport \"./IHeroPrimeNFT.sol\";\r\nimport \"./IHeroPrimeArtifactNFT.sol\";\r\nimport \"./IERC20.sol\";\r\nimport \"./IHeroPrimeEngine.sol\";\r\n\r\nimport \"@chainlink/contracts/src/v0.8/ChainlinkClient.sol\";\r\nimport \"@chainlink/contracts/src/v0.8/ConfirmedOwner.sol\";\r\n\r\ncontract HeroPrimeManager is Context, Ownable, ChainlinkClient {\r\n  using Chainlink for Chainlink.Request;\r\n    using SafeMath for uint256;\r\n\r\n    string private URL = \"https://fluffy-hound-39.loca.lt/api/players/claimTokens/\";\r\n    // address public oracleid = 0xa6B3C61fAeB749169FAF6B06D49E151969B508a1;\r\n    // string public jobid = \"209e4e4ede6f4b0faa41c3f44d176e70\";\r\n    mapping (bytes32 => address) public requestMapping;\r\n\r\n\r\n    uint public _rollHeroPrice = 200 * 10**18;\r\n    uint public _rollArtifactPrice = 200 * 10**18;\r\n    uint public _attackFee = 1 * 10**18;\r\n    uint public feeMarketRate = 1;\r\n    uint public divPercent = 10;\r\n\r\n\r\n    uint256 constant private ORACLE_PAYMENT = 1 * LINK_DIVISIBILITY;\r\n\r\n    IHeroPrimeNFT internal heroPrimeNFT;\r\n    IHeroPrimeArtifactNFT internal heroPrimeArtifactNFT;\r\n    IERC20 internal heroPrimeToken;\r\n    IHeroPrimeEngine internal heroPrimeEngine;\r\n\r\n    address public feeAddress;\r\n\r\n    mapping(address => uint256) internal claimableTokens;\r\n\r\n\r\n    constructor(address token, address nft, address artifactnft, address engine){\r\n        setChainlinkToken(0x84b9B910527Ad5C03A9Ca831909E21e236EA7b06);\r\n        heroPrimeNFT = IHeroPrimeNFT(nft);\r\n        heroPrimeArtifactNFT = IHeroPrimeArtifactNFT(artifactnft);\r\n        heroPrimeToken = IERC20(token);\r\n        heroPrimeEngine = IHeroPrimeEngine(engine);\r\n        feeAddress = address(this);\r\n    }\r\n\r\n    function setClaimURL(string memory _url) external onlyOwner{\r\n        URL = _url;\r\n    }\r\n\r\n    function setAttackFee(uint _fee) external onlyOwner{\r\n        _attackFee = _fee;\r\n    }\r\n\r\n    function setRollHeroPrice(uint _fee) external onlyOwner{\r\n        _rollHeroPrice = _fee;\r\n    }\r\n\r\n    function setRollArtifactPrice(uint _fee) external onlyOwner{\r\n        _rollArtifactPrice = _fee;\r\n    }\r\n    function setFeeAddress(address _feeaddress) external onlyOwner{\r\n        feeAddress = _feeaddress;\r\n    }\r\n    function setFeeMarketRate(uint newRate) external onlyOwner{\r\n        feeMarketRate = newRate;\r\n    }\r\n    function setDivPercent(uint _divPercent) external onlyOwner{\r\n        divPercent = _divPercent;\r\n    }\r\n    // battle external function\r\n\r\n    function attackMonster(uint _tokenId, uint _monster) external {\r\n        require(heroPrimeToken.transferFrom(_msgSender(), address(this), _attackFee));\r\n        heroPrimeEngine.battle(_msgSender(), _tokenId, _monster);\r\n    }\r\n    \r\n    // rollHeroPrice\r\n    function buyHeroRolls(uint amount) external {\r\n        require(heroPrimeToken.transferFrom(_msgSender(), address(this), _rollHeroPrice));\r\n        heroPrimeNFT.incrementRolls(amount, _msgSender());\r\n    }\r\n\r\n    //rollForHero\r\n    function rollForHero(uint256 amount, uint elementindex) external {\r\n        heroPrimeNFT.rollHero(amount, _msgSender(), elementindex);\r\n    }\r\n    \r\n    // rollHeroPrice\r\n    function buyArtifactRolls(uint amount) external {\r\n        require(heroPrimeToken.transferFrom(_msgSender(), address(this), _rollArtifactPrice));\r\n        heroPrimeArtifactNFT.incrementRolls(amount, _msgSender());\r\n    }\r\n\r\n    //rollForHero\r\n    function rollForArtifact(uint256 amount, uint elementindex) external {\r\n        heroPrimeArtifactNFT.rollArtifact(amount, _msgSender(), elementindex);\r\n    }\r\n\r\n    // attackFee\r\n    // enterDungeonFee\r\n\r\n    // BuyHeroPrime\r\n\r\n    // marketplace functions\r\n    function placeItemForSale(uint256 _tokenId, uint256 _price) external {\r\n        require(heroPrimeNFT.ownerOf(_tokenId) == _msgSender(), \"not Owner\");\r\n        heroPrimeNFT.placeOrder(_tokenId, _price, _msgSender());\r\n    }\r\n    function removeItemFromSale(uint256 _tokenId) external {\r\n        heroPrimeNFT.cancelOrder(_tokenId, _msgSender());\r\n    }\r\n    function buyItemFromMarketplace(uint256 _tokenId) external {\r\n        heroPrimeNFT.fillOrder(_tokenId, _msgSender());\r\n    }\r\n    // artifact marketplace\r\n    function placeItemForSaleArtifact(uint256 _tokenId, uint256 _price) external {\r\n        require(heroPrimeArtifactNFT.ownerOf(_tokenId) == _msgSender(), \"not Owner\");\r\n        heroPrimeArtifactNFT.placeOrder(_tokenId, _price, _msgSender());\r\n    }\r\n    function removeItemFromSaleArtifact(uint256 _tokenId) external {\r\n        heroPrimeArtifactNFT.cancelOrder(_tokenId, _msgSender());\r\n    }\r\n    function buyItemFromMarketplaceArtifact(uint256 _tokenId) external {\r\n        heroPrimeArtifactNFT.fillOrder(_tokenId, _msgSender());\r\n    }\r\n\r\n    // Claim Token Reward\r\n\r\n    function claimRewards(address _oracle, string memory _jobId) external {\r\n        requestRedeemableTokens(_oracle, _jobId);\r\n    }\r\n\r\n  \r\n  function requestRedeemableTokens(address _oracle, string memory _jobId)\r\n    public\r\n    onlyOwner\r\n  {\r\n    Chainlink.Request memory req = buildChainlinkRequest(stringToBytes32(_jobId), address(this), this.fulfillRedeemableTokens.selector);\r\n    string memory requestUrl = string(abi.encodePacked(URL, toAsciiString(msg.sender)));\r\n    req.add(\"get\", requestUrl);\r\n    req.add(\"path\", \"tokens\");\r\n    bytes32 requestId = sendChainlinkRequestTo(_oracle, req, ORACLE_PAYMENT);\r\n    \r\n    requestMapping[requestId] = msg.sender;\r\n  }\r\n\r\n\r\n  function fulfillRedeemableTokens(bytes32 _requestId, uint _tokens)\r\n    public\r\n    recordChainlinkFulfillment(_requestId)\r\n  {\r\n    address _targetaddress = requestMapping[_requestId];\r\n    uint tokens = _tokens;\r\n    claimableTokens[_targetaddress] = tokens;\r\n\r\n  }\r\n\r\n  function executeClaimTokens() external {\r\n    heroPrimeToken.transfer(msg.sender, claimableTokens[msg.sender]);\r\n    // heroPrimeToken.transferFrom(address(this), msg.sender, claimableTokens[msg.sender]);\r\n\r\n    claimableTokens[msg.sender] = 0;\r\n  }\r\n\r\n  function readClaimableTokens(address owner) public view returns(uint){\r\n    return claimableTokens[owner];\r\n  }\r\n\r\n    function toAsciiString(address x) internal pure returns (string memory) {\r\n    bytes memory s = new bytes(40);\r\n    for (uint i = 0; i < 20; i++) {\r\n        bytes1 b = bytes1(uint8(uint(uint160(x)) / (2**(8*(19 - i)))));\r\n        bytes1 hi = bytes1(uint8(b) / 16);\r\n        bytes1 lo = bytes1(uint8(b) - 16 * uint8(hi));\r\n        s[2*i] = char(hi);\r\n        s[2*i+1] = char(lo);            \r\n    }\r\n    return string(s);\r\n    }\r\n    \r\n    function char(bytes1 b) internal pure returns (bytes1 c) {\r\n        if (uint8(b) < 10) return bytes1(uint8(b) + 0x30);\r\n        else return bytes1(uint8(b) + 0x57);\r\n    }\r\n  function stringToBytes32(string memory source) private pure returns (bytes32 result) {\r\n    bytes memory tempEmptyStringTest = bytes(source);\r\n    if (tempEmptyStringTest.length == 0) {\r\n      return 0x0;\r\n    }\r\n\r\n    assembly { // solhint-disable-line no-inline-assembly\r\n      result := mload(add(source, 32))\r\n    }\r\n  }\r\n}",
  "sourcePath": "C:\\workspace\\Personal\\truffle\\HeroPrime\\contracts\\HeroPrimeManager.sol",
  "compiler": {
    "name": "solc",
    "version": "0.8.0+commit.c7dfd78e.Emscripten.clang"
  },
  "schemaVersion": "3.4.3",
  "updatedAt": "2021-10-09T16:52:29.370Z",
  "networkType": "ethereum",
  "devdoc": {
    "kind": "dev",
    "methods": {
      "owner()": {
        "details": "Returns the address of the current owner."
      },
      "renounceOwnership()": {
        "details": "Leaves the contract without owner. It will not be possible to call `onlyOwner` functions anymore. Can only be called by the current owner. NOTE: Renouncing ownership will leave the contract without an owner, thereby removing any functionality that is only available to the owner."
      },
      "transferOwnership(address)": {
        "details": "Transfers ownership of the contract to a new account (`newOwner`). Can only be called by the current owner."
      }
    },
    "version": 1
  },
  "userdoc": {
    "kind": "user",
    "methods": {},
    "version": 1
  }
}