{
  "contractName": "HeroPrimeNFT",
  "abi": [
    {
      "inputs": [
        {
          "internalType": "string",
          "name": "_name",
          "type": "string"
        },
        {
          "internalType": "string",
          "name": "_symbol",
          "type": "string"
        },
        {
          "internalType": "address",
          "name": "_heroprimeERC20",
          "type": "address"
        }
      ],
      "stateMutability": "nonpayable",
      "type": "constructor"
    },
    {
      "anonymous": false,
      "inputs": [
        {
          "indexed": true,
          "internalType": "address",
          "name": "owner",
          "type": "address"
        },
        {
          "indexed": true,
          "internalType": "address",
          "name": "approved",
          "type": "address"
        },
        {
          "indexed": true,
          "internalType": "uint256",
          "name": "tokenId",
          "type": "uint256"
        }
      ],
      "name": "Approval",
      "type": "event"
    },
    {
      "anonymous": false,
      "inputs": [
        {
          "indexed": true,
          "internalType": "address",
          "name": "owner",
          "type": "address"
        },
        {
          "indexed": true,
          "internalType": "address",
          "name": "operator",
          "type": "address"
        },
        {
          "indexed": false,
          "internalType": "bool",
          "name": "approved",
          "type": "bool"
        }
      ],
      "name": "ApprovalForAll",
      "type": "event"
    },
    {
      "anonymous": false,
      "inputs": [
        {
          "indexed": true,
          "internalType": "uint256",
          "name": "tokenId",
          "type": "uint256"
        },
        {
          "indexed": false,
          "internalType": "address",
          "name": "seller",
          "type": "address"
        }
      ],
      "name": "CancelOrder",
      "type": "event"
    },
    {
      "anonymous": false,
      "inputs": [
        {
          "indexed": true,
          "internalType": "uint256",
          "name": "tokenId",
          "type": "uint256"
        },
        {
          "indexed": false,
          "internalType": "uint256",
          "name": "exp",
          "type": "uint256"
        }
      ],
      "name": "Exp",
      "type": "event"
    },
    {
      "anonymous": false,
      "inputs": [
        {
          "indexed": true,
          "internalType": "uint256",
          "name": "tokenId",
          "type": "uint256"
        },
        {
          "indexed": false,
          "internalType": "address",
          "name": "seller",
          "type": "address"
        }
      ],
      "name": "FillOrder",
      "type": "event"
    },
    {
      "anonymous": false,
      "inputs": [
        {
          "indexed": true,
          "internalType": "address",
          "name": "previousOwner",
          "type": "address"
        },
        {
          "indexed": true,
          "internalType": "address",
          "name": "newOwner",
          "type": "address"
        }
      ],
      "name": "OwnershipTransferred",
      "type": "event"
    },
    {
      "anonymous": false,
      "inputs": [
        {
          "indexed": true,
          "internalType": "uint256",
          "name": "tokenId",
          "type": "uint256"
        },
        {
          "indexed": false,
          "internalType": "address",
          "name": "seller",
          "type": "address"
        },
        {
          "indexed": false,
          "internalType": "uint256",
          "name": "price",
          "type": "uint256"
        }
      ],
      "name": "PlaceOrder",
      "type": "event"
    },
    {
      "anonymous": false,
      "inputs": [
        {
          "indexed": true,
          "internalType": "address",
          "name": "from",
          "type": "address"
        },
        {
          "indexed": true,
          "internalType": "address",
          "name": "to",
          "type": "address"
        },
        {
          "indexed": true,
          "internalType": "uint256",
          "name": "tokenId",
          "type": "uint256"
        }
      ],
      "name": "Transfer",
      "type": "event"
    },
    {
      "anonymous": false,
      "inputs": [
        {
          "indexed": true,
          "internalType": "uint256",
          "name": "tokenId",
          "type": "uint256"
        },
        {
          "indexed": false,
          "internalType": "address",
          "name": "buyer",
          "type": "address"
        }
      ],
      "name": "rolledHero",
      "type": "event"
    },
    {
      "inputs": [
        {
          "internalType": "address",
          "name": "to",
          "type": "address"
        },
        {
          "internalType": "uint256",
          "name": "tokenId",
          "type": "uint256"
        }
      ],
      "name": "approve",
      "outputs": [],
      "stateMutability": "nonpayable",
      "type": "function"
    },
    {
      "inputs": [
        {
          "internalType": "address",
          "name": "owner",
          "type": "address"
        }
      ],
      "name": "balanceOf",
      "outputs": [
        {
          "internalType": "uint256",
          "name": "",
          "type": "uint256"
        }
      ],
      "stateMutability": "view",
      "type": "function",
      "constant": true
    },
    {
      "inputs": [],
      "name": "baseURI",
      "outputs": [
        {
          "internalType": "string",
          "name": "",
          "type": "string"
        }
      ],
      "stateMutability": "view",
      "type": "function",
      "constant": true
    },
    {
      "inputs": [
        {
          "internalType": "uint256",
          "name": "tokenId",
          "type": "uint256"
        }
      ],
      "name": "getApproved",
      "outputs": [
        {
          "internalType": "address",
          "name": "",
          "type": "address"
        }
      ],
      "stateMutability": "view",
      "type": "function",
      "constant": true
    },
    {
      "inputs": [
        {
          "internalType": "address",
          "name": "owner",
          "type": "address"
        }
      ],
      "name": "getOwnerTokens",
      "outputs": [
        {
          "internalType": "uint256[]",
          "name": "",
          "type": "uint256[]"
        }
      ],
      "stateMutability": "nonpayable",
      "type": "function"
    },
    {
      "inputs": [],
      "name": "heroPrimeERC20",
      "outputs": [
        {
          "internalType": "contract IERC20",
          "name": "",
          "type": "address"
        }
      ],
      "stateMutability": "view",
      "type": "function",
      "constant": true
    },
    {
      "inputs": [
        {
          "internalType": "address",
          "name": "owner",
          "type": "address"
        },
        {
          "internalType": "address",
          "name": "operator",
          "type": "address"
        }
      ],
      "name": "isApprovedForAll",
      "outputs": [
        {
          "internalType": "bool",
          "name": "",
          "type": "bool"
        }
      ],
      "stateMutability": "view",
      "type": "function",
      "constant": true
    },
    {
      "inputs": [],
      "name": "latestTokenId",
      "outputs": [
        {
          "internalType": "uint256",
          "name": "",
          "type": "uint256"
        }
      ],
      "stateMutability": "view",
      "type": "function",
      "constant": true
    },
    {
      "inputs": [],
      "name": "manager",
      "outputs": [
        {
          "internalType": "contract IHeroPrimeManager",
          "name": "",
          "type": "address"
        }
      ],
      "stateMutability": "view",
      "type": "function",
      "constant": true
    },
    {
      "inputs": [],
      "name": "name",
      "outputs": [
        {
          "internalType": "string",
          "name": "",
          "type": "string"
        }
      ],
      "stateMutability": "view",
      "type": "function",
      "constant": true
    },
    {
      "inputs": [],
      "name": "owner",
      "outputs": [
        {
          "internalType": "address",
          "name": "",
          "type": "address"
        }
      ],
      "stateMutability": "view",
      "type": "function",
      "constant": true
    },
    {
      "inputs": [
        {
          "internalType": "uint256",
          "name": "tokenId",
          "type": "uint256"
        }
      ],
      "name": "ownerOf",
      "outputs": [
        {
          "internalType": "address",
          "name": "",
          "type": "address"
        }
      ],
      "stateMutability": "view",
      "type": "function",
      "constant": true
    },
    {
      "inputs": [],
      "name": "renounceOwnership",
      "outputs": [],
      "stateMutability": "nonpayable",
      "type": "function"
    },
    {
      "inputs": [
        {
          "internalType": "address",
          "name": "from",
          "type": "address"
        },
        {
          "internalType": "address",
          "name": "to",
          "type": "address"
        },
        {
          "internalType": "uint256",
          "name": "tokenId",
          "type": "uint256"
        }
      ],
      "name": "safeTransferFrom",
      "outputs": [],
      "stateMutability": "nonpayable",
      "type": "function"
    },
    {
      "inputs": [
        {
          "internalType": "address",
          "name": "from",
          "type": "address"
        },
        {
          "internalType": "address",
          "name": "to",
          "type": "address"
        },
        {
          "internalType": "uint256",
          "name": "tokenId",
          "type": "uint256"
        },
        {
          "internalType": "bytes",
          "name": "_data",
          "type": "bytes"
        }
      ],
      "name": "safeTransferFrom",
      "outputs": [],
      "stateMutability": "nonpayable",
      "type": "function"
    },
    {
      "inputs": [
        {
          "internalType": "address",
          "name": "operator",
          "type": "address"
        },
        {
          "internalType": "bool",
          "name": "approved",
          "type": "bool"
        }
      ],
      "name": "setApprovalForAll",
      "outputs": [],
      "stateMutability": "nonpayable",
      "type": "function"
    },
    {
      "inputs": [],
      "name": "symbol",
      "outputs": [
        {
          "internalType": "string",
          "name": "",
          "type": "string"
        }
      ],
      "stateMutability": "view",
      "type": "function",
      "constant": true
    },
    {
      "inputs": [
        {
          "internalType": "uint256",
          "name": "index",
          "type": "uint256"
        }
      ],
      "name": "tokenByIndex",
      "outputs": [
        {
          "internalType": "uint256",
          "name": "",
          "type": "uint256"
        }
      ],
      "stateMutability": "view",
      "type": "function",
      "constant": true
    },
    {
      "inputs": [
        {
          "internalType": "uint256",
          "name": "tokenId",
          "type": "uint256"
        }
      ],
      "name": "tokenURI",
      "outputs": [
        {
          "internalType": "string",
          "name": "",
          "type": "string"
        }
      ],
      "stateMutability": "view",
      "type": "function",
      "constant": true
    },
    {
      "inputs": [],
      "name": "totalSupply",
      "outputs": [
        {
          "internalType": "uint256",
          "name": "",
          "type": "uint256"
        }
      ],
      "stateMutability": "view",
      "type": "function",
      "constant": true
    },
    {
      "inputs": [
        {
          "internalType": "address",
          "name": "from",
          "type": "address"
        },
        {
          "internalType": "address",
          "name": "to",
          "type": "address"
        },
        {
          "internalType": "uint256",
          "name": "tokenId",
          "type": "uint256"
        }
      ],
      "name": "transferFrom",
      "outputs": [],
      "stateMutability": "nonpayable",
      "type": "function"
    },
    {
      "inputs": [
        {
          "internalType": "address",
          "name": "newOwner",
          "type": "address"
        }
      ],
      "name": "transferOwnership",
      "outputs": [],
      "stateMutability": "nonpayable",
      "type": "function"
    },
    {
      "inputs": [
        {
          "internalType": "address",
          "name": "_manager",
          "type": "address"
        }
      ],
      "name": "setManager",
      "outputs": [],
      "stateMutability": "nonpayable",
      "type": "function"
    },
    {
      "inputs": [
        {
          "internalType": "uint256",
          "name": "_tokenId",
          "type": "uint256"
        }
      ],
      "name": "getHeroPrime",
      "outputs": [
        {
          "components": [
            {
              "internalType": "uint256",
              "name": "id",
              "type": "uint256"
            },
            {
              "internalType": "uint256",
              "name": "generation",
              "type": "uint256"
            },
            {
              "internalType": "enum HeroPrimeNFT.Element",
              "name": "element",
              "type": "uint8"
            },
            {
              "internalType": "uint256",
              "name": "exp",
              "type": "uint256"
            },
            {
              "internalType": "uint256",
              "name": "dna",
              "type": "uint256"
            },
            {
              "internalType": "uint256",
              "name": "farmTime",
              "type": "uint256"
            },
            {
              "internalType": "uint256",
              "name": "bornTime",
              "type": "uint256"
            }
          ],
          "internalType": "struct HeroPrimeNFT.HeroPrime",
          "name": "",
          "type": "tuple"
        }
      ],
      "stateMutability": "view",
      "type": "function",
      "constant": true
    },
    {
      "inputs": [
        {
          "internalType": "uint256[]",
          "name": "_tokenIds",
          "type": "uint256[]"
        }
      ],
      "name": "getHeroPrimes",
      "outputs": [
        {
          "components": [
            {
              "internalType": "uint256",
              "name": "id",
              "type": "uint256"
            },
            {
              "internalType": "uint256",
              "name": "generation",
              "type": "uint256"
            },
            {
              "internalType": "enum HeroPrimeNFT.Element",
              "name": "element",
              "type": "uint8"
            },
            {
              "internalType": "uint256",
              "name": "exp",
              "type": "uint256"
            },
            {
              "internalType": "uint256",
              "name": "dna",
              "type": "uint256"
            },
            {
              "internalType": "uint256",
              "name": "farmTime",
              "type": "uint256"
            },
            {
              "internalType": "uint256",
              "name": "bornTime",
              "type": "uint256"
            }
          ],
          "internalType": "struct HeroPrimeNFT.HeroPrime[]",
          "name": "",
          "type": "tuple[]"
        }
      ],
      "stateMutability": "view",
      "type": "function",
      "constant": true
    },
    {
      "inputs": [
        {
          "internalType": "uint256",
          "name": "_tokenId",
          "type": "uint256"
        }
      ],
      "name": "heroPrimeLevel",
      "outputs": [
        {
          "internalType": "uint256",
          "name": "",
          "type": "uint256"
        }
      ],
      "stateMutability": "view",
      "type": "function",
      "constant": true
    },
    {
      "inputs": [
        {
          "internalType": "uint256",
          "name": "_tokenId",
          "type": "uint256"
        }
      ],
      "name": "getRare",
      "outputs": [
        {
          "internalType": "uint256",
          "name": "",
          "type": "uint256"
        }
      ],
      "stateMutability": "view",
      "type": "function",
      "constant": true
    },
    {
      "inputs": [
        {
          "internalType": "uint256",
          "name": "amount",
          "type": "uint256"
        },
        {
          "internalType": "address",
          "name": "receiver",
          "type": "address"
        },
        {
          "internalType": "uint256",
          "name": "elementindex",
          "type": "uint256"
        }
      ],
      "name": "rollHero",
      "outputs": [],
      "stateMutability": "nonpayable",
      "type": "function"
    },
    {
      "inputs": [
        {
          "internalType": "uint256",
          "name": "amount",
          "type": "uint256"
        },
        {
          "internalType": "address",
          "name": "receiver",
          "type": "address"
        }
      ],
      "name": "incrementRolls",
      "outputs": [],
      "stateMutability": "nonpayable",
      "type": "function"
    },
    {
      "inputs": [
        {
          "internalType": "address",
          "name": "owner",
          "type": "address"
        }
      ],
      "name": "getOwnerHeroPrimeRolls",
      "outputs": [
        {
          "internalType": "uint256",
          "name": "",
          "type": "uint256"
        }
      ],
      "stateMutability": "view",
      "type": "function",
      "constant": true
    },
    {
      "inputs": [
        {
          "internalType": "uint256",
          "name": "_tokenId",
          "type": "uint256"
        },
        {
          "internalType": "uint256",
          "name": "_exp",
          "type": "uint256"
        }
      ],
      "name": "exp",
      "outputs": [],
      "stateMutability": "nonpayable",
      "type": "function"
    },
    {
      "inputs": [
        {
          "internalType": "uint256",
          "name": "_tokenId",
          "type": "uint256"
        },
        {
          "internalType": "uint256",
          "name": "_price",
          "type": "uint256"
        },
        {
          "internalType": "address",
          "name": "sender",
          "type": "address"
        }
      ],
      "name": "placeOrder",
      "outputs": [],
      "stateMutability": "nonpayable",
      "type": "function"
    },
    {
      "inputs": [
        {
          "internalType": "uint256",
          "name": "_tokenId",
          "type": "uint256"
        },
        {
          "internalType": "address",
          "name": "sender",
          "type": "address"
        }
      ],
      "name": "cancelOrder",
      "outputs": [],
      "stateMutability": "nonpayable",
      "type": "function"
    },
    {
      "inputs": [
        {
          "internalType": "uint256",
          "name": "_tokenId",
          "type": "uint256"
        },
        {
          "internalType": "address",
          "name": "sender",
          "type": "address"
        }
      ],
      "name": "fillOrder",
      "outputs": [],
      "stateMutability": "nonpayable",
      "type": "function"
    },
    {
      "inputs": [],
      "name": "marketsSize",
      "outputs": [
        {
          "internalType": "uint256",
          "name": "",
          "type": "uint256"
        }
      ],
      "stateMutability": "view",
      "type": "function",
      "constant": true
    },
    {
      "inputs": [],
      "name": "market",
      "outputs": [
        {
          "components": [
            {
              "internalType": "uint256",
              "name": "id",
              "type": "uint256"
            },
            {
              "internalType": "uint256",
              "name": "generation",
              "type": "uint256"
            },
            {
              "internalType": "enum HeroPrimeNFT.Element",
              "name": "element",
              "type": "uint8"
            },
            {
              "internalType": "uint256",
              "name": "exp",
              "type": "uint256"
            },
            {
              "internalType": "uint256",
              "name": "dna",
              "type": "uint256"
            },
            {
              "internalType": "uint256",
              "name": "farmTime",
              "type": "uint256"
            },
            {
              "internalType": "uint256",
              "name": "bornTime",
              "type": "uint256"
            }
          ],
          "internalType": "struct HeroPrimeNFT.HeroPrime[]",
          "name": "resultHeroes",
          "type": "tuple[]"
        },
        {
          "components": [
            {
              "internalType": "uint256",
              "name": "tokenId",
              "type": "uint256"
            },
            {
              "internalType": "address",
              "name": "owner",
              "type": "address"
            },
            {
              "internalType": "uint256",
              "name": "price",
              "type": "uint256"
            }
          ],
          "internalType": "struct HeroPrimeNFT.ItemSale[]",
          "name": "resultSales",
          "type": "tuple[]"
        }
      ],
      "stateMutability": "view",
      "type": "function",
      "constant": true
    },
    {
      "inputs": [
        {
          "internalType": "address",
          "name": "_seller",
          "type": "address"
        }
      ],
      "name": "orders",
      "outputs": [
        {
          "internalType": "uint256",
          "name": "",
          "type": "uint256"
        }
      ],
      "stateMutability": "view",
      "type": "function",
      "constant": true
    },
    {
      "inputs": [
        {
          "internalType": "uint256",
          "name": "index",
          "type": "uint256"
        }
      ],
      "name": "tokenSaleByIndex",
      "outputs": [
        {
          "internalType": "uint256",
          "name": "",
          "type": "uint256"
        }
      ],
      "stateMutability": "view",
      "type": "function",
      "constant": true
    },
    {
      "inputs": [
        {
          "internalType": "address",
          "name": "_seller",
          "type": "address"
        },
        {
          "internalType": "uint256",
          "name": "index",
          "type": "uint256"
        }
      ],
      "name": "tokenSaleOfOwnerByIndex",
      "outputs": [
        {
          "internalType": "uint256",
          "name": "",
          "type": "uint256"
        }
      ],
      "stateMutability": "view",
      "type": "function",
      "constant": true
    },
    {
      "inputs": [
        {
          "internalType": "uint256",
          "name": "_tokenId",
          "type": "uint256"
        }
      ],
      "name": "getSale",
      "outputs": [
        {
          "components": [
            {
              "internalType": "uint256",
              "name": "tokenId",
              "type": "uint256"
            },
            {
              "internalType": "address",
              "name": "owner",
              "type": "address"
            },
            {
              "internalType": "uint256",
              "name": "price",
              "type": "uint256"
            }
          ],
          "internalType": "struct HeroPrimeNFT.ItemSale",
          "name": "",
          "type": "tuple"
        }
      ],
      "stateMutability": "view",
      "type": "function",
      "constant": true
    }
  ],
  "bytecode": "0x60806040523480156200001157600080fd5b5060405162005e5d38038062005e5d8339818101604052810190620000379190620002a9565b828281600690805190602001906200005192919062000170565b5080600790805190602001906200006a92919062000170565b50505060006200007f6200016860201b60201c565b905080600a60006101000a81548173ffffffffffffffffffffffffffffffffffffffff021916908373ffffffffffffffffffffffffffffffffffffffff1602179055508073ffffffffffffffffffffffffffffffffffffffff16600073ffffffffffffffffffffffffffffffffffffffff167f8be0079c531659141344cd1fd0a4f28419497f9722a3daafe3b4186f6b6457e060405160405180910390a35080601260006101000a81548173ffffffffffffffffffffffffffffffffffffffff021916908373ffffffffffffffffffffffffffffffffffffffff160217905550505050620004b0565b600033905090565b8280546200017e9062000402565b90600052602060002090601f016020900481019282620001a25760008555620001ee565b82601f10620001bd57805160ff1916838001178555620001ee565b82800160010185558215620001ee579182015b82811115620001ed578251825591602001919060010190620001d0565b5b509050620001fd919062000201565b5090565b5b808211156200021c57600081600090555060010162000202565b5090565b600062000237620002318462000365565b62000331565b9050828152602081018484840111156200025057600080fd5b6200025d848285620003cc565b509392505050565b600081519050620002768162000496565b92915050565b600082601f8301126200028e57600080fd5b8151620002a084826020860162000220565b91505092915050565b600080600060608486031215620002bf57600080fd5b600084015167ffffffffffffffff811115620002da57600080fd5b620002e8868287016200027c565b935050602084015167ffffffffffffffff8111156200030657600080fd5b62000314868287016200027c565b9250506040620003278682870162000265565b9150509250925092565b6000604051905081810181811067ffffffffffffffff821117156200035b576200035a62000467565b5b8060405250919050565b600067ffffffffffffffff82111562000383576200038262000467565b5b601f19601f8301169050602081019050919050565b6000620003a582620003ac565b9050919050565b600073ffffffffffffffffffffffffffffffffffffffff82169050919050565b60005b83811015620003ec578082015181840152602081019050620003cf565b83811115620003fc576000848401525b50505050565b600060028204905060018216806200041b57607f821691505b6020821081141562000432576200043162000438565b5b50919050565b7f4e487b7100000000000000000000000000000000000000000000000000000000600052602260045260246000fd5b7f4e487b7100000000000000000000000000000000000000000000000000000000600052604160045260246000fd5b620004a18162000398565b8114620004ad57600080fd5b50565b61599d80620004c06000396000f3fe608060405234801561001057600080fd5b50600436106102485760003560e01c806380f556051161013b578063c87b56dd116100b8578063e985e9c51161007c578063e985e9c51461073a578063f2fde38b1461076a578063f40e847114610786578063f5f565f8146107b6578063fd4f9179146107d257610248565b8063c87b56dd1461065e578063d0ebdbe71461068e578063d63d4af0146106aa578063d8f6d596146106da578063e7199b471461070a57610248565b80639d443201116100ff5780639d443201146105bc578063a22cb465146105da578063a3f7ac10146105f6578063a90b9c7214610612578063b88d4fde1461064257610248565b806380f5560514610513578063841a2502146105325780638c0e8349146105625780638da5cb5b1461058057806395d89b411461059e57610248565b80634aaecf54116101c95780636c0360eb1161018d5780636c0360eb1461048357806370a08231146104a1578063715018a6146104d15780637323a7d3146104db57806377320050146104f757610248565b80634aaecf54146103a75780634ab6c3f6146103c35780634f6ccce7146103f3578063598a4fc8146104235780636352211e1461045357610248565b806323b872dd1161021057806323b872dd1461030557806326074f971461032157806335e4365f1461035157806342842e0e1461036d578063481c6a751461038957610248565b806306fdde031461024d578063078e62d41461026b578063081812fc1461029b578063095ea7b3146102cb57806318160ddd146102e7575b600080fd5b6102556107f0565b60405161026291906150c6565b60405180910390f35b6102856004803603810190610280919061422e565b610882565b60405161029291906153de565b60405180910390f35b6102b560048036038101906102b091906142d4565b6108dd565b6040516102c29190614f7f565b60405180910390f35b6102e560048036038101906102e0919061422e565b610962565b005b6102ef610a7a565b6040516102fc91906153de565b60405180910390f35b61031f600480360381019061031a9190614128565b610a8b565b005b61033b600480360381019061033691906142d4565b610aeb565b60405161034891906153de565b60405180910390f35b61036b600480360381019061036691906143ed565b610b09565b005b61038760048036038101906103829190614128565b610ca5565b005b610391610cc5565b60405161039e91906150ab565b60405180910390f35b6103c160048036038101906103bc9190614326565b610ceb565b005b6103dd60048036038101906103d8919061409a565b6111df565b6040516103ea91906153de565b60405180910390f35b61040d600480360381019061040891906142d4565b611228565b60405161041a91906153de565b60405180910390f35b61043d600480360381019061043891906142d4565b61124b565b60405161044a91906153de565b60405180910390f35b61046d600480360381019061046891906142d4565b611268565b60405161047a9190614f7f565b60405180910390f35b61048b61129f565b60405161049891906150c6565b60405180910390f35b6104bb60048036038101906104b6919061409a565b611331565b6040516104c891906153de565b60405180910390f35b6104d96113ef565b005b6104f560048036038101906104f09190614326565b611547565b005b610511600480360381019061050c9190614362565b611724565b005b61051b61186e565b60405161052992919061501c565b60405180910390f35b61054c6004803603810190610547919061426a565b611bd4565b6040516105599190614ffa565b60405180910390f35b61056a611de3565b60405161057791906153de565b60405180910390f35b610588611de9565b6040516105959190614f7f565b60405180910390f35b6105a6611e13565b6040516105b391906150c6565b60405180910390f35b6105c4611ea5565b6040516105d191906153de565b60405180910390f35b6105f460048036038101906105ef91906141f2565b611eb6565b005b610610600480360381019061060b9190614326565b612037565b005b61062c600480360381019061062791906142d4565b6120be565b60405161063991906153de565b60405180910390f35b61065c60048036038101906106579190614177565b612173565b005b610678600480360381019061067391906142d4565b6121d5565b60405161068591906150c6565b60405180910390f35b6106a860048036038101906106a3919061409a565b612340565b005b6106c460048036038101906106bf919061409a565b61241b565b6040516106d19190615053565b60405180910390f35b6106f460048036038101906106ef91906142d4565b612598565b60405161070191906153c3565b60405180910390f35b610724600480360381019061071f91906142d4565b612684565b60405161073191906153a8565b60405180910390f35b610754600480360381019061074f91906140ec565b612774565b6040516107619190615075565b60405180910390f35b610784600480360381019061077f919061409a565b612808565b005b6107a0600480360381019061079b919061409a565b6128ab565b6040516107ad91906153de565b60405180910390f35b6107d060048036038101906107cb91906143b1565b6128fb565b005b6107da6129b1565b6040516107e79190615090565b60405180910390f35b6060600680546107ff90615764565b80601f016020809104026020016040519081016040528092919081815260200182805461082b90615764565b80156108785780601f1061084d57610100808354040283529160200191610878565b820191906000526020600020905b81548152906001019060200180831161085b57829003601f168201915b5050505050905090565b60006108d582601060008673ffffffffffffffffffffffffffffffffffffffff1673ffffffffffffffffffffffffffffffffffffffff1681526020019081526020016000206129d790919063ffffffff16565b905092915050565b60006108e8826129f1565b610927576040517f08c379a000000000000000000000000000000000000000000000000000000000815260040161091e90615268565b60405180910390fd5b6004600083815260200190815260200160002060009054906101000a900473ffffffffffffffffffffffffffffffffffffffff169050919050565b600061096d82611268565b90508073ffffffffffffffffffffffffffffffffffffffff168373ffffffffffffffffffffffffffffffffffffffff1614156109de576040517f08c379a00000000000000000000000000000000000000000000000000000000081526004016109d5906152e8565b60405180910390fd5b8073ffffffffffffffffffffffffffffffffffffffff166109fd612a0e565b73ffffffffffffffffffffffffffffffffffffffff161480610a2c5750610a2b81610a26612a0e565b612774565b5b610a6b576040517f08c379a0000000000000000000000000000000000000000000000000000000008152600401610a62906151e8565b60405180910390fd5b610a758383612a16565b505050565b6000610a866001612acf565b905090565b610a9c610a96612a0e565b82612ae4565b610adb576040517f08c379a0000000000000000000000000000000000000000000000000000000008152600401610ad290615328565b60405180910390fd5b610ae6838383612bc2565b505050565b6000610b02610af983612684565b60600151612d61565b9050919050565b601360009054906101000a900473ffffffffffffffffffffffffffffffffffffffff1673ffffffffffffffffffffffffffffffffffffffff16610b4a612a0e565b73ffffffffffffffffffffffffffffffffffffffff1614610ba0576040517f08c379a0000000000000000000000000000000000000000000000000000000008152600401610b9790615368565b60405180910390fd5b8073ffffffffffffffffffffffffffffffffffffffff16610bc084611268565b73ffffffffffffffffffffffffffffffffffffffff1614610c16576040517f08c379a0000000000000000000000000000000000000000000000000000000008152600401610c0d90615308565b60405180910390fd5b60008211610c59576040517f08c379a0000000000000000000000000000000000000000000000000000000008152600401610c50906150e8565b60405180910390fd5b610c668360018484612dcb565b827f88ba4afa23f9d5bf6fc21903b32126bc507e001fd6fd00affc837adeb5d4a6078284604051610c98929190614fd1565b60405180910390a2505050565b610cc083838360405180602001604052806000815250612173565b505050565b601360009054906101000a900473ffffffffffffffffffffffffffffffffffffffff1681565b601360009054906101000a900473ffffffffffffffffffffffffffffffffffffffff1673ffffffffffffffffffffffffffffffffffffffff16610d2c612a0e565b73ffffffffffffffffffffffffffffffffffffffff1614610d82576040517f08c379a0000000000000000000000000000000000000000000000000000000008152600401610d7990615368565b60405180910390fd5b610d9682600e61318290919063ffffffff16565b610dd5576040517f08c379a0000000000000000000000000000000000000000000000000000000008152600401610dcc90615348565b60405180910390fd5b6000600d600084815260200190815260200160002090506000610f55601360009054906101000a900473ffffffffffffffffffffffffffffffffffffffff1673ffffffffffffffffffffffffffffffffffffffff1663470ef6106040518163ffffffff1660e01b815260040160206040518083038186803b158015610e5957600080fd5b505afa158015610e6d573d6000803e3d6000fd5b505050506040513d601f19601f82011682018060405250810190610e9191906142fd565b610f47601360009054906101000a900473ffffffffffffffffffffffffffffffffffffffff1673ffffffffffffffffffffffffffffffffffffffff166343aa2b6c6040518163ffffffff1660e01b815260040160206040518083038186803b158015610efc57600080fd5b505afa158015610f10573d6000803e3d6000fd5b505050506040513d601f19601f82011682018060405250810190610f3491906142fd565b856002015461319c90919063ffffffff16565b61321790919063ffffffff16565b9050601260009054906101000a900473ffffffffffffffffffffffffffffffffffffffff1673ffffffffffffffffffffffffffffffffffffffff166323b872dd84601360009054906101000a900473ffffffffffffffffffffffffffffffffffffffff1673ffffffffffffffffffffffffffffffffffffffff1663412753586040518163ffffffff1660e01b815260040160206040518083038186803b158015610ffe57600080fd5b505afa158015611012573d6000803e3d6000fd5b505050506040513d601f19601f8201168201806040525081019061103691906140c3565b846040518463ffffffff1660e01b815260040161105593929190614f9a565b602060405180830381600087803b15801561106f57600080fd5b505af1158015611083573d6000803e3d6000fd5b505050506040513d601f19601f820116820180604052508101906110a791906142ab565b50601260009054906101000a900473ffffffffffffffffffffffffffffffffffffffff1673ffffffffffffffffffffffffffffffffffffffff166323b872dd848460010160009054906101000a900473ffffffffffffffffffffffffffffffffffffffff1661112385876002015461326190919063ffffffff16565b6040518463ffffffff1660e01b815260040161114193929190614f9a565b602060405180830381600087803b15801561115b57600080fd5b505af115801561116f573d6000803e3d6000fd5b505050506040513d601f19601f8201168201806040525081019061119391906142ab565b506111a18460008086612dcb565b837fe172f6058a4b7a5493aea0902d867636f05695ffeb71801046c3f4e5002caa97846040516111d19190614f7f565b60405180910390a250505050565b6000601160008373ffffffffffffffffffffffffffffffffffffffff1673ffffffffffffffffffffffffffffffffffffffff168152602001908152602001600020549050919050565b60008061123f8360016132ab90919063ffffffff16565b50905080915050919050565b600061126182600e6129d790919063ffffffff16565b9050919050565b60006112988260405180606001604052806029815260200161593f6029913960016132d79092919063ffffffff16565b9050919050565b6060600980546112ae90615764565b80601f01602080910402602001604051908101604052809291908181526020018280546112da90615764565b80156113275780601f106112fc57610100808354040283529160200191611327565b820191906000526020600020905b81548152906001019060200180831161130a57829003601f168201915b5050505050905090565b60008073ffffffffffffffffffffffffffffffffffffffff168273ffffffffffffffffffffffffffffffffffffffff1614156113a2576040517f08c379a000000000000000000000000000000000000000000000000000000000815260040161139990615208565b60405180910390fd5b6113e86000808473ffffffffffffffffffffffffffffffffffffffff1673ffffffffffffffffffffffffffffffffffffffff1681526020019081526020016000206132f6565b9050919050565b6113f7612a0e565b73ffffffffffffffffffffffffffffffffffffffff16600a60009054906101000a900473ffffffffffffffffffffffffffffffffffffffff1673ffffffffffffffffffffffffffffffffffffffff1614611486576040517f08c379a000000000000000000000000000000000000000000000000000000000815260040161147d90615288565b60405180910390fd5b600073ffffffffffffffffffffffffffffffffffffffff16600a60009054906101000a900473ffffffffffffffffffffffffffffffffffffffff1673ffffffffffffffffffffffffffffffffffffffff167f8be0079c531659141344cd1fd0a4f28419497f9722a3daafe3b4186f6b6457e060405160405180910390a36000600a60006101000a81548173ffffffffffffffffffffffffffffffffffffffff021916908373ffffffffffffffffffffffffffffffffffffffff160217905550565b601360009054906101000a900473ffffffffffffffffffffffffffffffffffffffff1673ffffffffffffffffffffffffffffffffffffffff16611588612a0e565b73ffffffffffffffffffffffffffffffffffffffff16146115de576040517f08c379a00000000000000000000000000000000000000000000000000000000081526004016115d590615368565b60405180910390fd5b6115f282600e61318290919063ffffffff16565b611631576040517f08c379a000000000000000000000000000000000000000000000000000000000815260040161162890615348565b60405180910390fd5b6000600d600084815260200190815260200160002090508173ffffffffffffffffffffffffffffffffffffffff168160010160009054906101000a900473ffffffffffffffffffffffffffffffffffffffff1673ffffffffffffffffffffffffffffffffffffffff16146116da576040517f08c379a00000000000000000000000000000000000000000000000000000000081526004016116d190615308565b60405180910390fd5b6116e78360008085612dcb565b827f22369ba22944aadf9e9d6f4c51462417a50ea7876b9c62c7c46b5522e9c672cc836040516117179190614f7f565b60405180910390a2505050565b82601160008473ffffffffffffffffffffffffffffffffffffffff1673ffffffffffffffffffffffffffffffffffffffff1681526020019081526020016000205410156117a6576040517f08c379a000000000000000000000000000000000000000000000000000000000815260040161179d906152c8565b60405180910390fd5b60008160058111156117e1577f4e487b7100000000000000000000000000000000000000000000000000000000600052602160045260246000fd5b905060008411611826576040517f08c379a000000000000000000000000000000000000000000000000000000000815260040161181d906151a8565b60405180910390fd5b600184141561183e57611839838261330b565b611868565b60005b8481101561186657611853848361330b565b808061185e90615796565b915050611841565b505b50505050565b60608061187b600e6132f6565b67ffffffffffffffff8111156118ba577f4e487b7100000000000000000000000000000000000000000000000000000000600052604160045260246000fd5b6040519080825280602002602001820160405280156118f357816020015b6118e0613e72565b8152602001906001900390816118d85790505b509150611900600e6132f6565b67ffffffffffffffff81111561193f577f4e487b7100000000000000000000000000000000000000000000000000000000600052604160045260246000fd5b60405190808252806020026020018201604052801561197857816020015b611965613ee7565b81526020019060019003908161195d5790505b50905060005b611988600e6132f6565b811015611bcf57600c60006119a783600e6129d790919063ffffffff16565b81526020019081526020016000206040518060e001604052908160008201548152602001600182015481526020016002820160009054906101000a900460ff166005811115611a1f577f4e487b7100000000000000000000000000000000000000000000000000000000600052602160045260246000fd5b6005811115611a57577f4e487b7100000000000000000000000000000000000000000000000000000000600052602160045260246000fd5b8152602001600382015481526020016004820154815260200160058201548152602001600682015481525050838281518110611abc577f4e487b7100000000000000000000000000000000000000000000000000000000600052603260045260246000fd5b6020026020010181905250600d6000600c6000611ae385600e6129d790919063ffffffff16565b8152602001908152602001600020600001548152602001908152602001600020604051806060016040529081600082015481526020016001820160009054906101000a900473ffffffffffffffffffffffffffffffffffffffff1673ffffffffffffffffffffffffffffffffffffffff1673ffffffffffffffffffffffffffffffffffffffff168152602001600282015481525050828281518110611bb1577f4e487b7100000000000000000000000000000000000000000000000000000000600052603260045260246000fd5b60200260200101819052508080611bc790615796565b91505061197e565b509091565b60606000825167ffffffffffffffff811115611c19577f4e487b7100000000000000000000000000000000000000000000000000000000600052604160045260246000fd5b604051908082528060200260200182016040528015611c5257816020015b611c3f613e72565b815260200190600190039081611c375790505b50905060005b8351811015611dd957600c6000858381518110611c9e577f4e487b7100000000000000000000000000000000000000000000000000000000600052603260045260246000fd5b602002602001015181526020019081526020016000206040518060e001604052908160008201548152602001600182015481526020016002820160009054906101000a900460ff166005811115611d1e577f4e487b7100000000000000000000000000000000000000000000000000000000600052602160045260246000fd5b6005811115611d56577f4e487b7100000000000000000000000000000000000000000000000000000000600052602160045260246000fd5b8152602001600382015481526020016004820154815260200160058201548152602001600682015481525050828281518110611dbb577f4e487b7100000000000000000000000000000000000000000000000000000000600052603260045260246000fd5b60200260200101819052508080611dd190615796565b915050611c58565b5080915050919050565b600b5481565b6000600a60009054906101000a900473ffffffffffffffffffffffffffffffffffffffff16905090565b606060078054611e2290615764565b80601f0160208091040260200160405190810160405280929190818152602001828054611e4e90615764565b8015611e9b5780601f10611e7057610100808354040283529160200191611e9b565b820191906000526020600020905b815481529060010190602001808311611e7e57829003601f168201915b5050505050905090565b6000611eb1600e6132f6565b905090565b611ebe612a0e565b73ffffffffffffffffffffffffffffffffffffffff168273ffffffffffffffffffffffffffffffffffffffff161415611f2c576040517f08c379a0000000000000000000000000000000000000000000000000000000008152600401611f2390615188565b60405180910390fd5b8060056000611f39612a0e565b73ffffffffffffffffffffffffffffffffffffffff1673ffffffffffffffffffffffffffffffffffffffff16815260200190815260200160002060008473ffffffffffffffffffffffffffffffffffffffff1673ffffffffffffffffffffffffffffffffffffffff16815260200190815260200160002060006101000a81548160ff0219169083151502179055508173ffffffffffffffffffffffffffffffffffffffff16611fe6612a0e565b73ffffffffffffffffffffffffffffffffffffffff167f17307eab39ab6107e8899845ad3d59bd9653f200f220920489ca2b5937696c318360405161202b9190615075565b60405180910390a35050565b6000821161207a576040517f08c379a0000000000000000000000000000000000000000000000000000000008152600401612071906151a8565b60405180910390fd5b60018214156120915761208c8161350b565b6120ba565b60005b828110156120b8576120a58261350b565b80806120b090615796565b915050612094565b505b5050565b6000806120ca83612684565b60800151905060008114156120e357600091505061216e565b60006a52b7d2dcc80cd2e4000000826120fc91906155ae565b90506114698110156121135760019250505061216e565b611e9d8110156121285760029250505061216e565b61220381101561213d5760039250505061216e565b6124908110156121525760049250505061216e565b6125ec8110156121675760059250505061216e565b6006925050505b919050565b61218461217e612a0e565b83612ae4565b6121c3576040517f08c379a00000000000000000000000000000000000000000000000000000000081526004016121ba90615328565b60405180910390fd5b6121cf848484846135a4565b50505050565b60606121e0826129f1565b61221f576040517f08c379a0000000000000000000000000000000000000000000000000000000008152600401612216906152a8565b60405180910390fd5b600060086000848152602001908152602001600020805461223f90615764565b80601f016020809104026020016040519081016040528092919081815260200182805461226b90615764565b80156122b85780601f1061228d576101008083540402835291602001916122b8565b820191906000526020600020905b81548152906001019060200180831161229b57829003601f168201915b5050505050905060006122c961129f565b90506000815114156122df57819250505061233b565b6000825111156123145780826040516020016122fc929190614f33565b6040516020818303038152906040529250505061233b565b8084604051602001612327929190614f57565b604051602081830303815290604052925050505b919050565b612348612a0e565b73ffffffffffffffffffffffffffffffffffffffff16600a60009054906101000a900473ffffffffffffffffffffffffffffffffffffffff1673ffffffffffffffffffffffffffffffffffffffff16146123d7576040517f08c379a00000000000000000000000000000000000000000000000000000000081526004016123ce90615288565b60405180910390fd5b80601360006101000a81548173ffffffffffffffffffffffffffffffffffffffff021916908373ffffffffffffffffffffffffffffffffffffffff16021790555050565b606060006124656000808573ffffffffffffffffffffffffffffffffffffffff1673ffffffffffffffffffffffffffffffffffffffff1681526020019081526020016000206132f6565b905060008167ffffffffffffffff8111156124a9577f4e487b7100000000000000000000000000000000000000000000000000000000600052604160045260246000fd5b6040519080825280602002602001820160405280156124d75781602001602082028036833780820191505090505b50905060005b8281101561258d57612535816000808873ffffffffffffffffffffffffffffffffffffffff1673ffffffffffffffffffffffffffffffffffffffff1681526020019081526020016000206129d790919063ffffffff16565b82828151811061256e577f4e487b7100000000000000000000000000000000000000000000000000000000600052603260045260246000fd5b602002602001018181525050808061258590615796565b9150506124dd565b508092505050919050565b6125a0613ee7565b6125b482600e61318290919063ffffffff16565b1561264857600d6000838152602001908152602001600020604051806060016040529081600082015481526020016001820160009054906101000a900473ffffffffffffffffffffffffffffffffffffffff1673ffffffffffffffffffffffffffffffffffffffff1673ffffffffffffffffffffffffffffffffffffffff168152602001600282015481525050905061267f565b604051806060016040528060008152602001600073ffffffffffffffffffffffffffffffffffffffff168152602001600081525090505b919050565b61268c613e72565b600c60008381526020019081526020016000206040518060e001604052908160008201548152602001600182015481526020016002820160009054906101000a900460ff166005811115612709577f4e487b7100000000000000000000000000000000000000000000000000000000600052602160045260246000fd5b6005811115612741577f4e487b7100000000000000000000000000000000000000000000000000000000600052602160045260246000fd5b81526020016003820154815260200160048201548152602001600582015481526020016006820154815250509050919050565b6000600560008473ffffffffffffffffffffffffffffffffffffffff1673ffffffffffffffffffffffffffffffffffffffff16815260200190815260200160002060008373ffffffffffffffffffffffffffffffffffffffff1673ffffffffffffffffffffffffffffffffffffffff16815260200190815260200160002060009054906101000a900460ff16905092915050565b612810612a0e565b73ffffffffffffffffffffffffffffffffffffffff16600a60009054906101000a900473ffffffffffffffffffffffffffffffffffffffff1673ffffffffffffffffffffffffffffffffffffffff161461289f576040517f08c379a000000000000000000000000000000000000000000000000000000000815260040161289690615288565b60405180910390fd5b6128a8816135b5565b50565b60006128f4601060008473ffffffffffffffffffffffffffffffffffffffff1673ffffffffffffffffffffffffffffffffffffffff1681526020019081526020016000206132f6565b9050919050565b6000811161293e576040517f08c379a000000000000000000000000000000000000000000000000000000000815260040161293590615388565b60405180910390fd5b6000600c6000848152602001908152602001600020905061296c8282600301546136e590919063ffffffff16565b8160030181905550827f3056b9cd784671e7a0f5d6f930db4d14e1e876a87360c871cc4d88b9f54c44b2836040516129a491906153de565b60405180910390a2505050565b601260009054906101000a900473ffffffffffffffffffffffffffffffffffffffff1681565b60006129e68360000183613743565b60001c905092915050565b6000612a0782600161379490919063ffffffff16565b9050919050565b600033905090565b816004600083815260200190815260200160002060006101000a81548173ffffffffffffffffffffffffffffffffffffffff021916908373ffffffffffffffffffffffffffffffffffffffff160217905550808273ffffffffffffffffffffffffffffffffffffffff16612a8983611268565b73ffffffffffffffffffffffffffffffffffffffff167f8c5be1e5ebec7d5bd14f71427d1e84f3dd0314c0f7b2291e5b200ac8c7c3b92560405160405180910390a45050565b6000612add826000016137ae565b9050919050565b6000612aef826129f1565b612b2e576040517f08c379a0000000000000000000000000000000000000000000000000000000008152600401612b25906151c8565b60405180910390fd5b6000612b3983611268565b90508073ffffffffffffffffffffffffffffffffffffffff168473ffffffffffffffffffffffffffffffffffffffff161480612ba857508373ffffffffffffffffffffffffffffffffffffffff16612b90846108dd565b73ffffffffffffffffffffffffffffffffffffffff16145b80612bb95750612bb88185612774565b5b91505092915050565b600073ffffffffffffffffffffffffffffffffffffffff168273ffffffffffffffffffffffffffffffffffffffff161415612c32576040517f08c379a0000000000000000000000000000000000000000000000000000000008152600401612c2990615168565b60405180910390fd5b612c3d8383836137c3565b612c48600082612a16565b612c98816000808673ffffffffffffffffffffffffffffffffffffffff1673ffffffffffffffffffffffffffffffffffffffff1681526020019081526020016000206137c890919063ffffffff16565b50612ce9816000808573ffffffffffffffffffffffffffffffffffffffff1673ffffffffffffffffffffffffffffffffffffffff1681526020019081526020016000206137e290919063ffffffff16565b50612d00818360016137fc9092919063ffffffff16565b50808273ffffffffffffffffffffffffffffffffffffffff168473ffffffffffffffffffffffffffffffffffffffff167fddf252ad1be2c89b69c2b068fc378daa952ba7f163c4a11628f55a4df523b3ef60405160405180910390a4505050565b60006064821015612d755760019050612dc6565b61015e821015612d885760029050612dc6565b6103e8821015612d9b5760039050612dc6565b6107d0821015612dae5760049050612dc6565b610fa0821015612dc15760059050612dc6565b600690505b919050565b6000600d600086815260200190815260200160002090508315612fa057612e9282601360009054906101000a900473ffffffffffffffffffffffffffffffffffffffff1673ffffffffffffffffffffffffffffffffffffffff1663412753586040518163ffffffff1660e01b815260040160206040518083038186803b158015612e5457600080fd5b505afa158015612e68573d6000803e3d6000fd5b505050506040513d601f19601f82011682018060405250810190612e8c91906140c3565b87610a8b565b612ea685600e6137e290919063ffffffff16565b50612ef885601060008573ffffffffffffffffffffffffffffffffffffffff1673ffffffffffffffffffffffffffffffffffffffff1681526020019081526020016000206137e290919063ffffffff16565b5060405180606001604052808681526020018373ffffffffffffffffffffffffffffffffffffffff16815260200184815250600d60008781526020019081526020016000206000820151816000015560208201518160010160006101000a81548173ffffffffffffffffffffffffffffffffffffffff021916908373ffffffffffffffffffffffffffffffffffffffff1602179055506040820151816002015590505061317b565b61304a601360009054906101000a900473ffffffffffffffffffffffffffffffffffffffff1673ffffffffffffffffffffffffffffffffffffffff1663412753586040518163ffffffff1660e01b815260040160206040518083038186803b15801561300b57600080fd5b505afa15801561301f573d6000803e3d6000fd5b505050506040513d601f19601f8201168201806040525081019061304391906140c3565b8387610a8b565b61305e85600e6137c890919063ffffffff16565b506130d485601060008460010160009054906101000a900473ffffffffffffffffffffffffffffffffffffffff1673ffffffffffffffffffffffffffffffffffffffff1673ffffffffffffffffffffffffffffffffffffffff1681526020019081526020016000206137c890919063ffffffff16565b50604051806060016040528060008152602001600073ffffffffffffffffffffffffffffffffffffffff1681526020016000815250600d60008781526020019081526020016000206000820151816000015560208201518160010160006101000a81548173ffffffffffffffffffffffffffffffffffffffff021916908373ffffffffffffffffffffffffffffffffffffffff160217905550604082015181600201559050505b5050505050565b6000613194836000018360001b613831565b905092915050565b6000808314156131af5760009050613211565b600082846131bd91906155df565b90508284826131cc91906155ae565b1461320c576040517f08c379a000000000000000000000000000000000000000000000000000000000815260040161320390615248565b60405180910390fd5b809150505b92915050565b600061325983836040518060400160405280601a81526020017f536166654d6174683a206469766973696f6e206279207a65726f000000000000815250613854565b905092915050565b60006132a383836040518060400160405280601e81526020017f536166654d6174683a207375627472616374696f6e206f766572666c6f7700008152506138b7565b905092915050565b6000806000806132be866000018661391b565b915091508160001c8160001c9350935050509250929050565b60006132ea846000018460001b8461395b565b60001c90509392505050565b6000613304826000016139dc565b9050919050565b61335e6001601160008573ffffffffffffffffffffffffffffffffffffffff1673ffffffffffffffffffffffffffffffffffffffff1681526020019081526020016000205461326190919063ffffffff16565b601160008473ffffffffffffffffffffffffffffffffffffffff1673ffffffffffffffffffffffffffffffffffffffff1681526020019081526020016000208190555060006133ab6139ed565b90506133b78382613a0a565b6040518060e0016040528082815260200160008152602001836005811115613408577f4e487b7100000000000000000000000000000000000000000000000000000000600052602160045260246000fd5b815260200160008152602001600081526020016000815260200142815250600c6000838152602001908152602001600020600082015181600001556020820151816001015560408201518160020160006101000a81548160ff0219169083600581111561349e577f4e487b7100000000000000000000000000000000000000000000000000000000600052602160045260246000fd5b0217905550606082015181600301556080820151816004015560a0820151816005015560c08201518160060155905050807f2bf03af0706d54e76576b0b1fb7783f50164f3b0e78ee948e922bb4691540640846040516134fe9190614f7f565b60405180910390a2505050565b61355e6001601160008473ffffffffffffffffffffffffffffffffffffffff1673ffffffffffffffffffffffffffffffffffffffff168152602001908152602001600020546136e590919063ffffffff16565b601160008373ffffffffffffffffffffffffffffffffffffffff1673ffffffffffffffffffffffffffffffffffffffff1681526020019081526020016000208190555050565b6135af848484612bc2565b50505050565b600073ffffffffffffffffffffffffffffffffffffffff168173ffffffffffffffffffffffffffffffffffffffff161415613625576040517f08c379a000000000000000000000000000000000000000000000000000000000815260040161361c90615108565b60405180910390fd5b8073ffffffffffffffffffffffffffffffffffffffff16600a60009054906101000a900473ffffffffffffffffffffffffffffffffffffffff1673ffffffffffffffffffffffffffffffffffffffff167f8be0079c531659141344cd1fd0a4f28419497f9722a3daafe3b4186f6b6457e060405160405180910390a380600a60006101000a81548173ffffffffffffffffffffffffffffffffffffffff021916908373ffffffffffffffffffffffffffffffffffffffff16021790555050565b60008082846136f49190615558565b905083811015613739576040517f08c379a000000000000000000000000000000000000000000000000000000000815260040161373090615148565b60405180910390fd5b8091505092915050565b6000826000018281548110613781577f4e487b7100000000000000000000000000000000000000000000000000000000600052603260045260246000fd5b9060005260206000200154905092915050565b60006137a6836000018360001b613a20565b905092915050565b60006137bc82600001613a40565b9050919050565b505050565b60006137da836000018360001b613a55565b905092915050565b60006137f4836000018360001b613bdb565b905092915050565b6000613828846000018460001b8473ffffffffffffffffffffffffffffffffffffffff1660001b613c4b565b90509392505050565b600080836001016000848152602001908152602001600020541415905092915050565b6000808311829061389b576040517f08c379a000000000000000000000000000000000000000000000000000000000815260040161389291906150c6565b60405180910390fd5b50600083856138aa91906155ae565b9050809150509392505050565b60008383111582906138ff576040517f08c379a00000000000000000000000000000000000000000000000000000000081526004016138f691906150c6565b60405180910390fd5b506000838561390e9190615639565b9050809150509392505050565b60008060006139368486600001613c8690919063ffffffff16565b9050808560020160008381526020019081526020016000205492509250509250929050565b6000808460020160008581526020019081526020016000205490506000801b8114158061398e575061398d8585613a20565b5b83906139d0576040517f08c379a00000000000000000000000000000000000000000000000000000000081526004016139c791906150c6565b60405180910390fd5b50809150509392505050565b600081600001805490509050919050565b6000613a056001600b546136e590919063ffffffff16565b905090565b613a148282613c9d565b613a1c613e2a565b5050565b6000613a388284600001613e4490919063ffffffff16565b905092915050565b6000613a4e826000016139dc565b9050919050565b60008083600101600084815260200190815260200160002054905060008114613bcf576000600182613a879190615639565b9050600060018660000180549050613a9f9190615639565b9050818114613b5a576000866000018281548110613ae6577f4e487b7100000000000000000000000000000000000000000000000000000000600052603260045260246000fd5b9060005260206000200154905080876000018481548110613b30577f4e487b7100000000000000000000000000000000000000000000000000000000600052603260045260246000fd5b90600052602060002001819055508387600101600083815260200190815260200160002081905550505b85600001805480613b94577f4e487b7100000000000000000000000000000000000000000000000000000000600052603160045260246000fd5b600190038181906000526020600020016000905590558560010160008681526020019081526020016000206000905560019350505050613bd5565b60009150505b92915050565b6000613be78383613831565b613c40578260000182908060018154018082558091505060019003906000526020600020016000909190919091505582600001805490508360010160008481526020019081526020016000208190555060019050613c45565b600090505b92915050565b60008184600201600085815260200190815260200160002081905550613c7d8385600001613e5b90919063ffffffff16565b90509392505050565b6000613c958360000183613743565b905092915050565b600073ffffffffffffffffffffffffffffffffffffffff168273ffffffffffffffffffffffffffffffffffffffff161415613d0d576040517f08c379a0000000000000000000000000000000000000000000000000000000008152600401613d0490615228565b60405180910390fd5b613d16816129f1565b15613d56576040517f08c379a0000000000000000000000000000000000000000000000000000000008152600401613d4d90615128565b60405180910390fd5b613d62600083836137c3565b613db2816000808573ffffffffffffffffffffffffffffffffffffffff1673ffffffffffffffffffffffffffffffffffffffff1681526020019081526020016000206137e290919063ffffffff16565b50613dc9818360016137fc9092919063ffffffff16565b50808273ffffffffffffffffffffffffffffffffffffffff16600073ffffffffffffffffffffffffffffffffffffffff167fddf252ad1be2c89b69c2b068fc378daa952ba7f163c4a11628f55a4df523b3ef60405160405180910390a45050565b600b6000815480929190613e3d90615796565b9190505550565b6000613e538360000183613831565b905092915050565b6000613e6a8360000183613bdb565b905092915050565b6040518060e00160405280600081526020016000815260200160006005811115613ec5577f4e487b7100000000000000000000000000000000000000000000000000000000600052602160045260246000fd5b8152602001600081526020016000815260200160008152602001600081525090565b604051806060016040528060008152602001600073ffffffffffffffffffffffffffffffffffffffff168152602001600081525090565b6000613f31613f2c8461542a565b6153f9565b90508083825260208201905082856020860282011115613f5057600080fd5b60005b85811015613f805781613f668882614070565b845260208401935060208301925050600181019050613f53565b5050509392505050565b6000613f9d613f9884615456565b6153f9565b905082815260208101848484011115613fb557600080fd5b613fc0848285615722565b509392505050565b600081359050613fd7816158f9565b92915050565b600081519050613fec816158f9565b92915050565b600082601f83011261400357600080fd5b8135614013848260208601613f1e565b91505092915050565b60008135905061402b81615910565b92915050565b60008151905061404081615910565b92915050565b600082601f83011261405757600080fd5b8135614067848260208601613f8a565b91505092915050565b60008135905061407f81615927565b92915050565b60008151905061409481615927565b92915050565b6000602082840312156140ac57600080fd5b60006140ba84828501613fc8565b91505092915050565b6000602082840312156140d557600080fd5b60006140e384828501613fdd565b91505092915050565b600080604083850312156140ff57600080fd5b600061410d85828601613fc8565b925050602061411e85828601613fc8565b9150509250929050565b60008060006060848603121561413d57600080fd5b600061414b86828701613fc8565b935050602061415c86828701613fc8565b925050604061416d86828701614070565b9150509250925092565b6000806000806080858703121561418d57600080fd5b600061419b87828801613fc8565b94505060206141ac87828801613fc8565b93505060406141bd87828801614070565b925050606085013567ffffffffffffffff8111156141da57600080fd5b6141e687828801614046565b91505092959194509250565b6000806040838503121561420557600080fd5b600061421385828601613fc8565b92505060206142248582860161401c565b9150509250929050565b6000806040838503121561424157600080fd5b600061424f85828601613fc8565b925050602061426085828601614070565b9150509250929050565b60006020828403121561427c57600080fd5b600082013567ffffffffffffffff81111561429657600080fd5b6142a284828501613ff2565b91505092915050565b6000602082840312156142bd57600080fd5b60006142cb84828501614031565b91505092915050565b6000602082840312156142e657600080fd5b60006142f484828501614070565b91505092915050565b60006020828403121561430f57600080fd5b600061431d84828501614085565b91505092915050565b6000806040838503121561433957600080fd5b600061434785828601614070565b925050602061435885828601613fc8565b9150509250929050565b60008060006060848603121561437757600080fd5b600061438586828701614070565b935050602061439686828701613fc8565b92505060406143a786828701614070565b9150509250925092565b600080604083850312156143c457600080fd5b60006143d285828601614070565b92505060206143e385828601614070565b9150509250929050565b60008060006060848603121561440257600080fd5b600061441086828701614070565b935050602061442186828701614070565b925050604061443286828701613fc8565b9150509250925092565b60006144488383614d5e565b60e08301905092915050565b60006144608383614e7a565b60608301905092915050565b60006144788383614efe565b60208301905092915050565b61448d8161566d565b82525050565b61449c8161566d565b82525050565b60006144ad826154b6565b6144b78185615509565b93506144c283615486565b8060005b838110156144f35781516144da888261443c565b97506144e5836154e2565b9250506001810190506144c6565b5085935050505092915050565b600061450b826154c1565b614515818561551a565b935061452083615496565b8060005b838110156145515781516145388882614454565b9750614543836154ef565b925050600181019050614524565b5085935050505092915050565b6000614569826154cc565b614573818561552b565b935061457e836154a6565b8060005b838110156145af578151614596888261446c565b97506145a1836154fc565b925050600181019050614582565b5085935050505092915050565b6145c58161567f565b82525050565b6145d4816156c8565b82525050565b6145e3816156ec565b82525050565b6145f281615710565b82525050565b6000614603826154d7565b61460d818561553c565b935061461d818560208601615731565b614626816158d4565b840191505092915050565b600061463c826154d7565b614646818561554d565b9350614656818560208601615731565b80840191505092915050565b600061466f600f8361553c565b91507f6e6f7468696e67206973206672656500000000000000000000000000000000006000830152602082019050919050565b60006146af60268361553c565b91507f4f776e61626c653a206e6577206f776e657220697320746865207a65726f206160008301527f64647265737300000000000000000000000000000000000000000000000000006020830152604082019050919050565b6000614715601c8361553c565b91507f4552433732313a20746f6b656e20616c7265616479206d696e746564000000006000830152602082019050919050565b6000614755601b8361553c565b91507f536166654d6174683a206164646974696f6e206f766572666c6f7700000000006000830152602082019050919050565b600061479560248361553c565b91507f4552433732313a207472616e7366657220746f20746865207a65726f2061646460008301527f72657373000000000000000000000000000000000000000000000000000000006020830152604082019050919050565b60006147fb60198361553c565b91507f4552433732313a20617070726f766520746f2063616c6c6572000000000000006000830152602082019050919050565b600061483b600b8361553c565b91507f726571756972653a203e300000000000000000000000000000000000000000006000830152602082019050919050565b600061487b602c8361553c565b91507f4552433732313a206f70657261746f7220717565727920666f72206e6f6e657860008301527f697374656e7420746f6b656e00000000000000000000000000000000000000006020830152604082019050919050565b60006148e160388361553c565b91507f4552433732313a20617070726f76652063616c6c6572206973206e6f74206f7760008301527f6e6572206e6f7220617070726f76656420666f7220616c6c00000000000000006020830152604082019050919050565b6000614947602a8361553c565b91507f4552433732313a2062616c616e636520717565727920666f7220746865207a6560008301527f726f2061646472657373000000000000000000000000000000000000000000006020830152604082019050919050565b60006149ad60208361553c565b91507f4552433732313a206d696e7420746f20746865207a65726f20616464726573736000830152602082019050919050565b60006149ed60218361553c565b91507f536166654d6174683a206d756c7469706c69636174696f6e206f766572666c6f60008301527f77000000000000000000000000000000000000000000000000000000000000006020830152604082019050919050565b6000614a53602c8361553c565b91507f4552433732313a20617070726f76656420717565727920666f72206e6f6e657860008301527f697374656e7420746f6b656e00000000000000000000000000000000000000006020830152604082019050919050565b6000614ab960208361553c565b91507f4f776e61626c653a2063616c6c6572206973206e6f7420746865206f776e65726000830152602082019050919050565b6000614af9602f8361553c565b91507f4552433732314d657461646174613a2055524920717565727920666f72206e6f60008301527f6e6578697374656e7420746f6b656e00000000000000000000000000000000006020830152604082019050919050565b6000614b5f60108361553c565b91507f6e6f7420456e6f75676820526f6c6c73000000000000000000000000000000006000830152602082019050919050565b6000614b9f60218361553c565b91507f4552433732313a20617070726f76616c20746f2063757272656e74206f776e6560008301527f72000000000000000000000000000000000000000000000000000000000000006020830152604082019050919050565b6000614c0560078361553c565b91507f6e6f74206f776e000000000000000000000000000000000000000000000000006000830152602082019050919050565b6000614c4560318361553c565b91507f4552433732313a207472616e736665722063616c6c6572206973206e6f74206f60008301527f776e6572206e6f7220617070726f7665640000000000000000000000000000006020830152604082019050919050565b6000614cab60088361553c565b91507f6e6f742073616c650000000000000000000000000000000000000000000000006000830152602082019050919050565b6000614ceb600b8361553c565b91507f4e6f7420416c6c6f7765640000000000000000000000000000000000000000006000830152602082019050919050565b6000614d2b60068361553c565b91507f6e6f2065787000000000000000000000000000000000000000000000000000006000830152602082019050919050565b60e082016000820151614d746000850182614efe565b506020820151614d876020850182614efe565b506040820151614d9a60408501826145e9565b506060820151614dad6060850182614efe565b506080820151614dc06080850182614efe565b5060a0820151614dd360a0850182614efe565b5060c0820151614de660c0850182614efe565b50505050565b60e082016000820151614e026000850182614efe565b506020820151614e156020850182614efe565b506040820151614e2860408501826145e9565b506060820151614e3b6060850182614efe565b506080820151614e4e6080850182614efe565b5060a0820151614e6160a0850182614efe565b5060c0820151614e7460c0850182614efe565b50505050565b606082016000820151614e906000850182614efe565b506020820151614ea36020850182614484565b506040820151614eb66040850182614efe565b50505050565b606082016000820151614ed26000850182614efe565b506020820151614ee56020850182614484565b506040820151614ef86040850182614efe565b50505050565b614f07816156be565b82525050565b614f16816156be565b82525050565b614f2d614f28826156be565b6157df565b82525050565b6000614f3f8285614631565b9150614f4b8284614631565b91508190509392505050565b6000614f638285614631565b9150614f6f8284614f1c565b6020820191508190509392505050565b6000602082019050614f946000830184614493565b92915050565b6000606082019050614faf6000830186614493565b614fbc6020830185614493565b614fc96040830184614f0d565b949350505050565b6000604082019050614fe66000830185614493565b614ff36020830184614f0d565b9392505050565b6000602082019050818103600083015261501481846144a2565b905092915050565b6000604082019050818103600083015261503681856144a2565b9050818103602083015261504a8184614500565b90509392505050565b6000602082019050818103600083015261506d818461455e565b905092915050565b600060208201905061508a60008301846145bc565b92915050565b60006020820190506150a560008301846145cb565b92915050565b60006020820190506150c060008301846145da565b92915050565b600060208201905081810360008301526150e081846145f8565b905092915050565b6000602082019050818103600083015261510181614662565b9050919050565b60006020820190508181036000830152615121816146a2565b9050919050565b6000602082019050818103600083015261514181614708565b9050919050565b6000602082019050818103600083015261516181614748565b9050919050565b6000602082019050818103600083015261518181614788565b9050919050565b600060208201905081810360008301526151a1816147ee565b9050919050565b600060208201905081810360008301526151c18161482e565b9050919050565b600060208201905081810360008301526151e18161486e565b9050919050565b60006020820190508181036000830152615201816148d4565b9050919050565b600060208201905081810360008301526152218161493a565b9050919050565b60006020820190508181036000830152615241816149a0565b9050919050565b60006020820190508181036000830152615261816149e0565b9050919050565b6000602082019050818103600083015261528181614a46565b9050919050565b600060208201905081810360008301526152a181614aac565b9050919050565b600060208201905081810360008301526152c181614aec565b9050919050565b600060208201905081810360008301526152e181614b52565b9050919050565b6000602082019050818103600083015261530181614b92565b9050919050565b6000602082019050818103600083015261532181614bf8565b9050919050565b6000602082019050818103600083015261534181614c38565b9050919050565b6000602082019050818103600083015261536181614c9e565b9050919050565b6000602082019050818103600083015261538181614cde565b9050919050565b600060208201905081810360008301526153a181614d1e565b9050919050565b600060e0820190506153bd6000830184614dec565b92915050565b60006060820190506153d86000830184614ebc565b92915050565b60006020820190506153f36000830184614f0d565b92915050565b6000604051905081810181811067ffffffffffffffff821117156154205761541f6158a5565b5b8060405250919050565b600067ffffffffffffffff821115615445576154446158a5565b5b602082029050602081019050919050565b600067ffffffffffffffff821115615471576154706158a5565b5b601f19601f8301169050602081019050919050565b6000819050602082019050919050565b6000819050602082019050919050565b6000819050602082019050919050565b600081519050919050565b600081519050919050565b600081519050919050565b600081519050919050565b6000602082019050919050565b6000602082019050919050565b6000602082019050919050565b600082825260208201905092915050565b600082825260208201905092915050565b600082825260208201905092915050565b600082825260208201905092915050565b600081905092915050565b6000615563826156be565b915061556e836156be565b9250827fffffffffffffffffffffffffffffffffffffffffffffffffffffffffffffffff038211156155a3576155a26157e9565b5b828201905092915050565b60006155b9826156be565b91506155c4836156be565b9250826155d4576155d3615818565b5b828204905092915050565b60006155ea826156be565b91506155f5836156be565b9250817fffffffffffffffffffffffffffffffffffffffffffffffffffffffffffffffff048311821515161561562e5761562d6157e9565b5b828202905092915050565b6000615644826156be565b915061564f836156be565b925082821015615662576156616157e9565b5b828203905092915050565b60006156788261569e565b9050919050565b60008115159050919050565b6000819050615699826158e5565b919050565b600073ffffffffffffffffffffffffffffffffffffffff82169050919050565b6000819050919050565b60006156d3826156da565b9050919050565b60006156e58261569e565b9050919050565b60006156f7826156fe565b9050919050565b60006157098261569e565b9050919050565b600061571b8261568b565b9050919050565b82818337600083830152505050565b60005b8381101561574f578082015181840152602081019050615734565b8381111561575e576000848401525b50505050565b6000600282049050600182168061577c57607f821691505b602082108114156157905761578f615876565b5b50919050565b60006157a1826156be565b91507fffffffffffffffffffffffffffffffffffffffffffffffffffffffffffffffff8214156157d4576157d36157e9565b5b600182019050919050565b6000819050919050565b7f4e487b7100000000000000000000000000000000000000000000000000000000600052601160045260246000fd5b7f4e487b7100000000000000000000000000000000000000000000000000000000600052601260045260246000fd5b7f4e487b7100000000000000000000000000000000000000000000000000000000600052602160045260246000fd5b7f4e487b7100000000000000000000000000000000000000000000000000000000600052602260045260246000fd5b7f4e487b7100000000000000000000000000000000000000000000000000000000600052604160045260246000fd5b6000601f19601f8301169050919050565b600681106158f6576158f5615847565b5b50565b6159028161566d565b811461590d57600080fd5b50565b6159198161567f565b811461592457600080fd5b50565b615930816156be565b811461593b57600080fd5b5056fe4552433732313a206f776e657220717565727920666f72206e6f6e6578697374656e7420746f6b656ea2646970667358221220ea0fe908653470415511c2cc123bf15943b83b274ca0bd7d23d7f09c7cae488c64736f6c63430008000033",
  "immutableReferences": {},
  "source": "// SPDX-License-Identifier: UNLICENSED\r\npragma solidity ^0.8.0;\r\n\r\nimport \"./Utils.sol\";\r\nimport \"./IHeroPrimeManager.sol\";\r\nimport \"./IERC20.sol\";\r\nimport \"./ERC721.sol\";\r\n\r\ncontract HeroPrimeNFT is ERC721, Ownable {\r\n    using SafeMath for uint256;\r\n    using EnumerableSet for EnumerableSet.UintSet;\r\n    \r\n    enum Element {\r\n        WARRIOR,\r\n        AQUA,\r\n        FIEND,\r\n        ROCK,\r\n        INSECT,\r\n        MACHINE\r\n    }\r\n    \r\n    event rolledHero(uint256 indexed tokenId, address buyer);\r\n    event Exp(uint256 indexed tokenId, uint256 exp);\r\n    \r\n    event PlaceOrder(uint256 indexed tokenId, address seller, uint256 price);\r\n    event CancelOrder(uint256 indexed tokenId, address seller);\r\n    event FillOrder(uint256 indexed tokenId, address seller);\r\n\r\n    struct HeroPrime {\r\n        uint id;\r\n        uint256 generation;\r\n        Element element;\r\n        uint256 exp;\r\n        uint256 dna;\r\n        uint256 farmTime;\r\n        uint256 bornTime;\r\n    }\r\n    struct ItemSale {\r\n        uint256 tokenId;\r\n        address owner;\r\n        uint256 price;\r\n    }\r\n    \r\n    uint256 public latestTokenId;\r\n\r\n    mapping(uint256 => HeroPrime) internal heroPrimes;\r\n    mapping(uint256 => ItemSale) internal listings;\r\n    \r\n    EnumerableSet.UintSet private tokenSales;\r\n    mapping(address => EnumerableSet.UintSet) private sellerTokens;\r\n\r\n    mapping(address => uint256) internal heroPrimeRolls;\r\n\r\n    \r\n    IERC20 public heroPrimeERC20;\r\n    IHeroPrimeManager public manager;\r\n\r\n    constructor(\r\n        string memory _name,\r\n        string memory _symbol,\r\n        address _heroprimeERC20\r\n    ) ERC721(_name, _symbol) {\r\n        heroPrimeERC20 = IERC20(_heroprimeERC20);\r\n    }\r\n\r\n    function setManager(address _manager) external onlyOwner{\r\n        manager = IHeroPrimeManager(_manager);\r\n    }\r\n    modifier onlyManager(){\r\n        require(_msgSender() == address(manager), \"Not Allowed\");\r\n        _;\r\n    }\r\n    function _mint(address to, uint256 tokenId) internal override(ERC721) {\r\n        super._mint(to, tokenId);\r\n\r\n        _incrementTokenId();\r\n    }\r\n    \r\n    /**\r\n     * @dev calculates the next token ID based on value of latestTokenId\r\n     * @return uint256 for the next token ID\r\n     */\r\n    function _getNextTokenId() private view returns (uint256) {\r\n        return latestTokenId.add(1);\r\n    }\r\n\r\n    /**\r\n     * @dev increments the value of latestTokenId\r\n     */\r\n    function _incrementTokenId() private {\r\n        latestTokenId++;\r\n    }\r\n\r\n    function getHeroPrime(uint256 _tokenId)\r\n        public\r\n        view\r\n        returns (HeroPrime memory)\r\n    {\r\n        return heroPrimes[_tokenId];\r\n    }\r\n\r\n    function getHeroPrimes(uint256[] memory _tokenIds)\r\n        public\r\n        view\r\n        returns (HeroPrime[] memory)\r\n    {\r\n        HeroPrime[] memory result = new HeroPrime[](_tokenIds.length);\r\n        for (uint256 index = 0; index < _tokenIds.length; index++) {\r\n            result[index] = heroPrimes[_tokenIds[index]];\r\n        }\r\n        return result;\r\n    }\r\n\r\n    function heroPrimeLevel(uint256 _tokenId) public view returns (uint256) {\r\n        return getLevel(getHeroPrime(_tokenId).exp);\r\n    }\r\n\r\n    function getLevel(uint256 _exp) internal pure returns (uint256) {\r\n        if (_exp < 100) {\r\n            return 1;\r\n        } else if (_exp < 350) {\r\n            return 2;\r\n        } else if (_exp < 1000) {\r\n            return 3;\r\n        } else if (_exp < 2000) {\r\n            return 4;\r\n        } else if (_exp < 4000) {\r\n            return 5;\r\n        } else {\r\n            return 6;\r\n        }\r\n    }\r\n    \r\n    function getRare(uint256 _tokenId) public view returns (uint256) {\r\n        uint256 dna = getHeroPrime(_tokenId).dna;\r\n        if (dna == 0) return 0;\r\n        uint256 rareParser = dna / 10**26;\r\n        if (rareParser < 5225) {\r\n            return 1;\r\n        } else if (rareParser < 7837) {\r\n            return 2;\r\n        } else if (rareParser < 8707) {\r\n            return 3;\r\n        } else if (rareParser < 9360) {\r\n            return 4;\r\n        } else if (rareParser < 9708) {\r\n            return 5;\r\n        } else {\r\n            return 6;\r\n        }\r\n    }\r\n\r\n\r\n    function rollHero(\r\n        uint256 amount,\r\n        address receiver,\r\n        uint elementindex\r\n    ) external {\r\n        require(heroPrimeRolls[receiver] >= amount, \"not Enough Rolls\" );\r\n        Element element = Element(elementindex);\r\n        require(amount > 0, \"require: >0\");\r\n        if (amount == 1) _rollHero(receiver, element);\r\n        else\r\n            for (uint256 index = 0; index < amount; index++) {\r\n                _rollHero(receiver, element);\r\n            }\r\n    }\r\n\r\n    function _rollHero(address receiver, Element element) internal {\r\n        heroPrimeRolls[receiver] = heroPrimeRolls[receiver].sub(1);\r\n        uint256 nextTokenId = _getNextTokenId();\r\n        _mint(receiver, nextTokenId);\r\n\r\n        heroPrimes[nextTokenId] = HeroPrime({\r\n            id: nextTokenId,\r\n            generation: 0,\r\n            element: element,\r\n            exp: 0,\r\n            dna: 0,\r\n            farmTime: 0,\r\n            bornTime: block.timestamp\r\n        });\r\n\r\n        emit rolledHero(nextTokenId, receiver);\r\n    }\r\n\r\n    function incrementRolls(uint256 amount, address receiver) external {\r\n        require(amount > 0, \"require: >0\");\r\n        if (amount == 1) _incrementRolls(receiver);\r\n        else\r\n            for (uint256 index = 0; index < amount; index++) {\r\n                _incrementRolls(receiver);\r\n            }\r\n    }\r\n\r\n    function _incrementRolls(address receiver) internal {\r\n        heroPrimeRolls[receiver] = heroPrimeRolls[receiver].add(1);\r\n    }\r\n\r\n    function getOwnerHeroPrimeRolls(address owner) external view returns (uint256) {\r\n        return heroPrimeRolls[owner];\r\n    }\r\n    \r\n    function exp(uint256 _tokenId, uint256 _exp) public {\r\n        require(_exp > 0, \"no exp\");\r\n        HeroPrime storage heroPrime = heroPrimes[_tokenId];\r\n        heroPrime.exp = heroPrime.exp.add(_exp);\r\n        emit Exp(_tokenId, _exp);\r\n    }\r\n\r\n    \r\n    // marketplace\r\n\r\n    function placeOrder(uint256 _tokenId, uint256 _price, address sender) external onlyManager {\r\n        require(ownerOf(_tokenId) == sender, \"not own\");\r\n        require(_price > 0, \"nothing is free\");\r\n\r\n        tokenOrder(_tokenId, true, _price, sender);\r\n\r\n        emit PlaceOrder(_tokenId, sender, _price);\r\n    }\r\n\r\n    function cancelOrder(uint256 _tokenId, address sender) external onlyManager {\r\n        require(tokenSales.contains(_tokenId), \"not sale\");\r\n        ItemSale storage itemSale = listings[_tokenId];\r\n        require(itemSale.owner == sender, \"not own\");\r\n\r\n        tokenOrder(_tokenId, false, 0, sender);\r\n\r\n        emit CancelOrder(_tokenId, sender);\r\n    }\r\n\r\n    function fillOrder(uint256 _tokenId, address sender) external onlyManager {\r\n        require(tokenSales.contains(_tokenId), \"not sale\");\r\n        ItemSale storage itemSale = listings[_tokenId];\r\n        uint256 feeMarket = itemSale.price.mul(manager.feeMarketRate()).div(\r\n            manager.divPercent()\r\n        );\r\n        heroPrimeERC20.transferFrom(sender, manager.feeAddress(), feeMarket);\r\n        heroPrimeERC20.transferFrom(\r\n            sender,\r\n            itemSale.owner,\r\n            itemSale.price.sub(feeMarket)\r\n        );\r\n\r\n        tokenOrder(_tokenId, false, 0, sender);\r\n        emit FillOrder(_tokenId, sender);\r\n    }\r\n\r\n    function tokenOrder(\r\n        uint256 _tokenId,\r\n        bool _sell,\r\n        uint256 _price,\r\n        address sender\r\n    ) internal {\r\n        ItemSale storage itemSale = listings[_tokenId];\r\n        if (_sell) {\r\n            transferFrom(sender, manager.feeAddress(), _tokenId);\r\n            tokenSales.add(_tokenId);\r\n            sellerTokens[sender].add(_tokenId);\r\n\r\n            listings[_tokenId] = ItemSale({\r\n                tokenId: _tokenId,\r\n                price: _price,\r\n                owner: sender\r\n            });\r\n        } else {\r\n            transferFrom(manager.feeAddress(), sender, _tokenId);\r\n\r\n            tokenSales.remove(_tokenId);\r\n            sellerTokens[itemSale.owner].remove(_tokenId);\r\n            listings[_tokenId] = ItemSale({\r\n                tokenId: 0,\r\n                price: 0,\r\n                owner: address(0)\r\n            });\r\n        }\r\n    }\r\n\r\n    function marketsSize() public view returns (uint256) {\r\n        return tokenSales.length();\r\n    }\r\n    function market() public view returns (HeroPrime[] memory resultHeroes, ItemSale[] memory resultSales ) {\r\n        resultHeroes = new HeroPrime[](tokenSales.length());\r\n        resultSales = new ItemSale[](tokenSales.length());\r\n        for (uint256 index = 0; index < tokenSales.length(); index++) {\r\n            resultHeroes[index] = heroPrimes[tokenSales.at(index)];\r\n            resultSales[index] = listings[heroPrimes[tokenSales.at(index)].id];\r\n        }\r\n    }\r\n\r\n    function orders(address _seller) public view returns (uint256) {\r\n        return sellerTokens[_seller].length();\r\n    }\r\n\r\n    function tokenSaleByIndex(uint256 index) public view returns (uint256) {\r\n        return tokenSales.at(index);\r\n    }\r\n\r\n    function tokenSaleOfOwnerByIndex(address _seller, uint256 index)\r\n        public\r\n        view\r\n        returns (uint256)\r\n    {\r\n        return sellerTokens[_seller].at(index);\r\n    }\r\n\r\n    function getSale(uint256 _tokenId) public view returns (ItemSale memory) {\r\n        if (tokenSales.contains(_tokenId)) return listings[_tokenId];\r\n        return ItemSale({tokenId: 0, owner: address(0), price: 0});\r\n    }\r\n}",
  "sourcePath": "C:\\workspace\\Personal\\truffle\\HeroPrime\\contracts\\HeroPrimeNFT.sol",
  "compiler": {
    "name": "solc",
    "version": "0.8.0+commit.c7dfd78e.Emscripten.clang"
  },
  "schemaVersion": "3.4.3",
  "updatedAt": "2021-09-18T15:56:15.791Z",
  "networkType": "ethereum",
  "devdoc": {
    "kind": "dev",
    "methods": {
      "approve(address,uint256)": {
        "details": "See {IERC721-approve}."
      },
      "balanceOf(address)": {
        "details": "See {IERC721-balanceOf}."
      },
      "baseURI()": {
        "details": "Returns the base URI set via {_setBaseURI}. This will be automatically added as a prefix in {tokenURI} to each token's URI, or to the token ID if no specific URI is set for that token ID."
      },
      "getApproved(uint256)": {
        "details": "See {IERC721-getApproved}."
      },
      "isApprovedForAll(address,address)": {
        "details": "See {IERC721-isApprovedForAll}."
      },
      "name()": {
        "details": "See {IERC721Metadata-name}."
      },
      "owner()": {
        "details": "Returns the address of the current owner."
      },
      "ownerOf(uint256)": {
        "details": "See {IERC721-ownerOf}."
      },
      "renounceOwnership()": {
        "details": "Leaves the contract without owner. It will not be possible to call `onlyOwner` functions anymore. Can only be called by the current owner. NOTE: Renouncing ownership will leave the contract without an owner, thereby removing any functionality that is only available to the owner."
      },
      "safeTransferFrom(address,address,uint256)": {
        "details": "See {IERC721-safeTransferFrom}."
      },
      "safeTransferFrom(address,address,uint256,bytes)": {
        "details": "See {IERC721-safeTransferFrom}."
      },
      "setApprovalForAll(address,bool)": {
        "details": "See {IERC721-setApprovalForAll}."
      },
      "symbol()": {
        "details": "See {IERC721Metadata-symbol}."
      },
      "tokenByIndex(uint256)": {
        "details": "See {IERC721Enumerable-tokenByIndex}."
      },
      "tokenURI(uint256)": {
        "details": "See {IERC721Metadata-tokenURI}."
      },
      "totalSupply()": {
        "details": "See {IERC721Enumerable-totalSupply}."
      },
      "transferFrom(address,address,uint256)": {
        "details": "See {IERC721-transferFrom}."
      },
      "transferOwnership(address)": {
        "details": "Transfers ownership of the contract to a new account (`newOwner`). Can only be called by the current owner."
      }
    },
    "version": 1
  },
  "userdoc": {
    "kind": "user",
    "methods": {},
    "version": 1
  }
}