{
  "contractName": "HeroPrimeManager",
  "abi": [
    {
      "inputs": [
        {
          "internalType": "address",
          "name": "token",
          "type": "address"
        },
        {
          "internalType": "address",
          "name": "nft",
          "type": "address"
        },
        {
          "internalType": "address",
          "name": "engine",
          "type": "address"
        }
      ],
      "stateMutability": "nonpayable",
      "type": "constructor"
    },
    {
      "anonymous": false,
      "inputs": [
        {
          "indexed": true,
          "internalType": "address",
          "name": "previousOwner",
          "type": "address"
        },
        {
          "indexed": true,
          "internalType": "address",
          "name": "newOwner",
          "type": "address"
        }
      ],
      "name": "OwnershipTransferred",
      "type": "event"
    },
    {
      "inputs": [],
      "name": "_attackFee",
      "outputs": [
        {
          "internalType": "uint256",
          "name": "",
          "type": "uint256"
        }
      ],
      "stateMutability": "view",
      "type": "function",
      "constant": true
    },
    {
      "inputs": [],
      "name": "_rollHeroPrice",
      "outputs": [
        {
          "internalType": "uint256",
          "name": "",
          "type": "uint256"
        }
      ],
      "stateMutability": "view",
      "type": "function",
      "constant": true
    },
    {
      "inputs": [],
      "name": "divPercent",
      "outputs": [
        {
          "internalType": "uint256",
          "name": "",
          "type": "uint256"
        }
      ],
      "stateMutability": "view",
      "type": "function",
      "constant": true
    },
    {
      "inputs": [],
      "name": "feeAddress",
      "outputs": [
        {
          "internalType": "address",
          "name": "",
          "type": "address"
        }
      ],
      "stateMutability": "view",
      "type": "function",
      "constant": true
    },
    {
      "inputs": [],
      "name": "feeMarketRate",
      "outputs": [
        {
          "internalType": "uint256",
          "name": "",
          "type": "uint256"
        }
      ],
      "stateMutability": "view",
      "type": "function",
      "constant": true
    },
    {
      "inputs": [],
      "name": "owner",
      "outputs": [
        {
          "internalType": "address",
          "name": "",
          "type": "address"
        }
      ],
      "stateMutability": "view",
      "type": "function",
      "constant": true
    },
    {
      "inputs": [],
      "name": "renounceOwnership",
      "outputs": [],
      "stateMutability": "nonpayable",
      "type": "function"
    },
    {
      "inputs": [
        {
          "internalType": "address",
          "name": "newOwner",
          "type": "address"
        }
      ],
      "name": "transferOwnership",
      "outputs": [],
      "stateMutability": "nonpayable",
      "type": "function"
    },
    {
      "inputs": [
        {
          "internalType": "uint256",
          "name": "_fee",
          "type": "uint256"
        }
      ],
      "name": "setAttackFee",
      "outputs": [],
      "stateMutability": "nonpayable",
      "type": "function"
    },
    {
      "inputs": [
        {
          "internalType": "uint256",
          "name": "_fee",
          "type": "uint256"
        }
      ],
      "name": "setRollHeroPrice",
      "outputs": [],
      "stateMutability": "nonpayable",
      "type": "function"
    },
    {
      "inputs": [
        {
          "internalType": "address",
          "name": "_feeaddress",
          "type": "address"
        }
      ],
      "name": "setFeeAddress",
      "outputs": [],
      "stateMutability": "nonpayable",
      "type": "function"
    },
    {
      "inputs": [
        {
          "internalType": "uint256",
          "name": "newRate",
          "type": "uint256"
        }
      ],
      "name": "setFeeMarketRate",
      "outputs": [],
      "stateMutability": "nonpayable",
      "type": "function"
    },
    {
      "inputs": [
        {
          "internalType": "uint256",
          "name": "_divPercent",
          "type": "uint256"
        }
      ],
      "name": "setDivPercent",
      "outputs": [],
      "stateMutability": "nonpayable",
      "type": "function"
    },
    {
      "inputs": [
        {
          "internalType": "uint256",
          "name": "_tokenId",
          "type": "uint256"
        },
        {
          "internalType": "uint256",
          "name": "_monster",
          "type": "uint256"
        }
      ],
      "name": "attackMonster",
      "outputs": [],
      "stateMutability": "nonpayable",
      "type": "function"
    },
    {
      "inputs": [
        {
          "internalType": "uint256",
          "name": "amount",
          "type": "uint256"
        }
      ],
      "name": "buyHeroRolls",
      "outputs": [],
      "stateMutability": "nonpayable",
      "type": "function"
    },
    {
      "inputs": [
        {
          "internalType": "uint256",
          "name": "amount",
          "type": "uint256"
        },
        {
          "internalType": "uint256",
          "name": "elementindex",
          "type": "uint256"
        }
      ],
      "name": "rollForHero",
      "outputs": [],
      "stateMutability": "nonpayable",
      "type": "function"
    },
    {
      "inputs": [
        {
          "internalType": "uint256",
          "name": "_tokenId",
          "type": "uint256"
        },
        {
          "internalType": "uint256",
          "name": "_price",
          "type": "uint256"
        }
      ],
      "name": "placeItemForSale",
      "outputs": [],
      "stateMutability": "nonpayable",
      "type": "function"
    },
    {
      "inputs": [
        {
          "internalType": "uint256",
          "name": "_tokenId",
          "type": "uint256"
        }
      ],
      "name": "removeItemFromSale",
      "outputs": [],
      "stateMutability": "nonpayable",
      "type": "function"
    },
    {
      "inputs": [
        {
          "internalType": "uint256",
          "name": "_tokenId",
          "type": "uint256"
        }
      ],
      "name": "buyItemFromMarketplace",
      "outputs": [],
      "stateMutability": "nonpayable",
      "type": "function"
    }
  ],
  "bytecode": "0x6080604052680ad78ebc5ac6200000600155670de0b6b3a76400006002556001600355600a6004553480156200003457600080fd5b506040516200184d3803806200184d83398181016040528101906200005a919062000236565b60006200006c6200021760201b60201c565b9050806000806101000a81548173ffffffffffffffffffffffffffffffffffffffff021916908373ffffffffffffffffffffffffffffffffffffffff1602179055508073ffffffffffffffffffffffffffffffffffffffff16600073ffffffffffffffffffffffffffffffffffffffff167f8be0079c531659141344cd1fd0a4f28419497f9722a3daafe3b4186f6b6457e060405160405180910390a35081600560006101000a81548173ffffffffffffffffffffffffffffffffffffffff021916908373ffffffffffffffffffffffffffffffffffffffff16021790555082600660006101000a81548173ffffffffffffffffffffffffffffffffffffffff021916908373ffffffffffffffffffffffffffffffffffffffff16021790555080600760006101000a81548173ffffffffffffffffffffffffffffffffffffffff021916908373ffffffffffffffffffffffffffffffffffffffff16021790555030600860006101000a81548173ffffffffffffffffffffffffffffffffffffffff021916908373ffffffffffffffffffffffffffffffffffffffff160217905550505050620002da565b600033905090565b6000815190506200023081620002c0565b92915050565b6000806000606084860312156200024c57600080fd5b60006200025c868287016200021f565b93505060206200026f868287016200021f565b925050604062000282868287016200021f565b9150509250925092565b60006200029982620002a0565b9050919050565b600073ffffffffffffffffffffffffffffffffffffffff82169050919050565b620002cb816200028c565b8114620002d757600080fd5b50565b61156380620002ea6000396000f3fe608060405234801561001057600080fd5b50600436106101215760003560e01c8063715018a6116100ad578063956d217211610071578063956d2172146102a65780639764665d146102c2578063d372437a146102de578063e9ac7bee146102fa578063f2fde38b1461031857610121565b8063715018a61461022a5780638384ad5c146102345780638705fcd4146102505780638da5cb5b1461026c57806394d812541461028a57610121565b80632fa348f7116100f45780632fa348f71461019857806341275358146101b457806343aa2b6c146101d2578063470ef610146101f05780635bdb81381461020e57610121565b80630703974f146101265780630abfd978146101445780632358cadf1461016057806328decbd61461017c575b600080fd5b61012e610334565b60405161013b91906113dd565b60405180910390f35b61015e60048036038101906101599190611162565b61033a565b005b61017a60048036038101906101759190611162565b610496565b005b610196600480360381019061019191906111b4565b61052f565b005b6101b260048036038101906101ad9190611162565b6105cb565b005b6101bc61066a565b6040516101c991906112f4565b60405180910390f35b6101da610690565b6040516101e791906113dd565b60405180910390f35b6101f8610696565b60405161020591906113dd565b60405180910390f35b61022860048036038101906102239190611162565b61069c565b005b61023261073b565b005b61024e60048036038101906102499190611162565b61088e565b005b61026a600480360381019061026591906110e7565b610927565b005b610274610a00565b60405161028191906112f4565b60405180910390f35b6102a4600480360381019061029f91906111b4565b610a29565b005b6102c060048036038101906102bb9190611162565b610be4565b005b6102dc60048036038101906102d791906111b4565b610c83565b005b6102f860048036038101906102f39190611162565b610e03565b005b610302610ea2565b60405161030f91906113dd565b60405180910390f35b610332600480360381019061032d91906110e7565b610ea8565b005b60025481565b600660009054906101000a900473ffffffffffffffffffffffffffffffffffffffff1673ffffffffffffffffffffffffffffffffffffffff166323b872dd610380610f49565b306001546040518463ffffffff1660e01b81526004016103a29392919061130f565b602060405180830381600087803b1580156103bc57600080fd5b505af11580156103d0573d6000803e3d6000fd5b505050506040513d601f19601f820116820180604052508101906103f49190611139565b6103fd57600080fd5b600560009054906101000a900473ffffffffffffffffffffffffffffffffffffffff1673ffffffffffffffffffffffffffffffffffffffff1663a3f7ac1082610444610f49565b6040518363ffffffff1660e01b81526004016104619291906113f8565b600060405180830381600087803b15801561047b57600080fd5b505af115801561048f573d6000803e3d6000fd5b5050505050565b600560009054906101000a900473ffffffffffffffffffffffffffffffffffffffff1673ffffffffffffffffffffffffffffffffffffffff16637323a7d3826104dd610f49565b6040518363ffffffff1660e01b81526004016104fa9291906113f8565b600060405180830381600087803b15801561051457600080fd5b505af1158015610528573d6000803e3d6000fd5b5050505050565b600560009054906101000a900473ffffffffffffffffffffffffffffffffffffffff1673ffffffffffffffffffffffffffffffffffffffff16637732005083610576610f49565b846040518463ffffffff1660e01b815260040161059593929190611421565b600060405180830381600087803b1580156105af57600080fd5b505af11580156105c3573d6000803e3d6000fd5b505050505050565b6105d3610f49565b73ffffffffffffffffffffffffffffffffffffffff1660008054906101000a900473ffffffffffffffffffffffffffffffffffffffff1673ffffffffffffffffffffffffffffffffffffffff1614610660576040517f08c379a00000000000000000000000000000000000000000000000000000000081526004016106579061139d565b60405180910390fd5b8060038190555050565b600860009054906101000a900473ffffffffffffffffffffffffffffffffffffffff1681565b60035481565b60045481565b6106a4610f49565b73ffffffffffffffffffffffffffffffffffffffff1660008054906101000a900473ffffffffffffffffffffffffffffffffffffffff1673ffffffffffffffffffffffffffffffffffffffff1614610731576040517f08c379a00000000000000000000000000000000000000000000000000000000081526004016107289061139d565b60405180910390fd5b8060048190555050565b610743610f49565b73ffffffffffffffffffffffffffffffffffffffff1660008054906101000a900473ffffffffffffffffffffffffffffffffffffffff1673ffffffffffffffffffffffffffffffffffffffff16146107d0576040517f08c379a00000000000000000000000000000000000000000000000000000000081526004016107c79061139d565b60405180910390fd5b600073ffffffffffffffffffffffffffffffffffffffff1660008054906101000a900473ffffffffffffffffffffffffffffffffffffffff1673ffffffffffffffffffffffffffffffffffffffff167f8be0079c531659141344cd1fd0a4f28419497f9722a3daafe3b4186f6b6457e060405160405180910390a360008060006101000a81548173ffffffffffffffffffffffffffffffffffffffff021916908373ffffffffffffffffffffffffffffffffffffffff160217905550565b600560009054906101000a900473ffffffffffffffffffffffffffffffffffffffff1673ffffffffffffffffffffffffffffffffffffffff16634aaecf54826108d5610f49565b6040518363ffffffff1660e01b81526004016108f29291906113f8565b600060405180830381600087803b15801561090c57600080fd5b505af1158015610920573d6000803e3d6000fd5b5050505050565b61092f610f49565b73ffffffffffffffffffffffffffffffffffffffff1660008054906101000a900473ffffffffffffffffffffffffffffffffffffffff1673ffffffffffffffffffffffffffffffffffffffff16146109bc576040517f08c379a00000000000000000000000000000000000000000000000000000000081526004016109b39061139d565b60405180910390fd5b80600860006101000a81548173ffffffffffffffffffffffffffffffffffffffff021916908373ffffffffffffffffffffffffffffffffffffffff16021790555050565b60008060009054906101000a900473ffffffffffffffffffffffffffffffffffffffff16905090565b610a31610f49565b73ffffffffffffffffffffffffffffffffffffffff16600560009054906101000a900473ffffffffffffffffffffffffffffffffffffffff1673ffffffffffffffffffffffffffffffffffffffff16636352211e846040518263ffffffff1660e01b8152600401610aa291906113dd565b60206040518083038186803b158015610aba57600080fd5b505afa158015610ace573d6000803e3d6000fd5b505050506040513d601f19601f82011682018060405250810190610af29190611110565b73ffffffffffffffffffffffffffffffffffffffff1614610b48576040517f08c379a0000000000000000000000000000000000000000000000000000000008152600401610b3f906113bd565b60405180910390fd5b600560009054906101000a900473ffffffffffffffffffffffffffffffffffffffff1673ffffffffffffffffffffffffffffffffffffffff166335e4365f8383610b90610f49565b6040518463ffffffff1660e01b8152600401610bae93929190611458565b600060405180830381600087803b158015610bc857600080fd5b505af1158015610bdc573d6000803e3d6000fd5b505050505050565b610bec610f49565b73ffffffffffffffffffffffffffffffffffffffff1660008054906101000a900473ffffffffffffffffffffffffffffffffffffffff1673ffffffffffffffffffffffffffffffffffffffff1614610c79576040517f08c379a0000000000000000000000000000000000000000000000000000000008152600401610c709061139d565b60405180910390fd5b8060028190555050565b600660009054906101000a900473ffffffffffffffffffffffffffffffffffffffff1673ffffffffffffffffffffffffffffffffffffffff166323b872dd610cc9610f49565b306002546040518463ffffffff1660e01b8152600401610ceb9392919061130f565b602060405180830381600087803b158015610d0557600080fd5b505af1158015610d19573d6000803e3d6000fd5b505050506040513d601f19601f82011682018060405250810190610d3d9190611139565b610d4657600080fd5b600760009054906101000a900473ffffffffffffffffffffffffffffffffffffffff1673ffffffffffffffffffffffffffffffffffffffff1663c28ad2d3610d8c610f49565b84846040518463ffffffff1660e01b8152600401610dac93929190611346565b602060405180830381600087803b158015610dc657600080fd5b505af1158015610dda573d6000803e3d6000fd5b505050506040513d601f19601f82011682018060405250810190610dfe919061118b565b505050565b610e0b610f49565b73ffffffffffffffffffffffffffffffffffffffff1660008054906101000a900473ffffffffffffffffffffffffffffffffffffffff1673ffffffffffffffffffffffffffffffffffffffff1614610e98576040517f08c379a0000000000000000000000000000000000000000000000000000000008152600401610e8f9061139d565b60405180910390fd5b8060018190555050565b60015481565b610eb0610f49565b73ffffffffffffffffffffffffffffffffffffffff1660008054906101000a900473ffffffffffffffffffffffffffffffffffffffff1673ffffffffffffffffffffffffffffffffffffffff1614610f3d576040517f08c379a0000000000000000000000000000000000000000000000000000000008152600401610f349061139d565b60405180910390fd5b610f4681610f51565b50565b600033905090565b600073ffffffffffffffffffffffffffffffffffffffff168173ffffffffffffffffffffffffffffffffffffffff161415610fc1576040517f08c379a0000000000000000000000000000000000000000000000000000000008152600401610fb89061137d565b60405180910390fd5b8073ffffffffffffffffffffffffffffffffffffffff1660008054906101000a900473ffffffffffffffffffffffffffffffffffffffff1673ffffffffffffffffffffffffffffffffffffffff167f8be0079c531659141344cd1fd0a4f28419497f9722a3daafe3b4186f6b6457e060405160405180910390a3806000806101000a81548173ffffffffffffffffffffffffffffffffffffffff021916908373ffffffffffffffffffffffffffffffffffffffff16021790555050565b60008135905061108d816114e8565b92915050565b6000815190506110a2816114e8565b92915050565b6000815190506110b7816114ff565b92915050565b6000813590506110cc81611516565b92915050565b6000815190506110e181611516565b92915050565b6000602082840312156110f957600080fd5b60006111078482850161107e565b91505092915050565b60006020828403121561112257600080fd5b600061113084828501611093565b91505092915050565b60006020828403121561114b57600080fd5b6000611159848285016110a8565b91505092915050565b60006020828403121561117457600080fd5b6000611182848285016110bd565b91505092915050565b60006020828403121561119d57600080fd5b60006111ab848285016110d2565b91505092915050565b600080604083850312156111c757600080fd5b60006111d5858286016110bd565b92505060206111e6858286016110bd565b9150509250929050565b6111f9816114a0565b82525050565b600061120c60268361148f565b91507f4f776e61626c653a206e6577206f776e657220697320746865207a65726f206160008301527f64647265737300000000000000000000000000000000000000000000000000006020830152604082019050919050565b600061127260208361148f565b91507f4f776e61626c653a2063616c6c6572206973206e6f7420746865206f776e65726000830152602082019050919050565b60006112b260098361148f565b91507f6e6f74204f776e657200000000000000000000000000000000000000000000006000830152602082019050919050565b6112ee816114de565b82525050565b600060208201905061130960008301846111f0565b92915050565b600060608201905061132460008301866111f0565b61133160208301856111f0565b61133e60408301846112e5565b949350505050565b600060608201905061135b60008301866111f0565b61136860208301856112e5565b61137560408301846112e5565b949350505050565b60006020820190508181036000830152611396816111ff565b9050919050565b600060208201905081810360008301526113b681611265565b9050919050565b600060208201905081810360008301526113d6816112a5565b9050919050565b60006020820190506113f260008301846112e5565b92915050565b600060408201905061140d60008301856112e5565b61141a60208301846111f0565b9392505050565b600060608201905061143660008301866112e5565b61144360208301856111f0565b61145060408301846112e5565b949350505050565b600060608201905061146d60008301866112e5565b61147a60208301856112e5565b61148760408301846111f0565b949350505050565b600082825260208201905092915050565b60006114ab826114be565b9050919050565b60008115159050919050565b600073ffffffffffffffffffffffffffffffffffffffff82169050919050565b6000819050919050565b6114f1816114a0565b81146114fc57600080fd5b50565b611508816114b2565b811461151357600080fd5b50565b61151f816114de565b811461152a57600080fd5b5056fea2646970667358221220364e2af68697fe5c04e0f54378458afb7dba689515fb63e61e06ddeb6247801764736f6c63430008000033",
  "immutableReferences": {},
  "source": "// SPDX-License-Identifier: UNLICENSED\r\npragma solidity ^0.8.0;\r\n\r\nimport \"./Utils.sol\";\r\nimport \"./IHeroPrimeNFT.sol\";\r\nimport \"./IERC20.sol\";\r\nimport \"./IHeroPrimeEngine.sol\";\r\n\r\ncontract HeroPrimeManager is Context, Ownable {\r\n    using SafeMath for uint256;\r\n\r\n    uint public _rollHeroPrice = 200 * 10**18;\r\n    uint public _attackFee = 1 * 10**18;\r\n    uint public feeMarketRate = 1;\r\n    uint public divPercent = 10;\r\n\r\n\r\n    IHeroPrimeNFT internal heroPrimeNFT;\r\n    IERC20 internal heroPrimeToken;\r\n    IHeroPrimeEngine internal heroPrimeEngine;\r\n\r\n    address public feeAddress;\r\n\r\n    constructor(address token, address nft, address engine){\r\n        heroPrimeNFT = IHeroPrimeNFT(nft);\r\n        heroPrimeToken = IERC20(token);\r\n        heroPrimeEngine = IHeroPrimeEngine(engine);\r\n        feeAddress = address(this);\r\n    }\r\n\r\n    function setAttackFee(uint _fee) external onlyOwner{\r\n        _attackFee = _fee;\r\n    }\r\n\r\n    function setRollHeroPrice(uint _fee) external onlyOwner{\r\n        _rollHeroPrice = _fee;\r\n    }\r\n    function setFeeAddress(address _feeaddress) external onlyOwner{\r\n        feeAddress = _feeaddress;\r\n    }\r\n    function setFeeMarketRate(uint newRate) external onlyOwner{\r\n        feeMarketRate = newRate;\r\n    }\r\n    function setDivPercent(uint _divPercent) external onlyOwner{\r\n        divPercent = _divPercent;\r\n    }\r\n    // battle external function\r\n\r\n    function attackMonster(uint _tokenId, uint _monster) external {\r\n        require(heroPrimeToken.transferFrom(_msgSender(), address(this), _attackFee));\r\n        heroPrimeEngine.battle(_msgSender(), _tokenId, _monster);\r\n    }\r\n    \r\n    // rollHeroPrice\r\n    function buyHeroRolls(uint amount) external {\r\n        require(heroPrimeToken.transferFrom(_msgSender(), address(this), _rollHeroPrice));\r\n        heroPrimeNFT.incrementRolls(amount, _msgSender());\r\n    }\r\n\r\n    //rollForHero\r\n    function rollForHero(uint256 amount, uint elementindex) external {\r\n        heroPrimeNFT.rollHero(amount, _msgSender(), elementindex);\r\n    }\r\n\r\n    // attackFee\r\n    // enterDungeonFee\r\n\r\n    // BuyHeroPrime\r\n\r\n    // marketplace functions\r\n    function placeItemForSale(uint256 _tokenId, uint256 _price) external {\r\n        require(heroPrimeNFT.ownerOf(_tokenId) == _msgSender(), \"not Owner\");\r\n        heroPrimeNFT.placeOrder(_tokenId, _price, _msgSender());\r\n    }\r\n    function removeItemFromSale(uint256 _tokenId) external {\r\n        heroPrimeNFT.cancelOrder(_tokenId, _msgSender());\r\n    }\r\n    function buyItemFromMarketplace(uint256 _tokenId) external {\r\n        heroPrimeNFT.fillOrder(_tokenId, _msgSender());\r\n    }\r\n}",
  "sourcePath": "C:\\workspace\\Personal\\truffle\\HeroPrime\\contracts\\HeroPrimeManager.sol",
  "compiler": {
    "name": "solc",
    "version": "0.8.0+commit.c7dfd78e.Emscripten.clang"
  },
  "schemaVersion": "3.4.3",
  "updatedAt": "2021-09-29T15:37:07.336Z",
  "networkType": "ethereum",
  "devdoc": {
    "kind": "dev",
    "methods": {
      "owner()": {
        "details": "Returns the address of the current owner."
      },
      "renounceOwnership()": {
        "details": "Leaves the contract without owner. It will not be possible to call `onlyOwner` functions anymore. Can only be called by the current owner. NOTE: Renouncing ownership will leave the contract without an owner, thereby removing any functionality that is only available to the owner."
      },
      "transferOwnership(address)": {
        "details": "Transfers ownership of the contract to a new account (`newOwner`). Can only be called by the current owner."
      }
    },
    "version": 1
  },
  "userdoc": {
    "kind": "user",
    "methods": {},
    "version": 1
  }
}