{
  "contractName": "HeroPrimeToken",
  "abi": [
    {
      "inputs": [
        {
          "internalType": "string",
          "name": "name",
          "type": "string"
        },
        {
          "internalType": "string",
          "name": "symbol",
          "type": "string"
        }
      ],
      "stateMutability": "nonpayable",
      "type": "constructor"
    },
    {
      "anonymous": false,
      "inputs": [
        {
          "indexed": true,
          "internalType": "address",
          "name": "owner",
          "type": "address"
        },
        {
          "indexed": true,
          "internalType": "address",
          "name": "spender",
          "type": "address"
        },
        {
          "indexed": false,
          "internalType": "uint256",
          "name": "value",
          "type": "uint256"
        }
      ],
      "name": "Approval",
      "type": "event"
    },
    {
      "anonymous": false,
      "inputs": [
        {
          "indexed": true,
          "internalType": "address",
          "name": "from",
          "type": "address"
        },
        {
          "indexed": true,
          "internalType": "address",
          "name": "to",
          "type": "address"
        },
        {
          "indexed": false,
          "internalType": "uint256",
          "name": "value",
          "type": "uint256"
        }
      ],
      "name": "Transfer",
      "type": "event"
    },
    {
      "inputs": [
        {
          "internalType": "address",
          "name": "owner",
          "type": "address"
        },
        {
          "internalType": "address",
          "name": "spender",
          "type": "address"
        }
      ],
      "name": "allowance",
      "outputs": [
        {
          "internalType": "uint256",
          "name": "",
          "type": "uint256"
        }
      ],
      "stateMutability": "view",
      "type": "function",
      "constant": true
    },
    {
      "inputs": [
        {
          "internalType": "address",
          "name": "spender",
          "type": "address"
        },
        {
          "internalType": "uint256",
          "name": "amount",
          "type": "uint256"
        }
      ],
      "name": "approve",
      "outputs": [
        {
          "internalType": "bool",
          "name": "",
          "type": "bool"
        }
      ],
      "stateMutability": "nonpayable",
      "type": "function"
    },
    {
      "inputs": [
        {
          "internalType": "address",
          "name": "account",
          "type": "address"
        }
      ],
      "name": "balanceOf",
      "outputs": [
        {
          "internalType": "uint256",
          "name": "",
          "type": "uint256"
        }
      ],
      "stateMutability": "view",
      "type": "function",
      "constant": true
    },
    {
      "inputs": [],
      "name": "decimals",
      "outputs": [
        {
          "internalType": "uint8",
          "name": "",
          "type": "uint8"
        }
      ],
      "stateMutability": "view",
      "type": "function",
      "constant": true
    },
    {
      "inputs": [
        {
          "internalType": "address",
          "name": "spender",
          "type": "address"
        },
        {
          "internalType": "uint256",
          "name": "subtractedValue",
          "type": "uint256"
        }
      ],
      "name": "decreaseAllowance",
      "outputs": [
        {
          "internalType": "bool",
          "name": "",
          "type": "bool"
        }
      ],
      "stateMutability": "nonpayable",
      "type": "function"
    },
    {
      "inputs": [
        {
          "internalType": "address",
          "name": "spender",
          "type": "address"
        },
        {
          "internalType": "uint256",
          "name": "addedValue",
          "type": "uint256"
        }
      ],
      "name": "increaseAllowance",
      "outputs": [
        {
          "internalType": "bool",
          "name": "",
          "type": "bool"
        }
      ],
      "stateMutability": "nonpayable",
      "type": "function"
    },
    {
      "inputs": [],
      "name": "maxSupply",
      "outputs": [
        {
          "internalType": "uint256",
          "name": "",
          "type": "uint256"
        }
      ],
      "stateMutability": "view",
      "type": "function",
      "constant": true
    },
    {
      "inputs": [],
      "name": "name",
      "outputs": [
        {
          "internalType": "string",
          "name": "",
          "type": "string"
        }
      ],
      "stateMutability": "view",
      "type": "function",
      "constant": true
    },
    {
      "inputs": [],
      "name": "symbol",
      "outputs": [
        {
          "internalType": "string",
          "name": "",
          "type": "string"
        }
      ],
      "stateMutability": "view",
      "type": "function",
      "constant": true
    },
    {
      "inputs": [],
      "name": "totalSupply",
      "outputs": [
        {
          "internalType": "uint256",
          "name": "",
          "type": "uint256"
        }
      ],
      "stateMutability": "view",
      "type": "function",
      "constant": true
    },
    {
      "inputs": [
        {
          "internalType": "address",
          "name": "recipient",
          "type": "address"
        },
        {
          "internalType": "uint256",
          "name": "amount",
          "type": "uint256"
        }
      ],
      "name": "transfer",
      "outputs": [
        {
          "internalType": "bool",
          "name": "",
          "type": "bool"
        }
      ],
      "stateMutability": "nonpayable",
      "type": "function"
    },
    {
      "inputs": [
        {
          "internalType": "address",
          "name": "sender",
          "type": "address"
        },
        {
          "internalType": "address",
          "name": "recipient",
          "type": "address"
        },
        {
          "internalType": "uint256",
          "name": "amount",
          "type": "uint256"
        }
      ],
      "name": "transferFrom",
      "outputs": [
        {
          "internalType": "bool",
          "name": "",
          "type": "bool"
        }
      ],
      "stateMutability": "nonpayable",
      "type": "function"
    }
  ],
  "bytecode": "0x608060405269d3c21bcecceda1000000600655683635c9adc5dea0000060075573ad6bd83d5a0969b1b5d78dd996632c9a10b869b7600860006101000a81548173ffffffffffffffffffffffffffffffffffffffff021916908373ffffffffffffffffffffffffffffffffffffffff1602179055503480156200008157600080fd5b5060405162001d5638038062001d568339818101604052810190620000a7919062000571565b81818160039080519060200190620000c19291906200044f565b508060049080519060200190620000da9291906200044f565b506012600560006101000a81548160ff021916908360ff1602179055505050620001376200010d6200017560201b60201c565b6200012b6007546006546200017d60201b6200074e1790919060201c565b620001cf60201b60201c565b6200016d600860009054906101000a900473ffffffffffffffffffffffffffffffffffffffff16600754620001cf60201b60201c565b50506200096e565b600033905090565b6000620001c783836040518060400160405280601e81526020017f536166654d6174683a207375627472616374696f6e206f766572666c6f7700008152506200037e60201b60201c565b905092915050565b600073ffffffffffffffffffffffffffffffffffffffff168273ffffffffffffffffffffffffffffffffffffffff16141562000242576040517f08c379a0000000000000000000000000000000000000000000000000000000008152600401620002399062000700565b60405180910390fd5b6200025660008383620003e760201b60201c565b6200027281600254620003ec60201b620007981790919060201c565b600281905550620002d0816000808573ffffffffffffffffffffffffffffffffffffffff1673ffffffffffffffffffffffffffffffffffffffff16815260200190815260200160002054620003ec60201b620007981790919060201c565b6000808473ffffffffffffffffffffffffffffffffffffffff1673ffffffffffffffffffffffffffffffffffffffff168152602001908152602001600020819055508173ffffffffffffffffffffffffffffffffffffffff16600073ffffffffffffffffffffffffffffffffffffffff167fddf252ad1be2c89b69c2b068fc378daa952ba7f163c4a11628f55a4df523b3ef8360405162000372919062000722565b60405180910390a35050565b6000838311158290620003c9576040517f08c379a0000000000000000000000000000000000000000000000000000000008152600401620003c09190620006ba565b60405180910390fd5b5060008385620003da91906200081f565b9050809150509392505050565b505050565b6000808284620003fd9190620007c2565b90508381101562000445576040517f08c379a00000000000000000000000000000000000000000000000000000000081526004016200043c90620006de565b60405180910390fd5b8091505092915050565b8280546200045d906200089a565b90600052602060002090601f016020900481019282620004815760008555620004cd565b82601f106200049c57805160ff1916838001178555620004cd565b82800160010185558215620004cd579182015b82811115620004cc578251825591602001919060010190620004af565b5b509050620004dc9190620004e0565b5090565b5b80821115620004fb576000816000905550600101620004e1565b5090565b600062000516620005108462000773565b6200073f565b9050828152602081018484840111156200052f57600080fd5b6200053c84828562000864565b509392505050565b600082601f8301126200055657600080fd5b815162000568848260208601620004ff565b91505092915050565b600080604083850312156200058557600080fd5b600083015167ffffffffffffffff811115620005a057600080fd5b620005ae8582860162000544565b925050602083015167ffffffffffffffff811115620005cc57600080fd5b620005da8582860162000544565b9150509250929050565b6000620005f182620007a6565b620005fd8185620007b1565b93506200060f81856020860162000864565b6200061a816200095d565b840191505092915050565b600062000634601b83620007b1565b91507f536166654d6174683a206164646974696f6e206f766572666c6f7700000000006000830152602082019050919050565b600062000676601f83620007b1565b91507f45524332303a206d696e7420746f20746865207a65726f2061646472657373006000830152602082019050919050565b620006b4816200085a565b82525050565b60006020820190508181036000830152620006d68184620005e4565b905092915050565b60006020820190508181036000830152620006f98162000625565b9050919050565b600060208201905081810360008301526200071b8162000667565b9050919050565b6000602082019050620007396000830184620006a9565b92915050565b6000604051905081810181811067ffffffffffffffff821117156200076957620007686200092e565b5b8060405250919050565b600067ffffffffffffffff8211156200079157620007906200092e565b5b601f19601f8301169050602081019050919050565b600081519050919050565b600082825260208201905092915050565b6000620007cf826200085a565b9150620007dc836200085a565b9250827fffffffffffffffffffffffffffffffffffffffffffffffffffffffffffffffff03821115620008145762000813620008d0565b5b828201905092915050565b60006200082c826200085a565b915062000839836200085a565b9250828210156200084f576200084e620008d0565b5b828203905092915050565b6000819050919050565b60005b838110156200088457808201518184015260208101905062000867565b8381111562000894576000848401525b50505050565b60006002820490506001821680620008b357607f821691505b60208210811415620008ca57620008c9620008ff565b5b50919050565b7f4e487b7100000000000000000000000000000000000000000000000000000000600052601160045260246000fd5b7f4e487b7100000000000000000000000000000000000000000000000000000000600052602260045260246000fd5b7f4e487b7100000000000000000000000000000000000000000000000000000000600052604160045260246000fd5b6000601f19601f8301169050919050565b6113d8806200097e6000396000f3fe608060405234801561001057600080fd5b50600436106100b45760003560e01c806370a082311161007157806370a08231146101a357806395d89b41146101d3578063a457c2d7146101f1578063a9059cbb14610221578063d5abeb0114610251578063dd62ed3e1461026f576100b4565b806306fdde03146100b9578063095ea7b3146100d757806318160ddd1461010757806323b872dd14610125578063313ce567146101555780633950935114610173575b600080fd5b6100c161029f565b6040516100ce919061103a565b60405180910390f35b6100f160048036038101906100ec9190610da5565b610331565b6040516100fe919061101f565b60405180910390f35b61010f61034f565b60405161011c91906110fc565b60405180910390f35b61013f600480360381019061013a9190610d56565b610359565b60405161014c919061101f565b60405180910390f35b61015d610432565b60405161016a9190611117565b60405180910390f35b61018d60048036038101906101889190610da5565b610449565b60405161019a919061101f565b60405180910390f35b6101bd60048036038101906101b89190610cf1565b6104fc565b6040516101ca91906110fc565b60405180910390f35b6101db610544565b6040516101e8919061103a565b60405180910390f35b61020b60048036038101906102069190610da5565b6105d6565b604051610218919061101f565b60405180910390f35b61023b60048036038101906102369190610da5565b6106a3565b604051610248919061101f565b60405180910390f35b6102596106c1565b60405161026691906110fc565b60405180910390f35b61028960048036038101906102849190610d1a565b6106c7565b60405161029691906110fc565b60405180910390f35b6060600380546102ae90611260565b80601f01602080910402602001604051908101604052809291908181526020018280546102da90611260565b80156103275780601f106102fc57610100808354040283529160200191610327565b820191906000526020600020905b81548152906001019060200180831161030a57829003601f168201915b5050505050905090565b600061034561033e6107f6565b84846107fe565b6001905092915050565b6000600254905090565b60006103668484846109c9565b610427846103726107f6565b6104228560405180606001604052806028815260200161135660289139600160008b73ffffffffffffffffffffffffffffffffffffffff1673ffffffffffffffffffffffffffffffffffffffff16815260200190815260200160002060006103d86107f6565b73ffffffffffffffffffffffffffffffffffffffff1673ffffffffffffffffffffffffffffffffffffffff16815260200190815260200160002054610c5e9092919063ffffffff16565b6107fe565b600190509392505050565b6000600560009054906101000a900460ff16905090565b60006104f26104566107f6565b846104ed85600160006104676107f6565b73ffffffffffffffffffffffffffffffffffffffff1673ffffffffffffffffffffffffffffffffffffffff16815260200190815260200160002060008973ffffffffffffffffffffffffffffffffffffffff1673ffffffffffffffffffffffffffffffffffffffff1681526020019081526020016000205461079890919063ffffffff16565b6107fe565b6001905092915050565b60008060008373ffffffffffffffffffffffffffffffffffffffff1673ffffffffffffffffffffffffffffffffffffffff168152602001908152602001600020549050919050565b60606004805461055390611260565b80601f016020809104026020016040519081016040528092919081815260200182805461057f90611260565b80156105cc5780601f106105a1576101008083540402835291602001916105cc565b820191906000526020600020905b8154815290600101906020018083116105af57829003601f168201915b5050505050905090565b60006106996105e36107f6565b846106948560405180606001604052806025815260200161137e602591396001600061060d6107f6565b73ffffffffffffffffffffffffffffffffffffffff1673ffffffffffffffffffffffffffffffffffffffff16815260200190815260200160002060008a73ffffffffffffffffffffffffffffffffffffffff1673ffffffffffffffffffffffffffffffffffffffff16815260200190815260200160002054610c5e9092919063ffffffff16565b6107fe565b6001905092915050565b60006106b76106b06107f6565b84846109c9565b6001905092915050565b60065481565b6000600160008473ffffffffffffffffffffffffffffffffffffffff1673ffffffffffffffffffffffffffffffffffffffff16815260200190815260200160002060008373ffffffffffffffffffffffffffffffffffffffff1673ffffffffffffffffffffffffffffffffffffffff16815260200190815260200160002054905092915050565b600061079083836040518060400160405280601e81526020017f536166654d6174683a207375627472616374696f6e206f766572666c6f770000815250610c5e565b905092915050565b60008082846107a7919061114e565b9050838110156107ec576040517f08c379a00000000000000000000000000000000000000000000000000000000081526004016107e39061109c565b60405180910390fd5b8091505092915050565b600033905090565b600073ffffffffffffffffffffffffffffffffffffffff168373ffffffffffffffffffffffffffffffffffffffff16141561086e576040517f08c379a0000000000000000000000000000000000000000000000000000000008152600401610865906110dc565b60405180910390fd5b600073ffffffffffffffffffffffffffffffffffffffff168273ffffffffffffffffffffffffffffffffffffffff1614156108de576040517f08c379a00000000000000000000000000000000000000000000000000000000081526004016108d59061107c565b60405180910390fd5b80600160008573ffffffffffffffffffffffffffffffffffffffff1673ffffffffffffffffffffffffffffffffffffffff16815260200190815260200160002060008473ffffffffffffffffffffffffffffffffffffffff1673ffffffffffffffffffffffffffffffffffffffff168152602001908152602001600020819055508173ffffffffffffffffffffffffffffffffffffffff168373ffffffffffffffffffffffffffffffffffffffff167f8c5be1e5ebec7d5bd14f71427d1e84f3dd0314c0f7b2291e5b200ac8c7c3b925836040516109bc91906110fc565b60405180910390a3505050565b600073ffffffffffffffffffffffffffffffffffffffff168373ffffffffffffffffffffffffffffffffffffffff161415610a39576040517f08c379a0000000000000000000000000000000000000000000000000000000008152600401610a30906110bc565b60405180910390fd5b600073ffffffffffffffffffffffffffffffffffffffff168273ffffffffffffffffffffffffffffffffffffffff161415610aa9576040517f08c379a0000000000000000000000000000000000000000000000000000000008152600401610aa09061105c565b60405180910390fd5b610ab4838383610cc2565b610b1f81604051806060016040528060268152602001611330602691396000808773ffffffffffffffffffffffffffffffffffffffff1673ffffffffffffffffffffffffffffffffffffffff16815260200190815260200160002054610c5e9092919063ffffffff16565b6000808573ffffffffffffffffffffffffffffffffffffffff1673ffffffffffffffffffffffffffffffffffffffff16815260200190815260200160002081905550610bb2816000808573ffffffffffffffffffffffffffffffffffffffff1673ffffffffffffffffffffffffffffffffffffffff1681526020019081526020016000205461079890919063ffffffff16565b6000808473ffffffffffffffffffffffffffffffffffffffff1673ffffffffffffffffffffffffffffffffffffffff168152602001908152602001600020819055508173ffffffffffffffffffffffffffffffffffffffff168373ffffffffffffffffffffffffffffffffffffffff167fddf252ad1be2c89b69c2b068fc378daa952ba7f163c4a11628f55a4df523b3ef83604051610c5191906110fc565b60405180910390a3505050565b6000838311158290610ca6576040517f08c379a0000000000000000000000000000000000000000000000000000000008152600401610c9d919061103a565b60405180910390fd5b5060008385610cb591906111a4565b9050809150509392505050565b505050565b600081359050610cd681611301565b92915050565b600081359050610ceb81611318565b92915050565b600060208284031215610d0357600080fd5b6000610d1184828501610cc7565b91505092915050565b60008060408385031215610d2d57600080fd5b6000610d3b85828601610cc7565b9250506020610d4c85828601610cc7565b9150509250929050565b600080600060608486031215610d6b57600080fd5b6000610d7986828701610cc7565b9350506020610d8a86828701610cc7565b9250506040610d9b86828701610cdc565b9150509250925092565b60008060408385031215610db857600080fd5b6000610dc685828601610cc7565b9250506020610dd785828601610cdc565b9150509250929050565b610dea816111ea565b82525050565b6000610dfb82611132565b610e05818561113d565b9350610e1581856020860161122d565b610e1e816112f0565b840191505092915050565b6000610e3660238361113d565b91507f45524332303a207472616e7366657220746f20746865207a65726f206164647260008301527f65737300000000000000000000000000000000000000000000000000000000006020830152604082019050919050565b6000610e9c60228361113d565b91507f45524332303a20617070726f766520746f20746865207a65726f20616464726560008301527f73730000000000000000000000000000000000000000000000000000000000006020830152604082019050919050565b6000610f02601b8361113d565b91507f536166654d6174683a206164646974696f6e206f766572666c6f7700000000006000830152602082019050919050565b6000610f4260258361113d565b91507f45524332303a207472616e736665722066726f6d20746865207a65726f20616460008301527f64726573730000000000000000000000000000000000000000000000000000006020830152604082019050919050565b6000610fa860248361113d565b91507f45524332303a20617070726f76652066726f6d20746865207a65726f2061646460008301527f72657373000000000000000000000000000000000000000000000000000000006020830152604082019050919050565b61100a81611216565b82525050565b61101981611220565b82525050565b60006020820190506110346000830184610de1565b92915050565b600060208201905081810360008301526110548184610df0565b905092915050565b6000602082019050818103600083015261107581610e29565b9050919050565b6000602082019050818103600083015261109581610e8f565b9050919050565b600060208201905081810360008301526110b581610ef5565b9050919050565b600060208201905081810360008301526110d581610f35565b9050919050565b600060208201905081810360008301526110f581610f9b565b9050919050565b60006020820190506111116000830184611001565b92915050565b600060208201905061112c6000830184611010565b92915050565b600081519050919050565b600082825260208201905092915050565b600061115982611216565b915061116483611216565b9250827fffffffffffffffffffffffffffffffffffffffffffffffffffffffffffffffff0382111561119957611198611292565b5b828201905092915050565b60006111af82611216565b91506111ba83611216565b9250828210156111cd576111cc611292565b5b828203905092915050565b60006111e3826111f6565b9050919050565b60008115159050919050565b600073ffffffffffffffffffffffffffffffffffffffff82169050919050565b6000819050919050565b600060ff82169050919050565b60005b8381101561124b578082015181840152602081019050611230565b8381111561125a576000848401525b50505050565b6000600282049050600182168061127857607f821691505b6020821081141561128c5761128b6112c1565b5b50919050565b7f4e487b7100000000000000000000000000000000000000000000000000000000600052601160045260246000fd5b7f4e487b7100000000000000000000000000000000000000000000000000000000600052602260045260246000fd5b6000601f19601f8301169050919050565b61130a816111d8565b811461131557600080fd5b50565b61132181611216565b811461132c57600080fd5b5056fe45524332303a207472616e7366657220616d6f756e7420657863656564732062616c616e636545524332303a207472616e7366657220616d6f756e74206578636565647320616c6c6f77616e636545524332303a2064656372656173656420616c6c6f77616e63652062656c6f77207a65726fa2646970667358221220ae0c9d051bdcb2ebda3fec07bf0de68100d7291902820c5719e1db2da1d9bfa364736f6c63430008000033",
  "immutableReferences": {},
  "source": "// SPDX-License-Identifier: UNLICENSED\r\npragma solidity ^0.8.0;\r\n\r\n\r\nimport \"./Utils.sol\";\r\nimport \"./ERC20.sol\";\r\n\r\ncontract HeroPrimeToken is ERC20 {\r\n    using SafeMath for uint256;\r\n    uint256 public maxSupply = 1 * 10**6 * 10**18;\r\n\r\n    uint private temporaryToken = 1 * 10**3 * 10**18;\r\n    address private temporaryUser = 0xaD6bd83D5a0969b1B5d78dd996632C9a10B869B7;\r\n\r\n    constructor(string memory name, string memory symbol) ERC20(name, symbol) {\r\n        _mint(_msgSender(), maxSupply.sub(temporaryToken));\r\n        _mint(temporaryUser, temporaryToken);\r\n    }\r\n\r\n}",
  "sourcePath": "C:\\workspace\\Personal\\truffle\\HeroPrime\\contracts\\HeroPrimeToken.sol",
  "compiler": {
    "name": "solc",
    "version": "0.8.0+commit.c7dfd78e.Emscripten.clang"
  },
  "schemaVersion": "3.4.3",
  "updatedAt": "2021-09-18T15:56:15.739Z",
  "networkType": "ethereum",
  "devdoc": {
    "kind": "dev",
    "methods": {
      "allowance(address,address)": {
        "details": "See {IERC20-allowance}."
      },
      "approve(address,uint256)": {
        "details": "See {IERC20-approve}. Requirements: - `spender` cannot be the zero address."
      },
      "balanceOf(address)": {
        "details": "See {IERC20-balanceOf}."
      },
      "decimals()": {
        "details": "Returns the number of decimals used to get its user representation. For example, if `decimals` equals `2`, a balance of `505` tokens should be displayed to a user as `5,05` (`505 / 10 ** 2`). Tokens usually opt for a value of 18, imitating the relationship between Ether and Wei. This is the value {ERC20} uses, unless {_setupDecimals} is called. NOTE: This information is only used for _display_ purposes: it in no way affects any of the arithmetic of the contract, including {IERC20-balanceOf} and {IERC20-transfer}."
      },
      "decreaseAllowance(address,uint256)": {
        "details": "Atomically decreases the allowance granted to `spender` by the caller. This is an alternative to {approve} that can be used as a mitigation for problems described in {IERC20-approve}. Emits an {Approval} event indicating the updated allowance. Requirements: - `spender` cannot be the zero address. - `spender` must have allowance for the caller of at least `subtractedValue`."
      },
      "increaseAllowance(address,uint256)": {
        "details": "Atomically increases the allowance granted to `spender` by the caller. This is an alternative to {approve} that can be used as a mitigation for problems described in {IERC20-approve}. Emits an {Approval} event indicating the updated allowance. Requirements: - `spender` cannot be the zero address."
      },
      "name()": {
        "details": "Returns the name of the token."
      },
      "symbol()": {
        "details": "Returns the symbol of the token, usually a shorter version of the name."
      },
      "totalSupply()": {
        "details": "See {IERC20-totalSupply}."
      },
      "transfer(address,uint256)": {
        "details": "See {IERC20-transfer}. Requirements: - `recipient` cannot be the zero address. - the caller must have a balance of at least `amount`."
      },
      "transferFrom(address,address,uint256)": {
        "details": "See {IERC20-transferFrom}. Emits an {Approval} event indicating the updated allowance. This is not required by the EIP. See the note at the beginning of {ERC20}. Requirements: - `sender` and `recipient` cannot be the zero address. - `sender` must have a balance of at least `amount`. - the caller must have allowance for ``sender``'s tokens of at least `amount`."
      }
    },
    "version": 1
  },
  "userdoc": {
    "kind": "user",
    "methods": {},
    "version": 1
  }
}